{
  "_format": "hh-sol-artifact-1",
  "contractName": "POKSOMinterV2",
  "sourceName": "contracts/POKSOMinterV2.sol",
  "abi": [
    {
      "inputs": [
        {
          "internalType": "address",
          "name": "lsp8Address",
          "type": "address"
        }
      ],
      "stateMutability": "nonpayable",
      "type": "constructor"
    },
    {
      "anonymous": false,
      "inputs": [
        {
          "indexed": true,
          "internalType": "address",
          "name": "minter",
          "type": "address"
        },
        {
          "indexed": false,
          "internalType": "uint256",
          "name": "amount",
          "type": "uint256"
        },
        {
          "indexed": false,
          "internalType": "uint256",
          "name": "totalPrice",
          "type": "uint256"
        }
      ],
      "name": "BatchMint",
      "type": "event"
    },
    {
      "anonymous": false,
      "inputs": [
        {
          "indexed": true,
          "internalType": "address",
          "name": "minter",
          "type": "address"
        },
        {
          "indexed": true,
          "internalType": "bytes32",
          "name": "tokenId",
          "type": "bytes32"
        },
        {
          "indexed": false,
          "internalType": "uint256",
          "name": "price",
          "type": "uint256"
        }
      ],
      "name": "Mint",
      "type": "event"
    },
    {
      "anonymous": false,
      "inputs": [
        {
          "indexed": true,
          "internalType": "address",
          "name": "owner",
          "type": "address"
        },
        {
          "indexed": false,
          "internalType": "uint256",
          "name": "amount",
          "type": "uint256"
        }
      ],
      "name": "Withdrawal",
      "type": "event"
    },
    {
      "inputs": [],
      "name": "MAX_PER_WALLET",
      "outputs": [
        {
          "internalType": "uint256",
          "name": "",
          "type": "uint256"
        }
      ],
      "stateMutability": "view",
      "type": "function"
    },
    {
      "inputs": [],
      "name": "MINT_PRICE",
      "outputs": [
        {
          "internalType": "uint256",
          "name": "",
          "type": "uint256"
        }
      ],
      "stateMutability": "view",
      "type": "function"
    },
    {
      "inputs": [
        {
          "internalType": "uint256",
          "name": "amount",
          "type": "uint256"
        }
      ],
      "name": "batchMint",
      "outputs": [],
      "stateMutability": "payable",
      "type": "function"
    },
    {
      "inputs": [
        {
          "internalType": "address",
          "name": "user",
          "type": "address"
        }
      ],
      "name": "getMintInfo",
      "outputs": [
        {
          "internalType": "uint256",
          "name": "minted",
          "type": "uint256"
        },
        {
          "internalType": "uint256",
          "name": "remaining",
          "type": "uint256"
        },
        {
          "internalType": "uint256",
          "name": "currentId",
          "type": "uint256"
        }
      ],
      "stateMutability": "view",
      "type": "function"
    },
    {
      "inputs": [],
      "name": "lsp8",
      "outputs": [
        {
          "internalType": "contract IPOKSOLSP8Pure",
          "name": "",
          "type": "address"
        }
      ],
      "stateMutability": "view",
      "type": "function"
    },
    {
      "inputs": [],
      "name": "mint",
      "outputs": [],
      "stateMutability": "payable",
      "type": "function"
    },
    {
      "inputs": [
        {
          "internalType": "address",
          "name": "",
          "type": "address"
        }
      ],
      "name": "mintedByWallet",
      "outputs": [
        {
          "internalType": "uint256",
          "name": "",
          "type": "uint256"
        }
      ],
      "stateMutability": "view",
      "type": "function"
    },
    {
      "inputs": [],
      "name": "owner",
      "outputs": [
        {
          "internalType": "address",
          "name": "",
          "type": "address"
        }
      ],
      "stateMutability": "view",
      "type": "function"
    },
    {
      "inputs": [],
      "name": "withdraw",
      "outputs": [],
      "stateMutability": "nonpayable",
      "type": "function"
    },
    {
      "stateMutability": "payable",
      "type": "receive"
    }
  ],
  "bytecode": "0x608060405234801561001057600080fd5b50604051610b94380380610b9483398101604081905261002f9161005d565b600080546001600160a01b039092166001600160a01b0319928316179055600280549091163317905561008d565b60006020828403121561006f57600080fd5b81516001600160a01b038116811461008657600080fd5b9392505050565b610af88061009c6000396000f3fe60806040526004361061008a5760003560e01c80638467be0d116100595780638467be0d146101665780638da5cb5b14610179578063b7d08c5c146101b1578063c002d23d146101ec578063f69c00e41461020857600080fd5b80630d758111146100f25780630f2cdd6c146101325780631249c58b146101475780633ccfd60b1461015157600080fd5b366100ed5760405162461bcd60e51b815260206004820152602860248201527f504f4b534f4d696e74657256323a20757365206d696e742829206f722062617460448201526763684d696e74282960c01b60648201526084015b60405180910390fd5b600080fd5b3480156100fe57600080fd5b5061011f61010d3660046109ab565b60016020526000908152604090205481565b6040519081526020015b60405180910390f35b34801561013e57600080fd5b5061011f600a81565b61014f610228565b005b34801561015d57600080fd5b5061014f610497565b61014f6101743660046109db565b610629565b34801561018557600080fd5b50600254610199906001600160a01b031681565b6040516001600160a01b039091168152602001610129565b3480156101bd57600080fd5b506101d16101cc3660046109ab565b610907565b60408051938452602084019290925290820152606001610129565b3480156101f857600080fd5b5061011f674563918244f4000081565b34801561021457600080fd5b50600054610199906001600160a01b031681565b674563918244f400003410156102505760405162461bcd60e51b81526004016100e4906109f4565b33600090815260016020526040902054600a116102af5760405162461bcd60e51b815260206004820152601d60248201527f504f4b534f4d696e74657256323a206d6178207065722077616c6c657400000060448201526064016100e4565b60005460408051629a9b7b60e01b815290516101f4926001600160a01b031691629a9b7b9160048083019260209291908290030181865afa1580156102f8573d6000803e3d6000fd5b505050506040513d601f19601f8201168201806040525081019061031c9190610a37565b106103735760405162461bcd60e51b815260206004820152602160248201527f504f4b534f4d696e74657256323a206d617820737570706c79207265616368656044820152601960fa1b60648201526084016100e4565b6000805460405163755edd1760e01b81523360048201526001600160a01b039091169063755edd17906024016020604051808303816000875af11580156103be573d6000803e3d6000fd5b505050506040513d601f19601f820116820180604052508101906103e29190610a37565b33600090815260016020526040812080549293509061040083610a66565b9190505550674563918244f4000034111561045557336108fc61042b674563918244f4000034610a7f565b6040518115909202916000818181858888f19350505050158015610453573d6000803e3d6000fd5b505b604051674563918244f400008152819033907f103a2d32aec953695f3b9ec5ed6c1c6cb822debe92cf1fcf0832cb2c262c7eec9060200160405180910390a350565b6002546001600160a01b031633146104f15760405162461bcd60e51b815260206004820152601860248201527f504f4b534f4d696e74657256323a206e6f74206f776e6572000000000000000060448201526064016100e4565b478061053f5760405162461bcd60e51b815260206004820152601760248201527f504f4b534f4d696e74657256323a206e6f2066756e647300000000000000000060448201526064016100e4565b6002546040516000916001600160a01b03169083908381818185875af1925050503d806000811461058c576040519150601f19603f3d011682016040523d82523d6000602084013e610591565b606091505b50509050806105e25760405162461bcd60e51b815260206004820152601e60248201527f504f4b534f4d696e74657256323a207472616e73666572206661696c6564000060448201526064016100e4565b6002546040518381526001600160a01b03909116907f7fcf532c15f0a6db0bd6d0e038bea71d30d808c7d98cb3bf7268a95bf5081b65906020015b60405180910390a25050565b60008111801561063a5750600a8111155b6106865760405162461bcd60e51b815260206004820152601d60248201527f504f4b534f4d696e74657256323a20696e76616c696420616d6f756e7400000060448201526064016100e4565b33600090815260016020526040902054600a906106a4908390610a98565b11156107005760405162461bcd60e51b815260206004820152602560248201527f504f4b534f4d696e74657256323a2065786365656473206d6178207065722077604482015264185b1b195d60da1b60648201526084016100e4565b6101f48160008054906101000a90046001600160a01b03166001600160a01b0316629a9b7b6040518163ffffffff1660e01b8152600401602060405180830381865afa158015610754573d6000803e3d6000fd5b505050506040513d601f19601f820116820180604052508101906107789190610a37565b6107829190610a98565b11156107d05760405162461bcd60e51b815260206004820181905260248201527f504f4b534f4d696e74657256323a206e6f7420656e6f75676820737570706c7960448201526064016100e4565b60006107e482674563918244f40000610aab565b9050803410156108065760405162461bcd60e51b81526004016100e4906109f4565b600054604051630e7e510760e41b8152336004820152602481018490526001600160a01b039091169063e7e5107090604401600060405180830381600087803b15801561085257600080fd5b505af1158015610866573d6000803e3d6000fd5b5050336000908152600160205260408120805486945090925061088a908490610a98565b9091555050348110156108cf57336108fc6108a58334610a7f565b6040518115909202916000818181858888f193505050501580156108cd573d6000803e3d6000fd5b505b604080518381526020810183905233917f63232c37f2c1fdcb4fc657df1cef6cabc7181c5b604530242590ffe5fa91ab74910161061d565b6001600160a01b038116600090815260016020526040812054908061092d83600a610a7f565b915060008054906101000a90046001600160a01b03166001600160a01b0316629a9b7b6040518163ffffffff1660e01b8152600401602060405180830381865afa15801561097f573d6000803e3d6000fd5b505050506040513d601f19601f820116820180604052508101906109a39190610a37565b929491935050565b6000602082840312156109bd57600080fd5b81356001600160a01b03811681146109d457600080fd5b9392505050565b6000602082840312156109ed57600080fd5b5035919050565b60208082526023908201527f504f4b534f4d696e74657256323a20696e73756666696369656e74207061796d604082015262195b9d60ea1b606082015260800190565b600060208284031215610a4957600080fd5b5051919050565b634e487b7160e01b600052601160045260246000fd5b600060018201610a7857610a78610a50565b5060010190565b81810381811115610a9257610a92610a50565b92915050565b80820180821115610a9257610a92610a50565b8082028115828204841417610a9257610a92610a5056fea264697066735822122053f589ea044a35eb683bac9bbc5dc385d5a1c32340e55d45a55b00b6552bda1c64736f6c63430008130033",
  "linkReferences": {},
  "deployedLinkReferences": {}
}