{
  "_format": "hh-sol-artifact-1",
  "contractName": "POKSOMinterV2",
  "sourceName": "contracts/POKSOMinterV2.sol",
  "abi": [
    {
      "inputs": [
        {
          "internalType": "address",
          "name": "lsp8Address",
          "type": "address"
        }
      ],
      "stateMutability": "nonpayable",
      "type": "constructor"
    },
    {
      "anonymous": false,
      "inputs": [
        {
          "indexed": true,
          "internalType": "address",
          "name": "minter",
          "type": "address"
        },
        {
          "indexed": false,
          "internalType": "uint256",
          "name": "amount",
          "type": "uint256"
        },
        {
          "indexed": false,
          "internalType": "uint256",
          "name": "totalPrice",
          "type": "uint256"
        }
      ],
      "name": "BatchMint",
      "type": "event"
    },
    {
      "anonymous": false,
      "inputs": [
        {
          "indexed": true,
          "internalType": "address",
          "name": "minter",
          "type": "address"
        },
        {
          "indexed": true,
          "internalType": "bytes32",
          "name": "tokenId",
          "type": "bytes32"
        },
        {
          "indexed": false,
          "internalType": "uint256",
          "name": "price",
          "type": "uint256"
        }
      ],
      "name": "Mint",
      "type": "event"
    },
    {
      "anonymous": false,
      "inputs": [
        {
          "indexed": false,
          "internalType": "uint256",
          "name": "oldPrice",
          "type": "uint256"
        },
        {
          "indexed": false,
          "internalType": "uint256",
          "name": "newPrice",
          "type": "uint256"
        }
      ],
      "name": "MintPriceChanged",
      "type": "event"
    },
    {
      "anonymous": false,
      "inputs": [
        {
          "indexed": true,
          "internalType": "address",
          "name": "owner",
          "type": "address"
        },
        {
          "indexed": false,
          "internalType": "uint256",
          "name": "amount",
          "type": "uint256"
        }
      ],
      "name": "Withdrawal",
      "type": "event"
    },
    {
      "inputs": [],
      "name": "MAX_PER_WALLET",
      "outputs": [
        {
          "internalType": "uint256",
          "name": "",
          "type": "uint256"
        }
      ],
      "stateMutability": "view",
      "type": "function"
    },
    {
      "inputs": [],
      "name": "MINT_PRICE",
      "outputs": [
        {
          "internalType": "uint256",
          "name": "",
          "type": "uint256"
        }
      ],
      "stateMutability": "view",
      "type": "function"
    },
    {
      "inputs": [
        {
          "internalType": "address",
          "name": "creatorAddress",
          "type": "address"
        }
      ],
      "name": "addCreator",
      "outputs": [],
      "stateMutability": "nonpayable",
      "type": "function"
    },
    {
      "inputs": [
        {
          "internalType": "uint256",
          "name": "amount",
          "type": "uint256"
        }
      ],
      "name": "batchMint",
      "outputs": [],
      "stateMutability": "payable",
      "type": "function"
    },
    {
      "inputs": [
        {
          "internalType": "address",
          "name": "user",
          "type": "address"
        }
      ],
      "name": "getMintInfo",
      "outputs": [
        {
          "internalType": "uint256",
          "name": "minted",
          "type": "uint256"
        },
        {
          "internalType": "uint256",
          "name": "remaining",
          "type": "uint256"
        },
        {
          "internalType": "uint256",
          "name": "currentId",
          "type": "uint256"
        }
      ],
      "stateMutability": "view",
      "type": "function"
    },
    {
      "inputs": [],
      "name": "getTokenMetadataBaseURI",
      "outputs": [
        {
          "internalType": "bytes",
          "name": "",
          "type": "bytes"
        }
      ],
      "stateMutability": "view",
      "type": "function"
    },
    {
      "inputs": [],
      "name": "lsp8",
      "outputs": [
        {
          "internalType": "contract IPOKSOLSP8Pure",
          "name": "",
          "type": "address"
        }
      ],
      "stateMutability": "view",
      "type": "function"
    },
    {
      "inputs": [],
      "name": "mint",
      "outputs": [],
      "stateMutability": "payable",
      "type": "function"
    },
    {
      "inputs": [
        {
          "internalType": "address",
          "name": "",
          "type": "address"
        }
      ],
      "name": "mintedByWallet",
      "outputs": [
        {
          "internalType": "uint256",
          "name": "",
          "type": "uint256"
        }
      ],
      "stateMutability": "view",
      "type": "function"
    },
    {
      "inputs": [],
      "name": "owner",
      "outputs": [
        {
          "internalType": "address",
          "name": "",
          "type": "address"
        }
      ],
      "stateMutability": "view",
      "type": "function"
    },
    {
      "inputs": [
        {
          "internalType": "bytes",
          "name": "metadataURI",
          "type": "bytes"
        }
      ],
      "name": "setLSP4Metadata",
      "outputs": [],
      "stateMutability": "nonpayable",
      "type": "function"
    },
    {
      "inputs": [
        {
          "internalType": "uint256",
          "name": "newPrice",
          "type": "uint256"
        }
      ],
      "name": "setMintPrice",
      "outputs": [],
      "stateMutability": "nonpayable",
      "type": "function"
    },
    {
      "inputs": [
        {
          "internalType": "bytes",
          "name": "baseURI",
          "type": "bytes"
        }
      ],
      "name": "setTokenMetadataBaseURI",
      "outputs": [],
      "stateMutability": "nonpayable",
      "type": "function"
    },
    {
      "inputs": [],
      "name": "withdraw",
      "outputs": [],
      "stateMutability": "nonpayable",
      "type": "function"
    },
    {
      "stateMutability": "payable",
      "type": "receive"
    }
  ],
  "bytecode": "0x6080604052674563918244f4000060015534801561001c57600080fd5b5060405161113938038061113983398101604081905261003b91610069565b600280546001600160a01b039092166001600160a01b03199283161790556004805490911633179055610099565b60006020828403121561007b57600080fd5b81516001600160a01b038116811461009257600080fd5b9392505050565b611091806100a86000396000f3fe6080604052600436106100e15760003560e01c80638467be0d1161007f578063c002d23d11610059578063c002d23d146102a9578063d7529a99146102bf578063f4a0a528146102df578063f69c00e4146102ff57600080fd5b80638467be0d146102235780638da5cb5b14610236578063b7d08c5c1461026e57600080fd5b80630f2cdd6c116100bb5780630f2cdd6c146101d15780631249c58b146101e65780633b9dce05146101ee5780633ccfd60b1461020e57600080fd5b806304b9059114610149578063055f5b64146101745780630d7581111461019657600080fd5b366101445760405162461bcd60e51b815260206004820152602860248201527f504f4b534f4d696e74657256323a20757365206d696e742829206f722062617460448201526763684d696e74282960c01b60648201526084015b60405180910390fd5b600080fd5b34801561015557600080fd5b5061015e61031f565b60405161016b9190610d74565b60405180910390f35b34801561018057600080fd5b5061019461018f366004610e16565b610396565b005b3480156101a257600080fd5b506101c36101b1366004610e96565b60036020526000908152604090205481565b60405190815260200161016b565b3480156101dd57600080fd5b506101c3600a81565b610194610425565b3480156101fa57600080fd5b50610194610209366004610e96565b6106e7565b34801561021a57600080fd5b50610194610743565b610194610231366004610ec6565b6108a4565b34801561024257600080fd5b50600454610256906001600160a01b031681565b6040516001600160a01b03909116815260200161016b565b34801561027a57600080fd5b5061028e610289366004610e96565b610be1565b6040805193845260208401929092529082015260600161016b565b3480156102b557600080fd5b506101c360015481565b3480156102cb57600080fd5b506101946102da366004610e16565b610c87565b3480156102eb57600080fd5b506101946102fa366004610ec6565b610ce1565b34801561030b57600080fd5b50600254610256906001600160a01b031681565b600254604080516304b9059160e01b815290516060926001600160a01b0316916304b905919160048083019260009291908290030181865afa158015610369573d6000803e3d6000fd5b505050506040513d6000823e601f3d908101601f191682016040526103919190810190610edf565b905090565b6004546001600160a01b031633146103c05760405162461bcd60e51b815260040161013b90610f56565b600254604051630157d6d960e21b81526001600160a01b039091169063055f5b64906103f0908490600401610d74565b600060405180830381600087803b15801561040a57600080fd5b505af115801561041e573d6000803e3d6000fd5b5050505050565b6000546001036104775760405162461bcd60e51b815260206004820152601f60248201527f5265656e7472616e637947756172643a207265656e7472616e742063616c6c00604482015260640161013b565b600160008190555434101561049e5760405162461bcd60e51b815260040161013b90610f8d565b33600090815260036020526040902054600a116104fd5760405162461bcd60e51b815260206004820152601d60248201527f504f4b534f4d696e74657256323a206d6178207065722077616c6c6574000000604482015260640161013b565b60025460408051629a9b7b60e01b815290516101f4926001600160a01b031691629a9b7b9160048083019260209291908290030181865afa158015610546573d6000803e3d6000fd5b505050506040513d601f19601f8201168201806040525081019061056a9190610fd0565b106105c15760405162461bcd60e51b815260206004820152602160248201527f504f4b534f4d696e74657256323a206d617820737570706c79207265616368656044820152601960fa1b606482015260840161013b565b60025460405163755edd1760e01b81523360048201526000916001600160a01b03169063755edd17906024016020604051808303816000875af115801561060c573d6000803e3d6000fd5b505050506040513d601f19601f820116820180604052508101906106309190610fd0565b33600090815260036020526040812080549293509061064e83610fff565b919050555060015434111561069a5760015433906108fc906106709034611018565b6040518115909202916000818181858888f19350505050158015610698573d6000803e3d6000fd5b505b80336001600160a01b03167f103a2d32aec953695f3b9ec5ed6c1c6cb822debe92cf1fcf0832cb2c262c7eec6001546040516106d891815260200190565b60405180910390a35060008055565b6004546001600160a01b031633146107115760405162461bcd60e51b815260040161013b90610f56565b600254604051633b9dce0560e01b81526001600160a01b03838116600483015290911690633b9dce05906024016103f0565b6004546001600160a01b0316331461076d5760405162461bcd60e51b815260040161013b90610f56565b47806107bb5760405162461bcd60e51b815260206004820152601760248201527f504f4b534f4d696e74657256323a206e6f2066756e6473000000000000000000604482015260640161013b565b6004546040516000916001600160a01b03169083908381818185875af1925050503d8060008114610808576040519150601f19603f3d011682016040523d82523d6000602084013e61080d565b606091505b505090508061085e5760405162461bcd60e51b815260206004820152601e60248201527f504f4b534f4d696e74657256323a207472616e73666572206661696c65640000604482015260640161013b565b6004546040518381526001600160a01b03909116907f7fcf532c15f0a6db0bd6d0e038bea71d30d808c7d98cb3bf7268a95bf5081b659060200160405180910390a25050565b6000546001036108f65760405162461bcd60e51b815260206004820152601f60248201527f5265656e7472616e637947756172643a207265656e7472616e742063616c6c00604482015260640161013b565b6001600055801580159061090b5750600a8111155b6109575760405162461bcd60e51b815260206004820152601d60248201527f504f4b534f4d696e74657256323a20696e76616c696420616d6f756e74000000604482015260640161013b565b33600090815260036020526040902054600a90610975908390611031565b11156109d15760405162461bcd60e51b815260206004820152602560248201527f504f4b534f4d696e74657256323a2065786365656473206d6178207065722077604482015264185b1b195d60da1b606482015260840161013b565b6101f481600260009054906101000a90046001600160a01b03166001600160a01b0316629a9b7b6040518163ffffffff1660e01b8152600401602060405180830381865afa158015610a27573d6000803e3d6000fd5b505050506040513d601f19601f82011682018060405250810190610a4b9190610fd0565b610a559190611031565b1115610aa35760405162461bcd60e51b815260206004820181905260248201527f504f4b534f4d696e74657256323a206e6f7420656e6f75676820737570706c79604482015260640161013b565b600081600154610ab39190611044565b905080341015610ad55760405162461bcd60e51b815260040161013b90610f8d565b600254604051630e7e510760e41b8152336004820152602481018490526001600160a01b039091169063e7e5107090604401600060405180830381600087803b158015610b2157600080fd5b505af1158015610b35573d6000803e3d6000fd5b50503360009081526003602052604081208054869450909250610b59908490611031565b909155505034811015610b9e57336108fc610b748334611018565b6040518115909202916000818181858888f19350505050158015610b9c573d6000803e3d6000fd5b505b604080518381526020810183905233917f63232c37f2c1fdcb4fc657df1cef6cabc7181c5b604530242590ffe5fa91ab74910160405180910390a2505060008055565b6001600160a01b0381166000908152600360205260408120549080610c0783600a611018565b9150600260009054906101000a90046001600160a01b03166001600160a01b0316629a9b7b6040518163ffffffff1660e01b8152600401602060405180830381865afa158015610c5b573d6000803e3d6000fd5b505050506040513d601f19601f82011682018060405250810190610c7f9190610fd0565b929491935050565b6004546001600160a01b03163314610cb15760405162461bcd60e51b815260040161013b90610f56565b60025460405163d7529a9960e01b81526001600160a01b039091169063d7529a99906103f0908490600401610d74565b6004546001600160a01b03163314610d0b5760405162461bcd60e51b815260040161013b90610f56565b600180549082905560408051828152602081018490527f2063f24eb8e50478aa99484fcf0f591be5a95d83129c7388c3da4bd776655e7a910160405180910390a15050565b60005b83811015610d6b578181015183820152602001610d53565b50506000910152565b6020815260008251806020840152610d93816040850160208701610d50565b601f01601f19169190910160400192915050565b634e487b7160e01b600052604160045260246000fd5b604051601f8201601f1916810167ffffffffffffffff81118282101715610de657610de6610da7565b604052919050565b600067ffffffffffffffff821115610e0857610e08610da7565b50601f01601f191660200190565b600060208284031215610e2857600080fd5b813567ffffffffffffffff811115610e3f57600080fd5b8201601f81018413610e5057600080fd5b8035610e63610e5e82610dee565b610dbd565b818152856020838501011115610e7857600080fd5b81602084016020830137600091810160200191909152949350505050565b600060208284031215610ea857600080fd5b81356001600160a01b0381168114610ebf57600080fd5b9392505050565b600060208284031215610ed857600080fd5b5035919050565b600060208284031215610ef157600080fd5b815167ffffffffffffffff811115610f0857600080fd5b8201601f81018413610f1957600080fd5b8051610f27610e5e82610dee565b818152856020838501011115610f3c57600080fd5b610f4d826020830160208601610d50565b95945050505050565b60208082526018908201527f504f4b534f4d696e74657256323a206e6f74206f776e65720000000000000000604082015260600190565b60208082526023908201527f504f4b534f4d696e74657256323a20696e73756666696369656e74207061796d604082015262195b9d60ea1b606082015260800190565b600060208284031215610fe257600080fd5b5051919050565b634e487b7160e01b600052601160045260246000fd5b60006001820161101157611011610fe9565b5060010190565b8181038181111561102b5761102b610fe9565b92915050565b8082018082111561102b5761102b610fe9565b808202811582820484141761102b5761102b610fe956fea264697066735822122038261163c77f9545a181fb842f09e55f823b592c55362b03e1aeb260d747a88064736f6c63430008130033",
  "linkReferences": {},
  "deployedLinkReferences": {}
}