{
  "_format": "hh-sol-artifact-1",
  "contractName": "POKSOMinterV2",
  "sourceName": "contracts/POKSOMinterV2.sol",
  "abi": [
    {
      "inputs": [
        {
          "internalType": "address",
          "name": "lsp8Address",
          "type": "address"
        }
      ],
      "stateMutability": "nonpayable",
      "type": "constructor"
    },
    {
      "anonymous": false,
      "inputs": [
        {
          "indexed": true,
          "internalType": "address",
          "name": "minter",
          "type": "address"
        },
        {
          "indexed": false,
          "internalType": "uint256",
          "name": "amount",
          "type": "uint256"
        },
        {
          "indexed": false,
          "internalType": "uint256",
          "name": "totalPrice",
          "type": "uint256"
        }
      ],
      "name": "BatchMint",
      "type": "event"
    },
    {
      "anonymous": false,
      "inputs": [
        {
          "indexed": true,
          "internalType": "address",
          "name": "minter",
          "type": "address"
        },
        {
          "indexed": true,
          "internalType": "bytes32",
          "name": "tokenId",
          "type": "bytes32"
        },
        {
          "indexed": false,
          "internalType": "uint256",
          "name": "price",
          "type": "uint256"
        }
      ],
      "name": "Mint",
      "type": "event"
    },
    {
      "anonymous": false,
      "inputs": [
        {
          "indexed": true,
          "internalType": "address",
          "name": "owner",
          "type": "address"
        },
        {
          "indexed": false,
          "internalType": "uint256",
          "name": "amount",
          "type": "uint256"
        }
      ],
      "name": "Withdrawal",
      "type": "event"
    },
    {
      "inputs": [],
      "name": "MAX_PER_WALLET",
      "outputs": [
        {
          "internalType": "uint256",
          "name": "",
          "type": "uint256"
        }
      ],
      "stateMutability": "view",
      "type": "function"
    },
    {
      "inputs": [],
      "name": "MINT_PRICE",
      "outputs": [
        {
          "internalType": "uint256",
          "name": "",
          "type": "uint256"
        }
      ],
      "stateMutability": "view",
      "type": "function"
    },
    {
      "inputs": [
        {
          "internalType": "address",
          "name": "creatorAddress",
          "type": "address"
        }
      ],
      "name": "addCreator",
      "outputs": [],
      "stateMutability": "nonpayable",
      "type": "function"
    },
    {
      "inputs": [
        {
          "internalType": "uint256",
          "name": "amount",
          "type": "uint256"
        }
      ],
      "name": "batchMint",
      "outputs": [],
      "stateMutability": "payable",
      "type": "function"
    },
    {
      "inputs": [
        {
          "internalType": "address",
          "name": "user",
          "type": "address"
        }
      ],
      "name": "getMintInfo",
      "outputs": [
        {
          "internalType": "uint256",
          "name": "minted",
          "type": "uint256"
        },
        {
          "internalType": "uint256",
          "name": "remaining",
          "type": "uint256"
        },
        {
          "internalType": "uint256",
          "name": "currentId",
          "type": "uint256"
        }
      ],
      "stateMutability": "view",
      "type": "function"
    },
    {
      "inputs": [],
      "name": "getTokenMetadataBaseURI",
      "outputs": [
        {
          "internalType": "bytes",
          "name": "",
          "type": "bytes"
        }
      ],
      "stateMutability": "view",
      "type": "function"
    },
    {
      "inputs": [],
      "name": "lsp8",
      "outputs": [
        {
          "internalType": "contract IPOKSOLSP8Pure",
          "name": "",
          "type": "address"
        }
      ],
      "stateMutability": "view",
      "type": "function"
    },
    {
      "inputs": [],
      "name": "mint",
      "outputs": [],
      "stateMutability": "payable",
      "type": "function"
    },
    {
      "inputs": [
        {
          "internalType": "address",
          "name": "",
          "type": "address"
        }
      ],
      "name": "mintedByWallet",
      "outputs": [
        {
          "internalType": "uint256",
          "name": "",
          "type": "uint256"
        }
      ],
      "stateMutability": "view",
      "type": "function"
    },
    {
      "inputs": [],
      "name": "owner",
      "outputs": [
        {
          "internalType": "address",
          "name": "",
          "type": "address"
        }
      ],
      "stateMutability": "view",
      "type": "function"
    },
    {
      "inputs": [
        {
          "internalType": "bytes",
          "name": "metadataURI",
          "type": "bytes"
        }
      ],
      "name": "setLSP4Metadata",
      "outputs": [],
      "stateMutability": "nonpayable",
      "type": "function"
    },
    {
      "inputs": [
        {
          "internalType": "bytes",
          "name": "baseURI",
          "type": "bytes"
        }
      ],
      "name": "setTokenMetadataBaseURI",
      "outputs": [],
      "stateMutability": "nonpayable",
      "type": "function"
    },
    {
      "inputs": [],
      "name": "withdraw",
      "outputs": [],
      "stateMutability": "nonpayable",
      "type": "function"
    },
    {
      "stateMutability": "payable",
      "type": "receive"
    }
  ],
  "bytecode": "0x608060405234801561001057600080fd5b5060405161109538038061109583398101604081905261002f9161005d565b600180546001600160a01b039092166001600160a01b0319928316179055600380549091163317905561008d565b60006020828403121561006f57600080fd5b81516001600160a01b038116811461008657600080fd5b9392505050565b610ff98061009c6000396000f3fe6080604052600436106100c65760003560e01c80633ccfd60b1161007f578063b7d08c5c11610059578063b7d08c5c14610253578063c002d23d1461028e578063d7529a99146102aa578063f69c00e4146102ca57600080fd5b80633ccfd60b146101f35780638467be0d146102085780638da5cb5b1461021b57600080fd5b806304b905911461012e578063055f5b64146101595780630d7581111461017b5780630f2cdd6c146101b65780631249c58b146101cb5780633b9dce05146101d357600080fd5b366101295760405162461bcd60e51b815260206004820152602860248201527f504f4b534f4d696e74657256323a20757365206d696e742829206f722062617460448201526763684d696e74282960c01b60648201526084015b60405180910390fd5b600080fd5b34801561013a57600080fd5b506101436102ea565b6040516101509190610cdc565b60405180910390f35b34801561016557600080fd5b50610179610174366004610d7e565b610361565b005b34801561018757600080fd5b506101a8610196366004610dfe565b60026020526000908152604090205481565b604051908152602001610150565b3480156101c257600080fd5b506101a8600a81565b6101796103f0565b3480156101df57600080fd5b506101796101ee366004610dfe565b6106ba565b3480156101ff57600080fd5b50610179610716565b610179610216366004610e2e565b610877565b34801561022757600080fd5b5060035461023b906001600160a01b031681565b6040516001600160a01b039091168152602001610150565b34801561025f57600080fd5b5061027361026e366004610dfe565b610bb8565b60408051938452602084019290925290820152606001610150565b34801561029a57600080fd5b506101a8674563918244f4000081565b3480156102b657600080fd5b506101796102c5366004610d7e565b610c5e565b3480156102d657600080fd5b5060015461023b906001600160a01b031681565b600154604080516304b9059160e01b815290516060926001600160a01b0316916304b905919160048083019260009291908290030181865afa158015610334573d6000803e3d6000fd5b505050506040513d6000823e601f3d908101601f1916820160405261035c9190810190610e47565b905090565b6003546001600160a01b0316331461038b5760405162461bcd60e51b815260040161012090610ebe565b600154604051630157d6d960e21b81526001600160a01b039091169063055f5b64906103bb908490600401610cdc565b600060405180830381600087803b1580156103d557600080fd5b505af11580156103e9573d6000803e3d6000fd5b5050505050565b6000546001036104425760405162461bcd60e51b815260206004820152601f60248201527f5265656e7472616e637947756172643a207265656e7472616e742063616c6c006044820152606401610120565b6001600055674563918244f4000034101561046f5760405162461bcd60e51b815260040161012090610ef5565b33600090815260026020526040902054600a116104ce5760405162461bcd60e51b815260206004820152601d60248201527f504f4b534f4d696e74657256323a206d6178207065722077616c6c65740000006044820152606401610120565b60015460408051629a9b7b60e01b815290516101f4926001600160a01b031691629a9b7b9160048083019260209291908290030181865afa158015610517573d6000803e3d6000fd5b505050506040513d601f19601f8201168201806040525081019061053b9190610f38565b106105925760405162461bcd60e51b815260206004820152602160248201527f504f4b534f4d696e74657256323a206d617820737570706c79207265616368656044820152601960fa1b6064820152608401610120565b60015460405163755edd1760e01b81523360048201526000916001600160a01b03169063755edd17906024016020604051808303816000875af11580156105dd573d6000803e3d6000fd5b505050506040513d601f19601f820116820180604052508101906106019190610f38565b33600090815260026020526040812080549293509061061f83610f67565b9190505550674563918244f4000034111561067457336108fc61064a674563918244f4000034610f80565b6040518115909202916000818181858888f19350505050158015610672573d6000803e3d6000fd5b505b604051674563918244f400008152819033907f103a2d32aec953695f3b9ec5ed6c1c6cb822debe92cf1fcf0832cb2c262c7eec9060200160405180910390a35060008055565b6003546001600160a01b031633146106e45760405162461bcd60e51b815260040161012090610ebe565b600154604051633b9dce0560e01b81526001600160a01b03838116600483015290911690633b9dce05906024016103bb565b6003546001600160a01b031633146107405760405162461bcd60e51b815260040161012090610ebe565b478061078e5760405162461bcd60e51b815260206004820152601760248201527f504f4b534f4d696e74657256323a206e6f2066756e64730000000000000000006044820152606401610120565b6003546040516000916001600160a01b03169083908381818185875af1925050503d80600081146107db576040519150601f19603f3d011682016040523d82523d6000602084013e6107e0565b606091505b50509050806108315760405162461bcd60e51b815260206004820152601e60248201527f504f4b534f4d696e74657256323a207472616e73666572206661696c656400006044820152606401610120565b6003546040518381526001600160a01b03909116907f7fcf532c15f0a6db0bd6d0e038bea71d30d808c7d98cb3bf7268a95bf5081b659060200160405180910390a25050565b6000546001036108c95760405162461bcd60e51b815260206004820152601f60248201527f5265656e7472616e637947756172643a207265656e7472616e742063616c6c006044820152606401610120565b600160005580158015906108de5750600a8111155b61092a5760405162461bcd60e51b815260206004820152601d60248201527f504f4b534f4d696e74657256323a20696e76616c696420616d6f756e740000006044820152606401610120565b33600090815260026020526040902054600a90610948908390610f99565b11156109a45760405162461bcd60e51b815260206004820152602560248201527f504f4b534f4d696e74657256323a2065786365656473206d6178207065722077604482015264185b1b195d60da1b6064820152608401610120565b6101f481600160009054906101000a90046001600160a01b03166001600160a01b0316629a9b7b6040518163ffffffff1660e01b8152600401602060405180830381865afa1580156109fa573d6000803e3d6000fd5b505050506040513d601f19601f82011682018060405250810190610a1e9190610f38565b610a289190610f99565b1115610a765760405162461bcd60e51b815260206004820181905260248201527f504f4b534f4d696e74657256323a206e6f7420656e6f75676820737570706c796044820152606401610120565b6000610a8a82674563918244f40000610fac565b905080341015610aac5760405162461bcd60e51b815260040161012090610ef5565b600154604051630e7e510760e41b8152336004820152602481018490526001600160a01b039091169063e7e5107090604401600060405180830381600087803b158015610af857600080fd5b505af1158015610b0c573d6000803e3d6000fd5b50503360009081526002602052604081208054869450909250610b30908490610f99565b909155505034811015610b7557336108fc610b4b8334610f80565b6040518115909202916000818181858888f19350505050158015610b73573d6000803e3d6000fd5b505b604080518381526020810183905233917f63232c37f2c1fdcb4fc657df1cef6cabc7181c5b604530242590ffe5fa91ab74910160405180910390a2505060008055565b6001600160a01b0381166000908152600260205260408120549080610bde83600a610f80565b9150600160009054906101000a90046001600160a01b03166001600160a01b0316629a9b7b6040518163ffffffff1660e01b8152600401602060405180830381865afa158015610c32573d6000803e3d6000fd5b505050506040513d601f19601f82011682018060405250810190610c569190610f38565b929491935050565b6003546001600160a01b03163314610c885760405162461bcd60e51b815260040161012090610ebe565b60015460405163d7529a9960e01b81526001600160a01b039091169063d7529a99906103bb908490600401610cdc565b60005b83811015610cd3578181015183820152602001610cbb565b50506000910152565b6020815260008251806020840152610cfb816040850160208701610cb8565b601f01601f19169190910160400192915050565b634e487b7160e01b600052604160045260246000fd5b604051601f8201601f1916810167ffffffffffffffff81118282101715610d4e57610d4e610d0f565b604052919050565b600067ffffffffffffffff821115610d7057610d70610d0f565b50601f01601f191660200190565b600060208284031215610d9057600080fd5b813567ffffffffffffffff811115610da757600080fd5b8201601f81018413610db857600080fd5b8035610dcb610dc682610d56565b610d25565b818152856020838501011115610de057600080fd5b81602084016020830137600091810160200191909152949350505050565b600060208284031215610e1057600080fd5b81356001600160a01b0381168114610e2757600080fd5b9392505050565b600060208284031215610e4057600080fd5b5035919050565b600060208284031215610e5957600080fd5b815167ffffffffffffffff811115610e7057600080fd5b8201601f81018413610e8157600080fd5b8051610e8f610dc682610d56565b818152856020838501011115610ea457600080fd5b610eb5826020830160208601610cb8565b95945050505050565b60208082526018908201527f504f4b534f4d696e74657256323a206e6f74206f776e65720000000000000000604082015260600190565b60208082526023908201527f504f4b534f4d696e74657256323a20696e73756666696369656e74207061796d604082015262195b9d60ea1b606082015260800190565b600060208284031215610f4a57600080fd5b5051919050565b634e487b7160e01b600052601160045260246000fd5b600060018201610f7957610f79610f51565b5060010190565b81810381811115610f9357610f93610f51565b92915050565b80820180821115610f9357610f93610f51565b8082028115828204841417610f9357610f93610f5156fea2646970667358221220f4c089fed02e4b80c1767f81c9e77ccd968fa354cbbb23f8c6d3acc2b4e101b464736f6c63430008130033",
  "linkReferences": {},
  "deployedLinkReferences": {}
}