{
  "_format": "hh-sol-artifact-1",
  "contractName": "POKSOMinterV2",
  "sourceName": "contracts/POKSOMinterV2.sol",
  "abi": [
    {
      "inputs": [
        {
          "internalType": "address",
          "name": "lsp8Address",
          "type": "address"
        }
      ],
      "stateMutability": "nonpayable",
      "type": "constructor"
    },
    {
      "anonymous": false,
      "inputs": [
        {
          "indexed": true,
          "internalType": "address",
          "name": "minter",
          "type": "address"
        },
        {
          "indexed": false,
          "internalType": "uint256",
          "name": "amount",
          "type": "uint256"
        },
        {
          "indexed": false,
          "internalType": "uint256",
          "name": "totalPrice",
          "type": "uint256"
        }
      ],
      "name": "BatchMint",
      "type": "event"
    },
    {
      "anonymous": false,
      "inputs": [
        {
          "indexed": true,
          "internalType": "address",
          "name": "minter",
          "type": "address"
        },
        {
          "indexed": true,
          "internalType": "bytes32",
          "name": "tokenId",
          "type": "bytes32"
        },
        {
          "indexed": false,
          "internalType": "uint256",
          "name": "price",
          "type": "uint256"
        }
      ],
      "name": "Mint",
      "type": "event"
    },
    {
      "anonymous": false,
      "inputs": [
        {
          "indexed": true,
          "internalType": "address",
          "name": "owner",
          "type": "address"
        },
        {
          "indexed": false,
          "internalType": "uint256",
          "name": "amount",
          "type": "uint256"
        }
      ],
      "name": "Withdrawal",
      "type": "event"
    },
    {
      "inputs": [],
      "name": "MAX_PER_WALLET",
      "outputs": [
        {
          "internalType": "uint256",
          "name": "",
          "type": "uint256"
        }
      ],
      "stateMutability": "view",
      "type": "function"
    },
    {
      "inputs": [],
      "name": "MINT_PRICE",
      "outputs": [
        {
          "internalType": "uint256",
          "name": "",
          "type": "uint256"
        }
      ],
      "stateMutability": "view",
      "type": "function"
    },
    {
      "inputs": [
        {
          "internalType": "address",
          "name": "creatorAddress",
          "type": "address"
        }
      ],
      "name": "addCreator",
      "outputs": [],
      "stateMutability": "nonpayable",
      "type": "function"
    },
    {
      "inputs": [
        {
          "internalType": "uint256",
          "name": "amount",
          "type": "uint256"
        }
      ],
      "name": "batchMint",
      "outputs": [],
      "stateMutability": "payable",
      "type": "function"
    },
    {
      "inputs": [
        {
          "internalType": "address",
          "name": "user",
          "type": "address"
        }
      ],
      "name": "getMintInfo",
      "outputs": [
        {
          "internalType": "uint256",
          "name": "minted",
          "type": "uint256"
        },
        {
          "internalType": "uint256",
          "name": "remaining",
          "type": "uint256"
        },
        {
          "internalType": "uint256",
          "name": "currentId",
          "type": "uint256"
        }
      ],
      "stateMutability": "view",
      "type": "function"
    },
    {
      "inputs": [],
      "name": "lsp8",
      "outputs": [
        {
          "internalType": "contract IPOKSOLSP8Pure",
          "name": "",
          "type": "address"
        }
      ],
      "stateMutability": "view",
      "type": "function"
    },
    {
      "inputs": [],
      "name": "mint",
      "outputs": [],
      "stateMutability": "payable",
      "type": "function"
    },
    {
      "inputs": [
        {
          "internalType": "address",
          "name": "",
          "type": "address"
        }
      ],
      "name": "mintedByWallet",
      "outputs": [
        {
          "internalType": "uint256",
          "name": "",
          "type": "uint256"
        }
      ],
      "stateMutability": "view",
      "type": "function"
    },
    {
      "inputs": [],
      "name": "owner",
      "outputs": [
        {
          "internalType": "address",
          "name": "",
          "type": "address"
        }
      ],
      "stateMutability": "view",
      "type": "function"
    },
    {
      "inputs": [
        {
          "internalType": "bytes",
          "name": "metadataURI",
          "type": "bytes"
        }
      ],
      "name": "setLSP4Metadata",
      "outputs": [],
      "stateMutability": "nonpayable",
      "type": "function"
    },
    {
      "inputs": [],
      "name": "withdraw",
      "outputs": [],
      "stateMutability": "nonpayable",
      "type": "function"
    },
    {
      "stateMutability": "payable",
      "type": "receive"
    }
  ],
  "bytecode": "0x608060405234801561001057600080fd5b50604051610eb0380380610eb083398101604081905261002f9161005d565b600180546001600160a01b039092166001600160a01b0319928316179055600380549091163317905561008d565b60006020828403121561006f57600080fd5b81516001600160a01b038116811461008657600080fd5b9392505050565b610e148061009c6000396000f3fe6080604052600436106100a05760003560e01c80633ccfd60b116100645780633ccfd60b146101a75780638467be0d146101bc5780638da5cb5b146101cf578063b7d08c5c14610207578063c002d23d14610242578063f69c00e41461025e57600080fd5b8063055f5b64146101085780630d7581111461012a5780630f2cdd6c1461016a5780631249c58b1461017f5780633b9dce051461018757600080fd5b366101035760405162461bcd60e51b815260206004820152602860248201527f504f4b534f4d696e74657256323a20757365206d696e742829206f722062617460448201526763684d696e74282960c01b60648201526084015b60405180910390fd5b600080fd5b34801561011457600080fd5b50610128610123366004610b91565b61027e565b005b34801561013657600080fd5b50610157610145366004610c42565b60026020526000908152604090205481565b6040519081526020015b60405180910390f35b34801561017657600080fd5b50610157600a81565b61012861030d565b34801561019357600080fd5b506101286101a2366004610c42565b6105d7565b3480156101b357600080fd5b50610128610633565b6101286101ca366004610c72565b610794565b3480156101db57600080fd5b506003546101ef906001600160a01b031681565b6040516001600160a01b039091168152602001610161565b34801561021357600080fd5b50610227610222366004610c42565b610ad5565b60408051938452602084019290925290820152606001610161565b34801561024e57600080fd5b50610157674563918244f4000081565b34801561026a57600080fd5b506001546101ef906001600160a01b031681565b6003546001600160a01b031633146102a85760405162461bcd60e51b81526004016100fa90610c8b565b600154604051630157d6d960e21b81526001600160a01b039091169063055f5b64906102d8908490600401610cc2565b600060405180830381600087803b1580156102f257600080fd5b505af1158015610306573d6000803e3d6000fd5b5050505050565b60005460010361035f5760405162461bcd60e51b815260206004820152601f60248201527f5265656e7472616e637947756172643a207265656e7472616e742063616c6c0060448201526064016100fa565b6001600055674563918244f4000034101561038c5760405162461bcd60e51b81526004016100fa90610d10565b33600090815260026020526040902054600a116103eb5760405162461bcd60e51b815260206004820152601d60248201527f504f4b534f4d696e74657256323a206d6178207065722077616c6c657400000060448201526064016100fa565b60015460408051629a9b7b60e01b815290516101f4926001600160a01b031691629a9b7b9160048083019260209291908290030181865afa158015610434573d6000803e3d6000fd5b505050506040513d601f19601f820116820180604052508101906104589190610d53565b106104af5760405162461bcd60e51b815260206004820152602160248201527f504f4b534f4d696e74657256323a206d617820737570706c79207265616368656044820152601960fa1b60648201526084016100fa565b60015460405163755edd1760e01b81523360048201526000916001600160a01b03169063755edd17906024016020604051808303816000875af11580156104fa573d6000803e3d6000fd5b505050506040513d601f19601f8201168201806040525081019061051e9190610d53565b33600090815260026020526040812080549293509061053c83610d82565b9190505550674563918244f4000034111561059157336108fc610567674563918244f4000034610d9b565b6040518115909202916000818181858888f1935050505015801561058f573d6000803e3d6000fd5b505b604051674563918244f400008152819033907f103a2d32aec953695f3b9ec5ed6c1c6cb822debe92cf1fcf0832cb2c262c7eec9060200160405180910390a35060008055565b6003546001600160a01b031633146106015760405162461bcd60e51b81526004016100fa90610c8b565b600154604051633b9dce0560e01b81526001600160a01b03838116600483015290911690633b9dce05906024016102d8565b6003546001600160a01b0316331461065d5760405162461bcd60e51b81526004016100fa90610c8b565b47806106ab5760405162461bcd60e51b815260206004820152601760248201527f504f4b534f4d696e74657256323a206e6f2066756e647300000000000000000060448201526064016100fa565b6003546040516000916001600160a01b03169083908381818185875af1925050503d80600081146106f8576040519150601f19603f3d011682016040523d82523d6000602084013e6106fd565b606091505b505090508061074e5760405162461bcd60e51b815260206004820152601e60248201527f504f4b534f4d696e74657256323a207472616e73666572206661696c6564000060448201526064016100fa565b6003546040518381526001600160a01b03909116907f7fcf532c15f0a6db0bd6d0e038bea71d30d808c7d98cb3bf7268a95bf5081b659060200160405180910390a25050565b6000546001036107e65760405162461bcd60e51b815260206004820152601f60248201527f5265656e7472616e637947756172643a207265656e7472616e742063616c6c0060448201526064016100fa565b600160005580158015906107fb5750600a8111155b6108475760405162461bcd60e51b815260206004820152601d60248201527f504f4b534f4d696e74657256323a20696e76616c696420616d6f756e7400000060448201526064016100fa565b33600090815260026020526040902054600a90610865908390610db4565b11156108c15760405162461bcd60e51b815260206004820152602560248201527f504f4b534f4d696e74657256323a2065786365656473206d6178207065722077604482015264185b1b195d60da1b60648201526084016100fa565b6101f481600160009054906101000a90046001600160a01b03166001600160a01b0316629a9b7b6040518163ffffffff1660e01b8152600401602060405180830381865afa158015610917573d6000803e3d6000fd5b505050506040513d601f19601f8201168201806040525081019061093b9190610d53565b6109459190610db4565b11156109935760405162461bcd60e51b815260206004820181905260248201527f504f4b534f4d696e74657256323a206e6f7420656e6f75676820737570706c7960448201526064016100fa565b60006109a782674563918244f40000610dc7565b9050803410156109c95760405162461bcd60e51b81526004016100fa90610d10565b600154604051630e7e510760e41b8152336004820152602481018490526001600160a01b039091169063e7e5107090604401600060405180830381600087803b158015610a1557600080fd5b505af1158015610a29573d6000803e3d6000fd5b50503360009081526002602052604081208054869450909250610a4d908490610db4565b909155505034811015610a9257336108fc610a688334610d9b565b6040518115909202916000818181858888f19350505050158015610a90573d6000803e3d6000fd5b505b604080518381526020810183905233917f63232c37f2c1fdcb4fc657df1cef6cabc7181c5b604530242590ffe5fa91ab74910160405180910390a2505060008055565b6001600160a01b0381166000908152600260205260408120549080610afb83600a610d9b565b9150600160009054906101000a90046001600160a01b03166001600160a01b0316629a9b7b6040518163ffffffff1660e01b8152600401602060405180830381865afa158015610b4f573d6000803e3d6000fd5b505050506040513d601f19601f82011682018060405250810190610b739190610d53565b929491935050565b634e487b7160e01b600052604160045260246000fd5b600060208284031215610ba357600080fd5b813567ffffffffffffffff80821115610bbb57600080fd5b818401915084601f830112610bcf57600080fd5b813581811115610be157610be1610b7b565b604051601f8201601f19908116603f01168101908382118183101715610c0957610c09610b7b565b81604052828152876020848701011115610c2257600080fd5b826020860160208301376000928101602001929092525095945050505050565b600060208284031215610c5457600080fd5b81356001600160a01b0381168114610c6b57600080fd5b9392505050565b600060208284031215610c8457600080fd5b5035919050565b60208082526018908201527f504f4b534f4d696e74657256323a206e6f74206f776e65720000000000000000604082015260600190565b600060208083528351808285015260005b81811015610cef57858101830151858201604001528201610cd3565b506000604082860101526040601f19601f8301168501019250505092915050565b60208082526023908201527f504f4b534f4d696e74657256323a20696e73756666696369656e74207061796d604082015262195b9d60ea1b606082015260800190565b600060208284031215610d6557600080fd5b5051919050565b634e487b7160e01b600052601160045260246000fd5b600060018201610d9457610d94610d6c565b5060010190565b81810381811115610dae57610dae610d6c565b92915050565b80820180821115610dae57610dae610d6c565b8082028115828204841417610dae57610dae610d6c56fea2646970667358221220b7320c22fc69b1919865cd44b567c2cf2b7365fe0f5a0b5d294a502bf7d03ba064736f6c63430008130033",
  "linkReferences": {},
  "deployedLinkReferences": {}
}