{"contracts/POKSOMinter.sol":{"POKSOMinter":{"abi":[{"inputs":[{"internalType":"address","name":"lsp8Address","type":"address"}],"stateMutability":"nonpayable","type":"constructor"},{"anonymous":false,"inputs":[{"indexed":true,"internalType":"address","name":"minter","type":"address"},{"indexed":false,"internalType":"uint256","name":"amount","type":"uint256"},{"indexed":false,"internalType":"uint256","name":"totalPrice","type":"uint256"}],"name":"BatchMint","type":"event"},{"anonymous":false,"inputs":[{"indexed":true,"internalType":"address","name":"minter","type":"address"},{"indexed":true,"internalType":"bytes32","name":"tokenId","type":"bytes32"},{"indexed":false,"internalType":"uint256","name":"price","type":"uint256"}],"name":"Mint","type":"event"},{"inputs":[],"name":"MAX_PER_WALLET","outputs":[{"internalType":"uint256","name":"","type":"uint256"}],"stateMutability":"view","type":"function"},{"inputs":[],"name":"MINT_PRICE","outputs":[{"internalType":"uint256","name":"","type":"uint256"}],"stateMutability":"view","type":"function"},{"inputs":[{"internalType":"uint256","name":"amount","type":"uint256"}],"name":"batchMint","outputs":[],"stateMutability":"payable","type":"function"},{"inputs":[{"internalType":"address","name":"wallet","type":"address"}],"name":"getMintedByWallet","outputs":[{"internalType":"uint256","name":"","type":"uint256"}],"stateMutability":"view","type":"function"},{"inputs":[],"name":"lsp8","outputs":[{"internalType":"contract IPOKSOLSP8Pure","name":"","type":"address"}],"stateMutability":"view","type":"function"},{"inputs":[],"name":"mint","outputs":[],"stateMutability":"payable","type":"function"},{"inputs":[{"internalType":"address","name":"","type":"address"}],"name":"mintedByWallet","outputs":[{"internalType":"uint256","name":"","type":"uint256"}],"stateMutability":"view","type":"function"},{"inputs":[],"name":"owner","outputs":[{"internalType":"address","name":"","type":"address"}],"stateMutability":"view","type":"function"},{"inputs":[],"name":"remainingSupply","outputs":[{"internalType":"uint256","name":"","type":"uint256"}],"stateMutability":"view","type":"function"},{"inputs":[],"name":"withdraw","outputs":[],"stateMutability":"nonpayable","type":"function"},{"stateMutability":"payable","type":"receive"}],"evm":{"bytecode":{"linkReferences":{},"object":"608060405234801561001057600080fd5b506040516109f23803806109f283398101604081905261002f9161005d565b600080546001600160a01b039092166001600160a01b0319928316179055600280549091163317905561008d565b60006020828403121561006f57600080fd5b81516001600160a01b038116811461008657600080fd5b9392505050565b6109568061009c6000396000f3fe6080604052600436106100955760003560e01c80638467be0d116100595780638467be0d1461014b5780638da5cb5b1461015e578063c002d23d14610196578063da0239a6146101b2578063f69c00e4146101c757600080fd5b80630d758111146100a15780630f2cdd6c146100e15780631249c58b146100f65780631b1cac04146101005780633ccfd60b1461013657600080fd5b3661009c57005b600080fd5b3480156100ad57600080fd5b506100ce6100bc36600461084c565b60016020526000908152604090205481565b6040519081526020015b60405180910390f35b3480156100ed57600080fd5b506100ce600a81565b6100fe6101e7565b005b34801561010c57600080fd5b506100ce61011b36600461084c565b6001600160a01b031660009081526001602052604090205490565b34801561014257600080fd5b506100fe610466565b6100fe61015936600461087c565b6104e8565b34801561016a57600080fd5b5060025461017e906001600160a01b031681565b6040516001600160a01b0390911681526020016100d8565b3480156101a257600080fd5b506100ce674563918244f4000081565b3480156101be57600080fd5b506100ce6107c4565b3480156101d357600080fd5b5060005461017e906001600160a01b031681565b674563918244f4000034101561023b5760405162461bcd60e51b8152602060048201526014602482015273125b9cdd59999a58da595b9d081c185e5b595b9d60621b60448201526064015b60405180910390fd5b33600090815260016020526040902054600a116102935760405162461bcd60e51b815260206004820152601660248201527513585e081c195c881dd85b1b195d081c995858da195960521b6044820152606401610232565b60005460408051629a9b7b60e01b815290516101f4926001600160a01b031691629a9b7b9160048083019260209291908290030181865afa1580156102dc573d6000803e3d6000fd5b505050506040513d601f19601f820116820180604052508101906103009190610895565b106103425760405162461bcd60e51b815260206004820152601260248201527113585e081cdd5c1c1b1e481c995858da195960721b6044820152606401610232565b6000805460405163755edd1760e01b81523360048201526001600160a01b039091169063755edd17906024016020604051808303816000875af115801561038d573d6000803e3d6000fd5b505050506040513d601f19601f820116820180604052508101906103b19190610895565b3360009081526001602052604081208054929350906103cf836108c4565b9190505550674563918244f4000034111561042457336108fc6103fa674563918244f40000346108dd565b6040518115909202916000818181858888f19350505050158015610422573d6000803e3d6000fd5b505b604051674563918244f400008152819033907f103a2d32aec953695f3b9ec5ed6c1c6cb822debe92cf1fcf0832cb2c262c7eec9060200160405180910390a350565b6002546001600160a01b031633146104ac5760405162461bcd60e51b81526020600482015260096024820152682737ba1037bbb732b960b91b6044820152606401610232565b6002546040516001600160a01b03909116904780156108fc02916000818181858888f193505050501580156104e5573d6000803e3d6000fd5b50565b6000811180156104f95750600a8111155b6105365760405162461bcd60e51b815260206004820152600e60248201526d125b9d985b1a5908185b5bdd5b9d60921b6044820152606401610232565b33600090815260016020526040902054600a906105549083906108f6565b111561059b5760405162461bcd60e51b8152602060048201526016602482015275115e18d959591cc81b585e081c195c881dd85b1b195d60521b6044820152606401610232565b6101f48160008054906101000a90046001600160a01b03166001600160a01b0316629a9b7b6040518163ffffffff1660e01b8152600401602060405180830381865afa1580156105ef573d6000803e3d6000fd5b505050506040513d601f19601f820116820180604052508101906106139190610895565b61061d91906108f6565b111561065f5760405162461bcd60e51b81526020600482015260116024820152704e6f7420656e6f75676820737570706c7960781b6044820152606401610232565b600061067382674563918244f40000610909565b9050803410156106bc5760405162461bcd60e51b8152602060048201526014602482015273125b9cdd59999a58da595b9d081c185e5b595b9d60621b6044820152606401610232565b600054604051630e7e510760e41b8152336004820152602481018490526001600160a01b039091169063e7e5107090604401600060405180830381600087803b15801561070857600080fd5b505af115801561071c573d6000803e3d6000fd5b505033600090815260016020526040812080548694509092506107409084906108f6565b90915550503481101561078557336108fc61075b83346108dd565b6040518115909202916000818181858888f19350505050158015610783573d6000803e3d6000fd5b505b604080518381526020810183905233917f63232c37f2c1fdcb4fc657df1cef6cabc7181c5b604530242590ffe5fa91ab74910160405180910390a25050565b60008060009054906101000a90046001600160a01b03166001600160a01b0316629a9b7b6040518163ffffffff1660e01b8152600401602060405180830381865afa158015610817573d6000803e3d6000fd5b505050506040513d601f19601f8201168201806040525081019061083b9190610895565b610847906101f46108dd565b905090565b60006020828403121561085e57600080fd5b81356001600160a01b038116811461087557600080fd5b9392505050565b60006020828403121561088e57600080fd5b5035919050565b6000602082840312156108a757600080fd5b5051919050565b634e487b7160e01b600052601160045260246000fd5b6000600182016108d6576108d66108ae565b5060010190565b818103818111156108f0576108f06108ae565b92915050565b808201808211156108f0576108f06108ae565b80820281158282048414176108f0576108f06108ae56fea2646970667358221220e58629161c2dab101f9966ec2ef3f7dda3ce4d46f894302074065c786f72914664736f6c63430008130033","opcodes":"PUSH1 0x80 PUSH1 0x40 MSTORE CALLVALUE DUP1 ISZERO PUSH2 0x10 JUMPI PUSH1 0x0 DUP1 REVERT JUMPDEST POP PUSH1 0x40 MLOAD PUSH2 0x9F2 CODESIZE SUB DUP1 PUSH2 0x9F2 DUP4 CODECOPY DUP2 ADD PUSH1 0x40 DUP2 SWAP1 MSTORE PUSH2 0x2F SWAP2 PUSH2 0x5D JUMP JUMPDEST PUSH1 0x0 DUP1 SLOAD PUSH1 0x1 PUSH1 0x1 PUSH1 0xA0 SHL SUB SWAP1 SWAP3 AND PUSH1 0x1 PUSH1 0x1 PUSH1 0xA0 SHL SUB NOT SWAP3 DUP4 AND OR SWAP1 SSTORE PUSH1 0x2 DUP1 SLOAD SWAP1 SWAP2 AND CALLER OR SWAP1 SSTORE PUSH2 0x8D JUMP JUMPDEST PUSH1 0x0 PUSH1 0x20 DUP3 DUP5 SUB SLT ISZERO PUSH2 0x6F JUMPI PUSH1 0x0 DUP1 REVERT JUMPDEST DUP2 MLOAD PUSH1 0x1 PUSH1 0x1 PUSH1 0xA0 SHL SUB DUP2 AND DUP2 EQ PUSH2 0x86 JUMPI PUSH1 0x0 DUP1 REVERT JUMPDEST SWAP4 SWAP3 POP POP POP JUMP JUMPDEST PUSH2 0x956 DUP1 PUSH2 0x9C PUSH1 0x0 CODECOPY PUSH1 0x0 RETURN INVALID PUSH1 0x80 PUSH1 0x40 MSTORE PUSH1 0x4 CALLDATASIZE LT PUSH2 0x95 JUMPI PUSH1 0x0 CALLDATALOAD PUSH1 0xE0 SHR DUP1 PUSH4 0x8467BE0D GT PUSH2 0x59 JUMPI DUP1 PUSH4 0x8467BE0D EQ PUSH2 0x14B JUMPI DUP1 PUSH4 0x8DA5CB5B EQ PUSH2 0x15E JUMPI DUP1 PUSH4 0xC002D23D EQ PUSH2 0x196 JUMPI DUP1 PUSH4 0xDA0239A6 EQ PUSH2 0x1B2 JUMPI DUP1 PUSH4 0xF69C00E4 EQ PUSH2 0x1C7 JUMPI PUSH1 0x0 DUP1 REVERT JUMPDEST DUP1 PUSH4 0xD758111 EQ PUSH2 0xA1 JUMPI DUP1 PUSH4 0xF2CDD6C EQ PUSH2 0xE1 JUMPI DUP1 PUSH4 0x1249C58B EQ PUSH2 0xF6 JUMPI DUP1 PUSH4 0x1B1CAC04 EQ PUSH2 0x100 JUMPI DUP1 PUSH4 0x3CCFD60B EQ PUSH2 0x136 JUMPI PUSH1 0x0 DUP1 REVERT JUMPDEST CALLDATASIZE PUSH2 0x9C JUMPI STOP JUMPDEST PUSH1 0x0 DUP1 REVERT JUMPDEST CALLVALUE DUP1 ISZERO PUSH2 0xAD JUMPI PUSH1 0x0 DUP1 REVERT JUMPDEST POP PUSH2 0xCE PUSH2 0xBC CALLDATASIZE PUSH1 0x4 PUSH2 0x84C JUMP JUMPDEST PUSH1 0x1 PUSH1 0x20 MSTORE PUSH1 0x0 SWAP1 DUP2 MSTORE PUSH1 0x40 SWAP1 KECCAK256 SLOAD DUP2 JUMP JUMPDEST PUSH1 0x40 MLOAD SWAP1 DUP2 MSTORE PUSH1 0x20 ADD JUMPDEST PUSH1 0x40 MLOAD DUP1 SWAP2 SUB SWAP1 RETURN JUMPDEST CALLVALUE DUP1 ISZERO PUSH2 0xED JUMPI PUSH1 0x0 DUP1 REVERT JUMPDEST POP PUSH2 0xCE PUSH1 0xA DUP2 JUMP JUMPDEST PUSH2 0xFE PUSH2 0x1E7 JUMP JUMPDEST STOP JUMPDEST CALLVALUE DUP1 ISZERO PUSH2 0x10C JUMPI PUSH1 0x0 DUP1 REVERT JUMPDEST POP PUSH2 0xCE PUSH2 0x11B CALLDATASIZE PUSH1 0x4 PUSH2 0x84C JUMP JUMPDEST PUSH1 0x1 PUSH1 0x1 PUSH1 0xA0 SHL SUB AND PUSH1 0x0 SWAP1 DUP2 MSTORE PUSH1 0x1 PUSH1 0x20 MSTORE PUSH1 0x40 SWAP1 KECCAK256 SLOAD SWAP1 JUMP JUMPDEST CALLVALUE DUP1 ISZERO PUSH2 0x142 JUMPI PUSH1 0x0 DUP1 REVERT JUMPDEST POP PUSH2 0xFE PUSH2 0x466 JUMP JUMPDEST PUSH2 0xFE PUSH2 0x159 CALLDATASIZE PUSH1 0x4 PUSH2 0x87C JUMP JUMPDEST PUSH2 0x4E8 JUMP JUMPDEST CALLVALUE DUP1 ISZERO PUSH2 0x16A JUMPI PUSH1 0x0 DUP1 REVERT JUMPDEST POP PUSH1 0x2 SLOAD PUSH2 0x17E SWAP1 PUSH1 0x1 PUSH1 0x1 PUSH1 0xA0 SHL SUB AND DUP2 JUMP JUMPDEST PUSH1 0x40 MLOAD PUSH1 0x1 PUSH1 0x1 PUSH1 0xA0 SHL SUB SWAP1 SWAP2 AND DUP2 MSTORE PUSH1 0x20 ADD PUSH2 0xD8 JUMP JUMPDEST CALLVALUE DUP1 ISZERO PUSH2 0x1A2 JUMPI PUSH1 0x0 DUP1 REVERT JUMPDEST POP PUSH2 0xCE PUSH8 0x4563918244F40000 DUP2 JUMP JUMPDEST CALLVALUE DUP1 ISZERO PUSH2 0x1BE JUMPI PUSH1 0x0 DUP1 REVERT JUMPDEST POP PUSH2 0xCE PUSH2 0x7C4 JUMP JUMPDEST CALLVALUE DUP1 ISZERO PUSH2 0x1D3 JUMPI PUSH1 0x0 DUP1 REVERT JUMPDEST POP PUSH1 0x0 SLOAD PUSH2 0x17E SWAP1 PUSH1 0x1 PUSH1 0x1 PUSH1 0xA0 SHL SUB AND DUP2 JUMP JUMPDEST PUSH8 0x4563918244F40000 CALLVALUE LT ISZERO PUSH2 0x23B JUMPI PUSH1 0x40 MLOAD PUSH3 0x461BCD PUSH1 0xE5 SHL DUP2 MSTORE PUSH1 0x20 PUSH1 0x4 DUP3 ADD MSTORE PUSH1 0x14 PUSH1 0x24 DUP3 ADD MSTORE PUSH20 0x125B9CDD59999A58DA595B9D081C185E5B595B9D PUSH1 0x62 SHL PUSH1 0x44 DUP3 ADD MSTORE PUSH1 0x64 ADD JUMPDEST PUSH1 0x40 MLOAD DUP1 SWAP2 SUB SWAP1 REVERT JUMPDEST CALLER PUSH1 0x0 SWAP1 DUP2 MSTORE PUSH1 0x1 PUSH1 0x20 MSTORE PUSH1 0x40 SWAP1 KECCAK256 SLOAD PUSH1 0xA GT PUSH2 0x293 JUMPI PUSH1 0x40 MLOAD PUSH3 0x461BCD PUSH1 0xE5 SHL DUP2 MSTORE PUSH1 0x20 PUSH1 0x4 DUP3 ADD MSTORE PUSH1 0x16 PUSH1 0x24 DUP3 ADD MSTORE PUSH22 0x13585E081C195C881DD85B1B195D081C995858DA1959 PUSH1 0x52 SHL PUSH1 0x44 DUP3 ADD MSTORE PUSH1 0x64 ADD PUSH2 0x232 JUMP JUMPDEST PUSH1 0x0 SLOAD PUSH1 0x40 DUP1 MLOAD PUSH3 0x9A9B7B PUSH1 0xE0 SHL DUP2 MSTORE SWAP1 MLOAD PUSH2 0x1F4 SWAP3 PUSH1 0x1 PUSH1 0x1 PUSH1 0xA0 SHL SUB AND SWAP2 PUSH3 0x9A9B7B SWAP2 PUSH1 0x4 DUP1 DUP4 ADD SWAP3 PUSH1 0x20 SWAP3 SWAP2 SWAP1 DUP3 SWAP1 SUB ADD DUP2 DUP7 GAS STATICCALL ISZERO DUP1 ISZERO PUSH2 0x2DC JUMPI RETURNDATASIZE PUSH1 0x0 DUP1 RETURNDATACOPY RETURNDATASIZE PUSH1 0x0 REVERT JUMPDEST POP POP POP POP PUSH1 0x40 MLOAD RETURNDATASIZE PUSH1 0x1F NOT PUSH1 0x1F DUP3 ADD AND DUP3 ADD DUP1 PUSH1 0x40 MSTORE POP DUP2 ADD SWAP1 PUSH2 0x300 SWAP2 SWAP1 PUSH2 0x895 JUMP JUMPDEST LT PUSH2 0x342 JUMPI PUSH1 0x40 MLOAD PUSH3 0x461BCD PUSH1 0xE5 SHL DUP2 MSTORE PUSH1 0x20 PUSH1 0x4 DUP3 ADD MSTORE PUSH1 0x12 PUSH1 0x24 DUP3 ADD MSTORE PUSH18 0x13585E081CDD5C1C1B1E481C995858DA1959 PUSH1 0x72 SHL PUSH1 0x44 DUP3 ADD MSTORE PUSH1 0x64 ADD PUSH2 0x232 JUMP JUMPDEST PUSH1 0x0 DUP1 SLOAD PUSH1 0x40 MLOAD PUSH4 0x755EDD17 PUSH1 0xE0 SHL DUP2 MSTORE CALLER PUSH1 0x4 DUP3 ADD MSTORE PUSH1 0x1 PUSH1 0x1 PUSH1 0xA0 SHL SUB SWAP1 SWAP2 AND SWAP1 PUSH4 0x755EDD17 SWAP1 PUSH1 0x24 ADD PUSH1 0x20 PUSH1 0x40 MLOAD DUP1 DUP4 SUB DUP2 PUSH1 0x0 DUP8 GAS CALL ISZERO DUP1 ISZERO PUSH2 0x38D JUMPI RETURNDATASIZE PUSH1 0x0 DUP1 RETURNDATACOPY RETURNDATASIZE PUSH1 0x0 REVERT JUMPDEST POP POP POP POP PUSH1 0x40 MLOAD RETURNDATASIZE PUSH1 0x1F NOT PUSH1 0x1F DUP3 ADD AND DUP3 ADD DUP1 PUSH1 0x40 MSTORE POP DUP2 ADD SWAP1 PUSH2 0x3B1 SWAP2 SWAP1 PUSH2 0x895 JUMP JUMPDEST CALLER PUSH1 0x0 SWAP1 DUP2 MSTORE PUSH1 0x1 PUSH1 0x20 MSTORE PUSH1 0x40 DUP2 KECCAK256 DUP1 SLOAD SWAP3 SWAP4 POP SWAP1 PUSH2 0x3CF DUP4 PUSH2 0x8C4 JUMP JUMPDEST SWAP2 SWAP1 POP SSTORE POP PUSH8 0x4563918244F40000 CALLVALUE GT ISZERO PUSH2 0x424 JUMPI CALLER PUSH2 0x8FC PUSH2 0x3FA PUSH8 0x4563918244F40000 CALLVALUE PUSH2 0x8DD JUMP JUMPDEST PUSH1 0x40 MLOAD DUP2 ISZERO SWAP1 SWAP3 MUL SWAP2 PUSH1 0x0 DUP2 DUP2 DUP2 DUP6 DUP9 DUP9 CALL SWAP4 POP POP POP POP ISZERO DUP1 ISZERO PUSH2 0x422 JUMPI RETURNDATASIZE PUSH1 0x0 DUP1 RETURNDATACOPY RETURNDATASIZE PUSH1 0x0 REVERT JUMPDEST POP JUMPDEST PUSH1 0x40 MLOAD PUSH8 0x4563918244F40000 DUP2 MSTORE DUP2 SWAP1 CALLER SWAP1 PUSH32 0x103A2D32AEC953695F3B9EC5ED6C1C6CB822DEBE92CF1FCF0832CB2C262C7EEC SWAP1 PUSH1 0x20 ADD PUSH1 0x40 MLOAD DUP1 SWAP2 SUB SWAP1 LOG3 POP JUMP JUMPDEST PUSH1 0x2 SLOAD PUSH1 0x1 PUSH1 0x1 PUSH1 0xA0 SHL SUB AND CALLER EQ PUSH2 0x4AC JUMPI PUSH1 0x40 MLOAD PUSH3 0x461BCD PUSH1 0xE5 SHL DUP2 MSTORE PUSH1 0x20 PUSH1 0x4 DUP3 ADD MSTORE PUSH1 0x9 PUSH1 0x24 DUP3 ADD MSTORE PUSH9 0x2737BA1037BBB732B9 PUSH1 0xB9 SHL PUSH1 0x44 DUP3 ADD MSTORE PUSH1 0x64 ADD PUSH2 0x232 JUMP JUMPDEST PUSH1 0x2 SLOAD PUSH1 0x40 MLOAD PUSH1 0x1 PUSH1 0x1 PUSH1 0xA0 SHL SUB SWAP1 SWAP2 AND SWAP1 SELFBALANCE DUP1 ISZERO PUSH2 0x8FC MUL SWAP2 PUSH1 0x0 DUP2 DUP2 DUP2 DUP6 DUP9 DUP9 CALL SWAP4 POP POP POP POP ISZERO DUP1 ISZERO PUSH2 0x4E5 JUMPI RETURNDATASIZE PUSH1 0x0 DUP1 RETURNDATACOPY RETURNDATASIZE PUSH1 0x0 REVERT JUMPDEST POP JUMP JUMPDEST PUSH1 0x0 DUP2 GT DUP1 ISZERO PUSH2 0x4F9 JUMPI POP PUSH1 0xA DUP2 GT ISZERO JUMPDEST PUSH2 0x536 JUMPI PUSH1 0x40 MLOAD PUSH3 0x461BCD PUSH1 0xE5 SHL DUP2 MSTORE PUSH1 0x20 PUSH1 0x4 DUP3 ADD MSTORE PUSH1 0xE PUSH1 0x24 DUP3 ADD MSTORE PUSH14 0x125B9D985B1A5908185B5BDD5B9D PUSH1 0x92 SHL PUSH1 0x44 DUP3 ADD MSTORE PUSH1 0x64 ADD PUSH2 0x232 JUMP JUMPDEST CALLER PUSH1 0x0 SWAP1 DUP2 MSTORE PUSH1 0x1 PUSH1 0x20 MSTORE PUSH1 0x40 SWAP1 KECCAK256 SLOAD PUSH1 0xA SWAP1 PUSH2 0x554 SWAP1 DUP4 SWAP1 PUSH2 0x8F6 JUMP JUMPDEST GT ISZERO PUSH2 0x59B JUMPI PUSH1 0x40 MLOAD PUSH3 0x461BCD PUSH1 0xE5 SHL DUP2 MSTORE PUSH1 0x20 PUSH1 0x4 DUP3 ADD MSTORE PUSH1 0x16 PUSH1 0x24 DUP3 ADD MSTORE PUSH22 0x115E18D959591CC81B585E081C195C881DD85B1B195D PUSH1 0x52 SHL PUSH1 0x44 DUP3 ADD MSTORE PUSH1 0x64 ADD PUSH2 0x232 JUMP JUMPDEST PUSH2 0x1F4 DUP2 PUSH1 0x0 DUP1 SLOAD SWAP1 PUSH2 0x100 EXP SWAP1 DIV PUSH1 0x1 PUSH1 0x1 PUSH1 0xA0 SHL SUB AND PUSH1 0x1 PUSH1 0x1 PUSH1 0xA0 SHL SUB AND PUSH3 0x9A9B7B PUSH1 0x40 MLOAD DUP2 PUSH4 0xFFFFFFFF AND PUSH1 0xE0 SHL DUP2 MSTORE PUSH1 0x4 ADD PUSH1 0x20 PUSH1 0x40 MLOAD DUP1 DUP4 SUB DUP2 DUP7 GAS STATICCALL ISZERO DUP1 ISZERO PUSH2 0x5EF JUMPI RETURNDATASIZE PUSH1 0x0 DUP1 RETURNDATACOPY RETURNDATASIZE PUSH1 0x0 REVERT JUMPDEST POP POP POP POP PUSH1 0x40 MLOAD RETURNDATASIZE PUSH1 0x1F NOT PUSH1 0x1F DUP3 ADD AND DUP3 ADD DUP1 PUSH1 0x40 MSTORE POP DUP2 ADD SWAP1 PUSH2 0x613 SWAP2 SWAP1 PUSH2 0x895 JUMP JUMPDEST PUSH2 0x61D SWAP2 SWAP1 PUSH2 0x8F6 JUMP JUMPDEST GT ISZERO PUSH2 0x65F JUMPI PUSH1 0x40 MLOAD PUSH3 0x461BCD PUSH1 0xE5 SHL DUP2 MSTORE PUSH1 0x20 PUSH1 0x4 DUP3 ADD MSTORE PUSH1 0x11 PUSH1 0x24 DUP3 ADD MSTORE PUSH17 0x4E6F7420656E6F75676820737570706C79 PUSH1 0x78 SHL PUSH1 0x44 DUP3 ADD MSTORE PUSH1 0x64 ADD PUSH2 0x232 JUMP JUMPDEST PUSH1 0x0 PUSH2 0x673 DUP3 PUSH8 0x4563918244F40000 PUSH2 0x909 JUMP JUMPDEST SWAP1 POP DUP1 CALLVALUE LT ISZERO PUSH2 0x6BC JUMPI PUSH1 0x40 MLOAD PUSH3 0x461BCD PUSH1 0xE5 SHL DUP2 MSTORE PUSH1 0x20 PUSH1 0x4 DUP3 ADD MSTORE PUSH1 0x14 PUSH1 0x24 DUP3 ADD MSTORE PUSH20 0x125B9CDD59999A58DA595B9D081C185E5B595B9D PUSH1 0x62 SHL PUSH1 0x44 DUP3 ADD MSTORE PUSH1 0x64 ADD PUSH2 0x232 JUMP JUMPDEST PUSH1 0x0 SLOAD PUSH1 0x40 MLOAD PUSH4 0xE7E5107 PUSH1 0xE4 SHL DUP2 MSTORE CALLER PUSH1 0x4 DUP3 ADD MSTORE PUSH1 0x24 DUP2 ADD DUP5 SWAP1 MSTORE PUSH1 0x1 PUSH1 0x1 PUSH1 0xA0 SHL SUB SWAP1 SWAP2 AND SWAP1 PUSH4 0xE7E51070 SWAP1 PUSH1 0x44 ADD PUSH1 0x0 PUSH1 0x40 MLOAD DUP1 DUP4 SUB DUP2 PUSH1 0x0 DUP8 DUP1 EXTCODESIZE ISZERO DUP1 ISZERO PUSH2 0x708 JUMPI PUSH1 0x0 DUP1 REVERT JUMPDEST POP GAS CALL ISZERO DUP1 ISZERO PUSH2 0x71C JUMPI RETURNDATASIZE PUSH1 0x0 DUP1 RETURNDATACOPY RETURNDATASIZE PUSH1 0x0 REVERT JUMPDEST POP POP CALLER PUSH1 0x0 SWAP1 DUP2 MSTORE PUSH1 0x1 PUSH1 0x20 MSTORE PUSH1 0x40 DUP2 KECCAK256 DUP1 SLOAD DUP7 SWAP5 POP SWAP1 SWAP3 POP PUSH2 0x740 SWAP1 DUP5 SWAP1 PUSH2 0x8F6 JUMP JUMPDEST SWAP1 SWAP2 SSTORE POP POP CALLVALUE DUP2 LT ISZERO PUSH2 0x785 JUMPI CALLER PUSH2 0x8FC PUSH2 0x75B DUP4 CALLVALUE PUSH2 0x8DD JUMP JUMPDEST PUSH1 0x40 MLOAD DUP2 ISZERO SWAP1 SWAP3 MUL SWAP2 PUSH1 0x0 DUP2 DUP2 DUP2 DUP6 DUP9 DUP9 CALL SWAP4 POP POP POP POP ISZERO DUP1 ISZERO PUSH2 0x783 JUMPI RETURNDATASIZE PUSH1 0x0 DUP1 RETURNDATACOPY RETURNDATASIZE PUSH1 0x0 REVERT JUMPDEST POP JUMPDEST PUSH1 0x40 DUP1 MLOAD DUP4 DUP2 MSTORE PUSH1 0x20 DUP2 ADD DUP4 SWAP1 MSTORE CALLER SWAP2 PUSH32 0x63232C37F2C1FDCB4FC657DF1CEF6CABC7181C5B604530242590FFE5FA91AB74 SWAP2 ADD PUSH1 0x40 MLOAD DUP1 SWAP2 SUB SWAP1 LOG2 POP POP JUMP JUMPDEST PUSH1 0x0 DUP1 PUSH1 0x0 SWAP1 SLOAD SWAP1 PUSH2 0x100 EXP SWAP1 DIV PUSH1 0x1 PUSH1 0x1 PUSH1 0xA0 SHL SUB AND PUSH1 0x1 PUSH1 0x1 PUSH1 0xA0 SHL SUB AND PUSH3 0x9A9B7B PUSH1 0x40 MLOAD DUP2 PUSH4 0xFFFFFFFF AND PUSH1 0xE0 SHL DUP2 MSTORE PUSH1 0x4 ADD PUSH1 0x20 PUSH1 0x40 MLOAD DUP1 DUP4 SUB DUP2 DUP7 GAS STATICCALL ISZERO DUP1 ISZERO PUSH2 0x817 JUMPI RETURNDATASIZE PUSH1 0x0 DUP1 RETURNDATACOPY RETURNDATASIZE PUSH1 0x0 REVERT JUMPDEST POP POP POP POP PUSH1 0x40 MLOAD RETURNDATASIZE PUSH1 0x1F NOT PUSH1 0x1F DUP3 ADD AND DUP3 ADD DUP1 PUSH1 0x40 MSTORE POP DUP2 ADD SWAP1 PUSH2 0x83B SWAP2 SWAP1 PUSH2 0x895 JUMP JUMPDEST PUSH2 0x847 SWAP1 PUSH2 0x1F4 PUSH2 0x8DD JUMP JUMPDEST SWAP1 POP SWAP1 JUMP JUMPDEST PUSH1 0x0 PUSH1 0x20 DUP3 DUP5 SUB SLT ISZERO PUSH2 0x85E JUMPI PUSH1 0x0 DUP1 REVERT JUMPDEST DUP2 CALLDATALOAD PUSH1 0x1 PUSH1 0x1 PUSH1 0xA0 SHL SUB DUP2 AND DUP2 EQ PUSH2 0x875 JUMPI PUSH1 0x0 DUP1 REVERT JUMPDEST SWAP4 SWAP3 POP POP POP JUMP JUMPDEST PUSH1 0x0 PUSH1 0x20 DUP3 DUP5 SUB SLT ISZERO PUSH2 0x88E JUMPI PUSH1 0x0 DUP1 REVERT JUMPDEST POP CALLDATALOAD SWAP2 SWAP1 POP JUMP JUMPDEST PUSH1 0x0 PUSH1 0x20 DUP3 DUP5 SUB SLT ISZERO PUSH2 0x8A7 JUMPI PUSH1 0x0 DUP1 REVERT JUMPDEST POP MLOAD SWAP2 SWAP1 POP JUMP JUMPDEST PUSH4 0x4E487B71 PUSH1 0xE0 SHL PUSH1 0x0 MSTORE PUSH1 0x11 PUSH1 0x4 MSTORE PUSH1 0x24 PUSH1 0x0 REVERT JUMPDEST PUSH1 0x0 PUSH1 0x1 DUP3 ADD PUSH2 0x8D6 JUMPI PUSH2 0x8D6 PUSH2 0x8AE JUMP JUMPDEST POP PUSH1 0x1 ADD SWAP1 JUMP JUMPDEST DUP2 DUP2 SUB DUP2 DUP2 GT ISZERO PUSH2 0x8F0 JUMPI PUSH2 0x8F0 PUSH2 0x8AE JUMP JUMPDEST SWAP3 SWAP2 POP POP JUMP JUMPDEST DUP1 DUP3 ADD DUP1 DUP3 GT ISZERO PUSH2 0x8F0 JUMPI PUSH2 0x8F0 PUSH2 0x8AE JUMP JUMPDEST DUP1 DUP3 MUL DUP2 ISZERO DUP3 DUP3 DIV DUP5 EQ OR PUSH2 0x8F0 JUMPI PUSH2 0x8F0 PUSH2 0x8AE JUMP INVALID LOG2 PUSH5 0x6970667358 0x22 SLT KECCAK256 0xE5 DUP7 0x29 AND SHR 0x2D 0xAB LT 0x1F SWAP10 PUSH7 0xEC2EF3F7DDA3CE 0x4D CHAINID 0xF8 SWAP5 ADDRESS KECCAK256 PUSH21 0x65C786F72914664736F6C63430008130033000000 "},"methodIdentifiers":{"MAX_PER_WALLET()":"0f2cdd6c","MINT_PRICE()":"c002d23d","batchMint(uint256)":"8467be0d","getMintedByWallet(address)":"1b1cac04","lsp8()":"f69c00e4","mint()":"1249c58b","mintedByWallet(address)":"0d758111","owner()":"8da5cb5b","remainingSupply()":"da0239a6","withdraw()":"3ccfd60b"}}}}}