{"contracts/POKSOMinterV2.sol":{"POKSOMinterV2":{"abi":[{"inputs":[{"internalType":"address","name":"lsp8Address","type":"address"}],"stateMutability":"nonpayable","type":"constructor"},{"anonymous":false,"inputs":[{"indexed":true,"internalType":"address","name":"minter","type":"address"},{"indexed":false,"internalType":"uint256","name":"amount","type":"uint256"},{"indexed":false,"internalType":"uint256","name":"totalPrice","type":"uint256"}],"name":"BatchMint","type":"event"},{"anonymous":false,"inputs":[{"indexed":true,"internalType":"address","name":"minter","type":"address"},{"indexed":true,"internalType":"bytes32","name":"tokenId","type":"bytes32"},{"indexed":false,"internalType":"uint256","name":"price","type":"uint256"}],"name":"Mint","type":"event"},{"anonymous":false,"inputs":[{"indexed":false,"internalType":"uint256","name":"oldPrice","type":"uint256"},{"indexed":false,"internalType":"uint256","name":"newPrice","type":"uint256"}],"name":"MintPriceChanged","type":"event"},{"anonymous":false,"inputs":[{"indexed":true,"internalType":"address","name":"owner","type":"address"},{"indexed":false,"internalType":"uint256","name":"amount","type":"uint256"}],"name":"Withdrawal","type":"event"},{"inputs":[],"name":"MAX_PER_WALLET","outputs":[{"internalType":"uint256","name":"","type":"uint256"}],"stateMutability":"view","type":"function"},{"inputs":[],"name":"MINT_PRICE","outputs":[{"internalType":"uint256","name":"","type":"uint256"}],"stateMutability":"view","type":"function"},{"inputs":[{"internalType":"address","name":"creatorAddress","type":"address"}],"name":"addCreator","outputs":[],"stateMutability":"nonpayable","type":"function"},{"inputs":[{"internalType":"uint256","name":"amount","type":"uint256"}],"name":"batchMint","outputs":[],"stateMutability":"payable","type":"function"},{"inputs":[{"internalType":"address","name":"user","type":"address"}],"name":"getMintInfo","outputs":[{"internalType":"uint256","name":"minted","type":"uint256"},{"internalType":"uint256","name":"remaining","type":"uint256"},{"internalType":"uint256","name":"currentId","type":"uint256"}],"stateMutability":"view","type":"function"},{"inputs":[],"name":"getTokenMetadataBaseURI","outputs":[{"internalType":"bytes","name":"","type":"bytes"}],"stateMutability":"view","type":"function"},{"inputs":[],"name":"lsp8","outputs":[{"internalType":"contract IPOKSOLSP8Pure","name":"","type":"address"}],"stateMutability":"view","type":"function"},{"inputs":[],"name":"mint","outputs":[],"stateMutability":"payable","type":"function"},{"inputs":[{"internalType":"address","name":"","type":"address"}],"name":"mintedByWallet","outputs":[{"internalType":"uint256","name":"","type":"uint256"}],"stateMutability":"view","type":"function"},{"inputs":[],"name":"owner","outputs":[{"internalType":"address","name":"","type":"address"}],"stateMutability":"view","type":"function"},{"inputs":[{"internalType":"bytes","name":"metadataURI","type":"bytes"}],"name":"setLSP4Metadata","outputs":[],"stateMutability":"nonpayable","type":"function"},{"inputs":[{"internalType":"uint256","name":"newPrice","type":"uint256"}],"name":"setMintPrice","outputs":[],"stateMutability":"nonpayable","type":"function"},{"inputs":[{"internalType":"bytes","name":"baseURI","type":"bytes"}],"name":"setTokenMetadataBaseURI","outputs":[],"stateMutability":"nonpayable","type":"function"},{"inputs":[],"name":"withdraw","outputs":[],"stateMutability":"nonpayable","type":"function"},{"stateMutability":"payable","type":"receive"}],"evm":{"bytecode":{"linkReferences":{},"object":"6080604052674563918244f4000060015534801561001c57600080fd5b5060405161113938038061113983398101604081905261003b91610069565b600280546001600160a01b039092166001600160a01b03199283161790556004805490911633179055610099565b60006020828403121561007b57600080fd5b81516001600160a01b038116811461009257600080fd5b9392505050565b611091806100a86000396000f3fe6080604052600436106100e15760003560e01c80638467be0d1161007f578063c002d23d11610059578063c002d23d146102a9578063d7529a99146102bf578063f4a0a528146102df578063f69c00e4146102ff57600080fd5b80638467be0d146102235780638da5cb5b14610236578063b7d08c5c1461026e57600080fd5b80630f2cdd6c116100bb5780630f2cdd6c146101d15780631249c58b146101e65780633b9dce05146101ee5780633ccfd60b1461020e57600080fd5b806304b9059114610149578063055f5b64146101745780630d7581111461019657600080fd5b366101445760405162461bcd60e51b815260206004820152602860248201527f504f4b534f4d696e74657256323a20757365206d696e742829206f722062617460448201526763684d696e74282960c01b60648201526084015b60405180910390fd5b600080fd5b34801561015557600080fd5b5061015e61031f565b60405161016b9190610d74565b60405180910390f35b34801561018057600080fd5b5061019461018f366004610e16565b610396565b005b3480156101a257600080fd5b506101c36101b1366004610e96565b60036020526000908152604090205481565b60405190815260200161016b565b3480156101dd57600080fd5b506101c3600a81565b610194610425565b3480156101fa57600080fd5b50610194610209366004610e96565b6106e7565b34801561021a57600080fd5b50610194610743565b610194610231366004610ec6565b6108a4565b34801561024257600080fd5b50600454610256906001600160a01b031681565b6040516001600160a01b03909116815260200161016b565b34801561027a57600080fd5b5061028e610289366004610e96565b610be1565b6040805193845260208401929092529082015260600161016b565b3480156102b557600080fd5b506101c360015481565b3480156102cb57600080fd5b506101946102da366004610e16565b610c87565b3480156102eb57600080fd5b506101946102fa366004610ec6565b610ce1565b34801561030b57600080fd5b50600254610256906001600160a01b031681565b600254604080516304b9059160e01b815290516060926001600160a01b0316916304b905919160048083019260009291908290030181865afa158015610369573d6000803e3d6000fd5b505050506040513d6000823e601f3d908101601f191682016040526103919190810190610edf565b905090565b6004546001600160a01b031633146103c05760405162461bcd60e51b815260040161013b90610f56565b600254604051630157d6d960e21b81526001600160a01b039091169063055f5b64906103f0908490600401610d74565b600060405180830381600087803b15801561040a57600080fd5b505af115801561041e573d6000803e3d6000fd5b5050505050565b6000546001036104775760405162461bcd60e51b815260206004820152601f60248201527f5265656e7472616e637947756172643a207265656e7472616e742063616c6c00604482015260640161013b565b600160008190555434101561049e5760405162461bcd60e51b815260040161013b90610f8d565b33600090815260036020526040902054600a116104fd5760405162461bcd60e51b815260206004820152601d60248201527f504f4b534f4d696e74657256323a206d6178207065722077616c6c6574000000604482015260640161013b565b60025460408051629a9b7b60e01b815290516101f4926001600160a01b031691629a9b7b9160048083019260209291908290030181865afa158015610546573d6000803e3d6000fd5b505050506040513d601f19601f8201168201806040525081019061056a9190610fd0565b106105c15760405162461bcd60e51b815260206004820152602160248201527f504f4b534f4d696e74657256323a206d617820737570706c79207265616368656044820152601960fa1b606482015260840161013b565b60025460405163755edd1760e01b81523360048201526000916001600160a01b03169063755edd17906024016020604051808303816000875af115801561060c573d6000803e3d6000fd5b505050506040513d601f19601f820116820180604052508101906106309190610fd0565b33600090815260036020526040812080549293509061064e83610fff565b919050555060015434111561069a5760015433906108fc906106709034611018565b6040518115909202916000818181858888f19350505050158015610698573d6000803e3d6000fd5b505b80336001600160a01b03167f103a2d32aec953695f3b9ec5ed6c1c6cb822debe92cf1fcf0832cb2c262c7eec6001546040516106d891815260200190565b60405180910390a35060008055565b6004546001600160a01b031633146107115760405162461bcd60e51b815260040161013b90610f56565b600254604051633b9dce0560e01b81526001600160a01b03838116600483015290911690633b9dce05906024016103f0565b6004546001600160a01b0316331461076d5760405162461bcd60e51b815260040161013b90610f56565b47806107bb5760405162461bcd60e51b815260206004820152601760248201527f504f4b534f4d696e74657256323a206e6f2066756e6473000000000000000000604482015260640161013b565b6004546040516000916001600160a01b03169083908381818185875af1925050503d8060008114610808576040519150601f19603f3d011682016040523d82523d6000602084013e61080d565b606091505b505090508061085e5760405162461bcd60e51b815260206004820152601e60248201527f504f4b534f4d696e74657256323a207472616e73666572206661696c65640000604482015260640161013b565b6004546040518381526001600160a01b03909116907f7fcf532c15f0a6db0bd6d0e038bea71d30d808c7d98cb3bf7268a95bf5081b659060200160405180910390a25050565b6000546001036108f65760405162461bcd60e51b815260206004820152601f60248201527f5265656e7472616e637947756172643a207265656e7472616e742063616c6c00604482015260640161013b565b6001600055801580159061090b5750600a8111155b6109575760405162461bcd60e51b815260206004820152601d60248201527f504f4b534f4d696e74657256323a20696e76616c696420616d6f756e74000000604482015260640161013b565b33600090815260036020526040902054600a90610975908390611031565b11156109d15760405162461bcd60e51b815260206004820152602560248201527f504f4b534f4d696e74657256323a2065786365656473206d6178207065722077604482015264185b1b195d60da1b606482015260840161013b565b6101f481600260009054906101000a90046001600160a01b03166001600160a01b0316629a9b7b6040518163ffffffff1660e01b8152600401602060405180830381865afa158015610a27573d6000803e3d6000fd5b505050506040513d601f19601f82011682018060405250810190610a4b9190610fd0565b610a559190611031565b1115610aa35760405162461bcd60e51b815260206004820181905260248201527f504f4b534f4d696e74657256323a206e6f7420656e6f75676820737570706c79604482015260640161013b565b600081600154610ab39190611044565b905080341015610ad55760405162461bcd60e51b815260040161013b90610f8d565b600254604051630e7e510760e41b8152336004820152602481018490526001600160a01b039091169063e7e5107090604401600060405180830381600087803b158015610b2157600080fd5b505af1158015610b35573d6000803e3d6000fd5b50503360009081526003602052604081208054869450909250610b59908490611031565b909155505034811015610b9e57336108fc610b748334611018565b6040518115909202916000818181858888f19350505050158015610b9c573d6000803e3d6000fd5b505b604080518381526020810183905233917f63232c37f2c1fdcb4fc657df1cef6cabc7181c5b604530242590ffe5fa91ab74910160405180910390a2505060008055565b6001600160a01b0381166000908152600360205260408120549080610c0783600a611018565b9150600260009054906101000a90046001600160a01b03166001600160a01b0316629a9b7b6040518163ffffffff1660e01b8152600401602060405180830381865afa158015610c5b573d6000803e3d6000fd5b505050506040513d601f19601f82011682018060405250810190610c7f9190610fd0565b929491935050565b6004546001600160a01b03163314610cb15760405162461bcd60e51b815260040161013b90610f56565b60025460405163d7529a9960e01b81526001600160a01b039091169063d7529a99906103f0908490600401610d74565b6004546001600160a01b03163314610d0b5760405162461bcd60e51b815260040161013b90610f56565b600180549082905560408051828152602081018490527f2063f24eb8e50478aa99484fcf0f591be5a95d83129c7388c3da4bd776655e7a910160405180910390a15050565b60005b83811015610d6b578181015183820152602001610d53565b50506000910152565b6020815260008251806020840152610d93816040850160208701610d50565b601f01601f19169190910160400192915050565b634e487b7160e01b600052604160045260246000fd5b604051601f8201601f1916810167ffffffffffffffff81118282101715610de657610de6610da7565b604052919050565b600067ffffffffffffffff821115610e0857610e08610da7565b50601f01601f191660200190565b600060208284031215610e2857600080fd5b813567ffffffffffffffff811115610e3f57600080fd5b8201601f81018413610e5057600080fd5b8035610e63610e5e82610dee565b610dbd565b818152856020838501011115610e7857600080fd5b81602084016020830137600091810160200191909152949350505050565b600060208284031215610ea857600080fd5b81356001600160a01b0381168114610ebf57600080fd5b9392505050565b600060208284031215610ed857600080fd5b5035919050565b600060208284031215610ef157600080fd5b815167ffffffffffffffff811115610f0857600080fd5b8201601f81018413610f1957600080fd5b8051610f27610e5e82610dee565b818152856020838501011115610f3c57600080fd5b610f4d826020830160208601610d50565b95945050505050565b60208082526018908201527f504f4b534f4d696e74657256323a206e6f74206f776e65720000000000000000604082015260600190565b60208082526023908201527f504f4b534f4d696e74657256323a20696e73756666696369656e74207061796d604082015262195b9d60ea1b606082015260800190565b600060208284031215610fe257600080fd5b5051919050565b634e487b7160e01b600052601160045260246000fd5b60006001820161101157611011610fe9565b5060010190565b8181038181111561102b5761102b610fe9565b92915050565b8082018082111561102b5761102b610fe9565b808202811582820484141761102b5761102b610fe956fea264697066735822122038261163c77f9545a181fb842f09e55f823b592c55362b03e1aeb260d747a88064736f6c63430008130033","opcodes":"PUSH1 0x80 PUSH1 0x40 MSTORE PUSH8 0x4563918244F40000 PUSH1 0x1 SSTORE CALLVALUE DUP1 ISZERO PUSH2 0x1C JUMPI PUSH1 0x0 DUP1 REVERT JUMPDEST POP PUSH1 0x40 MLOAD PUSH2 0x1139 CODESIZE SUB DUP1 PUSH2 0x1139 DUP4 CODECOPY DUP2 ADD PUSH1 0x40 DUP2 SWAP1 MSTORE PUSH2 0x3B SWAP2 PUSH2 0x69 JUMP JUMPDEST PUSH1 0x2 DUP1 SLOAD PUSH1 0x1 PUSH1 0x1 PUSH1 0xA0 SHL SUB SWAP1 SWAP3 AND PUSH1 0x1 PUSH1 0x1 PUSH1 0xA0 SHL SUB NOT SWAP3 DUP4 AND OR SWAP1 SSTORE PUSH1 0x4 DUP1 SLOAD SWAP1 SWAP2 AND CALLER OR SWAP1 SSTORE PUSH2 0x99 JUMP JUMPDEST PUSH1 0x0 PUSH1 0x20 DUP3 DUP5 SUB SLT ISZERO PUSH2 0x7B JUMPI PUSH1 0x0 DUP1 REVERT JUMPDEST DUP2 MLOAD PUSH1 0x1 PUSH1 0x1 PUSH1 0xA0 SHL SUB DUP2 AND DUP2 EQ PUSH2 0x92 JUMPI PUSH1 0x0 DUP1 REVERT JUMPDEST SWAP4 SWAP3 POP POP POP JUMP JUMPDEST PUSH2 0x1091 DUP1 PUSH2 0xA8 PUSH1 0x0 CODECOPY PUSH1 0x0 RETURN INVALID PUSH1 0x80 PUSH1 0x40 MSTORE PUSH1 0x4 CALLDATASIZE LT PUSH2 0xE1 JUMPI PUSH1 0x0 CALLDATALOAD PUSH1 0xE0 SHR DUP1 PUSH4 0x8467BE0D GT PUSH2 0x7F JUMPI DUP1 PUSH4 0xC002D23D GT PUSH2 0x59 JUMPI DUP1 PUSH4 0xC002D23D EQ PUSH2 0x2A9 JUMPI DUP1 PUSH4 0xD7529A99 EQ PUSH2 0x2BF JUMPI DUP1 PUSH4 0xF4A0A528 EQ PUSH2 0x2DF JUMPI DUP1 PUSH4 0xF69C00E4 EQ PUSH2 0x2FF JUMPI PUSH1 0x0 DUP1 REVERT JUMPDEST DUP1 PUSH4 0x8467BE0D EQ PUSH2 0x223 JUMPI DUP1 PUSH4 0x8DA5CB5B EQ PUSH2 0x236 JUMPI DUP1 PUSH4 0xB7D08C5C EQ PUSH2 0x26E JUMPI PUSH1 0x0 DUP1 REVERT JUMPDEST DUP1 PUSH4 0xF2CDD6C GT PUSH2 0xBB JUMPI DUP1 PUSH4 0xF2CDD6C EQ PUSH2 0x1D1 JUMPI DUP1 PUSH4 0x1249C58B EQ PUSH2 0x1E6 JUMPI DUP1 PUSH4 0x3B9DCE05 EQ PUSH2 0x1EE JUMPI DUP1 PUSH4 0x3CCFD60B EQ PUSH2 0x20E JUMPI PUSH1 0x0 DUP1 REVERT JUMPDEST DUP1 PUSH4 0x4B90591 EQ PUSH2 0x149 JUMPI DUP1 PUSH4 0x55F5B64 EQ PUSH2 0x174 JUMPI DUP1 PUSH4 0xD758111 EQ PUSH2 0x196 JUMPI PUSH1 0x0 DUP1 REVERT JUMPDEST CALLDATASIZE PUSH2 0x144 JUMPI PUSH1 0x40 MLOAD PUSH3 0x461BCD PUSH1 0xE5 SHL DUP2 MSTORE PUSH1 0x20 PUSH1 0x4 DUP3 ADD MSTORE PUSH1 0x28 PUSH1 0x24 DUP3 ADD MSTORE PUSH32 0x504F4B534F4D696E74657256323A20757365206D696E742829206F7220626174 PUSH1 0x44 DUP3 ADD MSTORE PUSH8 0x63684D696E742829 PUSH1 0xC0 SHL PUSH1 0x64 DUP3 ADD MSTORE PUSH1 0x84 ADD JUMPDEST PUSH1 0x40 MLOAD DUP1 SWAP2 SUB SWAP1 REVERT JUMPDEST PUSH1 0x0 DUP1 REVERT JUMPDEST CALLVALUE DUP1 ISZERO PUSH2 0x155 JUMPI PUSH1 0x0 DUP1 REVERT JUMPDEST POP PUSH2 0x15E PUSH2 0x31F JUMP JUMPDEST PUSH1 0x40 MLOAD PUSH2 0x16B SWAP2 SWAP1 PUSH2 0xD74 JUMP JUMPDEST PUSH1 0x40 MLOAD DUP1 SWAP2 SUB SWAP1 RETURN JUMPDEST CALLVALUE DUP1 ISZERO PUSH2 0x180 JUMPI PUSH1 0x0 DUP1 REVERT JUMPDEST POP PUSH2 0x194 PUSH2 0x18F CALLDATASIZE PUSH1 0x4 PUSH2 0xE16 JUMP JUMPDEST PUSH2 0x396 JUMP JUMPDEST STOP JUMPDEST CALLVALUE DUP1 ISZERO PUSH2 0x1A2 JUMPI PUSH1 0x0 DUP1 REVERT JUMPDEST POP PUSH2 0x1C3 PUSH2 0x1B1 CALLDATASIZE PUSH1 0x4 PUSH2 0xE96 JUMP JUMPDEST PUSH1 0x3 PUSH1 0x20 MSTORE PUSH1 0x0 SWAP1 DUP2 MSTORE PUSH1 0x40 SWAP1 KECCAK256 SLOAD DUP2 JUMP JUMPDEST PUSH1 0x40 MLOAD SWAP1 DUP2 MSTORE PUSH1 0x20 ADD PUSH2 0x16B JUMP JUMPDEST CALLVALUE DUP1 ISZERO PUSH2 0x1DD JUMPI PUSH1 0x0 DUP1 REVERT JUMPDEST POP PUSH2 0x1C3 PUSH1 0xA DUP2 JUMP JUMPDEST PUSH2 0x194 PUSH2 0x425 JUMP JUMPDEST CALLVALUE DUP1 ISZERO PUSH2 0x1FA JUMPI PUSH1 0x0 DUP1 REVERT JUMPDEST POP PUSH2 0x194 PUSH2 0x209 CALLDATASIZE PUSH1 0x4 PUSH2 0xE96 JUMP JUMPDEST PUSH2 0x6E7 JUMP JUMPDEST CALLVALUE DUP1 ISZERO PUSH2 0x21A JUMPI PUSH1 0x0 DUP1 REVERT JUMPDEST POP PUSH2 0x194 PUSH2 0x743 JUMP JUMPDEST PUSH2 0x194 PUSH2 0x231 CALLDATASIZE PUSH1 0x4 PUSH2 0xEC6 JUMP JUMPDEST PUSH2 0x8A4 JUMP JUMPDEST CALLVALUE DUP1 ISZERO PUSH2 0x242 JUMPI PUSH1 0x0 DUP1 REVERT JUMPDEST POP PUSH1 0x4 SLOAD PUSH2 0x256 SWAP1 PUSH1 0x1 PUSH1 0x1 PUSH1 0xA0 SHL SUB AND DUP2 JUMP JUMPDEST PUSH1 0x40 MLOAD PUSH1 0x1 PUSH1 0x1 PUSH1 0xA0 SHL SUB SWAP1 SWAP2 AND DUP2 MSTORE PUSH1 0x20 ADD PUSH2 0x16B JUMP JUMPDEST CALLVALUE DUP1 ISZERO PUSH2 0x27A JUMPI PUSH1 0x0 DUP1 REVERT JUMPDEST POP PUSH2 0x28E PUSH2 0x289 CALLDATASIZE PUSH1 0x4 PUSH2 0xE96 JUMP JUMPDEST PUSH2 0xBE1 JUMP JUMPDEST PUSH1 0x40 DUP1 MLOAD SWAP4 DUP5 MSTORE PUSH1 0x20 DUP5 ADD SWAP3 SWAP1 SWAP3 MSTORE SWAP1 DUP3 ADD MSTORE PUSH1 0x60 ADD PUSH2 0x16B JUMP JUMPDEST CALLVALUE DUP1 ISZERO PUSH2 0x2B5 JUMPI PUSH1 0x0 DUP1 REVERT JUMPDEST POP PUSH2 0x1C3 PUSH1 0x1 SLOAD DUP2 JUMP JUMPDEST CALLVALUE DUP1 ISZERO PUSH2 0x2CB JUMPI PUSH1 0x0 DUP1 REVERT JUMPDEST POP PUSH2 0x194 PUSH2 0x2DA CALLDATASIZE PUSH1 0x4 PUSH2 0xE16 JUMP JUMPDEST PUSH2 0xC87 JUMP JUMPDEST CALLVALUE DUP1 ISZERO PUSH2 0x2EB JUMPI PUSH1 0x0 DUP1 REVERT JUMPDEST POP PUSH2 0x194 PUSH2 0x2FA CALLDATASIZE PUSH1 0x4 PUSH2 0xEC6 JUMP JUMPDEST PUSH2 0xCE1 JUMP JUMPDEST CALLVALUE DUP1 ISZERO PUSH2 0x30B JUMPI PUSH1 0x0 DUP1 REVERT JUMPDEST POP PUSH1 0x2 SLOAD PUSH2 0x256 SWAP1 PUSH1 0x1 PUSH1 0x1 PUSH1 0xA0 SHL SUB AND DUP2 JUMP JUMPDEST PUSH1 0x2 SLOAD PUSH1 0x40 DUP1 MLOAD PUSH4 0x4B90591 PUSH1 0xE0 SHL DUP2 MSTORE SWAP1 MLOAD PUSH1 0x60 SWAP3 PUSH1 0x1 PUSH1 0x1 PUSH1 0xA0 SHL SUB AND SWAP2 PUSH4 0x4B90591 SWAP2 PUSH1 0x4 DUP1 DUP4 ADD SWAP3 PUSH1 0x0 SWAP3 SWAP2 SWAP1 DUP3 SWAP1 SUB ADD DUP2 DUP7 GAS STATICCALL ISZERO DUP1 ISZERO PUSH2 0x369 JUMPI RETURNDATASIZE PUSH1 0x0 DUP1 RETURNDATACOPY RETURNDATASIZE PUSH1 0x0 REVERT JUMPDEST POP POP POP POP PUSH1 0x40 MLOAD RETURNDATASIZE PUSH1 0x0 DUP3 RETURNDATACOPY PUSH1 0x1F RETURNDATASIZE SWAP1 DUP2 ADD PUSH1 0x1F NOT AND DUP3 ADD PUSH1 0x40 MSTORE PUSH2 0x391 SWAP2 SWAP1 DUP2 ADD SWAP1 PUSH2 0xEDF JUMP JUMPDEST SWAP1 POP SWAP1 JUMP JUMPDEST PUSH1 0x4 SLOAD PUSH1 0x1 PUSH1 0x1 PUSH1 0xA0 SHL SUB AND CALLER EQ PUSH2 0x3C0 JUMPI PUSH1 0x40 MLOAD PUSH3 0x461BCD PUSH1 0xE5 SHL DUP2 MSTORE PUSH1 0x4 ADD PUSH2 0x13B SWAP1 PUSH2 0xF56 JUMP JUMPDEST PUSH1 0x2 SLOAD PUSH1 0x40 MLOAD PUSH4 0x157D6D9 PUSH1 0xE2 SHL DUP2 MSTORE PUSH1 0x1 PUSH1 0x1 PUSH1 0xA0 SHL SUB SWAP1 SWAP2 AND SWAP1 PUSH4 0x55F5B64 SWAP1 PUSH2 0x3F0 SWAP1 DUP5 SWAP1 PUSH1 0x4 ADD PUSH2 0xD74 JUMP JUMPDEST PUSH1 0x0 PUSH1 0x40 MLOAD DUP1 DUP4 SUB DUP2 PUSH1 0x0 DUP8 DUP1 EXTCODESIZE ISZERO DUP1 ISZERO PUSH2 0x40A JUMPI PUSH1 0x0 DUP1 REVERT JUMPDEST POP GAS CALL ISZERO DUP1 ISZERO PUSH2 0x41E JUMPI RETURNDATASIZE PUSH1 0x0 DUP1 RETURNDATACOPY RETURNDATASIZE PUSH1 0x0 REVERT JUMPDEST POP POP POP POP POP JUMP JUMPDEST PUSH1 0x0 SLOAD PUSH1 0x1 SUB PUSH2 0x477 JUMPI PUSH1 0x40 MLOAD PUSH3 0x461BCD PUSH1 0xE5 SHL DUP2 MSTORE PUSH1 0x20 PUSH1 0x4 DUP3 ADD MSTORE PUSH1 0x1F PUSH1 0x24 DUP3 ADD MSTORE PUSH32 0x5265656E7472616E637947756172643A207265656E7472616E742063616C6C00 PUSH1 0x44 DUP3 ADD MSTORE PUSH1 0x64 ADD PUSH2 0x13B JUMP JUMPDEST PUSH1 0x1 PUSH1 0x0 DUP2 SWAP1 SSTORE SLOAD CALLVALUE LT ISZERO PUSH2 0x49E JUMPI PUSH1 0x40 MLOAD PUSH3 0x461BCD PUSH1 0xE5 SHL DUP2 MSTORE PUSH1 0x4 ADD PUSH2 0x13B SWAP1 PUSH2 0xF8D JUMP JUMPDEST CALLER PUSH1 0x0 SWAP1 DUP2 MSTORE PUSH1 0x3 PUSH1 0x20 MSTORE PUSH1 0x40 SWAP1 KECCAK256 SLOAD PUSH1 0xA GT PUSH2 0x4FD JUMPI PUSH1 0x40 MLOAD PUSH3 0x461BCD PUSH1 0xE5 SHL DUP2 MSTORE PUSH1 0x20 PUSH1 0x4 DUP3 ADD MSTORE PUSH1 0x1D PUSH1 0x24 DUP3 ADD MSTORE PUSH32 0x504F4B534F4D696E74657256323A206D6178207065722077616C6C6574000000 PUSH1 0x44 DUP3 ADD MSTORE PUSH1 0x64 ADD PUSH2 0x13B JUMP JUMPDEST PUSH1 0x2 SLOAD PUSH1 0x40 DUP1 MLOAD PUSH3 0x9A9B7B PUSH1 0xE0 SHL DUP2 MSTORE SWAP1 MLOAD PUSH2 0x1F4 SWAP3 PUSH1 0x1 PUSH1 0x1 PUSH1 0xA0 SHL SUB AND SWAP2 PUSH3 0x9A9B7B SWAP2 PUSH1 0x4 DUP1 DUP4 ADD SWAP3 PUSH1 0x20 SWAP3 SWAP2 SWAP1 DUP3 SWAP1 SUB ADD DUP2 DUP7 GAS STATICCALL ISZERO DUP1 ISZERO PUSH2 0x546 JUMPI RETURNDATASIZE PUSH1 0x0 DUP1 RETURNDATACOPY RETURNDATASIZE PUSH1 0x0 REVERT JUMPDEST POP POP POP POP PUSH1 0x40 MLOAD RETURNDATASIZE PUSH1 0x1F NOT PUSH1 0x1F DUP3 ADD AND DUP3 ADD DUP1 PUSH1 0x40 MSTORE POP DUP2 ADD SWAP1 PUSH2 0x56A SWAP2 SWAP1 PUSH2 0xFD0 JUMP JUMPDEST LT PUSH2 0x5C1 JUMPI PUSH1 0x40 MLOAD PUSH3 0x461BCD PUSH1 0xE5 SHL DUP2 MSTORE PUSH1 0x20 PUSH1 0x4 DUP3 ADD MSTORE PUSH1 0x21 PUSH1 0x24 DUP3 ADD MSTORE PUSH32 0x504F4B534F4D696E74657256323A206D617820737570706C7920726561636865 PUSH1 0x44 DUP3 ADD MSTORE PUSH1 0x19 PUSH1 0xFA SHL PUSH1 0x64 DUP3 ADD MSTORE PUSH1 0x84 ADD PUSH2 0x13B JUMP JUMPDEST PUSH1 0x2 SLOAD PUSH1 0x40 MLOAD PUSH4 0x755EDD17 PUSH1 0xE0 SHL DUP2 MSTORE CALLER PUSH1 0x4 DUP3 ADD MSTORE PUSH1 0x0 SWAP2 PUSH1 0x1 PUSH1 0x1 PUSH1 0xA0 SHL SUB AND SWAP1 PUSH4 0x755EDD17 SWAP1 PUSH1 0x24 ADD PUSH1 0x20 PUSH1 0x40 MLOAD DUP1 DUP4 SUB DUP2 PUSH1 0x0 DUP8 GAS CALL ISZERO DUP1 ISZERO PUSH2 0x60C JUMPI RETURNDATASIZE PUSH1 0x0 DUP1 RETURNDATACOPY RETURNDATASIZE PUSH1 0x0 REVERT JUMPDEST POP POP POP POP PUSH1 0x40 MLOAD RETURNDATASIZE PUSH1 0x1F NOT PUSH1 0x1F DUP3 ADD AND DUP3 ADD DUP1 PUSH1 0x40 MSTORE POP DUP2 ADD SWAP1 PUSH2 0x630 SWAP2 SWAP1 PUSH2 0xFD0 JUMP JUMPDEST CALLER PUSH1 0x0 SWAP1 DUP2 MSTORE PUSH1 0x3 PUSH1 0x20 MSTORE PUSH1 0x40 DUP2 KECCAK256 DUP1 SLOAD SWAP3 SWAP4 POP SWAP1 PUSH2 0x64E DUP4 PUSH2 0xFFF JUMP JUMPDEST SWAP2 SWAP1 POP SSTORE POP PUSH1 0x1 SLOAD CALLVALUE GT ISZERO PUSH2 0x69A JUMPI PUSH1 0x1 SLOAD CALLER SWAP1 PUSH2 0x8FC SWAP1 PUSH2 0x670 SWAP1 CALLVALUE PUSH2 0x1018 JUMP JUMPDEST PUSH1 0x40 MLOAD DUP2 ISZERO SWAP1 SWAP3 MUL SWAP2 PUSH1 0x0 DUP2 DUP2 DUP2 DUP6 DUP9 DUP9 CALL SWAP4 POP POP POP POP ISZERO DUP1 ISZERO PUSH2 0x698 JUMPI RETURNDATASIZE PUSH1 0x0 DUP1 RETURNDATACOPY RETURNDATASIZE PUSH1 0x0 REVERT JUMPDEST POP JUMPDEST DUP1 CALLER PUSH1 0x1 PUSH1 0x1 PUSH1 0xA0 SHL SUB AND PUSH32 0x103A2D32AEC953695F3B9EC5ED6C1C6CB822DEBE92CF1FCF0832CB2C262C7EEC PUSH1 0x1 SLOAD PUSH1 0x40 MLOAD PUSH2 0x6D8 SWAP2 DUP2 MSTORE PUSH1 0x20 ADD SWAP1 JUMP JUMPDEST PUSH1 0x40 MLOAD DUP1 SWAP2 SUB SWAP1 LOG3 POP PUSH1 0x0 DUP1 SSTORE JUMP JUMPDEST PUSH1 0x4 SLOAD PUSH1 0x1 PUSH1 0x1 PUSH1 0xA0 SHL SUB AND CALLER EQ PUSH2 0x711 JUMPI PUSH1 0x40 MLOAD PUSH3 0x461BCD PUSH1 0xE5 SHL DUP2 MSTORE PUSH1 0x4 ADD PUSH2 0x13B SWAP1 PUSH2 0xF56 JUMP JUMPDEST PUSH1 0x2 SLOAD PUSH1 0x40 MLOAD PUSH4 0x3B9DCE05 PUSH1 0xE0 SHL DUP2 MSTORE PUSH1 0x1 PUSH1 0x1 PUSH1 0xA0 SHL SUB DUP4 DUP2 AND PUSH1 0x4 DUP4 ADD MSTORE SWAP1 SWAP2 AND SWAP1 PUSH4 0x3B9DCE05 SWAP1 PUSH1 0x24 ADD PUSH2 0x3F0 JUMP JUMPDEST PUSH1 0x4 SLOAD PUSH1 0x1 PUSH1 0x1 PUSH1 0xA0 SHL SUB AND CALLER EQ PUSH2 0x76D JUMPI PUSH1 0x40 MLOAD PUSH3 0x461BCD PUSH1 0xE5 SHL DUP2 MSTORE PUSH1 0x4 ADD PUSH2 0x13B SWAP1 PUSH2 0xF56 JUMP JUMPDEST SELFBALANCE DUP1 PUSH2 0x7BB JUMPI PUSH1 0x40 MLOAD PUSH3 0x461BCD PUSH1 0xE5 SHL DUP2 MSTORE PUSH1 0x20 PUSH1 0x4 DUP3 ADD MSTORE PUSH1 0x17 PUSH1 0x24 DUP3 ADD MSTORE PUSH32 0x504F4B534F4D696E74657256323A206E6F2066756E6473000000000000000000 PUSH1 0x44 DUP3 ADD MSTORE PUSH1 0x64 ADD PUSH2 0x13B JUMP JUMPDEST PUSH1 0x4 SLOAD PUSH1 0x40 MLOAD PUSH1 0x0 SWAP2 PUSH1 0x1 PUSH1 0x1 PUSH1 0xA0 SHL SUB AND SWAP1 DUP4 SWAP1 DUP4 DUP2 DUP2 DUP2 DUP6 DUP8 GAS CALL SWAP3 POP POP POP RETURNDATASIZE DUP1 PUSH1 0x0 DUP2 EQ PUSH2 0x808 JUMPI PUSH1 0x40 MLOAD SWAP2 POP PUSH1 0x1F NOT PUSH1 0x3F RETURNDATASIZE ADD AND DUP3 ADD PUSH1 0x40 MSTORE RETURNDATASIZE DUP3 MSTORE RETURNDATASIZE PUSH1 0x0 PUSH1 0x20 DUP5 ADD RETURNDATACOPY PUSH2 0x80D JUMP JUMPDEST PUSH1 0x60 SWAP2 POP JUMPDEST POP POP SWAP1 POP DUP1 PUSH2 0x85E JUMPI PUSH1 0x40 MLOAD PUSH3 0x461BCD PUSH1 0xE5 SHL DUP2 MSTORE PUSH1 0x20 PUSH1 0x4 DUP3 ADD MSTORE PUSH1 0x1E PUSH1 0x24 DUP3 ADD MSTORE PUSH32 0x504F4B534F4D696E74657256323A207472616E73666572206661696C65640000 PUSH1 0x44 DUP3 ADD MSTORE PUSH1 0x64 ADD PUSH2 0x13B JUMP JUMPDEST PUSH1 0x4 SLOAD PUSH1 0x40 MLOAD DUP4 DUP2 MSTORE PUSH1 0x1 PUSH1 0x1 PUSH1 0xA0 SHL SUB SWAP1 SWAP2 AND SWAP1 PUSH32 0x7FCF532C15F0A6DB0BD6D0E038BEA71D30D808C7D98CB3BF7268A95BF5081B65 SWAP1 PUSH1 0x20 ADD PUSH1 0x40 MLOAD DUP1 SWAP2 SUB SWAP1 LOG2 POP POP JUMP JUMPDEST PUSH1 0x0 SLOAD PUSH1 0x1 SUB PUSH2 0x8F6 JUMPI PUSH1 0x40 MLOAD PUSH3 0x461BCD PUSH1 0xE5 SHL DUP2 MSTORE PUSH1 0x20 PUSH1 0x4 DUP3 ADD MSTORE PUSH1 0x1F PUSH1 0x24 DUP3 ADD MSTORE PUSH32 0x5265656E7472616E637947756172643A207265656E7472616E742063616C6C00 PUSH1 0x44 DUP3 ADD MSTORE PUSH1 0x64 ADD PUSH2 0x13B JUMP JUMPDEST PUSH1 0x1 PUSH1 0x0 SSTORE DUP1 ISZERO DUP1 ISZERO SWAP1 PUSH2 0x90B JUMPI POP PUSH1 0xA DUP2 GT ISZERO JUMPDEST PUSH2 0x957 JUMPI PUSH1 0x40 MLOAD PUSH3 0x461BCD PUSH1 0xE5 SHL DUP2 MSTORE PUSH1 0x20 PUSH1 0x4 DUP3 ADD MSTORE PUSH1 0x1D PUSH1 0x24 DUP3 ADD MSTORE PUSH32 0x504F4B534F4D696E74657256323A20696E76616C696420616D6F756E74000000 PUSH1 0x44 DUP3 ADD MSTORE PUSH1 0x64 ADD PUSH2 0x13B JUMP JUMPDEST CALLER PUSH1 0x0 SWAP1 DUP2 MSTORE PUSH1 0x3 PUSH1 0x20 MSTORE PUSH1 0x40 SWAP1 KECCAK256 SLOAD PUSH1 0xA SWAP1 PUSH2 0x975 SWAP1 DUP4 SWAP1 PUSH2 0x1031 JUMP JUMPDEST GT ISZERO PUSH2 0x9D1 JUMPI PUSH1 0x40 MLOAD PUSH3 0x461BCD PUSH1 0xE5 SHL DUP2 MSTORE PUSH1 0x20 PUSH1 0x4 DUP3 ADD MSTORE PUSH1 0x25 PUSH1 0x24 DUP3 ADD MSTORE PUSH32 0x504F4B534F4D696E74657256323A2065786365656473206D6178207065722077 PUSH1 0x44 DUP3 ADD MSTORE PUSH5 0x185B1B195D PUSH1 0xDA SHL PUSH1 0x64 DUP3 ADD MSTORE PUSH1 0x84 ADD PUSH2 0x13B JUMP JUMPDEST PUSH2 0x1F4 DUP2 PUSH1 0x2 PUSH1 0x0 SWAP1 SLOAD SWAP1 PUSH2 0x100 EXP SWAP1 DIV PUSH1 0x1 PUSH1 0x1 PUSH1 0xA0 SHL SUB AND PUSH1 0x1 PUSH1 0x1 PUSH1 0xA0 SHL SUB AND PUSH3 0x9A9B7B PUSH1 0x40 MLOAD DUP2 PUSH4 0xFFFFFFFF AND PUSH1 0xE0 SHL DUP2 MSTORE PUSH1 0x4 ADD PUSH1 0x20 PUSH1 0x40 MLOAD DUP1 DUP4 SUB DUP2 DUP7 GAS STATICCALL ISZERO DUP1 ISZERO PUSH2 0xA27 JUMPI RETURNDATASIZE PUSH1 0x0 DUP1 RETURNDATACOPY RETURNDATASIZE PUSH1 0x0 REVERT JUMPDEST POP POP POP POP PUSH1 0x40 MLOAD RETURNDATASIZE PUSH1 0x1F NOT PUSH1 0x1F DUP3 ADD AND DUP3 ADD DUP1 PUSH1 0x40 MSTORE POP DUP2 ADD SWAP1 PUSH2 0xA4B SWAP2 SWAP1 PUSH2 0xFD0 JUMP JUMPDEST PUSH2 0xA55 SWAP2 SWAP1 PUSH2 0x1031 JUMP JUMPDEST GT ISZERO PUSH2 0xAA3 JUMPI PUSH1 0x40 MLOAD PUSH3 0x461BCD PUSH1 0xE5 SHL DUP2 MSTORE PUSH1 0x20 PUSH1 0x4 DUP3 ADD DUP2 SWAP1 MSTORE PUSH1 0x24 DUP3 ADD MSTORE PUSH32 0x504F4B534F4D696E74657256323A206E6F7420656E6F75676820737570706C79 PUSH1 0x44 DUP3 ADD MSTORE PUSH1 0x64 ADD PUSH2 0x13B JUMP JUMPDEST PUSH1 0x0 DUP2 PUSH1 0x1 SLOAD PUSH2 0xAB3 SWAP2 SWAP1 PUSH2 0x1044 JUMP JUMPDEST SWAP1 POP DUP1 CALLVALUE LT ISZERO PUSH2 0xAD5 JUMPI PUSH1 0x40 MLOAD PUSH3 0x461BCD PUSH1 0xE5 SHL DUP2 MSTORE PUSH1 0x4 ADD PUSH2 0x13B SWAP1 PUSH2 0xF8D JUMP JUMPDEST PUSH1 0x2 SLOAD PUSH1 0x40 MLOAD PUSH4 0xE7E5107 PUSH1 0xE4 SHL DUP2 MSTORE CALLER PUSH1 0x4 DUP3 ADD MSTORE PUSH1 0x24 DUP2 ADD DUP5 SWAP1 MSTORE PUSH1 0x1 PUSH1 0x1 PUSH1 0xA0 SHL SUB SWAP1 SWAP2 AND SWAP1 PUSH4 0xE7E51070 SWAP1 PUSH1 0x44 ADD PUSH1 0x0 PUSH1 0x40 MLOAD DUP1 DUP4 SUB DUP2 PUSH1 0x0 DUP8 DUP1 EXTCODESIZE ISZERO DUP1 ISZERO PUSH2 0xB21 JUMPI PUSH1 0x0 DUP1 REVERT JUMPDEST POP GAS CALL ISZERO DUP1 ISZERO PUSH2 0xB35 JUMPI RETURNDATASIZE PUSH1 0x0 DUP1 RETURNDATACOPY RETURNDATASIZE PUSH1 0x0 REVERT JUMPDEST POP POP CALLER PUSH1 0x0 SWAP1 DUP2 MSTORE PUSH1 0x3 PUSH1 0x20 MSTORE PUSH1 0x40 DUP2 KECCAK256 DUP1 SLOAD DUP7 SWAP5 POP SWAP1 SWAP3 POP PUSH2 0xB59 SWAP1 DUP5 SWAP1 PUSH2 0x1031 JUMP JUMPDEST SWAP1 SWAP2 SSTORE POP POP CALLVALUE DUP2 LT ISZERO PUSH2 0xB9E JUMPI CALLER PUSH2 0x8FC PUSH2 0xB74 DUP4 CALLVALUE PUSH2 0x1018 JUMP JUMPDEST PUSH1 0x40 MLOAD DUP2 ISZERO SWAP1 SWAP3 MUL SWAP2 PUSH1 0x0 DUP2 DUP2 DUP2 DUP6 DUP9 DUP9 CALL SWAP4 POP POP POP POP ISZERO DUP1 ISZERO PUSH2 0xB9C JUMPI RETURNDATASIZE PUSH1 0x0 DUP1 RETURNDATACOPY RETURNDATASIZE PUSH1 0x0 REVERT JUMPDEST POP JUMPDEST PUSH1 0x40 DUP1 MLOAD DUP4 DUP2 MSTORE PUSH1 0x20 DUP2 ADD DUP4 SWAP1 MSTORE CALLER SWAP2 PUSH32 0x63232C37F2C1FDCB4FC657DF1CEF6CABC7181C5B604530242590FFE5FA91AB74 SWAP2 ADD PUSH1 0x40 MLOAD DUP1 SWAP2 SUB SWAP1 LOG2 POP POP PUSH1 0x0 DUP1 SSTORE JUMP JUMPDEST PUSH1 0x1 PUSH1 0x1 PUSH1 0xA0 SHL SUB DUP2 AND PUSH1 0x0 SWAP1 DUP2 MSTORE PUSH1 0x3 PUSH1 0x20 MSTORE PUSH1 0x40 DUP2 KECCAK256 SLOAD SWAP1 DUP1 PUSH2 0xC07 DUP4 PUSH1 0xA PUSH2 0x1018 JUMP JUMPDEST SWAP2 POP PUSH1 0x2 PUSH1 0x0 SWAP1 SLOAD SWAP1 PUSH2 0x100 EXP SWAP1 DIV PUSH1 0x1 PUSH1 0x1 PUSH1 0xA0 SHL SUB AND PUSH1 0x1 PUSH1 0x1 PUSH1 0xA0 SHL SUB AND PUSH3 0x9A9B7B PUSH1 0x40 MLOAD DUP2 PUSH4 0xFFFFFFFF AND PUSH1 0xE0 SHL DUP2 MSTORE PUSH1 0x4 ADD PUSH1 0x20 PUSH1 0x40 MLOAD DUP1 DUP4 SUB DUP2 DUP7 GAS STATICCALL ISZERO DUP1 ISZERO PUSH2 0xC5B JUMPI RETURNDATASIZE PUSH1 0x0 DUP1 RETURNDATACOPY RETURNDATASIZE PUSH1 0x0 REVERT JUMPDEST POP POP POP POP PUSH1 0x40 MLOAD RETURNDATASIZE PUSH1 0x1F NOT PUSH1 0x1F DUP3 ADD AND DUP3 ADD DUP1 PUSH1 0x40 MSTORE POP DUP2 ADD SWAP1 PUSH2 0xC7F SWAP2 SWAP1 PUSH2 0xFD0 JUMP JUMPDEST SWAP3 SWAP5 SWAP2 SWAP4 POP POP JUMP JUMPDEST PUSH1 0x4 SLOAD PUSH1 0x1 PUSH1 0x1 PUSH1 0xA0 SHL SUB AND CALLER EQ PUSH2 0xCB1 JUMPI PUSH1 0x40 MLOAD PUSH3 0x461BCD PUSH1 0xE5 SHL DUP2 MSTORE PUSH1 0x4 ADD PUSH2 0x13B SWAP1 PUSH2 0xF56 JUMP JUMPDEST PUSH1 0x2 SLOAD PUSH1 0x40 MLOAD PUSH4 0xD7529A99 PUSH1 0xE0 SHL DUP2 MSTORE PUSH1 0x1 PUSH1 0x1 PUSH1 0xA0 SHL SUB SWAP1 SWAP2 AND SWAP1 PUSH4 0xD7529A99 SWAP1 PUSH2 0x3F0 SWAP1 DUP5 SWAP1 PUSH1 0x4 ADD PUSH2 0xD74 JUMP JUMPDEST PUSH1 0x4 SLOAD PUSH1 0x1 PUSH1 0x1 PUSH1 0xA0 SHL SUB AND CALLER EQ PUSH2 0xD0B JUMPI PUSH1 0x40 MLOAD PUSH3 0x461BCD PUSH1 0xE5 SHL DUP2 MSTORE PUSH1 0x4 ADD PUSH2 0x13B SWAP1 PUSH2 0xF56 JUMP JUMPDEST PUSH1 0x1 DUP1 SLOAD SWAP1 DUP3 SWAP1 SSTORE PUSH1 0x40 DUP1 MLOAD DUP3 DUP2 MSTORE PUSH1 0x20 DUP2 ADD DUP5 SWAP1 MSTORE PUSH32 0x2063F24EB8E50478AA99484FCF0F591BE5A95D83129C7388C3DA4BD776655E7A SWAP2 ADD PUSH1 0x40 MLOAD DUP1 SWAP2 SUB SWAP1 LOG1 POP POP JUMP JUMPDEST PUSH1 0x0 JUMPDEST DUP4 DUP2 LT ISZERO PUSH2 0xD6B JUMPI DUP2 DUP2 ADD MLOAD DUP4 DUP3 ADD MSTORE PUSH1 0x20 ADD PUSH2 0xD53 JUMP JUMPDEST POP POP PUSH1 0x0 SWAP2 ADD MSTORE JUMP JUMPDEST PUSH1 0x20 DUP2 MSTORE PUSH1 0x0 DUP3 MLOAD DUP1 PUSH1 0x20 DUP5 ADD MSTORE PUSH2 0xD93 DUP2 PUSH1 0x40 DUP6 ADD PUSH1 0x20 DUP8 ADD PUSH2 0xD50 JUMP JUMPDEST PUSH1 0x1F ADD PUSH1 0x1F NOT AND SWAP2 SWAP1 SWAP2 ADD PUSH1 0x40 ADD SWAP3 SWAP2 POP POP JUMP JUMPDEST PUSH4 0x4E487B71 PUSH1 0xE0 SHL PUSH1 0x0 MSTORE PUSH1 0x41 PUSH1 0x4 MSTORE PUSH1 0x24 PUSH1 0x0 REVERT JUMPDEST PUSH1 0x40 MLOAD PUSH1 0x1F DUP3 ADD PUSH1 0x1F NOT AND DUP2 ADD PUSH8 0xFFFFFFFFFFFFFFFF DUP2 GT DUP3 DUP3 LT OR ISZERO PUSH2 0xDE6 JUMPI PUSH2 0xDE6 PUSH2 0xDA7 JUMP JUMPDEST PUSH1 0x40 MSTORE SWAP2 SWAP1 POP JUMP JUMPDEST PUSH1 0x0 PUSH8 0xFFFFFFFFFFFFFFFF DUP3 GT ISZERO PUSH2 0xE08 JUMPI PUSH2 0xE08 PUSH2 0xDA7 JUMP JUMPDEST POP PUSH1 0x1F ADD PUSH1 0x1F NOT AND PUSH1 0x20 ADD SWAP1 JUMP JUMPDEST PUSH1 0x0 PUSH1 0x20 DUP3 DUP5 SUB SLT ISZERO PUSH2 0xE28 JUMPI PUSH1 0x0 DUP1 REVERT JUMPDEST DUP2 CALLDATALOAD PUSH8 0xFFFFFFFFFFFFFFFF DUP2 GT ISZERO PUSH2 0xE3F JUMPI PUSH1 0x0 DUP1 REVERT JUMPDEST DUP3 ADD PUSH1 0x1F DUP2 ADD DUP5 SGT PUSH2 0xE50 JUMPI PUSH1 0x0 DUP1 REVERT JUMPDEST DUP1 CALLDATALOAD PUSH2 0xE63 PUSH2 0xE5E DUP3 PUSH2 0xDEE JUMP JUMPDEST PUSH2 0xDBD JUMP JUMPDEST DUP2 DUP2 MSTORE DUP6 PUSH1 0x20 DUP4 DUP6 ADD ADD GT ISZERO PUSH2 0xE78 JUMPI PUSH1 0x0 DUP1 REVERT JUMPDEST DUP2 PUSH1 0x20 DUP5 ADD PUSH1 0x20 DUP4 ADD CALLDATACOPY PUSH1 0x0 SWAP2 DUP2 ADD PUSH1 0x20 ADD SWAP2 SWAP1 SWAP2 MSTORE SWAP5 SWAP4 POP POP POP POP JUMP JUMPDEST PUSH1 0x0 PUSH1 0x20 DUP3 DUP5 SUB SLT ISZERO PUSH2 0xEA8 JUMPI PUSH1 0x0 DUP1 REVERT JUMPDEST DUP2 CALLDATALOAD PUSH1 0x1 PUSH1 0x1 PUSH1 0xA0 SHL SUB DUP2 AND DUP2 EQ PUSH2 0xEBF JUMPI PUSH1 0x0 DUP1 REVERT JUMPDEST SWAP4 SWAP3 POP POP POP JUMP JUMPDEST PUSH1 0x0 PUSH1 0x20 DUP3 DUP5 SUB SLT ISZERO PUSH2 0xED8 JUMPI PUSH1 0x0 DUP1 REVERT JUMPDEST POP CALLDATALOAD SWAP2 SWAP1 POP JUMP JUMPDEST PUSH1 0x0 PUSH1 0x20 DUP3 DUP5 SUB SLT ISZERO PUSH2 0xEF1 JUMPI PUSH1 0x0 DUP1 REVERT JUMPDEST DUP2 MLOAD PUSH8 0xFFFFFFFFFFFFFFFF DUP2 GT ISZERO PUSH2 0xF08 JUMPI PUSH1 0x0 DUP1 REVERT JUMPDEST DUP3 ADD PUSH1 0x1F DUP2 ADD DUP5 SGT PUSH2 0xF19 JUMPI PUSH1 0x0 DUP1 REVERT JUMPDEST DUP1 MLOAD PUSH2 0xF27 PUSH2 0xE5E DUP3 PUSH2 0xDEE JUMP JUMPDEST DUP2 DUP2 MSTORE DUP6 PUSH1 0x20 DUP4 DUP6 ADD ADD GT ISZERO PUSH2 0xF3C JUMPI PUSH1 0x0 DUP1 REVERT JUMPDEST PUSH2 0xF4D DUP3 PUSH1 0x20 DUP4 ADD PUSH1 0x20 DUP7 ADD PUSH2 0xD50 JUMP JUMPDEST SWAP6 SWAP5 POP POP POP POP POP JUMP JUMPDEST PUSH1 0x20 DUP1 DUP3 MSTORE PUSH1 0x18 SWAP1 DUP3 ADD MSTORE PUSH32 0x504F4B534F4D696E74657256323A206E6F74206F776E65720000000000000000 PUSH1 0x40 DUP3 ADD MSTORE PUSH1 0x60 ADD SWAP1 JUMP JUMPDEST PUSH1 0x20 DUP1 DUP3 MSTORE PUSH1 0x23 SWAP1 DUP3 ADD MSTORE PUSH32 0x504F4B534F4D696E74657256323A20696E73756666696369656E74207061796D PUSH1 0x40 DUP3 ADD MSTORE PUSH3 0x195B9D PUSH1 0xEA SHL PUSH1 0x60 DUP3 ADD MSTORE PUSH1 0x80 ADD SWAP1 JUMP JUMPDEST PUSH1 0x0 PUSH1 0x20 DUP3 DUP5 SUB SLT ISZERO PUSH2 0xFE2 JUMPI PUSH1 0x0 DUP1 REVERT JUMPDEST POP MLOAD SWAP2 SWAP1 POP JUMP JUMPDEST PUSH4 0x4E487B71 PUSH1 0xE0 SHL PUSH1 0x0 MSTORE PUSH1 0x11 PUSH1 0x4 MSTORE PUSH1 0x24 PUSH1 0x0 REVERT JUMPDEST PUSH1 0x0 PUSH1 0x1 DUP3 ADD PUSH2 0x1011 JUMPI PUSH2 0x1011 PUSH2 0xFE9 JUMP JUMPDEST POP PUSH1 0x1 ADD SWAP1 JUMP JUMPDEST DUP2 DUP2 SUB DUP2 DUP2 GT ISZERO PUSH2 0x102B JUMPI PUSH2 0x102B PUSH2 0xFE9 JUMP JUMPDEST SWAP3 SWAP2 POP POP JUMP JUMPDEST DUP1 DUP3 ADD DUP1 DUP3 GT ISZERO PUSH2 0x102B JUMPI PUSH2 0x102B PUSH2 0xFE9 JUMP JUMPDEST DUP1 DUP3 MUL DUP2 ISZERO DUP3 DUP3 DIV DUP5 EQ OR PUSH2 0x102B JUMPI PUSH2 0x102B PUSH2 0xFE9 JUMP INVALID LOG2 PUSH5 0x6970667358 0x22 SLT KECCAK256 CODESIZE 0x26 GT PUSH4 0xC77F9545 LOG1 DUP2 0xFB DUP5 0x2F MULMOD 0xE5 0x5F DUP3 EXTCODESIZE MSIZE 0x2C SSTORE CALLDATASIZE 0x2B SUB 0xE1 0xAE 0xB2 PUSH1 0xD7 SELFBALANCE 0xA8 DUP1 PUSH5 0x736F6C6343 STOP ADDMOD SGT STOP CALLER "},"methodIdentifiers":{"MAX_PER_WALLET()":"0f2cdd6c","MINT_PRICE()":"c002d23d","addCreator(address)":"3b9dce05","batchMint(uint256)":"8467be0d","getMintInfo(address)":"b7d08c5c","getTokenMetadataBaseURI()":"04b90591","lsp8()":"f69c00e4","mint()":"1249c58b","mintedByWallet(address)":"0d758111","owner()":"8da5cb5b","setLSP4Metadata(bytes)":"055f5b64","setMintPrice(uint256)":"f4a0a528","setTokenMetadataBaseURI(bytes)":"d7529a99","withdraw()":"3ccfd60b"}}}}}