{"contracts/POKSOLSP8PureV6.sol":{"POKSOLSP8PureV6":{"abi":[{"inputs":[{"internalType":"address","name":"owner","type":"address"}],"stateMutability":"nonpayable","type":"constructor"},{"inputs":[],"name":"ERC725Y_DataKeysValuesEmptyArray","type":"error"},{"inputs":[],"name":"ERC725Y_DataKeysValuesLengthMismatch","type":"error"},{"inputs":[],"name":"ERC725Y_MsgValueDisallowed","type":"error"},{"inputs":[{"internalType":"bytes","name":"storedData","type":"bytes"}],"name":"InvalidExtensionAddress","type":"error"},{"inputs":[{"internalType":"bytes","name":"data","type":"bytes"}],"name":"InvalidFunctionSelector","type":"error"},{"inputs":[],"name":"LSP4TokenNameNotEditable","type":"error"},{"inputs":[],"name":"LSP4TokenSymbolNotEditable","type":"error"},{"inputs":[],"name":"LSP4TokenTypeNotEditable","type":"error"},{"inputs":[{"internalType":"uint256","name":"callIndex","type":"uint256"}],"name":"LSP8BatchCallFailed","type":"error"},{"inputs":[],"name":"LSP8CannotSendToAddressZero","type":"error"},{"inputs":[],"name":"LSP8CannotUseAddressZeroAsOperator","type":"error"},{"inputs":[],"name":"LSP8InvalidTransferBatch","type":"error"},{"inputs":[{"internalType":"bytes32","name":"tokenId","type":"bytes32"}],"name":"LSP8NonExistentTokenId","type":"error"},{"inputs":[{"internalType":"address","name":"operator","type":"address"},{"internalType":"bytes32","name":"tokenId","type":"bytes32"}],"name":"LSP8NonExistingOperator","type":"error"},{"inputs":[{"internalType":"bytes32","name":"tokenId","type":"bytes32"},{"internalType":"address","name":"caller","type":"address"}],"name":"LSP8NotTokenOperator","type":"error"},{"inputs":[{"internalType":"address","name":"tokenOwner","type":"address"},{"internalType":"bytes32","name":"tokenId","type":"bytes32"},{"internalType":"address","name":"caller","type":"address"}],"name":"LSP8NotTokenOwner","type":"error"},{"inputs":[{"internalType":"address","name":"tokenReceiver","type":"address"}],"name":"LSP8NotifyTokenReceiverContractMissingLSP1Interface","type":"error"},{"inputs":[{"internalType":"address","name":"tokenReceiver","type":"address"}],"name":"LSP8NotifyTokenReceiverIsEOA","type":"error"},{"inputs":[{"internalType":"address","name":"operator","type":"address"},{"internalType":"bytes32","name":"tokenId","type":"bytes32"}],"name":"LSP8OperatorAlreadyAuthorized","type":"error"},{"inputs":[{"internalType":"address","name":"caller","type":"address"},{"internalType":"address","name":"tokenOwner","type":"address"},{"internalType":"bytes32","name":"tokenId","type":"bytes32"}],"name":"LSP8RevokeOperatorNotAuthorized","type":"error"},{"inputs":[],"name":"LSP8TokenContractCannotHoldValue","type":"error"},{"inputs":[{"internalType":"bytes32","name":"tokenId","type":"bytes32"}],"name":"LSP8TokenIdAlreadyMinted","type":"error"},{"inputs":[],"name":"LSP8TokenIdFormatNotEditable","type":"error"},{"inputs":[],"name":"LSP8TokenIdsDataEmptyArray","type":"error"},{"inputs":[],"name":"LSP8TokenIdsDataLengthMismatch","type":"error"},{"inputs":[],"name":"LSP8TokenOwnerCannotBeOperator","type":"error"},{"inputs":[{"internalType":"bytes32","name":"tokenId","type":"bytes32"},{"internalType":"address","name":"oldOwner","type":"address"},{"internalType":"address","name":"newOwner","type":"address"}],"name":"LSP8TokenOwnerChanged","type":"error"},{"inputs":[{"internalType":"bytes4","name":"functionSelector","type":"bytes4"}],"name":"NoExtensionFoundForFunctionSelector","type":"error"},{"inputs":[{"internalType":"address","name":"callerAddress","type":"address"}],"name":"OwnableCallerNotTheOwner","type":"error"},{"inputs":[],"name":"OwnableCannotSetZeroAddressAsOwner","type":"error"},{"anonymous":false,"inputs":[{"indexed":true,"internalType":"bytes32","name":"dataKey","type":"bytes32"},{"indexed":false,"internalType":"bytes","name":"dataValue","type":"bytes"}],"name":"DataChanged","type":"event"},{"anonymous":false,"inputs":[{"indexed":true,"internalType":"address","name":"operator","type":"address"},{"indexed":true,"internalType":"address","name":"tokenOwner","type":"address"},{"indexed":true,"internalType":"bytes32","name":"tokenId","type":"bytes32"},{"indexed":false,"internalType":"bytes","name":"operatorNotificationData","type":"bytes"}],"name":"OperatorAuthorizationChanged","type":"event"},{"anonymous":false,"inputs":[{"indexed":true,"internalType":"address","name":"operator","type":"address"},{"indexed":true,"internalType":"address","name":"tokenOwner","type":"address"},{"indexed":true,"internalType":"bytes32","name":"tokenId","type":"bytes32"},{"indexed":false,"internalType":"bool","name":"notified","type":"bool"},{"indexed":false,"internalType":"bytes","name":"operatorNotificationData","type":"bytes"}],"name":"OperatorRevoked","type":"event"},{"anonymous":false,"inputs":[{"indexed":true,"internalType":"address","name":"previousOwner","type":"address"},{"indexed":true,"internalType":"address","name":"newOwner","type":"address"}],"name":"OwnershipTransferred","type":"event"},{"anonymous":false,"inputs":[{"indexed":true,"internalType":"bytes32","name":"tokenId","type":"bytes32"},{"indexed":true,"internalType":"bytes32","name":"dataKey","type":"bytes32"},{"indexed":false,"internalType":"bytes","name":"dataValue","type":"bytes"}],"name":"TokenIdDataChanged","type":"event"},{"anonymous":false,"inputs":[{"indexed":false,"internalType":"address","name":"operator","type":"address"},{"indexed":true,"internalType":"address","name":"from","type":"address"},{"indexed":true,"internalType":"address","name":"to","type":"address"},{"indexed":true,"internalType":"bytes32","name":"tokenId","type":"bytes32"},{"indexed":false,"internalType":"bool","name":"force","type":"bool"},{"indexed":false,"internalType":"bytes","name":"data","type":"bytes"}],"name":"Transfer","type":"event"},{"stateMutability":"payable","type":"fallback"},{"inputs":[],"name":"MAX_SUPPLY","outputs":[{"internalType":"uint256","name":"","type":"uint256"}],"stateMutability":"view","type":"function"},{"inputs":[{"internalType":"address","name":"creatorAddress","type":"address"}],"name":"addCreator","outputs":[],"stateMutability":"nonpayable","type":"function"},{"inputs":[{"internalType":"address","name":"operator","type":"address"},{"internalType":"bytes32","name":"tokenId","type":"bytes32"},{"internalType":"bytes","name":"operatorNotificationData","type":"bytes"}],"name":"authorizeOperator","outputs":[],"stateMutability":"nonpayable","type":"function"},{"inputs":[{"internalType":"address","name":"tokenOwner","type":"address"}],"name":"balanceOf","outputs":[{"internalType":"uint256","name":"","type":"uint256"}],"stateMutability":"view","type":"function"},{"inputs":[{"internalType":"bytes[]","name":"data","type":"bytes[]"}],"name":"batchCalls","outputs":[{"internalType":"bytes[]","name":"results","type":"bytes[]"}],"stateMutability":"nonpayable","type":"function"},{"inputs":[{"internalType":"address","name":"recipient","type":"address"},{"internalType":"uint256","name":"amount","type":"uint256"}],"name":"batchMintTo","outputs":[],"stateMutability":"nonpayable","type":"function"},{"inputs":[],"name":"currentTokenId","outputs":[{"internalType":"uint256","name":"","type":"uint256"}],"stateMutability":"view","type":"function"},{"inputs":[{"internalType":"bytes32","name":"dataKey","type":"bytes32"}],"name":"getData","outputs":[{"internalType":"bytes","name":"dataValue","type":"bytes"}],"stateMutability":"view","type":"function"},{"inputs":[{"internalType":"bytes32[]","name":"dataKeys","type":"bytes32[]"}],"name":"getDataBatch","outputs":[{"internalType":"bytes[]","name":"dataValues","type":"bytes[]"}],"stateMutability":"view","type":"function"},{"inputs":[{"internalType":"bytes32[]","name":"tokenIds","type":"bytes32[]"},{"internalType":"bytes32[]","name":"dataKeys","type":"bytes32[]"}],"name":"getDataBatchForTokenIds","outputs":[{"internalType":"bytes[]","name":"dataValues","type":"bytes[]"}],"stateMutability":"view","type":"function"},{"inputs":[{"internalType":"bytes32","name":"tokenId","type":"bytes32"},{"internalType":"bytes32","name":"dataKey","type":"bytes32"}],"name":"getDataForTokenId","outputs":[{"internalType":"bytes","name":"dataValue","type":"bytes"}],"stateMutability":"view","type":"function"},{"inputs":[{"internalType":"bytes32","name":"tokenId","type":"bytes32"}],"name":"getOperatorsOf","outputs":[{"internalType":"address[]","name":"","type":"address[]"}],"stateMutability":"view","type":"function"},{"inputs":[],"name":"getTokenMetadataBaseURI","outputs":[{"internalType":"bytes","name":"","type":"bytes"}],"stateMutability":"view","type":"function"},{"inputs":[{"internalType":"address","name":"operator","type":"address"},{"internalType":"bytes32","name":"tokenId","type":"bytes32"}],"name":"isOperatorFor","outputs":[{"internalType":"bool","name":"","type":"bool"}],"stateMutability":"view","type":"function"},{"inputs":[{"internalType":"address","name":"recipient","type":"address"}],"name":"mintTo","outputs":[{"internalType":"bytes32","name":"tokenId","type":"bytes32"}],"stateMutability":"nonpayable","type":"function"},{"inputs":[],"name":"owner","outputs":[{"internalType":"address","name":"","type":"address"}],"stateMutability":"view","type":"function"},{"inputs":[],"name":"renounceOwnership","outputs":[],"stateMutability":"nonpayable","type":"function"},{"inputs":[{"internalType":"address","name":"operator","type":"address"},{"internalType":"bytes32","name":"tokenId","type":"bytes32"},{"internalType":"bool","name":"notify","type":"bool"},{"internalType":"bytes","name":"operatorNotificationData","type":"bytes"}],"name":"revokeOperator","outputs":[],"stateMutability":"nonpayable","type":"function"},{"inputs":[{"internalType":"bytes32","name":"dataKey","type":"bytes32"},{"internalType":"bytes","name":"dataValue","type":"bytes"}],"name":"setData","outputs":[],"stateMutability":"payable","type":"function"},{"inputs":[{"internalType":"bytes32[]","name":"dataKeys","type":"bytes32[]"},{"internalType":"bytes[]","name":"dataValues","type":"bytes[]"}],"name":"setDataBatch","outputs":[],"stateMutability":"payable","type":"function"},{"inputs":[{"internalType":"bytes32[]","name":"tokenIds","type":"bytes32[]"},{"internalType":"bytes32[]","name":"dataKeys","type":"bytes32[]"},{"internalType":"bytes[]","name":"dataValues","type":"bytes[]"}],"name":"setDataBatchForTokenIds","outputs":[],"stateMutability":"nonpayable","type":"function"},{"inputs":[{"internalType":"bytes32","name":"tokenId","type":"bytes32"},{"internalType":"bytes32","name":"dataKey","type":"bytes32"},{"internalType":"bytes","name":"dataValue","type":"bytes"}],"name":"setDataForTokenId","outputs":[],"stateMutability":"nonpayable","type":"function"},{"inputs":[{"internalType":"bytes","name":"metadataURI","type":"bytes"}],"name":"setLSP4Metadata","outputs":[],"stateMutability":"nonpayable","type":"function"},{"inputs":[{"internalType":"bytes","name":"baseURI","type":"bytes"}],"name":"setTokenMetadataBaseURI","outputs":[],"stateMutability":"nonpayable","type":"function"},{"inputs":[{"internalType":"bytes4","name":"interfaceId","type":"bytes4"}],"name":"supportsInterface","outputs":[{"internalType":"bool","name":"","type":"bool"}],"stateMutability":"view","type":"function"},{"inputs":[{"internalType":"address","name":"tokenOwner","type":"address"}],"name":"tokenIdsOf","outputs":[{"internalType":"bytes32[]","name":"","type":"bytes32[]"}],"stateMutability":"view","type":"function"},{"inputs":[{"internalType":"bytes32","name":"tokenId","type":"bytes32"}],"name":"tokenOwnerOf","outputs":[{"internalType":"address","name":"","type":"address"}],"stateMutability":"view","type":"function"},{"inputs":[],"name":"totalSupply","outputs":[{"internalType":"uint256","name":"","type":"uint256"}],"stateMutability":"view","type":"function"},{"inputs":[{"internalType":"address","name":"from","type":"address"},{"internalType":"address","name":"to","type":"address"},{"internalType":"bytes32","name":"tokenId","type":"bytes32"},{"internalType":"bool","name":"force","type":"bool"},{"internalType":"bytes","name":"data","type":"bytes"}],"name":"transfer","outputs":[],"stateMutability":"nonpayable","type":"function"},{"inputs":[{"internalType":"address[]","name":"from","type":"address[]"},{"internalType":"address[]","name":"to","type":"address[]"},{"internalType":"bytes32[]","name":"tokenId","type":"bytes32[]"},{"internalType":"bool[]","name":"force","type":"bool[]"},{"internalType":"bytes[]","name":"data","type":"bytes[]"}],"name":"transferBatch","outputs":[],"stateMutability":"nonpayable","type":"function"},{"inputs":[{"internalType":"address","name":"newOwner","type":"address"}],"name":"transferOwnership","outputs":[],"stateMutability":"nonpayable","type":"function"},{"stateMutability":"payable","type":"receive"}],"evm":{"bytecode":{"linkReferences":{},"object":"60806040523480156200001157600080fd5b506040516200385f3803806200385f833981016040819052620000349162000394565b60408051808201825260128152712827a5a9a79021bcb132b9383ab735902b1b60711b60208083019190915282518084019093526005835264504f4b534f60d81b9083015290826001600084848484816001600160a01b038116620000ac576040516306b620db60e21b815260040160405180910390fd5b620000b781620001fa565b506040805180820190915260048152632936598960e21b602082015262000100907feafec4d89fa9619884b60000a4d96624a38f7ac2d8d9a604ecf07c12c77e480c9062000268565b6200012c7fdeba1e292f8ba88238e10ab3c7f88bd4be4fac56cad5194b6ecceaf653468af18562000268565b620001587f2f0a68ab07768e01943a599e73362a0e17a63a72e94dd2e384d2c1d4db9327568462000268565b6040805160208101839052620001a1917fe0261fa95db2eb3b5439bd033cda66d56b96f92f243a8228fd87550ed7bdfdb3910160408051601f1981840301815291905262000268565b50506040805160208101859052620001ee93507ff675e9361af1c1664c1868cfa3eb97672d6b1a513aa5b81dec34c9ee330e818d92500160408051601f19818403018152919052620002c1565b50505050505062000587565b6000546001600160a01b038281169116146200026557600080546040516001600160a01b03808516939216917f8be0079c531659141344cd1fd0a4f28419497f9722a3daafe3b4186f6b6457e091a3600080546001600160a01b0319166001600160a01b0383161790555b50565b60008281526001602052604090206200028282826200046b565b50817fece574603820d07bc9b91f2a932baadf4628aabcb8afba49776529c14a6104b282604051620002b5919062000537565b60405180910390a25050565b620002cd8282620002d1565b5050565b7f2145e1d6d074577dc71ef54c3807742b41b053a9352ae6b491331509acb9750f820162000312576040516385c169bd60e01b815260040160405180910390fd5b7fd0f59754f88971fe6bc5a6618cc9d5f1e859c58d16b22d1c7b2d3e2b246cd8aa82016200035357604051630eceab6760e31b815260040160405180910390fd5b7f1fd9e056a24d14c4abc642fcc325992a946906d0dbc57dd70278aaf12842024d82016200026857604051634ef6d7fb60e01b815260040160405180910390fd5b600060208284031215620003a757600080fd5b81516001600160a01b0381168114620003bf57600080fd5b9392505050565b634e487b7160e01b600052604160045260246000fd5b600181811c90821680620003f157607f821691505b6020821081036200041257634e487b7160e01b600052602260045260246000fd5b50919050565b601f8211156200046657600081815260208120601f850160051c81016020861015620004415750805b601f850160051c820191505b8181101562000462578281556001016200044d565b5050505b505050565b81516001600160401b03811115620004875762000487620003c6565b6200049f81620004988454620003dc565b8462000418565b602080601f831160018114620004d75760008415620004be5750858301515b600019600386901b1c1916600185901b17855562000462565b600085815260208120601f198616915b828110156200050857888601518255948401946001909101908401620004e7565b5085821015620005275787850151600019600388901b60f8161c191681555b5050505050600190811b01905550565b600060208083528351808285015260005b81811015620005665785810183015185820160400152820162000548565b506000604082860101526040601f19601f8301168501019250505092915050565b6132c880620005976000396000f3fe6080604052600436106101db5760003560e01c806370a0823111610102578063a3b261f211610095578063db8c966311610064578063db8c9663146105f7578063dedff9c614610617578063e7e5107014610637578063f2fde38b1461065757610236565b8063a3b261f21461056a578063be9f0e6f14610597578063d6c1407c146105b7578063d7529a99146105d757610236565b80637f23690c116100d15780637f23690c1461050657806386a10ddd146105195780638da5cb5b14610539578063979024211461055757610236565b806370a0823114610491578063715018a6146104b1578063755edd17146104c65780637e87632c146104e657610236565b8063217b22701161017a57806349a6078d1161014957806349a6078d14610404578063511b69521461043157806354f6127f146104515780636963d4381461047157610236565b8063217b2270146103765780632a3654a4146103ae57806332cb6b0c146103ce5780633b9dce05146103e457610236565b8063055f5b64116101b6578063055f5b64146102f257806316e023b31461031457806318160ddd146103345780631d26fce61461034957610236565b80629a9b7b1461027757806301ffc9a7146102a057806304b90591146102d057610236565b36610236573460000361021d5760405163e5099ee360e01b81526004016102149060208082526004908201526000604082015260600190565b60405180910390fd5b6040516330fa4a2160e11b815260040160405180910390fd5b6000366060600482101561026157828260405163e5099ee360e01b815260040161021492919061249a565b61026b8383610677565b80519350602001915050f35b34801561028357600080fd5b5061028d60075481565b6040519081526020015b60405180910390f35b3480156102ac57600080fd5b506102c06102bb3660046124c9565b61076d565b6040519015158152602001610297565b3480156102dc57600080fd5b506102e56107a1565b6040516102979190612543565b3480156102fe57600080fd5b5061031261030d366004612619565b6107d1565b005b34801561032057600080fd5b506102e561032f36600461264d565b610806565b34801561034057600080fd5b5060025461028d565b34801561035557600080fd5b506103696103643660046126f8565b610819565b604051610297919061275b565b34801561038257600080fd5b506103966103913660046127bd565b610900565b6040516001600160a01b039091168152602001610297565b3480156103ba57600080fd5b506102c06103c93660046127f2565b610939565b3480156103da57600080fd5b5061028d6101f481565b3480156103f057600080fd5b506103126103ff36600461281c565b610945565b34801561041057600080fd5b5061042461041f3660046127bd565b610ae9565b6040516102979190612837565b34801561043d57600080fd5b5061031261044c366004612894565b610b0b565b34801561045d57600080fd5b506102e561046c3660046127bd565b610b48565b34801561047d57600080fd5b5061036961048c36600461290c565b610b53565b34801561049d57600080fd5b5061028d6104ac36600461281c565b610c82565b3480156104bd57600080fd5b50610312610ca3565b3480156104d257600080fd5b5061028d6104e136600461281c565b610cb7565b3480156104f257600080fd5b50610312610501366004612ac3565b610d67565b610312610514366004612b87565b610e56565b34801561052557600080fd5b50610312610534366004612bc3565b610e8b565b34801561054557600080fd5b506000546001600160a01b0316610396565b610312610565366004612c19565b611005565b34801561057657600080fd5b5061058a61058536600461281c565b6110c5565b6040516102979190612c72565b3480156105a357600080fd5b506103126105b2366004612caa565b6110e9565b3480156105c357600080fd5b506103126105d2366004612d27565b6111b4565b3480156105e357600080fd5b506103126105f2366004612619565b6111c7565b34801561060357600080fd5b50610312610612366004612d60565b6111f9565b34801561062357600080fd5b50610369610632366004612dc7565b6112dd565b34801561064357600080fd5b506103126106523660046127f2565b611387565b34801561066357600080fd5b5061031261067236600461281c565b611458565b606060006106906000356001600160e01b031916611490565b5090506001600160a01b0381166106c85760405163bb370b2b60e01b81526001600160e01b0319600035166004820152602401610214565b600080826001600160a01b031634878733346040516020016106ed9493929190612dfb565b60408051601f198184030181529082905261070791612e26565b60006040518083038185875af1925050503d8060008114610744576040519150601f19603f3d011682016040523d82523d6000602084013e610749565b606091505b5091509150811561075e579250610767915050565b80518060208301fd5b92915050565b60006001600160e01b03198216631d138b8360e11b148061079257506107928261150e565b80610767575061076782611533565b60606107cc7f1a7628600c3bac7101f53697f48df381ddc36b9015e7d7c9c5633d1252aa284361156a565b905090565b6107d961160c565b6108037f9afb95cacc9f95858ec44aa8c3b685511002e30ae54415823f406128b85b238e82611648565b50565b60606108128383611692565b9392505050565b6060815183511461083d576040516317d38eff60e11b815260040160405180910390fd5b82516001600160401b0381111561085657610856612556565b60405190808252806020026020018201604052801561088957816020015b60608152602001906001900390816108745790505b50905060005b83518110156108f9576108d48482815181106108ad576108ad612e42565b60200260200101518483815181106108c7576108c7612e42565b6020026020010151611692565b8282815181106108e6576108e6612e42565b602090810291909101015260010161088f565b5092915050565b6000818152600360205260408120546001600160a01b03168061076757604051635747cd1b60e11b815260048101849052602401610214565b60006108128383611740565b61094d61160c565b60006109787f114bd03b3a46d48759680d81ebb2b414fda7d030a7105a851867accf1c2352e761156a565b90506000602082511061098c575060208101515b604080517f114bd03b3a46d48759680d81ebb2b414fda7d030a7105a851867accf1c2352e7602080830191909152818301849052825180830384018152606080840190945280519101209185901b6001600160601b0319166080820152610a079082906094015b604051602081830303815290604052611648565b610a757f114bd03b3a46d48759680d81ebb2b414fda7d030a7105a851867accf1c2352e7610a36846001612e6e565b610a41856001612e6e565b604080516fffffffffffffffffffffffffffffffff19608094851b811660208301529290931b9091166030830152016109f3565b60405169036f42f57aecc15a72ed60b51b60208201526001600160601b0319606086901b16602a820152600090603e01604051602081830303815290604052610abd90612e81565b9050610ae281604051806040016040528060018152602001600160f81b815250611648565b5050505050565b6060610af48261177d565b6000828152600560205260409020610767906117b5565b610b153384611740565b610b3b57604051631294d2a960e01b815260048101849052336024820152604401610214565b610ae285858585856117c2565b60606107678261156a565b6060816001600160401b03811115610b6d57610b6d612556565b604051908082528060200260200182016040528015610ba057816020015b6060815260200190600190039081610b8b5790505b50905060005b828110156108f95760008030868685818110610bc457610bc4612e42565b9050602002810190610bd69190612ea5565b604051610be4929190612ef2565b600060405180830381855af49150503d8060008114610c1f576040519150601f19603f3d011682016040523d82523d6000602084013e610c24565b606091505b509150915081610c5a57805115610c3e5780518082602001fd5b60405163234eb81960e01b815260048101849052602401610214565b80848481518110610c6d57610c6d612e42565b60209081029190910101525050600101610ba6565b6001600160a01b0381166000908152600460205260408120610767906119a4565b610cab61160c565b610cb560006119ae565b565b6000610cc161160c565b6101f460075410610d205760405162461bcd60e51b815260206004820152602360248201527f504f4b534f4c5350385075726556363a206d617820737570706c7920726561636044820152621a195960ea1b6064820152608401610214565b60075460001b9050610d448282600160405180602001604052806000815250611a1c565b610d4d81611b8c565b60078054906000610d5d83612f02565b9190505550919050565b8451845181141580610d7a575083518114155b80610d86575082518114155b80610d92575081518114155b15610db0576040516393a8311960e01b815260040160405180910390fd5b60005b81811015610e4d57610e45878281518110610dd057610dd0612e42565b6020026020010151878381518110610dea57610dea612e42565b6020026020010151878481518110610e0457610e04612e42565b6020026020010151878581518110610e1e57610e1e612e42565b6020026020010151878681518110610e3857610e38612e42565b6020026020010151610b0b565b600101610db3565b50505050505050565b610e5e61160c565b3415610e7d5760405163f36ba73760e01b815260040160405180910390fd5b610e878282611648565b5050565b6000610e9683610900565b90506001600160a01b0381163314610ed957604051632d938f5160e11b81526001600160a01b038216600482015260248101849052336044820152606401610214565b6001600160a01b038416610f0057604051639577b8b360e01b815260040160405180910390fd5b836001600160a01b0316816001600160a01b031603610f32576040516344fed6b160e11b815260040160405180910390fd5b6000838152600560205260408120610f4a9086611c20565b905080610f7c576040516314ec4d6d60e31b81526001600160a01b038616600482015260248101859052604401610214565b83826001600160a01b0316866001600160a01b03167f1b1b58aa2ec0cec2228b2d37124556d41f5a1f7b12f089171f896cc23667121586604051610fc09190612543565b60405180910390a460003385600186604051602001610fe29493929190612f1b565b6040516020818303038152906040529050610ffd8682611c35565b505050505050565b61100d61160c565b341561102c5760405163f36ba73760e01b815260040160405180910390fd5b805182511461104e57604051633bcc897960e01b815260040160405180910390fd5b8151600003611070576040516397da5f9560e01b815260040160405180910390fd5b60005b82518110156110c0576110b883828151811061109157611091612e42565b60200260200101518383815181106110ab576110ab612e42565b6020026020010151611648565b600101611073565b505050565b6001600160a01b0381166000908152600460205260409020606090610767906117b5565b6110f161160c565b8151835114158061110457508051825114155b15611122576040516317d38eff60e11b815260040160405180910390fd5b8251600003611144576040516380c9830560e01b815260040160405180910390fd5b60005b83518110156111ae576111a684828151811061116557611165612e42565b602002602001015184838151811061117f5761117f612e42565b602002602001015184848151811061119957611199612e42565b6020026020010151611c60565b600101611147565b50505050565b6111bc61160c565b6110c0838383611c60565b6111cf61160c565b6108037f1a7628600c3bac7101f53697f48df381ddc36b9015e7d7c9c5633d1252aa284382611648565b600061120484610900565b9050336001600160a01b03821614611257576001600160a01b03851633146112575760405163760b5acd60e01b81523360048201526001600160a01b038216602482015260448101859052606401610214565b6001600160a01b03851661127e57604051639577b8b360e01b815260040160405180910390fd5b846001600160a01b0316816001600160a01b0316036112b0576040516344fed6b160e11b815260040160405180910390fd5b6112bd8582868686611cc2565b8215610ae25760008185600085604051602001610fe29493929190612f1b565b606081516001600160401b038111156112f8576112f8612556565b60405190808252806020026020018201604052801561132b57816020015b60608152602001906001900390816113165790505b50905060005b82518110156113815761135c83828151811061134f5761134f612e42565b602002602001015161156a565b82828151811061136e5761136e612e42565b6020908102919091010152600101611331565b50919050565b61138f61160c565b6101f4816007546113a09190612e6e565b11156113f95760405162461bcd60e51b815260206004820152602260248201527f504f4b534f4c5350385075726556363a206e6f7420656e6f75676820737570706044820152616c7960f01b6064820152608401610214565b60005b818110156110c0576007546040805160208101909152600081526114269085908390600190611a1c565b61142f81611b8c565b6007805490600061143f83612f02565b919050555050808061145090612f02565b9150506113fc565b61146061160c565b6001600160a01b038116611487576040516306b620db60e21b815260040160405180910390fd5b610803816119ae565b600080806114b5696773c5a04a6d4300884b60b11b6001600160e01b03198616611d62565b905060006114c28261156a565b905080516014141580156114d65750805115155b156114f657806040516342bfe79f60e01b81526004016102149190612543565b6114ff81612f54565b60601c95600195509350505050565b60006001600160e01b0319821663a918fa6b60e01b1480610767575061076782611db6565b6000806115466301ffc9a760e01b611490565b5090506001600160a01b0381166115605750600092915050565b6108128184611deb565b600081815260016020526040902080546060919061158790612f8b565b80601f01602080910402602001604051908101604052809291908181526020018280546115b390612f8b565b80156116005780601f106115d557610100808354040283529160200191611600565b820191906000526020600020905b8154815290600101906020018083116115e357829003601f168201915b50505050509050919050565b3361161f6000546001600160a01b031690565b6001600160a01b031614610cb55760405163bf1169c560e01b8152336004820152602401610214565b7f098a16c9e50e3e99b3e797305c146898d294e5aec55a47e213cb3611ccf17e73820161168857604051631b32400560e11b815260040160405180910390fd5b610e878282611e74565b600082815260066020908152604080832084845290915290208054606091906116ba90612f8b565b80601f01602080910402602001604051908101604052809291908181526020018280546116e690612f8b565b80156117335780601f1061170857610100808354040283529160200191611733565b820191906000526020600020905b81548152906001019060200180831161171657829003601f168201915b5050505050905092915050565b600061174b82610900565b6001600160a01b0316836001600160a01b03161480610812575060008281526005602052604090206108129084611e7e565b6000818152600360205260409020546001600160a01b031661080357604051635747cd1b60e11b815260048101829052602401610214565b6060600061081283611ea0565b60006117cd84610900565b9050856001600160a01b0316816001600160a01b03161461181b57604051632d938f5160e11b81526001600160a01b0380831660048301526024820186905287166044820152606401610214565b6001600160a01b038516611842576040516324ecef4d60e01b815260040160405180910390fd5b600061184d85610900565b9050806001600160a01b0316826001600160a01b03161461189b57604051635a9c31d360e01b8152600481018690526001600160a01b03808416602483015282166044820152606401610214565b6118a58786611efb565b6001600160a01b03871660009081526004602052604090206118c79086611f53565b506001600160a01b03861660009081526004602052604090206118ea9086611f5f565b506000858152600360205260409081902080546001600160a01b0319166001600160a01b0389811691821790925591518792918a16907fb333c813a7426a7a11e2b190cad52c44119421594b47f6f32ace6d8c7207b2bf906119519033908a908a90612fbf565b60405180910390a460003388888887604051602001611974959493929190612ff4565b604051602081830303815290604052905061198f8882611f6b565b61199a878683611f96565b5050505050505050565b6000610767825490565b6000546001600160a01b0382811691161461080357600080546040516001600160a01b03808516939216917f8be0079c531659141344cd1fd0a4f28419497f9722a3daafe3b4186f6b6457e091a3600080546001600160a01b0383166001600160a01b031990911617905550565b6001600160a01b038416611a43576040516324ecef4d60e01b815260040160405180910390fd5b6000838152600360205260409020546001600160a01b031615611a7c576040516334c7b51160e01b815260048101849052602401610214565b6000838152600360205260409020546001600160a01b031615611ab5576040516334c7b51160e01b815260048101849052602401610214565b600260008154611ac490612f02565b909155506001600160a01b0384166000908152600460205260409020611aea9084611f5f565b5060008381526003602052604080822080546001600160a01b0319166001600160a01b03881690811790915590518592907fb333c813a7426a7a11e2b190cad52c44119421594b47f6f32ace6d8c7207b2bf90611b4c90339088908890612fbf565b60405180910390a46000336000868685604051602001611b70959493929190612ff4565b6040516020818303038152906040529050610ae2858483611f96565b6000611bb77f1a7628600c3bac7101f53697f48df381ddc36b9015e7d7c9c5633d1252aa284361156a565b805190915015610e87576000611bcc8361209e565b905060008282604051602001611be392919061302f565b60408051601f1981840301815291905290506111ae847f9afb95cacc9f95858ec44aa8c3b685511002e30ae54415823f406128b85b238e83611c60565b6000610812836001600160a01b0384166120aa565b610e87827f8a1c15a8799f71b547e08e2bcb2e85257e81b0a07eee2ce6712549eef1f00970836120f9565b60008381526006602090815260408083208584529091529020611c8382826130b4565b5081837fa6e4251f855f750545fe414f120db91c76b88def14d120969e5bb2d3f05debbb83604051611cb59190612543565b60405180910390a3505050565b6000838152600560205260408120611cda9087612146565b905080611d0c576040516312a8c6a360e21b81526001600160a01b038716600482015260248101859052604401610214565b83856001600160a01b0316876001600160a01b03167fc78cd419d6136f9f1c1c6aec1d3fae098cffaf8bc86314a8f2685e32fe574e3c8686604051611d52929190613173565b60405180910390a4505050505050565b604080516001600160b01b0319841660208201526000602a82018190526001600160601b03198416602c83015291829101604051602081830303815290604052905080611dae90612e81565b949350505050565b60006001600160e01b031982166318a6a9a560e21b148061076757506301ffc9a760e01b6001600160e01b0319831614610767565b604080516001600160e01b03198316602480830191909152825180830390910181526044909101909152602080820180516001600160e01b03166301ffc9a760e01b178152825160009392849283928392918391908a617530fa92503d91506000519050828015611e5d575060208210155b8015611e695750600081115b979650505050505050565b610e87828261215b565b6001600160a01b03811660009081526001830160205260408120541515610812565b60608160000180548060200260200160405190810160405280929190818152602001828054801561160057602002820191906000526020600020905b815481526020019060010190808311611edc5750505050509050919050565b600081815260056020526040812090611f13826119a4565b90506000805b82811015610ffd57611f2c846000612270565b9150611f4b828787600060405180602001604052806000815250611cc2565b600101611f19565b6000610812838361227c565b600061081283836120aa565b610e87827fb23eae7e6d1564b295b4c3e3be402d9a2f0776c57bdf365903496f6fa481ab00836120f9565b611fa783631aed5a8560e21b611deb565b1561204157604051631aed5a8560e21b81526001600160a01b03841690636bb56a1490611ffa907f0b084a55ebf70fd3c06fd755269dac2212c4d3f0f4d09079780bfa50c1b2984d90859060040161318e565b6000604051808303816000875af1158015612019573d6000803e3d6000fd5b505050506040513d6000823e601f3d908101601f191682016040526111ae91908101906131a7565b816110c0576001600160a01b0383163b1561207a57604051634349776d60e01b81526001600160a01b0384166004820152602401610214565b604051630317313760e01b81526001600160a01b0384166004820152602401610214565b6060816108128161236f565b60008181526001830160205260408120546120f157508154600181810184556000848152602080822090930184905584548482528286019093526040902091909155610767565b506000610767565b6121136001600160a01b038416631aed5a8560e21b611deb565b156110c057604051631aed5a8560e21b81526001600160a01b03841690636bb56a1490611ffa908590859060040161318e565b6000610812836001600160a01b03841661227c565b7f2145e1d6d074577dc71ef54c3807742b41b053a9352ae6b491331509acb9750f820161219b576040516385c169bd60e01b815260040160405180910390fd5b7fd0f59754f88971fe6bc5a6618cc9d5f1e859c58d16b22d1c7b2d3e2b246cd8aa82016121db57604051630eceab6760e31b815260040160405180910390fd5b7f1fd9e056a24d14c4abc642fcc325992a946906d0dbc57dd70278aaf12842024d820161221b57604051634ef6d7fb60e01b815260040160405180910390fd5b600082815260016020526040902061223382826130b4565b50817fece574603820d07bc9b91f2a932baadf4628aabcb8afba49776529c14a6104b2826040516122649190612543565b60405180910390a25050565b60006108128383612470565b600081815260018301602052604081205480156123655760006122a0600183613214565b85549091506000906122b490600190613214565b90508181146123195760008660000182815481106122d4576122d4612e42565b90600052602060002001549050808760000184815481106122f7576122f7612e42565b6000918252602080832090910192909255918252600188019052604090208390555b855486908061232a5761232a613227565b600190038181906000526020600020016000905590558560010160008681526020019081526020016000206000905560019350505050610767565b6000915050610767565b6060816000036123965750506040805180820190915260018152600360fc1b602082015290565b8160005b81156123c057806123aa81612f02565b91506123b99050600a83613253565b915061239a565b6000816001600160401b038111156123da576123da612556565b6040519080825280601f01601f191660200182016040528015612404576020820181803683370190505b5090505b8415611dae578161241881613267565b92506124279050600a8661327e565b612432906030612e6e565b60f81b81838151811061244757612447612e42565b60200101906001600160f81b031916908160001a905350612469600a86613253565b9450612408565b600082600001828154811061248757612487612e42565b9060005260206000200154905092915050565b60208152816020820152818360408301376000818301604090810191909152601f909201601f19160101919050565b6000602082840312156124db57600080fd5b81356001600160e01b03198116811461081257600080fd5b60005b8381101561250e5781810151838201526020016124f6565b50506000910152565b6000815180845261252f8160208601602086016124f3565b601f01601f19169290920160200192915050565b6020815260006108126020830184612517565b634e487b7160e01b600052604160045260246000fd5b604051601f8201601f191681016001600160401b038111828210171561259457612594612556565b604052919050565b60006001600160401b038211156125b5576125b5612556565b50601f01601f191660200190565b600082601f8301126125d457600080fd5b81356125e76125e28261259c565b61256c565b8181528460208386010111156125fc57600080fd5b816020850160208301376000918101602001919091529392505050565b60006020828403121561262b57600080fd5b81356001600160401b0381111561264157600080fd5b611dae848285016125c3565b6000806040838503121561266057600080fd5b50508035926020909101359150565b60006001600160401b0382111561268857612688612556565b5060051b60200190565b600082601f8301126126a357600080fd5b813560206126b36125e28361266f565b82815260059290921b840181019181810190868411156126d257600080fd5b8286015b848110156126ed57803583529183019183016126d6565b509695505050505050565b6000806040838503121561270b57600080fd5b82356001600160401b038082111561272257600080fd5b61272e86838701612692565b9350602085013591508082111561274457600080fd5b5061275185828601612692565b9150509250929050565b6000602080830181845280855180835260408601915060408160051b870101925083870160005b828110156127b057603f1988860301845261279e858351612517565b94509285019290850190600101612782565b5092979650505050505050565b6000602082840312156127cf57600080fd5b5035919050565b80356001600160a01b03811681146127ed57600080fd5b919050565b6000806040838503121561280557600080fd5b61280e836127d6565b946020939093013593505050565b60006020828403121561282e57600080fd5b610812826127d6565b6020808252825182820181905260009190848201906040850190845b818110156128785783516001600160a01b031683529284019291840191600101612853565b50909695505050505050565b803580151581146127ed57600080fd5b600080600080600060a086880312156128ac57600080fd5b6128b5866127d6565b94506128c3602087016127d6565b9350604086013592506128d860608701612884565b915060808601356001600160401b038111156128f357600080fd5b6128ff888289016125c3565b9150509295509295909350565b6000806020838503121561291f57600080fd5b82356001600160401b038082111561293657600080fd5b818501915085601f83011261294a57600080fd5b81358181111561295957600080fd5b8660208260051b850101111561296e57600080fd5b60209290920196919550909350505050565b600082601f83011261299157600080fd5b813560206129a16125e28361266f565b82815260059290921b840181019181810190868411156129c057600080fd5b8286015b848110156126ed576129d5816127d6565b83529183019183016129c4565b600082601f8301126129f357600080fd5b81356020612a036125e28361266f565b82815260059290921b84018101918181019086841115612a2257600080fd5b8286015b848110156126ed57612a3781612884565b8352918301918301612a26565b600082601f830112612a5557600080fd5b81356020612a656125e28361266f565b82815260059290921b84018101918181019086841115612a8457600080fd5b8286015b848110156126ed5780356001600160401b03811115612aa75760008081fd5b612ab58986838b01016125c3565b845250918301918301612a88565b600080600080600060a08688031215612adb57600080fd5b85356001600160401b0380821115612af257600080fd5b612afe89838a01612980565b96506020880135915080821115612b1457600080fd5b612b2089838a01612980565b95506040880135915080821115612b3657600080fd5b612b4289838a01612692565b94506060880135915080821115612b5857600080fd5b612b6489838a016129e2565b93506080880135915080821115612b7a57600080fd5b506128ff88828901612a44565b60008060408385031215612b9a57600080fd5b8235915060208301356001600160401b03811115612bb757600080fd5b612751858286016125c3565b600080600060608486031215612bd857600080fd5b612be1846127d6565b92506020840135915060408401356001600160401b03811115612c0357600080fd5b612c0f868287016125c3565b9150509250925092565b60008060408385031215612c2c57600080fd5b82356001600160401b0380821115612c4357600080fd5b612c4f86838701612692565b93506020850135915080821115612c6557600080fd5b5061275185828601612a44565b6020808252825182820181905260009190848201906040850190845b8181101561287857835183529284019291840191600101612c8e565b600080600060608486031215612cbf57600080fd5b83356001600160401b0380821115612cd657600080fd5b612ce287838801612692565b94506020860135915080821115612cf857600080fd5b612d0487838801612692565b93506040860135915080821115612d1a57600080fd5b50612c0f86828701612a44565b600080600060608486031215612d3c57600080fd5b833592506020840135915060408401356001600160401b03811115612c0357600080fd5b60008060008060808587031215612d7657600080fd5b612d7f856127d6565b935060208501359250612d9460408601612884565b915060608501356001600160401b03811115612daf57600080fd5b612dbb878288016125c3565b91505092959194509250565b600060208284031215612dd957600080fd5b81356001600160401b03811115612def57600080fd5b611dae84828501612692565b8385823760609290921b6001600160601b031916919092019081526014810191909152603401919050565b60008251612e388184602087016124f3565b9190910192915050565b634e487b7160e01b600052603260045260246000fd5b634e487b7160e01b600052601160045260246000fd5b8082018082111561076757610767612e58565b805160208083015191908110156113815760001960209190910360031b1b16919050565b6000808335601e19843603018112612ebc57600080fd5b8301803591506001600160401b03821115612ed657600080fd5b602001915036819003821315612eeb57600080fd5b9250929050565b8183823760009101908152919050565b600060018201612f1457612f14612e58565b5060010190565b60018060a01b03851681528360208201528215156040820152608060608201526000612f4a6080830184612517565b9695505050505050565b805160208201516001600160601b03198082169291906014831015612f835780818460140360031b1b83161693505b505050919050565b600181811c90821680612f9f57607f821691505b60208210810361138157634e487b7160e01b600052602260045260246000fd5b6001600160a01b03841681528215156020820152606060408201819052600090612feb90830184612517565b95945050505050565b6001600160a01b0386811682528581166020830152841660408201526060810183905260a060808201819052600090611e6990830184612517565b600083516130418184602088016124f3565b8351908301906130558183602088016124f3565b64173539b7b760d91b9101908152600501949350505050565b601f8211156110c057600081815260208120601f850160051c810160208610156130955750805b601f850160051c820191505b81811015610ffd578281556001016130a1565b81516001600160401b038111156130cd576130cd612556565b6130e1816130db8454612f8b565b8461306e565b602080601f83116001811461311657600084156130fe5750858301515b600019600386901b1c1916600185901b178555610ffd565b600085815260208120601f198616915b8281101561314557888601518255948401946001909101908401613126565b50858210156131635787850151600019600388901b60f8161c191681555b5050505050600190811b01905550565b8215158152604060208201526000611dae6040830184612517565b828152604060208201526000611dae6040830184612517565b6000602082840312156131b957600080fd5b81516001600160401b038111156131cf57600080fd5b8201601f810184136131e057600080fd5b80516131ee6125e28261259c565b81815285602083850101111561320357600080fd5b612feb8260208301602086016124f3565b8181038181111561076757610767612e58565b634e487b7160e01b600052603160045260246000fd5b634e487b7160e01b600052601260045260246000fd5b6000826132625761326261323d565b500490565b60008161327657613276612e58565b506000190190565b60008261328d5761328d61323d565b50069056fea2646970667358221220e4d2974d67f5cf2ddd27111fab854cd65416a9e86783ddc3ca36e333867a410764736f6c63430008130033","opcodes":"PUSH1 0x80 PUSH1 0x40 MSTORE CALLVALUE DUP1 ISZERO PUSH3 0x11 JUMPI PUSH1 0x0 DUP1 REVERT JUMPDEST POP PUSH1 0x40 MLOAD PUSH3 0x385F CODESIZE SUB DUP1 PUSH3 0x385F DUP4 CODECOPY DUP2 ADD PUSH1 0x40 DUP2 SWAP1 MSTORE PUSH3 0x34 SWAP2 PUSH3 0x394 JUMP JUMPDEST PUSH1 0x40 DUP1 MLOAD DUP1 DUP3 ADD DUP3 MSTORE PUSH1 0x12 DUP2 MSTORE PUSH18 0x2827A5A9A79021BCB132B9383AB735902B1B PUSH1 0x71 SHL PUSH1 0x20 DUP1 DUP4 ADD SWAP2 SWAP1 SWAP2 MSTORE DUP3 MLOAD DUP1 DUP5 ADD SWAP1 SWAP4 MSTORE PUSH1 0x5 DUP4 MSTORE PUSH5 0x504F4B534F PUSH1 0xD8 SHL SWAP1 DUP4 ADD MSTORE SWAP1 DUP3 PUSH1 0x1 PUSH1 0x0 DUP5 DUP5 DUP5 DUP5 DUP2 PUSH1 0x1 PUSH1 0x1 PUSH1 0xA0 SHL SUB DUP2 AND PUSH3 0xAC JUMPI PUSH1 0x40 MLOAD PUSH4 0x6B620DB PUSH1 0xE2 SHL DUP2 MSTORE PUSH1 0x4 ADD PUSH1 0x40 MLOAD DUP1 SWAP2 SUB SWAP1 REVERT JUMPDEST PUSH3 0xB7 DUP2 PUSH3 0x1FA JUMP JUMPDEST POP PUSH1 0x40 DUP1 MLOAD DUP1 DUP3 ADD SWAP1 SWAP2 MSTORE PUSH1 0x4 DUP2 MSTORE PUSH4 0x29365989 PUSH1 0xE2 SHL PUSH1 0x20 DUP3 ADD MSTORE PUSH3 0x100 SWAP1 PUSH32 0xEAFEC4D89FA9619884B60000A4D96624A38F7AC2D8D9A604ECF07C12C77E480C SWAP1 PUSH3 0x268 JUMP JUMPDEST PUSH3 0x12C PUSH32 0xDEBA1E292F8BA88238E10AB3C7F88BD4BE4FAC56CAD5194B6ECCEAF653468AF1 DUP6 PUSH3 0x268 JUMP JUMPDEST PUSH3 0x158 PUSH32 0x2F0A68AB07768E01943A599E73362A0E17A63A72E94DD2E384D2C1D4DB932756 DUP5 PUSH3 0x268 JUMP JUMPDEST PUSH1 0x40 DUP1 MLOAD PUSH1 0x20 DUP2 ADD DUP4 SWAP1 MSTORE PUSH3 0x1A1 SWAP2 PUSH32 0xE0261FA95DB2EB3B5439BD033CDA66D56B96F92F243A8228FD87550ED7BDFDB3 SWAP2 ADD PUSH1 0x40 DUP1 MLOAD PUSH1 0x1F NOT DUP2 DUP5 SUB ADD DUP2 MSTORE SWAP2 SWAP1 MSTORE PUSH3 0x268 JUMP JUMPDEST POP POP PUSH1 0x40 DUP1 MLOAD PUSH1 0x20 DUP2 ADD DUP6 SWAP1 MSTORE PUSH3 0x1EE SWAP4 POP PUSH32 0xF675E9361AF1C1664C1868CFA3EB97672D6B1A513AA5B81DEC34C9EE330E818D SWAP3 POP ADD PUSH1 0x40 DUP1 MLOAD PUSH1 0x1F NOT DUP2 DUP5 SUB ADD DUP2 MSTORE SWAP2 SWAP1 MSTORE PUSH3 0x2C1 JUMP JUMPDEST POP POP POP POP POP POP PUSH3 0x587 JUMP JUMPDEST PUSH1 0x0 SLOAD PUSH1 0x1 PUSH1 0x1 PUSH1 0xA0 SHL SUB DUP3 DUP2 AND SWAP2 AND EQ PUSH3 0x265 JUMPI PUSH1 0x0 DUP1 SLOAD PUSH1 0x40 MLOAD PUSH1 0x1 PUSH1 0x1 PUSH1 0xA0 SHL SUB DUP1 DUP6 AND SWAP4 SWAP3 AND SWAP2 PUSH32 0x8BE0079C531659141344CD1FD0A4F28419497F9722A3DAAFE3B4186F6B6457E0 SWAP2 LOG3 PUSH1 0x0 DUP1 SLOAD PUSH1 0x1 PUSH1 0x1 PUSH1 0xA0 SHL SUB NOT AND PUSH1 0x1 PUSH1 0x1 PUSH1 0xA0 SHL SUB DUP4 AND OR SWAP1 SSTORE JUMPDEST POP JUMP JUMPDEST PUSH1 0x0 DUP3 DUP2 MSTORE PUSH1 0x1 PUSH1 0x20 MSTORE PUSH1 0x40 SWAP1 KECCAK256 PUSH3 0x282 DUP3 DUP3 PUSH3 0x46B JUMP JUMPDEST POP DUP2 PUSH32 0xECE574603820D07BC9B91F2A932BAADF4628AABCB8AFBA49776529C14A6104B2 DUP3 PUSH1 0x40 MLOAD PUSH3 0x2B5 SWAP2 SWAP1 PUSH3 0x537 JUMP JUMPDEST PUSH1 0x40 MLOAD DUP1 SWAP2 SUB SWAP1 LOG2 POP POP JUMP JUMPDEST PUSH3 0x2CD DUP3 DUP3 PUSH3 0x2D1 JUMP JUMPDEST POP POP JUMP JUMPDEST PUSH32 0x2145E1D6D074577DC71EF54C3807742B41B053A9352AE6B491331509ACB9750F DUP3 ADD PUSH3 0x312 JUMPI PUSH1 0x40 MLOAD PUSH4 0x85C169BD PUSH1 0xE0 SHL DUP2 MSTORE PUSH1 0x4 ADD PUSH1 0x40 MLOAD DUP1 SWAP2 SUB SWAP1 REVERT JUMPDEST PUSH32 0xD0F59754F88971FE6BC5A6618CC9D5F1E859C58D16B22D1C7B2D3E2B246CD8AA DUP3 ADD PUSH3 0x353 JUMPI PUSH1 0x40 MLOAD PUSH4 0xECEAB67 PUSH1 0xE3 SHL DUP2 MSTORE PUSH1 0x4 ADD PUSH1 0x40 MLOAD DUP1 SWAP2 SUB SWAP1 REVERT JUMPDEST PUSH32 0x1FD9E056A24D14C4ABC642FCC325992A946906D0DBC57DD70278AAF12842024D DUP3 ADD PUSH3 0x268 JUMPI PUSH1 0x40 MLOAD PUSH4 0x4EF6D7FB PUSH1 0xE0 SHL DUP2 MSTORE PUSH1 0x4 ADD PUSH1 0x40 MLOAD DUP1 SWAP2 SUB SWAP1 REVERT JUMPDEST PUSH1 0x0 PUSH1 0x20 DUP3 DUP5 SUB SLT ISZERO PUSH3 0x3A7 JUMPI PUSH1 0x0 DUP1 REVERT JUMPDEST DUP2 MLOAD PUSH1 0x1 PUSH1 0x1 PUSH1 0xA0 SHL SUB DUP2 AND DUP2 EQ PUSH3 0x3BF JUMPI PUSH1 0x0 DUP1 REVERT JUMPDEST SWAP4 SWAP3 POP POP POP JUMP JUMPDEST PUSH4 0x4E487B71 PUSH1 0xE0 SHL PUSH1 0x0 MSTORE PUSH1 0x41 PUSH1 0x4 MSTORE PUSH1 0x24 PUSH1 0x0 REVERT JUMPDEST PUSH1 0x1 DUP2 DUP2 SHR SWAP1 DUP3 AND DUP1 PUSH3 0x3F1 JUMPI PUSH1 0x7F DUP3 AND SWAP2 POP JUMPDEST PUSH1 0x20 DUP3 LT DUP2 SUB PUSH3 0x412 JUMPI PUSH4 0x4E487B71 PUSH1 0xE0 SHL PUSH1 0x0 MSTORE PUSH1 0x22 PUSH1 0x4 MSTORE PUSH1 0x24 PUSH1 0x0 REVERT JUMPDEST POP SWAP2 SWAP1 POP JUMP JUMPDEST PUSH1 0x1F DUP3 GT ISZERO PUSH3 0x466 JUMPI PUSH1 0x0 DUP2 DUP2 MSTORE PUSH1 0x20 DUP2 KECCAK256 PUSH1 0x1F DUP6 ADD PUSH1 0x5 SHR DUP2 ADD PUSH1 0x20 DUP7 LT ISZERO PUSH3 0x441 JUMPI POP DUP1 JUMPDEST PUSH1 0x1F DUP6 ADD PUSH1 0x5 SHR DUP3 ADD SWAP2 POP JUMPDEST DUP2 DUP2 LT ISZERO PUSH3 0x462 JUMPI DUP3 DUP2 SSTORE PUSH1 0x1 ADD PUSH3 0x44D JUMP JUMPDEST POP POP POP JUMPDEST POP POP POP JUMP JUMPDEST DUP2 MLOAD PUSH1 0x1 PUSH1 0x1 PUSH1 0x40 SHL SUB DUP2 GT ISZERO PUSH3 0x487 JUMPI PUSH3 0x487 PUSH3 0x3C6 JUMP JUMPDEST PUSH3 0x49F DUP2 PUSH3 0x498 DUP5 SLOAD PUSH3 0x3DC JUMP JUMPDEST DUP5 PUSH3 0x418 JUMP JUMPDEST PUSH1 0x20 DUP1 PUSH1 0x1F DUP4 GT PUSH1 0x1 DUP2 EQ PUSH3 0x4D7 JUMPI PUSH1 0x0 DUP5 ISZERO PUSH3 0x4BE JUMPI POP DUP6 DUP4 ADD MLOAD JUMPDEST PUSH1 0x0 NOT PUSH1 0x3 DUP7 SWAP1 SHL SHR NOT AND PUSH1 0x1 DUP6 SWAP1 SHL OR DUP6 SSTORE PUSH3 0x462 JUMP JUMPDEST PUSH1 0x0 DUP6 DUP2 MSTORE PUSH1 0x20 DUP2 KECCAK256 PUSH1 0x1F NOT DUP7 AND SWAP2 JUMPDEST DUP3 DUP2 LT ISZERO PUSH3 0x508 JUMPI DUP9 DUP7 ADD MLOAD DUP3 SSTORE SWAP5 DUP5 ADD SWAP5 PUSH1 0x1 SWAP1 SWAP2 ADD SWAP1 DUP5 ADD PUSH3 0x4E7 JUMP JUMPDEST POP DUP6 DUP3 LT ISZERO PUSH3 0x527 JUMPI DUP8 DUP6 ADD MLOAD PUSH1 0x0 NOT PUSH1 0x3 DUP9 SWAP1 SHL PUSH1 0xF8 AND SHR NOT AND DUP2 SSTORE JUMPDEST POP POP POP POP POP PUSH1 0x1 SWAP1 DUP2 SHL ADD SWAP1 SSTORE POP JUMP JUMPDEST PUSH1 0x0 PUSH1 0x20 DUP1 DUP4 MSTORE DUP4 MLOAD DUP1 DUP3 DUP6 ADD MSTORE PUSH1 0x0 JUMPDEST DUP2 DUP2 LT ISZERO PUSH3 0x566 JUMPI DUP6 DUP2 ADD DUP4 ADD MLOAD DUP6 DUP3 ADD PUSH1 0x40 ADD MSTORE DUP3 ADD PUSH3 0x548 JUMP JUMPDEST POP PUSH1 0x0 PUSH1 0x40 DUP3 DUP7 ADD ADD MSTORE PUSH1 0x40 PUSH1 0x1F NOT PUSH1 0x1F DUP4 ADD AND DUP6 ADD ADD SWAP3 POP POP POP SWAP3 SWAP2 POP POP JUMP JUMPDEST PUSH2 0x32C8 DUP1 PUSH3 0x597 PUSH1 0x0 CODECOPY PUSH1 0x0 RETURN INVALID PUSH1 0x80 PUSH1 0x40 MSTORE PUSH1 0x4 CALLDATASIZE LT PUSH2 0x1DB JUMPI PUSH1 0x0 CALLDATALOAD PUSH1 0xE0 SHR DUP1 PUSH4 0x70A08231 GT PUSH2 0x102 JUMPI DUP1 PUSH4 0xA3B261F2 GT PUSH2 0x95 JUMPI DUP1 PUSH4 0xDB8C9663 GT PUSH2 0x64 JUMPI DUP1 PUSH4 0xDB8C9663 EQ PUSH2 0x5F7 JUMPI DUP1 PUSH4 0xDEDFF9C6 EQ PUSH2 0x617 JUMPI DUP1 PUSH4 0xE7E51070 EQ PUSH2 0x637 JUMPI DUP1 PUSH4 0xF2FDE38B EQ PUSH2 0x657 JUMPI PUSH2 0x236 JUMP JUMPDEST DUP1 PUSH4 0xA3B261F2 EQ PUSH2 0x56A JUMPI DUP1 PUSH4 0xBE9F0E6F EQ PUSH2 0x597 JUMPI DUP1 PUSH4 0xD6C1407C EQ PUSH2 0x5B7 JUMPI DUP1 PUSH4 0xD7529A99 EQ PUSH2 0x5D7 JUMPI PUSH2 0x236 JUMP JUMPDEST DUP1 PUSH4 0x7F23690C GT PUSH2 0xD1 JUMPI DUP1 PUSH4 0x7F23690C EQ PUSH2 0x506 JUMPI DUP1 PUSH4 0x86A10DDD EQ PUSH2 0x519 JUMPI DUP1 PUSH4 0x8DA5CB5B EQ PUSH2 0x539 JUMPI DUP1 PUSH4 0x97902421 EQ PUSH2 0x557 JUMPI PUSH2 0x236 JUMP JUMPDEST DUP1 PUSH4 0x70A08231 EQ PUSH2 0x491 JUMPI DUP1 PUSH4 0x715018A6 EQ PUSH2 0x4B1 JUMPI DUP1 PUSH4 0x755EDD17 EQ PUSH2 0x4C6 JUMPI DUP1 PUSH4 0x7E87632C EQ PUSH2 0x4E6 JUMPI PUSH2 0x236 JUMP JUMPDEST DUP1 PUSH4 0x217B2270 GT PUSH2 0x17A JUMPI DUP1 PUSH4 0x49A6078D GT PUSH2 0x149 JUMPI DUP1 PUSH4 0x49A6078D EQ PUSH2 0x404 JUMPI DUP1 PUSH4 0x511B6952 EQ PUSH2 0x431 JUMPI DUP1 PUSH4 0x54F6127F EQ PUSH2 0x451 JUMPI DUP1 PUSH4 0x6963D438 EQ PUSH2 0x471 JUMPI PUSH2 0x236 JUMP JUMPDEST DUP1 PUSH4 0x217B2270 EQ PUSH2 0x376 JUMPI DUP1 PUSH4 0x2A3654A4 EQ PUSH2 0x3AE JUMPI DUP1 PUSH4 0x32CB6B0C EQ PUSH2 0x3CE JUMPI DUP1 PUSH4 0x3B9DCE05 EQ PUSH2 0x3E4 JUMPI PUSH2 0x236 JUMP JUMPDEST DUP1 PUSH4 0x55F5B64 GT PUSH2 0x1B6 JUMPI DUP1 PUSH4 0x55F5B64 EQ PUSH2 0x2F2 JUMPI DUP1 PUSH4 0x16E023B3 EQ PUSH2 0x314 JUMPI DUP1 PUSH4 0x18160DDD EQ PUSH2 0x334 JUMPI DUP1 PUSH4 0x1D26FCE6 EQ PUSH2 0x349 JUMPI PUSH2 0x236 JUMP JUMPDEST DUP1 PUSH3 0x9A9B7B EQ PUSH2 0x277 JUMPI DUP1 PUSH4 0x1FFC9A7 EQ PUSH2 0x2A0 JUMPI DUP1 PUSH4 0x4B90591 EQ PUSH2 0x2D0 JUMPI PUSH2 0x236 JUMP JUMPDEST CALLDATASIZE PUSH2 0x236 JUMPI CALLVALUE PUSH1 0x0 SUB PUSH2 0x21D JUMPI PUSH1 0x40 MLOAD PUSH4 0xE5099EE3 PUSH1 0xE0 SHL DUP2 MSTORE PUSH1 0x4 ADD PUSH2 0x214 SWAP1 PUSH1 0x20 DUP1 DUP3 MSTORE PUSH1 0x4 SWAP1 DUP3 ADD MSTORE PUSH1 0x0 PUSH1 0x40 DUP3 ADD MSTORE PUSH1 0x60 ADD SWAP1 JUMP JUMPDEST PUSH1 0x40 MLOAD DUP1 SWAP2 SUB SWAP1 REVERT JUMPDEST PUSH1 0x40 MLOAD PUSH4 0x30FA4A21 PUSH1 0xE1 SHL DUP2 MSTORE PUSH1 0x4 ADD PUSH1 0x40 MLOAD DUP1 SWAP2 SUB SWAP1 REVERT JUMPDEST PUSH1 0x0 CALLDATASIZE PUSH1 0x60 PUSH1 0x4 DUP3 LT ISZERO PUSH2 0x261 JUMPI DUP3 DUP3 PUSH1 0x40 MLOAD PUSH4 0xE5099EE3 PUSH1 0xE0 SHL DUP2 MSTORE PUSH1 0x4 ADD PUSH2 0x214 SWAP3 SWAP2 SWAP1 PUSH2 0x249A JUMP JUMPDEST PUSH2 0x26B DUP4 DUP4 PUSH2 0x677 JUMP JUMPDEST DUP1 MLOAD SWAP4 POP PUSH1 0x20 ADD SWAP2 POP POP RETURN JUMPDEST CALLVALUE DUP1 ISZERO PUSH2 0x283 JUMPI PUSH1 0x0 DUP1 REVERT JUMPDEST POP PUSH2 0x28D PUSH1 0x7 SLOAD DUP2 JUMP JUMPDEST PUSH1 0x40 MLOAD SWAP1 DUP2 MSTORE PUSH1 0x20 ADD JUMPDEST PUSH1 0x40 MLOAD DUP1 SWAP2 SUB SWAP1 RETURN JUMPDEST CALLVALUE DUP1 ISZERO PUSH2 0x2AC JUMPI PUSH1 0x0 DUP1 REVERT JUMPDEST POP PUSH2 0x2C0 PUSH2 0x2BB CALLDATASIZE PUSH1 0x4 PUSH2 0x24C9 JUMP JUMPDEST PUSH2 0x76D JUMP JUMPDEST PUSH1 0x40 MLOAD SWAP1 ISZERO ISZERO DUP2 MSTORE PUSH1 0x20 ADD PUSH2 0x297 JUMP JUMPDEST CALLVALUE DUP1 ISZERO PUSH2 0x2DC JUMPI PUSH1 0x0 DUP1 REVERT JUMPDEST POP PUSH2 0x2E5 PUSH2 0x7A1 JUMP JUMPDEST PUSH1 0x40 MLOAD PUSH2 0x297 SWAP2 SWAP1 PUSH2 0x2543 JUMP JUMPDEST CALLVALUE DUP1 ISZERO PUSH2 0x2FE JUMPI PUSH1 0x0 DUP1 REVERT JUMPDEST POP PUSH2 0x312 PUSH2 0x30D CALLDATASIZE PUSH1 0x4 PUSH2 0x2619 JUMP JUMPDEST PUSH2 0x7D1 JUMP JUMPDEST STOP JUMPDEST CALLVALUE DUP1 ISZERO PUSH2 0x320 JUMPI PUSH1 0x0 DUP1 REVERT JUMPDEST POP PUSH2 0x2E5 PUSH2 0x32F CALLDATASIZE PUSH1 0x4 PUSH2 0x264D JUMP JUMPDEST PUSH2 0x806 JUMP JUMPDEST CALLVALUE DUP1 ISZERO PUSH2 0x340 JUMPI PUSH1 0x0 DUP1 REVERT JUMPDEST POP PUSH1 0x2 SLOAD PUSH2 0x28D JUMP JUMPDEST CALLVALUE DUP1 ISZERO PUSH2 0x355 JUMPI PUSH1 0x0 DUP1 REVERT JUMPDEST POP PUSH2 0x369 PUSH2 0x364 CALLDATASIZE PUSH1 0x4 PUSH2 0x26F8 JUMP JUMPDEST PUSH2 0x819 JUMP JUMPDEST PUSH1 0x40 MLOAD PUSH2 0x297 SWAP2 SWAP1 PUSH2 0x275B JUMP JUMPDEST CALLVALUE DUP1 ISZERO PUSH2 0x382 JUMPI PUSH1 0x0 DUP1 REVERT JUMPDEST POP PUSH2 0x396 PUSH2 0x391 CALLDATASIZE PUSH1 0x4 PUSH2 0x27BD JUMP JUMPDEST PUSH2 0x900 JUMP JUMPDEST PUSH1 0x40 MLOAD PUSH1 0x1 PUSH1 0x1 PUSH1 0xA0 SHL SUB SWAP1 SWAP2 AND DUP2 MSTORE PUSH1 0x20 ADD PUSH2 0x297 JUMP JUMPDEST CALLVALUE DUP1 ISZERO PUSH2 0x3BA JUMPI PUSH1 0x0 DUP1 REVERT JUMPDEST POP PUSH2 0x2C0 PUSH2 0x3C9 CALLDATASIZE PUSH1 0x4 PUSH2 0x27F2 JUMP JUMPDEST PUSH2 0x939 JUMP JUMPDEST CALLVALUE DUP1 ISZERO PUSH2 0x3DA JUMPI PUSH1 0x0 DUP1 REVERT JUMPDEST POP PUSH2 0x28D PUSH2 0x1F4 DUP2 JUMP JUMPDEST CALLVALUE DUP1 ISZERO PUSH2 0x3F0 JUMPI PUSH1 0x0 DUP1 REVERT JUMPDEST POP PUSH2 0x312 PUSH2 0x3FF CALLDATASIZE PUSH1 0x4 PUSH2 0x281C JUMP JUMPDEST PUSH2 0x945 JUMP JUMPDEST CALLVALUE DUP1 ISZERO PUSH2 0x410 JUMPI PUSH1 0x0 DUP1 REVERT JUMPDEST POP PUSH2 0x424 PUSH2 0x41F CALLDATASIZE PUSH1 0x4 PUSH2 0x27BD JUMP JUMPDEST PUSH2 0xAE9 JUMP JUMPDEST PUSH1 0x40 MLOAD PUSH2 0x297 SWAP2 SWAP1 PUSH2 0x2837 JUMP JUMPDEST CALLVALUE DUP1 ISZERO PUSH2 0x43D JUMPI PUSH1 0x0 DUP1 REVERT JUMPDEST POP PUSH2 0x312 PUSH2 0x44C CALLDATASIZE PUSH1 0x4 PUSH2 0x2894 JUMP JUMPDEST PUSH2 0xB0B JUMP JUMPDEST CALLVALUE DUP1 ISZERO PUSH2 0x45D JUMPI PUSH1 0x0 DUP1 REVERT JUMPDEST POP PUSH2 0x2E5 PUSH2 0x46C CALLDATASIZE PUSH1 0x4 PUSH2 0x27BD JUMP JUMPDEST PUSH2 0xB48 JUMP JUMPDEST CALLVALUE DUP1 ISZERO PUSH2 0x47D JUMPI PUSH1 0x0 DUP1 REVERT JUMPDEST POP PUSH2 0x369 PUSH2 0x48C CALLDATASIZE PUSH1 0x4 PUSH2 0x290C JUMP JUMPDEST PUSH2 0xB53 JUMP JUMPDEST CALLVALUE DUP1 ISZERO PUSH2 0x49D JUMPI PUSH1 0x0 DUP1 REVERT JUMPDEST POP PUSH2 0x28D PUSH2 0x4AC CALLDATASIZE PUSH1 0x4 PUSH2 0x281C JUMP JUMPDEST PUSH2 0xC82 JUMP JUMPDEST CALLVALUE DUP1 ISZERO PUSH2 0x4BD JUMPI PUSH1 0x0 DUP1 REVERT JUMPDEST POP PUSH2 0x312 PUSH2 0xCA3 JUMP JUMPDEST CALLVALUE DUP1 ISZERO PUSH2 0x4D2 JUMPI PUSH1 0x0 DUP1 REVERT JUMPDEST POP PUSH2 0x28D PUSH2 0x4E1 CALLDATASIZE PUSH1 0x4 PUSH2 0x281C JUMP JUMPDEST PUSH2 0xCB7 JUMP JUMPDEST CALLVALUE DUP1 ISZERO PUSH2 0x4F2 JUMPI PUSH1 0x0 DUP1 REVERT JUMPDEST POP PUSH2 0x312 PUSH2 0x501 CALLDATASIZE PUSH1 0x4 PUSH2 0x2AC3 JUMP JUMPDEST PUSH2 0xD67 JUMP JUMPDEST PUSH2 0x312 PUSH2 0x514 CALLDATASIZE PUSH1 0x4 PUSH2 0x2B87 JUMP JUMPDEST PUSH2 0xE56 JUMP JUMPDEST CALLVALUE DUP1 ISZERO PUSH2 0x525 JUMPI PUSH1 0x0 DUP1 REVERT JUMPDEST POP PUSH2 0x312 PUSH2 0x534 CALLDATASIZE PUSH1 0x4 PUSH2 0x2BC3 JUMP JUMPDEST PUSH2 0xE8B JUMP JUMPDEST CALLVALUE DUP1 ISZERO PUSH2 0x545 JUMPI PUSH1 0x0 DUP1 REVERT JUMPDEST POP PUSH1 0x0 SLOAD PUSH1 0x1 PUSH1 0x1 PUSH1 0xA0 SHL SUB AND PUSH2 0x396 JUMP JUMPDEST PUSH2 0x312 PUSH2 0x565 CALLDATASIZE PUSH1 0x4 PUSH2 0x2C19 JUMP JUMPDEST PUSH2 0x1005 JUMP JUMPDEST CALLVALUE DUP1 ISZERO PUSH2 0x576 JUMPI PUSH1 0x0 DUP1 REVERT JUMPDEST POP PUSH2 0x58A PUSH2 0x585 CALLDATASIZE PUSH1 0x4 PUSH2 0x281C JUMP JUMPDEST PUSH2 0x10C5 JUMP JUMPDEST PUSH1 0x40 MLOAD PUSH2 0x297 SWAP2 SWAP1 PUSH2 0x2C72 JUMP JUMPDEST CALLVALUE DUP1 ISZERO PUSH2 0x5A3 JUMPI PUSH1 0x0 DUP1 REVERT JUMPDEST POP PUSH2 0x312 PUSH2 0x5B2 CALLDATASIZE PUSH1 0x4 PUSH2 0x2CAA JUMP JUMPDEST PUSH2 0x10E9 JUMP JUMPDEST CALLVALUE DUP1 ISZERO PUSH2 0x5C3 JUMPI PUSH1 0x0 DUP1 REVERT JUMPDEST POP PUSH2 0x312 PUSH2 0x5D2 CALLDATASIZE PUSH1 0x4 PUSH2 0x2D27 JUMP JUMPDEST PUSH2 0x11B4 JUMP JUMPDEST CALLVALUE DUP1 ISZERO PUSH2 0x5E3 JUMPI PUSH1 0x0 DUP1 REVERT JUMPDEST POP PUSH2 0x312 PUSH2 0x5F2 CALLDATASIZE PUSH1 0x4 PUSH2 0x2619 JUMP JUMPDEST PUSH2 0x11C7 JUMP JUMPDEST CALLVALUE DUP1 ISZERO PUSH2 0x603 JUMPI PUSH1 0x0 DUP1 REVERT JUMPDEST POP PUSH2 0x312 PUSH2 0x612 CALLDATASIZE PUSH1 0x4 PUSH2 0x2D60 JUMP JUMPDEST PUSH2 0x11F9 JUMP JUMPDEST CALLVALUE DUP1 ISZERO PUSH2 0x623 JUMPI PUSH1 0x0 DUP1 REVERT JUMPDEST POP PUSH2 0x369 PUSH2 0x632 CALLDATASIZE PUSH1 0x4 PUSH2 0x2DC7 JUMP JUMPDEST PUSH2 0x12DD JUMP JUMPDEST CALLVALUE DUP1 ISZERO PUSH2 0x643 JUMPI PUSH1 0x0 DUP1 REVERT JUMPDEST POP PUSH2 0x312 PUSH2 0x652 CALLDATASIZE PUSH1 0x4 PUSH2 0x27F2 JUMP JUMPDEST PUSH2 0x1387 JUMP JUMPDEST CALLVALUE DUP1 ISZERO PUSH2 0x663 JUMPI PUSH1 0x0 DUP1 REVERT JUMPDEST POP PUSH2 0x312 PUSH2 0x672 CALLDATASIZE PUSH1 0x4 PUSH2 0x281C JUMP JUMPDEST PUSH2 0x1458 JUMP JUMPDEST PUSH1 0x60 PUSH1 0x0 PUSH2 0x690 PUSH1 0x0 CALLDATALOAD PUSH1 0x1 PUSH1 0x1 PUSH1 0xE0 SHL SUB NOT AND PUSH2 0x1490 JUMP JUMPDEST POP SWAP1 POP PUSH1 0x1 PUSH1 0x1 PUSH1 0xA0 SHL SUB DUP2 AND PUSH2 0x6C8 JUMPI PUSH1 0x40 MLOAD PUSH4 0xBB370B2B PUSH1 0xE0 SHL DUP2 MSTORE PUSH1 0x1 PUSH1 0x1 PUSH1 0xE0 SHL SUB NOT PUSH1 0x0 CALLDATALOAD AND PUSH1 0x4 DUP3 ADD MSTORE PUSH1 0x24 ADD PUSH2 0x214 JUMP JUMPDEST PUSH1 0x0 DUP1 DUP3 PUSH1 0x1 PUSH1 0x1 PUSH1 0xA0 SHL SUB AND CALLVALUE DUP8 DUP8 CALLER CALLVALUE PUSH1 0x40 MLOAD PUSH1 0x20 ADD PUSH2 0x6ED SWAP5 SWAP4 SWAP3 SWAP2 SWAP1 PUSH2 0x2DFB JUMP JUMPDEST PUSH1 0x40 DUP1 MLOAD PUSH1 0x1F NOT DUP2 DUP5 SUB ADD DUP2 MSTORE SWAP1 DUP3 SWAP1 MSTORE PUSH2 0x707 SWAP2 PUSH2 0x2E26 JUMP JUMPDEST PUSH1 0x0 PUSH1 0x40 MLOAD DUP1 DUP4 SUB DUP2 DUP6 DUP8 GAS CALL SWAP3 POP POP POP RETURNDATASIZE DUP1 PUSH1 0x0 DUP2 EQ PUSH2 0x744 JUMPI PUSH1 0x40 MLOAD SWAP2 POP PUSH1 0x1F NOT PUSH1 0x3F RETURNDATASIZE ADD AND DUP3 ADD PUSH1 0x40 MSTORE RETURNDATASIZE DUP3 MSTORE RETURNDATASIZE PUSH1 0x0 PUSH1 0x20 DUP5 ADD RETURNDATACOPY PUSH2 0x749 JUMP JUMPDEST PUSH1 0x60 SWAP2 POP JUMPDEST POP SWAP2 POP SWAP2 POP DUP2 ISZERO PUSH2 0x75E JUMPI SWAP3 POP PUSH2 0x767 SWAP2 POP POP JUMP JUMPDEST DUP1 MLOAD DUP1 PUSH1 0x20 DUP4 ADD REVERT JUMPDEST SWAP3 SWAP2 POP POP JUMP JUMPDEST PUSH1 0x0 PUSH1 0x1 PUSH1 0x1 PUSH1 0xE0 SHL SUB NOT DUP3 AND PUSH4 0x1D138B83 PUSH1 0xE1 SHL EQ DUP1 PUSH2 0x792 JUMPI POP PUSH2 0x792 DUP3 PUSH2 0x150E JUMP JUMPDEST DUP1 PUSH2 0x767 JUMPI POP PUSH2 0x767 DUP3 PUSH2 0x1533 JUMP JUMPDEST PUSH1 0x60 PUSH2 0x7CC PUSH32 0x1A7628600C3BAC7101F53697F48DF381DDC36B9015E7D7C9C5633D1252AA2843 PUSH2 0x156A JUMP JUMPDEST SWAP1 POP SWAP1 JUMP JUMPDEST PUSH2 0x7D9 PUSH2 0x160C JUMP JUMPDEST PUSH2 0x803 PUSH32 0x9AFB95CACC9F95858EC44AA8C3B685511002E30AE54415823F406128B85B238E DUP3 PUSH2 0x1648 JUMP JUMPDEST POP JUMP JUMPDEST PUSH1 0x60 PUSH2 0x812 DUP4 DUP4 PUSH2 0x1692 JUMP JUMPDEST SWAP4 SWAP3 POP POP POP JUMP JUMPDEST PUSH1 0x60 DUP2 MLOAD DUP4 MLOAD EQ PUSH2 0x83D JUMPI PUSH1 0x40 MLOAD PUSH4 0x17D38EFF PUSH1 0xE1 SHL DUP2 MSTORE PUSH1 0x4 ADD PUSH1 0x40 MLOAD DUP1 SWAP2 SUB SWAP1 REVERT JUMPDEST DUP3 MLOAD PUSH1 0x1 PUSH1 0x1 PUSH1 0x40 SHL SUB DUP2 GT ISZERO PUSH2 0x856 JUMPI PUSH2 0x856 PUSH2 0x2556 JUMP JUMPDEST PUSH1 0x40 MLOAD SWAP1 DUP1 DUP3 MSTORE DUP1 PUSH1 0x20 MUL PUSH1 0x20 ADD DUP3 ADD PUSH1 0x40 MSTORE DUP1 ISZERO PUSH2 0x889 JUMPI DUP2 PUSH1 0x20 ADD JUMPDEST PUSH1 0x60 DUP2 MSTORE PUSH1 0x20 ADD SWAP1 PUSH1 0x1 SWAP1 SUB SWAP1 DUP2 PUSH2 0x874 JUMPI SWAP1 POP JUMPDEST POP SWAP1 POP PUSH1 0x0 JUMPDEST DUP4 MLOAD DUP2 LT ISZERO PUSH2 0x8F9 JUMPI PUSH2 0x8D4 DUP5 DUP3 DUP2 MLOAD DUP2 LT PUSH2 0x8AD JUMPI PUSH2 0x8AD PUSH2 0x2E42 JUMP JUMPDEST PUSH1 0x20 MUL PUSH1 0x20 ADD ADD MLOAD DUP5 DUP4 DUP2 MLOAD DUP2 LT PUSH2 0x8C7 JUMPI PUSH2 0x8C7 PUSH2 0x2E42 JUMP JUMPDEST PUSH1 0x20 MUL PUSH1 0x20 ADD ADD MLOAD PUSH2 0x1692 JUMP JUMPDEST DUP3 DUP3 DUP2 MLOAD DUP2 LT PUSH2 0x8E6 JUMPI PUSH2 0x8E6 PUSH2 0x2E42 JUMP JUMPDEST PUSH1 0x20 SWAP1 DUP2 MUL SWAP2 SWAP1 SWAP2 ADD ADD MSTORE PUSH1 0x1 ADD PUSH2 0x88F JUMP JUMPDEST POP SWAP3 SWAP2 POP POP JUMP JUMPDEST PUSH1 0x0 DUP2 DUP2 MSTORE PUSH1 0x3 PUSH1 0x20 MSTORE PUSH1 0x40 DUP2 KECCAK256 SLOAD PUSH1 0x1 PUSH1 0x1 PUSH1 0xA0 SHL SUB AND DUP1 PUSH2 0x767 JUMPI PUSH1 0x40 MLOAD PUSH4 0x5747CD1B PUSH1 0xE1 SHL DUP2 MSTORE PUSH1 0x4 DUP2 ADD DUP5 SWAP1 MSTORE PUSH1 0x24 ADD PUSH2 0x214 JUMP JUMPDEST PUSH1 0x0 PUSH2 0x812 DUP4 DUP4 PUSH2 0x1740 JUMP JUMPDEST PUSH2 0x94D PUSH2 0x160C JUMP JUMPDEST PUSH1 0x0 PUSH2 0x978 PUSH32 0x114BD03B3A46D48759680D81EBB2B414FDA7D030A7105A851867ACCF1C2352E7 PUSH2 0x156A JUMP JUMPDEST SWAP1 POP PUSH1 0x0 PUSH1 0x20 DUP3 MLOAD LT PUSH2 0x98C JUMPI POP PUSH1 0x20 DUP2 ADD MLOAD JUMPDEST PUSH1 0x40 DUP1 MLOAD PUSH32 0x114BD03B3A46D48759680D81EBB2B414FDA7D030A7105A851867ACCF1C2352E7 PUSH1 0x20 DUP1 DUP4 ADD SWAP2 SWAP1 SWAP2 MSTORE DUP2 DUP4 ADD DUP5 SWAP1 MSTORE DUP3 MLOAD DUP1 DUP4 SUB DUP5 ADD DUP2 MSTORE PUSH1 0x60 DUP1 DUP5 ADD SWAP1 SWAP5 MSTORE DUP1 MLOAD SWAP2 ADD KECCAK256 SWAP2 DUP6 SWAP1 SHL PUSH1 0x1 PUSH1 0x1 PUSH1 0x60 SHL SUB NOT AND PUSH1 0x80 DUP3 ADD MSTORE PUSH2 0xA07 SWAP1 DUP3 SWAP1 PUSH1 0x94 ADD JUMPDEST PUSH1 0x40 MLOAD PUSH1 0x20 DUP2 DUP4 SUB SUB DUP2 MSTORE SWAP1 PUSH1 0x40 MSTORE PUSH2 0x1648 JUMP JUMPDEST PUSH2 0xA75 PUSH32 0x114BD03B3A46D48759680D81EBB2B414FDA7D030A7105A851867ACCF1C2352E7 PUSH2 0xA36 DUP5 PUSH1 0x1 PUSH2 0x2E6E JUMP JUMPDEST PUSH2 0xA41 DUP6 PUSH1 0x1 PUSH2 0x2E6E JUMP JUMPDEST PUSH1 0x40 DUP1 MLOAD PUSH16 0xFFFFFFFFFFFFFFFFFFFFFFFFFFFFFFFF NOT PUSH1 0x80 SWAP5 DUP6 SHL DUP2 AND PUSH1 0x20 DUP4 ADD MSTORE SWAP3 SWAP1 SWAP4 SHL SWAP1 SWAP2 AND PUSH1 0x30 DUP4 ADD MSTORE ADD PUSH2 0x9F3 JUMP JUMPDEST PUSH1 0x40 MLOAD PUSH10 0x36F42F57AECC15A72ED PUSH1 0xB5 SHL PUSH1 0x20 DUP3 ADD MSTORE PUSH1 0x1 PUSH1 0x1 PUSH1 0x60 SHL SUB NOT PUSH1 0x60 DUP7 SWAP1 SHL AND PUSH1 0x2A DUP3 ADD MSTORE PUSH1 0x0 SWAP1 PUSH1 0x3E ADD PUSH1 0x40 MLOAD PUSH1 0x20 DUP2 DUP4 SUB SUB DUP2 MSTORE SWAP1 PUSH1 0x40 MSTORE PUSH2 0xABD SWAP1 PUSH2 0x2E81 JUMP JUMPDEST SWAP1 POP PUSH2 0xAE2 DUP2 PUSH1 0x40 MLOAD DUP1 PUSH1 0x40 ADD PUSH1 0x40 MSTORE DUP1 PUSH1 0x1 DUP2 MSTORE PUSH1 0x20 ADD PUSH1 0x1 PUSH1 0xF8 SHL DUP2 MSTORE POP PUSH2 0x1648 JUMP JUMPDEST POP POP POP POP POP JUMP JUMPDEST PUSH1 0x60 PUSH2 0xAF4 DUP3 PUSH2 0x177D JUMP JUMPDEST PUSH1 0x0 DUP3 DUP2 MSTORE PUSH1 0x5 PUSH1 0x20 MSTORE PUSH1 0x40 SWAP1 KECCAK256 PUSH2 0x767 SWAP1 PUSH2 0x17B5 JUMP JUMPDEST PUSH2 0xB15 CALLER DUP5 PUSH2 0x1740 JUMP JUMPDEST PUSH2 0xB3B JUMPI PUSH1 0x40 MLOAD PUSH4 0x1294D2A9 PUSH1 0xE0 SHL DUP2 MSTORE PUSH1 0x4 DUP2 ADD DUP5 SWAP1 MSTORE CALLER PUSH1 0x24 DUP3 ADD MSTORE PUSH1 0x44 ADD PUSH2 0x214 JUMP JUMPDEST PUSH2 0xAE2 DUP6 DUP6 DUP6 DUP6 DUP6 PUSH2 0x17C2 JUMP JUMPDEST PUSH1 0x60 PUSH2 0x767 DUP3 PUSH2 0x156A JUMP JUMPDEST PUSH1 0x60 DUP2 PUSH1 0x1 PUSH1 0x1 PUSH1 0x40 SHL SUB DUP2 GT ISZERO PUSH2 0xB6D JUMPI PUSH2 0xB6D PUSH2 0x2556 JUMP JUMPDEST PUSH1 0x40 MLOAD SWAP1 DUP1 DUP3 MSTORE DUP1 PUSH1 0x20 MUL PUSH1 0x20 ADD DUP3 ADD PUSH1 0x40 MSTORE DUP1 ISZERO PUSH2 0xBA0 JUMPI DUP2 PUSH1 0x20 ADD JUMPDEST PUSH1 0x60 DUP2 MSTORE PUSH1 0x20 ADD SWAP1 PUSH1 0x1 SWAP1 SUB SWAP1 DUP2 PUSH2 0xB8B JUMPI SWAP1 POP JUMPDEST POP SWAP1 POP PUSH1 0x0 JUMPDEST DUP3 DUP2 LT ISZERO PUSH2 0x8F9 JUMPI PUSH1 0x0 DUP1 ADDRESS DUP7 DUP7 DUP6 DUP2 DUP2 LT PUSH2 0xBC4 JUMPI PUSH2 0xBC4 PUSH2 0x2E42 JUMP JUMPDEST SWAP1 POP PUSH1 0x20 MUL DUP2 ADD SWAP1 PUSH2 0xBD6 SWAP2 SWAP1 PUSH2 0x2EA5 JUMP JUMPDEST PUSH1 0x40 MLOAD PUSH2 0xBE4 SWAP3 SWAP2 SWAP1 PUSH2 0x2EF2 JUMP JUMPDEST PUSH1 0x0 PUSH1 0x40 MLOAD DUP1 DUP4 SUB DUP2 DUP6 GAS DELEGATECALL SWAP2 POP POP RETURNDATASIZE DUP1 PUSH1 0x0 DUP2 EQ PUSH2 0xC1F JUMPI PUSH1 0x40 MLOAD SWAP2 POP PUSH1 0x1F NOT PUSH1 0x3F RETURNDATASIZE ADD AND DUP3 ADD PUSH1 0x40 MSTORE RETURNDATASIZE DUP3 MSTORE RETURNDATASIZE PUSH1 0x0 PUSH1 0x20 DUP5 ADD RETURNDATACOPY PUSH2 0xC24 JUMP JUMPDEST PUSH1 0x60 SWAP2 POP JUMPDEST POP SWAP2 POP SWAP2 POP DUP2 PUSH2 0xC5A JUMPI DUP1 MLOAD ISZERO PUSH2 0xC3E JUMPI DUP1 MLOAD DUP1 DUP3 PUSH1 0x20 ADD REVERT JUMPDEST PUSH1 0x40 MLOAD PUSH4 0x234EB819 PUSH1 0xE0 SHL DUP2 MSTORE PUSH1 0x4 DUP2 ADD DUP5 SWAP1 MSTORE PUSH1 0x24 ADD PUSH2 0x214 JUMP JUMPDEST DUP1 DUP5 DUP5 DUP2 MLOAD DUP2 LT PUSH2 0xC6D JUMPI PUSH2 0xC6D PUSH2 0x2E42 JUMP JUMPDEST PUSH1 0x20 SWAP1 DUP2 MUL SWAP2 SWAP1 SWAP2 ADD ADD MSTORE POP POP PUSH1 0x1 ADD PUSH2 0xBA6 JUMP JUMPDEST PUSH1 0x1 PUSH1 0x1 PUSH1 0xA0 SHL SUB DUP2 AND PUSH1 0x0 SWAP1 DUP2 MSTORE PUSH1 0x4 PUSH1 0x20 MSTORE PUSH1 0x40 DUP2 KECCAK256 PUSH2 0x767 SWAP1 PUSH2 0x19A4 JUMP JUMPDEST PUSH2 0xCAB PUSH2 0x160C JUMP JUMPDEST PUSH2 0xCB5 PUSH1 0x0 PUSH2 0x19AE JUMP JUMPDEST JUMP JUMPDEST PUSH1 0x0 PUSH2 0xCC1 PUSH2 0x160C JUMP JUMPDEST PUSH2 0x1F4 PUSH1 0x7 SLOAD LT PUSH2 0xD20 JUMPI PUSH1 0x40 MLOAD PUSH3 0x461BCD PUSH1 0xE5 SHL DUP2 MSTORE PUSH1 0x20 PUSH1 0x4 DUP3 ADD MSTORE PUSH1 0x23 PUSH1 0x24 DUP3 ADD MSTORE PUSH32 0x504F4B534F4C5350385075726556363A206D617820737570706C792072656163 PUSH1 0x44 DUP3 ADD MSTORE PUSH3 0x1A1959 PUSH1 0xEA SHL PUSH1 0x64 DUP3 ADD MSTORE PUSH1 0x84 ADD PUSH2 0x214 JUMP JUMPDEST PUSH1 0x7 SLOAD PUSH1 0x0 SHL SWAP1 POP PUSH2 0xD44 DUP3 DUP3 PUSH1 0x1 PUSH1 0x40 MLOAD DUP1 PUSH1 0x20 ADD PUSH1 0x40 MSTORE DUP1 PUSH1 0x0 DUP2 MSTORE POP PUSH2 0x1A1C JUMP JUMPDEST PUSH2 0xD4D DUP2 PUSH2 0x1B8C JUMP JUMPDEST PUSH1 0x7 DUP1 SLOAD SWAP1 PUSH1 0x0 PUSH2 0xD5D DUP4 PUSH2 0x2F02 JUMP JUMPDEST SWAP2 SWAP1 POP SSTORE POP SWAP2 SWAP1 POP JUMP JUMPDEST DUP5 MLOAD DUP5 MLOAD DUP2 EQ ISZERO DUP1 PUSH2 0xD7A JUMPI POP DUP4 MLOAD DUP2 EQ ISZERO JUMPDEST DUP1 PUSH2 0xD86 JUMPI POP DUP3 MLOAD DUP2 EQ ISZERO JUMPDEST DUP1 PUSH2 0xD92 JUMPI POP DUP2 MLOAD DUP2 EQ ISZERO JUMPDEST ISZERO PUSH2 0xDB0 JUMPI PUSH1 0x40 MLOAD PUSH4 0x93A83119 PUSH1 0xE0 SHL DUP2 MSTORE PUSH1 0x4 ADD PUSH1 0x40 MLOAD DUP1 SWAP2 SUB SWAP1 REVERT JUMPDEST PUSH1 0x0 JUMPDEST DUP2 DUP2 LT ISZERO PUSH2 0xE4D JUMPI PUSH2 0xE45 DUP8 DUP3 DUP2 MLOAD DUP2 LT PUSH2 0xDD0 JUMPI PUSH2 0xDD0 PUSH2 0x2E42 JUMP JUMPDEST PUSH1 0x20 MUL PUSH1 0x20 ADD ADD MLOAD DUP8 DUP4 DUP2 MLOAD DUP2 LT PUSH2 0xDEA JUMPI PUSH2 0xDEA PUSH2 0x2E42 JUMP JUMPDEST PUSH1 0x20 MUL PUSH1 0x20 ADD ADD MLOAD DUP8 DUP5 DUP2 MLOAD DUP2 LT PUSH2 0xE04 JUMPI PUSH2 0xE04 PUSH2 0x2E42 JUMP JUMPDEST PUSH1 0x20 MUL PUSH1 0x20 ADD ADD MLOAD DUP8 DUP6 DUP2 MLOAD DUP2 LT PUSH2 0xE1E JUMPI PUSH2 0xE1E PUSH2 0x2E42 JUMP JUMPDEST PUSH1 0x20 MUL PUSH1 0x20 ADD ADD MLOAD DUP8 DUP7 DUP2 MLOAD DUP2 LT PUSH2 0xE38 JUMPI PUSH2 0xE38 PUSH2 0x2E42 JUMP JUMPDEST PUSH1 0x20 MUL PUSH1 0x20 ADD ADD MLOAD PUSH2 0xB0B JUMP JUMPDEST PUSH1 0x1 ADD PUSH2 0xDB3 JUMP JUMPDEST POP POP POP POP POP POP POP JUMP JUMPDEST PUSH2 0xE5E PUSH2 0x160C JUMP JUMPDEST CALLVALUE ISZERO PUSH2 0xE7D JUMPI PUSH1 0x40 MLOAD PUSH4 0xF36BA737 PUSH1 0xE0 SHL DUP2 MSTORE PUSH1 0x4 ADD PUSH1 0x40 MLOAD DUP1 SWAP2 SUB SWAP1 REVERT JUMPDEST PUSH2 0xE87 DUP3 DUP3 PUSH2 0x1648 JUMP JUMPDEST POP POP JUMP JUMPDEST PUSH1 0x0 PUSH2 0xE96 DUP4 PUSH2 0x900 JUMP JUMPDEST SWAP1 POP PUSH1 0x1 PUSH1 0x1 PUSH1 0xA0 SHL SUB DUP2 AND CALLER EQ PUSH2 0xED9 JUMPI PUSH1 0x40 MLOAD PUSH4 0x2D938F51 PUSH1 0xE1 SHL DUP2 MSTORE PUSH1 0x1 PUSH1 0x1 PUSH1 0xA0 SHL SUB DUP3 AND PUSH1 0x4 DUP3 ADD MSTORE PUSH1 0x24 DUP2 ADD DUP5 SWAP1 MSTORE CALLER PUSH1 0x44 DUP3 ADD MSTORE PUSH1 0x64 ADD PUSH2 0x214 JUMP JUMPDEST PUSH1 0x1 PUSH1 0x1 PUSH1 0xA0 SHL SUB DUP5 AND PUSH2 0xF00 JUMPI PUSH1 0x40 MLOAD PUSH4 0x9577B8B3 PUSH1 0xE0 SHL DUP2 MSTORE PUSH1 0x4 ADD PUSH1 0x40 MLOAD DUP1 SWAP2 SUB SWAP1 REVERT JUMPDEST DUP4 PUSH1 0x1 PUSH1 0x1 PUSH1 0xA0 SHL SUB AND DUP2 PUSH1 0x1 PUSH1 0x1 PUSH1 0xA0 SHL SUB AND SUB PUSH2 0xF32 JUMPI PUSH1 0x40 MLOAD PUSH4 0x44FED6B1 PUSH1 0xE1 SHL DUP2 MSTORE PUSH1 0x4 ADD PUSH1 0x40 MLOAD DUP1 SWAP2 SUB SWAP1 REVERT JUMPDEST PUSH1 0x0 DUP4 DUP2 MSTORE PUSH1 0x5 PUSH1 0x20 MSTORE PUSH1 0x40 DUP2 KECCAK256 PUSH2 0xF4A SWAP1 DUP7 PUSH2 0x1C20 JUMP JUMPDEST SWAP1 POP DUP1 PUSH2 0xF7C JUMPI PUSH1 0x40 MLOAD PUSH4 0x14EC4D6D PUSH1 0xE3 SHL DUP2 MSTORE PUSH1 0x1 PUSH1 0x1 PUSH1 0xA0 SHL SUB DUP7 AND PUSH1 0x4 DUP3 ADD MSTORE PUSH1 0x24 DUP2 ADD DUP6 SWAP1 MSTORE PUSH1 0x44 ADD PUSH2 0x214 JUMP JUMPDEST DUP4 DUP3 PUSH1 0x1 PUSH1 0x1 PUSH1 0xA0 SHL SUB AND DUP7 PUSH1 0x1 PUSH1 0x1 PUSH1 0xA0 SHL SUB AND PUSH32 0x1B1B58AA2EC0CEC2228B2D37124556D41F5A1F7B12F089171F896CC236671215 DUP7 PUSH1 0x40 MLOAD PUSH2 0xFC0 SWAP2 SWAP1 PUSH2 0x2543 JUMP JUMPDEST PUSH1 0x40 MLOAD DUP1 SWAP2 SUB SWAP1 LOG4 PUSH1 0x0 CALLER DUP6 PUSH1 0x1 DUP7 PUSH1 0x40 MLOAD PUSH1 0x20 ADD PUSH2 0xFE2 SWAP5 SWAP4 SWAP3 SWAP2 SWAP1 PUSH2 0x2F1B JUMP JUMPDEST PUSH1 0x40 MLOAD PUSH1 0x20 DUP2 DUP4 SUB SUB DUP2 MSTORE SWAP1 PUSH1 0x40 MSTORE SWAP1 POP PUSH2 0xFFD DUP7 DUP3 PUSH2 0x1C35 JUMP JUMPDEST POP POP POP POP POP POP JUMP JUMPDEST PUSH2 0x100D PUSH2 0x160C JUMP JUMPDEST CALLVALUE ISZERO PUSH2 0x102C JUMPI PUSH1 0x40 MLOAD PUSH4 0xF36BA737 PUSH1 0xE0 SHL DUP2 MSTORE PUSH1 0x4 ADD PUSH1 0x40 MLOAD DUP1 SWAP2 SUB SWAP1 REVERT JUMPDEST DUP1 MLOAD DUP3 MLOAD EQ PUSH2 0x104E JUMPI PUSH1 0x40 MLOAD PUSH4 0x3BCC8979 PUSH1 0xE0 SHL DUP2 MSTORE PUSH1 0x4 ADD PUSH1 0x40 MLOAD DUP1 SWAP2 SUB SWAP1 REVERT JUMPDEST DUP2 MLOAD PUSH1 0x0 SUB PUSH2 0x1070 JUMPI PUSH1 0x40 MLOAD PUSH4 0x97DA5F95 PUSH1 0xE0 SHL DUP2 MSTORE PUSH1 0x4 ADD PUSH1 0x40 MLOAD DUP1 SWAP2 SUB SWAP1 REVERT JUMPDEST PUSH1 0x0 JUMPDEST DUP3 MLOAD DUP2 LT ISZERO PUSH2 0x10C0 JUMPI PUSH2 0x10B8 DUP4 DUP3 DUP2 MLOAD DUP2 LT PUSH2 0x1091 JUMPI PUSH2 0x1091 PUSH2 0x2E42 JUMP JUMPDEST PUSH1 0x20 MUL PUSH1 0x20 ADD ADD MLOAD DUP4 DUP4 DUP2 MLOAD DUP2 LT PUSH2 0x10AB JUMPI PUSH2 0x10AB PUSH2 0x2E42 JUMP JUMPDEST PUSH1 0x20 MUL PUSH1 0x20 ADD ADD MLOAD PUSH2 0x1648 JUMP JUMPDEST PUSH1 0x1 ADD PUSH2 0x1073 JUMP JUMPDEST POP POP POP JUMP JUMPDEST PUSH1 0x1 PUSH1 0x1 PUSH1 0xA0 SHL SUB DUP2 AND PUSH1 0x0 SWAP1 DUP2 MSTORE PUSH1 0x4 PUSH1 0x20 MSTORE PUSH1 0x40 SWAP1 KECCAK256 PUSH1 0x60 SWAP1 PUSH2 0x767 SWAP1 PUSH2 0x17B5 JUMP JUMPDEST PUSH2 0x10F1 PUSH2 0x160C JUMP JUMPDEST DUP2 MLOAD DUP4 MLOAD EQ ISZERO DUP1 PUSH2 0x1104 JUMPI POP DUP1 MLOAD DUP3 MLOAD EQ ISZERO JUMPDEST ISZERO PUSH2 0x1122 JUMPI PUSH1 0x40 MLOAD PUSH4 0x17D38EFF PUSH1 0xE1 SHL DUP2 MSTORE PUSH1 0x4 ADD PUSH1 0x40 MLOAD DUP1 SWAP2 SUB SWAP1 REVERT JUMPDEST DUP3 MLOAD PUSH1 0x0 SUB PUSH2 0x1144 JUMPI PUSH1 0x40 MLOAD PUSH4 0x80C98305 PUSH1 0xE0 SHL DUP2 MSTORE PUSH1 0x4 ADD PUSH1 0x40 MLOAD DUP1 SWAP2 SUB SWAP1 REVERT JUMPDEST PUSH1 0x0 JUMPDEST DUP4 MLOAD DUP2 LT ISZERO PUSH2 0x11AE JUMPI PUSH2 0x11A6 DUP5 DUP3 DUP2 MLOAD DUP2 LT PUSH2 0x1165 JUMPI PUSH2 0x1165 PUSH2 0x2E42 JUMP JUMPDEST PUSH1 0x20 MUL PUSH1 0x20 ADD ADD MLOAD DUP5 DUP4 DUP2 MLOAD DUP2 LT PUSH2 0x117F JUMPI PUSH2 0x117F PUSH2 0x2E42 JUMP JUMPDEST PUSH1 0x20 MUL PUSH1 0x20 ADD ADD MLOAD DUP5 DUP5 DUP2 MLOAD DUP2 LT PUSH2 0x1199 JUMPI PUSH2 0x1199 PUSH2 0x2E42 JUMP JUMPDEST PUSH1 0x20 MUL PUSH1 0x20 ADD ADD MLOAD PUSH2 0x1C60 JUMP JUMPDEST PUSH1 0x1 ADD PUSH2 0x1147 JUMP JUMPDEST POP POP POP POP JUMP JUMPDEST PUSH2 0x11BC PUSH2 0x160C JUMP JUMPDEST PUSH2 0x10C0 DUP4 DUP4 DUP4 PUSH2 0x1C60 JUMP JUMPDEST PUSH2 0x11CF PUSH2 0x160C JUMP JUMPDEST PUSH2 0x803 PUSH32 0x1A7628600C3BAC7101F53697F48DF381DDC36B9015E7D7C9C5633D1252AA2843 DUP3 PUSH2 0x1648 JUMP JUMPDEST PUSH1 0x0 PUSH2 0x1204 DUP5 PUSH2 0x900 JUMP JUMPDEST SWAP1 POP CALLER PUSH1 0x1 PUSH1 0x1 PUSH1 0xA0 SHL SUB DUP3 AND EQ PUSH2 0x1257 JUMPI PUSH1 0x1 PUSH1 0x1 PUSH1 0xA0 SHL SUB DUP6 AND CALLER EQ PUSH2 0x1257 JUMPI PUSH1 0x40 MLOAD PUSH4 0x760B5ACD PUSH1 0xE0 SHL DUP2 MSTORE CALLER PUSH1 0x4 DUP3 ADD MSTORE PUSH1 0x1 PUSH1 0x1 PUSH1 0xA0 SHL SUB DUP3 AND PUSH1 0x24 DUP3 ADD MSTORE PUSH1 0x44 DUP2 ADD DUP6 SWAP1 MSTORE PUSH1 0x64 ADD PUSH2 0x214 JUMP JUMPDEST PUSH1 0x1 PUSH1 0x1 PUSH1 0xA0 SHL SUB DUP6 AND PUSH2 0x127E JUMPI PUSH1 0x40 MLOAD PUSH4 0x9577B8B3 PUSH1 0xE0 SHL DUP2 MSTORE PUSH1 0x4 ADD PUSH1 0x40 MLOAD DUP1 SWAP2 SUB SWAP1 REVERT JUMPDEST DUP5 PUSH1 0x1 PUSH1 0x1 PUSH1 0xA0 SHL SUB AND DUP2 PUSH1 0x1 PUSH1 0x1 PUSH1 0xA0 SHL SUB AND SUB PUSH2 0x12B0 JUMPI PUSH1 0x40 MLOAD PUSH4 0x44FED6B1 PUSH1 0xE1 SHL DUP2 MSTORE PUSH1 0x4 ADD PUSH1 0x40 MLOAD DUP1 SWAP2 SUB SWAP1 REVERT JUMPDEST PUSH2 0x12BD DUP6 DUP3 DUP7 DUP7 DUP7 PUSH2 0x1CC2 JUMP JUMPDEST DUP3 ISZERO PUSH2 0xAE2 JUMPI PUSH1 0x0 DUP2 DUP6 PUSH1 0x0 DUP6 PUSH1 0x40 MLOAD PUSH1 0x20 ADD PUSH2 0xFE2 SWAP5 SWAP4 SWAP3 SWAP2 SWAP1 PUSH2 0x2F1B JUMP JUMPDEST PUSH1 0x60 DUP2 MLOAD PUSH1 0x1 PUSH1 0x1 PUSH1 0x40 SHL SUB DUP2 GT ISZERO PUSH2 0x12F8 JUMPI PUSH2 0x12F8 PUSH2 0x2556 JUMP JUMPDEST PUSH1 0x40 MLOAD SWAP1 DUP1 DUP3 MSTORE DUP1 PUSH1 0x20 MUL PUSH1 0x20 ADD DUP3 ADD PUSH1 0x40 MSTORE DUP1 ISZERO PUSH2 0x132B JUMPI DUP2 PUSH1 0x20 ADD JUMPDEST PUSH1 0x60 DUP2 MSTORE PUSH1 0x20 ADD SWAP1 PUSH1 0x1 SWAP1 SUB SWAP1 DUP2 PUSH2 0x1316 JUMPI SWAP1 POP JUMPDEST POP SWAP1 POP PUSH1 0x0 JUMPDEST DUP3 MLOAD DUP2 LT ISZERO PUSH2 0x1381 JUMPI PUSH2 0x135C DUP4 DUP3 DUP2 MLOAD DUP2 LT PUSH2 0x134F JUMPI PUSH2 0x134F PUSH2 0x2E42 JUMP JUMPDEST PUSH1 0x20 MUL PUSH1 0x20 ADD ADD MLOAD PUSH2 0x156A JUMP JUMPDEST DUP3 DUP3 DUP2 MLOAD DUP2 LT PUSH2 0x136E JUMPI PUSH2 0x136E PUSH2 0x2E42 JUMP JUMPDEST PUSH1 0x20 SWAP1 DUP2 MUL SWAP2 SWAP1 SWAP2 ADD ADD MSTORE PUSH1 0x1 ADD PUSH2 0x1331 JUMP JUMPDEST POP SWAP2 SWAP1 POP JUMP JUMPDEST PUSH2 0x138F PUSH2 0x160C JUMP JUMPDEST PUSH2 0x1F4 DUP2 PUSH1 0x7 SLOAD PUSH2 0x13A0 SWAP2 SWAP1 PUSH2 0x2E6E JUMP JUMPDEST GT ISZERO PUSH2 0x13F9 JUMPI PUSH1 0x40 MLOAD PUSH3 0x461BCD PUSH1 0xE5 SHL DUP2 MSTORE PUSH1 0x20 PUSH1 0x4 DUP3 ADD MSTORE PUSH1 0x22 PUSH1 0x24 DUP3 ADD MSTORE PUSH32 0x504F4B534F4C5350385075726556363A206E6F7420656E6F7567682073757070 PUSH1 0x44 DUP3 ADD MSTORE PUSH2 0x6C79 PUSH1 0xF0 SHL PUSH1 0x64 DUP3 ADD MSTORE PUSH1 0x84 ADD PUSH2 0x214 JUMP JUMPDEST PUSH1 0x0 JUMPDEST DUP2 DUP2 LT ISZERO PUSH2 0x10C0 JUMPI PUSH1 0x7 SLOAD PUSH1 0x40 DUP1 MLOAD PUSH1 0x20 DUP2 ADD SWAP1 SWAP2 MSTORE PUSH1 0x0 DUP2 MSTORE PUSH2 0x1426 SWAP1 DUP6 SWAP1 DUP4 SWAP1 PUSH1 0x1 SWAP1 PUSH2 0x1A1C JUMP JUMPDEST PUSH2 0x142F DUP2 PUSH2 0x1B8C JUMP JUMPDEST PUSH1 0x7 DUP1 SLOAD SWAP1 PUSH1 0x0 PUSH2 0x143F DUP4 PUSH2 0x2F02 JUMP JUMPDEST SWAP2 SWAP1 POP SSTORE POP POP DUP1 DUP1 PUSH2 0x1450 SWAP1 PUSH2 0x2F02 JUMP JUMPDEST SWAP2 POP POP PUSH2 0x13FC JUMP JUMPDEST PUSH2 0x1460 PUSH2 0x160C JUMP JUMPDEST PUSH1 0x1 PUSH1 0x1 PUSH1 0xA0 SHL SUB DUP2 AND PUSH2 0x1487 JUMPI PUSH1 0x40 MLOAD PUSH4 0x6B620DB PUSH1 0xE2 SHL DUP2 MSTORE PUSH1 0x4 ADD PUSH1 0x40 MLOAD DUP1 SWAP2 SUB SWAP1 REVERT JUMPDEST PUSH2 0x803 DUP2 PUSH2 0x19AE JUMP JUMPDEST PUSH1 0x0 DUP1 DUP1 PUSH2 0x14B5 PUSH10 0x6773C5A04A6D4300884B PUSH1 0xB1 SHL PUSH1 0x1 PUSH1 0x1 PUSH1 0xE0 SHL SUB NOT DUP7 AND PUSH2 0x1D62 JUMP JUMPDEST SWAP1 POP PUSH1 0x0 PUSH2 0x14C2 DUP3 PUSH2 0x156A JUMP JUMPDEST SWAP1 POP DUP1 MLOAD PUSH1 0x14 EQ ISZERO DUP1 ISZERO PUSH2 0x14D6 JUMPI POP DUP1 MLOAD ISZERO ISZERO JUMPDEST ISZERO PUSH2 0x14F6 JUMPI DUP1 PUSH1 0x40 MLOAD PUSH4 0x42BFE79F PUSH1 0xE0 SHL DUP2 MSTORE PUSH1 0x4 ADD PUSH2 0x214 SWAP2 SWAP1 PUSH2 0x2543 JUMP JUMPDEST PUSH2 0x14FF DUP2 PUSH2 0x2F54 JUMP JUMPDEST PUSH1 0x60 SHR SWAP6 PUSH1 0x1 SWAP6 POP SWAP4 POP POP POP POP JUMP JUMPDEST PUSH1 0x0 PUSH1 0x1 PUSH1 0x1 PUSH1 0xE0 SHL SUB NOT DUP3 AND PUSH4 0xA918FA6B PUSH1 0xE0 SHL EQ DUP1 PUSH2 0x767 JUMPI POP PUSH2 0x767 DUP3 PUSH2 0x1DB6 JUMP JUMPDEST PUSH1 0x0 DUP1 PUSH2 0x1546 PUSH4 0x1FFC9A7 PUSH1 0xE0 SHL PUSH2 0x1490 JUMP JUMPDEST POP SWAP1 POP PUSH1 0x1 PUSH1 0x1 PUSH1 0xA0 SHL SUB DUP2 AND PUSH2 0x1560 JUMPI POP PUSH1 0x0 SWAP3 SWAP2 POP POP JUMP JUMPDEST PUSH2 0x812 DUP2 DUP5 PUSH2 0x1DEB JUMP JUMPDEST PUSH1 0x0 DUP2 DUP2 MSTORE PUSH1 0x1 PUSH1 0x20 MSTORE PUSH1 0x40 SWAP1 KECCAK256 DUP1 SLOAD PUSH1 0x60 SWAP2 SWAP1 PUSH2 0x1587 SWAP1 PUSH2 0x2F8B JUMP JUMPDEST DUP1 PUSH1 0x1F ADD PUSH1 0x20 DUP1 SWAP2 DIV MUL PUSH1 0x20 ADD PUSH1 0x40 MLOAD SWAP1 DUP2 ADD PUSH1 0x40 MSTORE DUP1 SWAP3 SWAP2 SWAP1 DUP2 DUP2 MSTORE PUSH1 0x20 ADD DUP3 DUP1 SLOAD PUSH2 0x15B3 SWAP1 PUSH2 0x2F8B JUMP JUMPDEST DUP1 ISZERO PUSH2 0x1600 JUMPI DUP1 PUSH1 0x1F LT PUSH2 0x15D5 JUMPI PUSH2 0x100 DUP1 DUP4 SLOAD DIV MUL DUP4 MSTORE SWAP2 PUSH1 0x20 ADD SWAP2 PUSH2 0x1600 JUMP JUMPDEST DUP3 ADD SWAP2 SWAP1 PUSH1 0x0 MSTORE PUSH1 0x20 PUSH1 0x0 KECCAK256 SWAP1 JUMPDEST DUP2 SLOAD DUP2 MSTORE SWAP1 PUSH1 0x1 ADD SWAP1 PUSH1 0x20 ADD DUP1 DUP4 GT PUSH2 0x15E3 JUMPI DUP3 SWAP1 SUB PUSH1 0x1F AND DUP3 ADD SWAP2 JUMPDEST POP POP POP POP POP SWAP1 POP SWAP2 SWAP1 POP JUMP JUMPDEST CALLER PUSH2 0x161F PUSH1 0x0 SLOAD PUSH1 0x1 PUSH1 0x1 PUSH1 0xA0 SHL SUB AND SWAP1 JUMP JUMPDEST PUSH1 0x1 PUSH1 0x1 PUSH1 0xA0 SHL SUB AND EQ PUSH2 0xCB5 JUMPI PUSH1 0x40 MLOAD PUSH4 0xBF1169C5 PUSH1 0xE0 SHL DUP2 MSTORE CALLER PUSH1 0x4 DUP3 ADD MSTORE PUSH1 0x24 ADD PUSH2 0x214 JUMP JUMPDEST PUSH32 0x98A16C9E50E3E99B3E797305C146898D294E5AEC55A47E213CB3611CCF17E73 DUP3 ADD PUSH2 0x1688 JUMPI PUSH1 0x40 MLOAD PUSH4 0x1B324005 PUSH1 0xE1 SHL DUP2 MSTORE PUSH1 0x4 ADD PUSH1 0x40 MLOAD DUP1 SWAP2 SUB SWAP1 REVERT JUMPDEST PUSH2 0xE87 DUP3 DUP3 PUSH2 0x1E74 JUMP JUMPDEST PUSH1 0x0 DUP3 DUP2 MSTORE PUSH1 0x6 PUSH1 0x20 SWAP1 DUP2 MSTORE PUSH1 0x40 DUP1 DUP4 KECCAK256 DUP5 DUP5 MSTORE SWAP1 SWAP2 MSTORE SWAP1 KECCAK256 DUP1 SLOAD PUSH1 0x60 SWAP2 SWAP1 PUSH2 0x16BA SWAP1 PUSH2 0x2F8B JUMP JUMPDEST DUP1 PUSH1 0x1F ADD PUSH1 0x20 DUP1 SWAP2 DIV MUL PUSH1 0x20 ADD PUSH1 0x40 MLOAD SWAP1 DUP2 ADD PUSH1 0x40 MSTORE DUP1 SWAP3 SWAP2 SWAP1 DUP2 DUP2 MSTORE PUSH1 0x20 ADD DUP3 DUP1 SLOAD PUSH2 0x16E6 SWAP1 PUSH2 0x2F8B JUMP JUMPDEST DUP1 ISZERO PUSH2 0x1733 JUMPI DUP1 PUSH1 0x1F LT PUSH2 0x1708 JUMPI PUSH2 0x100 DUP1 DUP4 SLOAD DIV MUL DUP4 MSTORE SWAP2 PUSH1 0x20 ADD SWAP2 PUSH2 0x1733 JUMP JUMPDEST DUP3 ADD SWAP2 SWAP1 PUSH1 0x0 MSTORE PUSH1 0x20 PUSH1 0x0 KECCAK256 SWAP1 JUMPDEST DUP2 SLOAD DUP2 MSTORE SWAP1 PUSH1 0x1 ADD SWAP1 PUSH1 0x20 ADD DUP1 DUP4 GT PUSH2 0x1716 JUMPI DUP3 SWAP1 SUB PUSH1 0x1F AND DUP3 ADD SWAP2 JUMPDEST POP POP POP POP POP SWAP1 POP SWAP3 SWAP2 POP POP JUMP JUMPDEST PUSH1 0x0 PUSH2 0x174B DUP3 PUSH2 0x900 JUMP JUMPDEST PUSH1 0x1 PUSH1 0x1 PUSH1 0xA0 SHL SUB AND DUP4 PUSH1 0x1 PUSH1 0x1 PUSH1 0xA0 SHL SUB AND EQ DUP1 PUSH2 0x812 JUMPI POP PUSH1 0x0 DUP3 DUP2 MSTORE PUSH1 0x5 PUSH1 0x20 MSTORE PUSH1 0x40 SWAP1 KECCAK256 PUSH2 0x812 SWAP1 DUP5 PUSH2 0x1E7E JUMP JUMPDEST PUSH1 0x0 DUP2 DUP2 MSTORE PUSH1 0x3 PUSH1 0x20 MSTORE PUSH1 0x40 SWAP1 KECCAK256 SLOAD PUSH1 0x1 PUSH1 0x1 PUSH1 0xA0 SHL SUB AND PUSH2 0x803 JUMPI PUSH1 0x40 MLOAD PUSH4 0x5747CD1B PUSH1 0xE1 SHL DUP2 MSTORE PUSH1 0x4 DUP2 ADD DUP3 SWAP1 MSTORE PUSH1 0x24 ADD PUSH2 0x214 JUMP JUMPDEST PUSH1 0x60 PUSH1 0x0 PUSH2 0x812 DUP4 PUSH2 0x1EA0 JUMP JUMPDEST PUSH1 0x0 PUSH2 0x17CD DUP5 PUSH2 0x900 JUMP JUMPDEST SWAP1 POP DUP6 PUSH1 0x1 PUSH1 0x1 PUSH1 0xA0 SHL SUB AND DUP2 PUSH1 0x1 PUSH1 0x1 PUSH1 0xA0 SHL SUB AND EQ PUSH2 0x181B JUMPI PUSH1 0x40 MLOAD PUSH4 0x2D938F51 PUSH1 0xE1 SHL DUP2 MSTORE PUSH1 0x1 PUSH1 0x1 PUSH1 0xA0 SHL SUB DUP1 DUP4 AND PUSH1 0x4 DUP4 ADD MSTORE PUSH1 0x24 DUP3 ADD DUP7 SWAP1 MSTORE DUP8 AND PUSH1 0x44 DUP3 ADD MSTORE PUSH1 0x64 ADD PUSH2 0x214 JUMP JUMPDEST PUSH1 0x1 PUSH1 0x1 PUSH1 0xA0 SHL SUB DUP6 AND PUSH2 0x1842 JUMPI PUSH1 0x40 MLOAD PUSH4 0x24ECEF4D PUSH1 0xE0 SHL DUP2 MSTORE PUSH1 0x4 ADD PUSH1 0x40 MLOAD DUP1 SWAP2 SUB SWAP1 REVERT JUMPDEST PUSH1 0x0 PUSH2 0x184D DUP6 PUSH2 0x900 JUMP JUMPDEST SWAP1 POP DUP1 PUSH1 0x1 PUSH1 0x1 PUSH1 0xA0 SHL SUB AND DUP3 PUSH1 0x1 PUSH1 0x1 PUSH1 0xA0 SHL SUB AND EQ PUSH2 0x189B JUMPI PUSH1 0x40 MLOAD PUSH4 0x5A9C31D3 PUSH1 0xE0 SHL DUP2 MSTORE PUSH1 0x4 DUP2 ADD DUP7 SWAP1 MSTORE PUSH1 0x1 PUSH1 0x1 PUSH1 0xA0 SHL SUB DUP1 DUP5 AND PUSH1 0x24 DUP4 ADD MSTORE DUP3 AND PUSH1 0x44 DUP3 ADD MSTORE PUSH1 0x64 ADD PUSH2 0x214 JUMP JUMPDEST PUSH2 0x18A5 DUP8 DUP7 PUSH2 0x1EFB JUMP JUMPDEST PUSH1 0x1 PUSH1 0x1 PUSH1 0xA0 SHL SUB DUP8 AND PUSH1 0x0 SWAP1 DUP2 MSTORE PUSH1 0x4 PUSH1 0x20 MSTORE PUSH1 0x40 SWAP1 KECCAK256 PUSH2 0x18C7 SWAP1 DUP7 PUSH2 0x1F53 JUMP JUMPDEST POP PUSH1 0x1 PUSH1 0x1 PUSH1 0xA0 SHL SUB DUP7 AND PUSH1 0x0 SWAP1 DUP2 MSTORE PUSH1 0x4 PUSH1 0x20 MSTORE PUSH1 0x40 SWAP1 KECCAK256 PUSH2 0x18EA SWAP1 DUP7 PUSH2 0x1F5F JUMP JUMPDEST POP PUSH1 0x0 DUP6 DUP2 MSTORE PUSH1 0x3 PUSH1 0x20 MSTORE PUSH1 0x40 SWAP1 DUP2 SWAP1 KECCAK256 DUP1 SLOAD PUSH1 0x1 PUSH1 0x1 PUSH1 0xA0 SHL SUB NOT AND PUSH1 0x1 PUSH1 0x1 PUSH1 0xA0 SHL SUB DUP10 DUP2 AND SWAP2 DUP3 OR SWAP1 SWAP3 SSTORE SWAP2 MLOAD DUP8 SWAP3 SWAP2 DUP11 AND SWAP1 PUSH32 0xB333C813A7426A7A11E2B190CAD52C44119421594B47F6F32ACE6D8C7207B2BF SWAP1 PUSH2 0x1951 SWAP1 CALLER SWAP1 DUP11 SWAP1 DUP11 SWAP1 PUSH2 0x2FBF JUMP JUMPDEST PUSH1 0x40 MLOAD DUP1 SWAP2 SUB SWAP1 LOG4 PUSH1 0x0 CALLER DUP9 DUP9 DUP9 DUP8 PUSH1 0x40 MLOAD PUSH1 0x20 ADD PUSH2 0x1974 SWAP6 SWAP5 SWAP4 SWAP3 SWAP2 SWAP1 PUSH2 0x2FF4 JUMP JUMPDEST PUSH1 0x40 MLOAD PUSH1 0x20 DUP2 DUP4 SUB SUB DUP2 MSTORE SWAP1 PUSH1 0x40 MSTORE SWAP1 POP PUSH2 0x198F DUP9 DUP3 PUSH2 0x1F6B JUMP JUMPDEST PUSH2 0x199A DUP8 DUP7 DUP4 PUSH2 0x1F96 JUMP JUMPDEST POP POP POP POP POP POP POP POP JUMP JUMPDEST PUSH1 0x0 PUSH2 0x767 DUP3 SLOAD SWAP1 JUMP JUMPDEST PUSH1 0x0 SLOAD PUSH1 0x1 PUSH1 0x1 PUSH1 0xA0 SHL SUB DUP3 DUP2 AND SWAP2 AND EQ PUSH2 0x803 JUMPI PUSH1 0x0 DUP1 SLOAD PUSH1 0x40 MLOAD PUSH1 0x1 PUSH1 0x1 PUSH1 0xA0 SHL SUB DUP1 DUP6 AND SWAP4 SWAP3 AND SWAP2 PUSH32 0x8BE0079C531659141344CD1FD0A4F28419497F9722A3DAAFE3B4186F6B6457E0 SWAP2 LOG3 PUSH1 0x0 DUP1 SLOAD PUSH1 0x1 PUSH1 0x1 PUSH1 0xA0 SHL SUB DUP4 AND PUSH1 0x1 PUSH1 0x1 PUSH1 0xA0 SHL SUB NOT SWAP1 SWAP2 AND OR SWAP1 SSTORE POP JUMP JUMPDEST PUSH1 0x1 PUSH1 0x1 PUSH1 0xA0 SHL SUB DUP5 AND PUSH2 0x1A43 JUMPI PUSH1 0x40 MLOAD PUSH4 0x24ECEF4D PUSH1 0xE0 SHL DUP2 MSTORE PUSH1 0x4 ADD PUSH1 0x40 MLOAD DUP1 SWAP2 SUB SWAP1 REVERT JUMPDEST PUSH1 0x0 DUP4 DUP2 MSTORE PUSH1 0x3 PUSH1 0x20 MSTORE PUSH1 0x40 SWAP1 KECCAK256 SLOAD PUSH1 0x1 PUSH1 0x1 PUSH1 0xA0 SHL SUB AND ISZERO PUSH2 0x1A7C JUMPI PUSH1 0x40 MLOAD PUSH4 0x34C7B511 PUSH1 0xE0 SHL DUP2 MSTORE PUSH1 0x4 DUP2 ADD DUP5 SWAP1 MSTORE PUSH1 0x24 ADD PUSH2 0x214 JUMP JUMPDEST PUSH1 0x0 DUP4 DUP2 MSTORE PUSH1 0x3 PUSH1 0x20 MSTORE PUSH1 0x40 SWAP1 KECCAK256 SLOAD PUSH1 0x1 PUSH1 0x1 PUSH1 0xA0 SHL SUB AND ISZERO PUSH2 0x1AB5 JUMPI PUSH1 0x40 MLOAD PUSH4 0x34C7B511 PUSH1 0xE0 SHL DUP2 MSTORE PUSH1 0x4 DUP2 ADD DUP5 SWAP1 MSTORE PUSH1 0x24 ADD PUSH2 0x214 JUMP JUMPDEST PUSH1 0x2 PUSH1 0x0 DUP2 SLOAD PUSH2 0x1AC4 SWAP1 PUSH2 0x2F02 JUMP JUMPDEST SWAP1 SWAP2 SSTORE POP PUSH1 0x1 PUSH1 0x1 PUSH1 0xA0 SHL SUB DUP5 AND PUSH1 0x0 SWAP1 DUP2 MSTORE PUSH1 0x4 PUSH1 0x20 MSTORE PUSH1 0x40 SWAP1 KECCAK256 PUSH2 0x1AEA SWAP1 DUP5 PUSH2 0x1F5F JUMP JUMPDEST POP PUSH1 0x0 DUP4 DUP2 MSTORE PUSH1 0x3 PUSH1 0x20 MSTORE PUSH1 0x40 DUP1 DUP3 KECCAK256 DUP1 SLOAD PUSH1 0x1 PUSH1 0x1 PUSH1 0xA0 SHL SUB NOT AND PUSH1 0x1 PUSH1 0x1 PUSH1 0xA0 SHL SUB DUP9 AND SWAP1 DUP2 OR SWAP1 SWAP2 SSTORE SWAP1 MLOAD DUP6 SWAP3 SWAP1 PUSH32 0xB333C813A7426A7A11E2B190CAD52C44119421594B47F6F32ACE6D8C7207B2BF SWAP1 PUSH2 0x1B4C SWAP1 CALLER SWAP1 DUP9 SWAP1 DUP9 SWAP1 PUSH2 0x2FBF JUMP JUMPDEST PUSH1 0x40 MLOAD DUP1 SWAP2 SUB SWAP1 LOG4 PUSH1 0x0 CALLER PUSH1 0x0 DUP7 DUP7 DUP6 PUSH1 0x40 MLOAD PUSH1 0x20 ADD PUSH2 0x1B70 SWAP6 SWAP5 SWAP4 SWAP3 SWAP2 SWAP1 PUSH2 0x2FF4 JUMP JUMPDEST PUSH1 0x40 MLOAD PUSH1 0x20 DUP2 DUP4 SUB SUB DUP2 MSTORE SWAP1 PUSH1 0x40 MSTORE SWAP1 POP PUSH2 0xAE2 DUP6 DUP5 DUP4 PUSH2 0x1F96 JUMP JUMPDEST PUSH1 0x0 PUSH2 0x1BB7 PUSH32 0x1A7628600C3BAC7101F53697F48DF381DDC36B9015E7D7C9C5633D1252AA2843 PUSH2 0x156A JUMP JUMPDEST DUP1 MLOAD SWAP1 SWAP2 POP ISZERO PUSH2 0xE87 JUMPI PUSH1 0x0 PUSH2 0x1BCC DUP4 PUSH2 0x209E JUMP JUMPDEST SWAP1 POP PUSH1 0x0 DUP3 DUP3 PUSH1 0x40 MLOAD PUSH1 0x20 ADD PUSH2 0x1BE3 SWAP3 SWAP2 SWAP1 PUSH2 0x302F JUMP JUMPDEST PUSH1 0x40 DUP1 MLOAD PUSH1 0x1F NOT DUP2 DUP5 SUB ADD DUP2 MSTORE SWAP2 SWAP1 MSTORE SWAP1 POP PUSH2 0x11AE DUP5 PUSH32 0x9AFB95CACC9F95858EC44AA8C3B685511002E30AE54415823F406128B85B238E DUP4 PUSH2 0x1C60 JUMP JUMPDEST PUSH1 0x0 PUSH2 0x812 DUP4 PUSH1 0x1 PUSH1 0x1 PUSH1 0xA0 SHL SUB DUP5 AND PUSH2 0x20AA JUMP JUMPDEST PUSH2 0xE87 DUP3 PUSH32 0x8A1C15A8799F71B547E08E2BCB2E85257E81B0A07EEE2CE6712549EEF1F00970 DUP4 PUSH2 0x20F9 JUMP JUMPDEST PUSH1 0x0 DUP4 DUP2 MSTORE PUSH1 0x6 PUSH1 0x20 SWAP1 DUP2 MSTORE PUSH1 0x40 DUP1 DUP4 KECCAK256 DUP6 DUP5 MSTORE SWAP1 SWAP2 MSTORE SWAP1 KECCAK256 PUSH2 0x1C83 DUP3 DUP3 PUSH2 0x30B4 JUMP JUMPDEST POP DUP2 DUP4 PUSH32 0xA6E4251F855F750545FE414F120DB91C76B88DEF14D120969E5BB2D3F05DEBBB DUP4 PUSH1 0x40 MLOAD PUSH2 0x1CB5 SWAP2 SWAP1 PUSH2 0x2543 JUMP JUMPDEST PUSH1 0x40 MLOAD DUP1 SWAP2 SUB SWAP1 LOG3 POP POP POP JUMP JUMPDEST PUSH1 0x0 DUP4 DUP2 MSTORE PUSH1 0x5 PUSH1 0x20 MSTORE PUSH1 0x40 DUP2 KECCAK256 PUSH2 0x1CDA SWAP1 DUP8 PUSH2 0x2146 JUMP JUMPDEST SWAP1 POP DUP1 PUSH2 0x1D0C JUMPI PUSH1 0x40 MLOAD PUSH4 0x12A8C6A3 PUSH1 0xE2 SHL DUP2 MSTORE PUSH1 0x1 PUSH1 0x1 PUSH1 0xA0 SHL SUB DUP8 AND PUSH1 0x4 DUP3 ADD MSTORE PUSH1 0x24 DUP2 ADD DUP6 SWAP1 MSTORE PUSH1 0x44 ADD PUSH2 0x214 JUMP JUMPDEST DUP4 DUP6 PUSH1 0x1 PUSH1 0x1 PUSH1 0xA0 SHL SUB AND DUP8 PUSH1 0x1 PUSH1 0x1 PUSH1 0xA0 SHL SUB AND PUSH32 0xC78CD419D6136F9F1C1C6AEC1D3FAE098CFFAF8BC86314A8F2685E32FE574E3C DUP7 DUP7 PUSH1 0x40 MLOAD PUSH2 0x1D52 SWAP3 SWAP2 SWAP1 PUSH2 0x3173 JUMP JUMPDEST PUSH1 0x40 MLOAD DUP1 SWAP2 SUB SWAP1 LOG4 POP POP POP POP POP POP JUMP JUMPDEST PUSH1 0x40 DUP1 MLOAD PUSH1 0x1 PUSH1 0x1 PUSH1 0xB0 SHL SUB NOT DUP5 AND PUSH1 0x20 DUP3 ADD MSTORE PUSH1 0x0 PUSH1 0x2A DUP3 ADD DUP2 SWAP1 MSTORE PUSH1 0x1 PUSH1 0x1 PUSH1 0x60 SHL SUB NOT DUP5 AND PUSH1 0x2C DUP4 ADD MSTORE SWAP2 DUP3 SWAP2 ADD PUSH1 0x40 MLOAD PUSH1 0x20 DUP2 DUP4 SUB SUB DUP2 MSTORE SWAP1 PUSH1 0x40 MSTORE SWAP1 POP DUP1 PUSH2 0x1DAE SWAP1 PUSH2 0x2E81 JUMP JUMPDEST SWAP5 SWAP4 POP POP POP POP JUMP JUMPDEST PUSH1 0x0 PUSH1 0x1 PUSH1 0x1 PUSH1 0xE0 SHL SUB NOT DUP3 AND PUSH4 0x18A6A9A5 PUSH1 0xE2 SHL EQ DUP1 PUSH2 0x767 JUMPI POP PUSH4 0x1FFC9A7 PUSH1 0xE0 SHL PUSH1 0x1 PUSH1 0x1 PUSH1 0xE0 SHL SUB NOT DUP4 AND EQ PUSH2 0x767 JUMP JUMPDEST PUSH1 0x40 DUP1 MLOAD PUSH1 0x1 PUSH1 0x1 PUSH1 0xE0 SHL SUB NOT DUP4 AND PUSH1 0x24 DUP1 DUP4 ADD SWAP2 SWAP1 SWAP2 MSTORE DUP3 MLOAD DUP1 DUP4 SUB SWAP1 SWAP2 ADD DUP2 MSTORE PUSH1 0x44 SWAP1 SWAP2 ADD SWAP1 SWAP2 MSTORE PUSH1 0x20 DUP1 DUP3 ADD DUP1 MLOAD PUSH1 0x1 PUSH1 0x1 PUSH1 0xE0 SHL SUB AND PUSH4 0x1FFC9A7 PUSH1 0xE0 SHL OR DUP2 MSTORE DUP3 MLOAD PUSH1 0x0 SWAP4 SWAP3 DUP5 SWAP3 DUP4 SWAP3 DUP4 SWAP3 SWAP2 DUP4 SWAP2 SWAP1 DUP11 PUSH2 0x7530 STATICCALL SWAP3 POP RETURNDATASIZE SWAP2 POP PUSH1 0x0 MLOAD SWAP1 POP DUP3 DUP1 ISZERO PUSH2 0x1E5D JUMPI POP PUSH1 0x20 DUP3 LT ISZERO JUMPDEST DUP1 ISZERO PUSH2 0x1E69 JUMPI POP PUSH1 0x0 DUP2 GT JUMPDEST SWAP8 SWAP7 POP POP POP POP POP POP POP JUMP JUMPDEST PUSH2 0xE87 DUP3 DUP3 PUSH2 0x215B JUMP JUMPDEST PUSH1 0x1 PUSH1 0x1 PUSH1 0xA0 SHL SUB DUP2 AND PUSH1 0x0 SWAP1 DUP2 MSTORE PUSH1 0x1 DUP4 ADD PUSH1 0x20 MSTORE PUSH1 0x40 DUP2 KECCAK256 SLOAD ISZERO ISZERO PUSH2 0x812 JUMP JUMPDEST PUSH1 0x60 DUP2 PUSH1 0x0 ADD DUP1 SLOAD DUP1 PUSH1 0x20 MUL PUSH1 0x20 ADD PUSH1 0x40 MLOAD SWAP1 DUP2 ADD PUSH1 0x40 MSTORE DUP1 SWAP3 SWAP2 SWAP1 DUP2 DUP2 MSTORE PUSH1 0x20 ADD DUP3 DUP1 SLOAD DUP1 ISZERO PUSH2 0x1600 JUMPI PUSH1 0x20 MUL DUP3 ADD SWAP2 SWAP1 PUSH1 0x0 MSTORE PUSH1 0x20 PUSH1 0x0 KECCAK256 SWAP1 JUMPDEST DUP2 SLOAD DUP2 MSTORE PUSH1 0x20 ADD SWAP1 PUSH1 0x1 ADD SWAP1 DUP1 DUP4 GT PUSH2 0x1EDC JUMPI POP POP POP POP POP SWAP1 POP SWAP2 SWAP1 POP JUMP JUMPDEST PUSH1 0x0 DUP2 DUP2 MSTORE PUSH1 0x5 PUSH1 0x20 MSTORE PUSH1 0x40 DUP2 KECCAK256 SWAP1 PUSH2 0x1F13 DUP3 PUSH2 0x19A4 JUMP JUMPDEST SWAP1 POP PUSH1 0x0 DUP1 JUMPDEST DUP3 DUP2 LT ISZERO PUSH2 0xFFD JUMPI PUSH2 0x1F2C DUP5 PUSH1 0x0 PUSH2 0x2270 JUMP JUMPDEST SWAP2 POP PUSH2 0x1F4B DUP3 DUP8 DUP8 PUSH1 0x0 PUSH1 0x40 MLOAD DUP1 PUSH1 0x20 ADD PUSH1 0x40 MSTORE DUP1 PUSH1 0x0 DUP2 MSTORE POP PUSH2 0x1CC2 JUMP JUMPDEST PUSH1 0x1 ADD PUSH2 0x1F19 JUMP JUMPDEST PUSH1 0x0 PUSH2 0x812 DUP4 DUP4 PUSH2 0x227C JUMP JUMPDEST PUSH1 0x0 PUSH2 0x812 DUP4 DUP4 PUSH2 0x20AA JUMP JUMPDEST PUSH2 0xE87 DUP3 PUSH32 0xB23EAE7E6D1564B295B4C3E3BE402D9A2F0776C57BDF365903496F6FA481AB00 DUP4 PUSH2 0x20F9 JUMP JUMPDEST PUSH2 0x1FA7 DUP4 PUSH4 0x1AED5A85 PUSH1 0xE2 SHL PUSH2 0x1DEB JUMP JUMPDEST ISZERO PUSH2 0x2041 JUMPI PUSH1 0x40 MLOAD PUSH4 0x1AED5A85 PUSH1 0xE2 SHL DUP2 MSTORE PUSH1 0x1 PUSH1 0x1 PUSH1 0xA0 SHL SUB DUP5 AND SWAP1 PUSH4 0x6BB56A14 SWAP1 PUSH2 0x1FFA SWAP1 PUSH32 0xB084A55EBF70FD3C06FD755269DAC2212C4D3F0F4D09079780BFA50C1B2984D SWAP1 DUP6 SWAP1 PUSH1 0x4 ADD PUSH2 0x318E JUMP JUMPDEST PUSH1 0x0 PUSH1 0x40 MLOAD DUP1 DUP4 SUB DUP2 PUSH1 0x0 DUP8 GAS CALL ISZERO DUP1 ISZERO PUSH2 0x2019 JUMPI RETURNDATASIZE PUSH1 0x0 DUP1 RETURNDATACOPY RETURNDATASIZE PUSH1 0x0 REVERT JUMPDEST POP POP POP POP PUSH1 0x40 MLOAD RETURNDATASIZE PUSH1 0x0 DUP3 RETURNDATACOPY PUSH1 0x1F RETURNDATASIZE SWAP1 DUP2 ADD PUSH1 0x1F NOT AND DUP3 ADD PUSH1 0x40 MSTORE PUSH2 0x11AE SWAP2 SWAP1 DUP2 ADD SWAP1 PUSH2 0x31A7 JUMP JUMPDEST DUP2 PUSH2 0x10C0 JUMPI PUSH1 0x1 PUSH1 0x1 PUSH1 0xA0 SHL SUB DUP4 AND EXTCODESIZE ISZERO PUSH2 0x207A JUMPI PUSH1 0x40 MLOAD PUSH4 0x4349776D PUSH1 0xE0 SHL DUP2 MSTORE PUSH1 0x1 PUSH1 0x1 PUSH1 0xA0 SHL SUB DUP5 AND PUSH1 0x4 DUP3 ADD MSTORE PUSH1 0x24 ADD PUSH2 0x214 JUMP JUMPDEST PUSH1 0x40 MLOAD PUSH4 0x3173137 PUSH1 0xE0 SHL DUP2 MSTORE PUSH1 0x1 PUSH1 0x1 PUSH1 0xA0 SHL SUB DUP5 AND PUSH1 0x4 DUP3 ADD MSTORE PUSH1 0x24 ADD PUSH2 0x214 JUMP JUMPDEST PUSH1 0x60 DUP2 PUSH2 0x812 DUP2 PUSH2 0x236F JUMP JUMPDEST PUSH1 0x0 DUP2 DUP2 MSTORE PUSH1 0x1 DUP4 ADD PUSH1 0x20 MSTORE PUSH1 0x40 DUP2 KECCAK256 SLOAD PUSH2 0x20F1 JUMPI POP DUP2 SLOAD PUSH1 0x1 DUP2 DUP2 ADD DUP5 SSTORE PUSH1 0x0 DUP5 DUP2 MSTORE PUSH1 0x20 DUP1 DUP3 KECCAK256 SWAP1 SWAP4 ADD DUP5 SWAP1 SSTORE DUP5 SLOAD DUP5 DUP3 MSTORE DUP3 DUP7 ADD SWAP1 SWAP4 MSTORE PUSH1 0x40 SWAP1 KECCAK256 SWAP2 SWAP1 SWAP2 SSTORE PUSH2 0x767 JUMP JUMPDEST POP PUSH1 0x0 PUSH2 0x767 JUMP JUMPDEST PUSH2 0x2113 PUSH1 0x1 PUSH1 0x1 PUSH1 0xA0 SHL SUB DUP5 AND PUSH4 0x1AED5A85 PUSH1 0xE2 SHL PUSH2 0x1DEB JUMP JUMPDEST ISZERO PUSH2 0x10C0 JUMPI PUSH1 0x40 MLOAD PUSH4 0x1AED5A85 PUSH1 0xE2 SHL DUP2 MSTORE PUSH1 0x1 PUSH1 0x1 PUSH1 0xA0 SHL SUB DUP5 AND SWAP1 PUSH4 0x6BB56A14 SWAP1 PUSH2 0x1FFA SWAP1 DUP6 SWAP1 DUP6 SWAP1 PUSH1 0x4 ADD PUSH2 0x318E JUMP JUMPDEST PUSH1 0x0 PUSH2 0x812 DUP4 PUSH1 0x1 PUSH1 0x1 PUSH1 0xA0 SHL SUB DUP5 AND PUSH2 0x227C JUMP JUMPDEST PUSH32 0x2145E1D6D074577DC71EF54C3807742B41B053A9352AE6B491331509ACB9750F DUP3 ADD PUSH2 0x219B JUMPI PUSH1 0x40 MLOAD PUSH4 0x85C169BD PUSH1 0xE0 SHL DUP2 MSTORE PUSH1 0x4 ADD PUSH1 0x40 MLOAD DUP1 SWAP2 SUB SWAP1 REVERT JUMPDEST PUSH32 0xD0F59754F88971FE6BC5A6618CC9D5F1E859C58D16B22D1C7B2D3E2B246CD8AA DUP3 ADD PUSH2 0x21DB JUMPI PUSH1 0x40 MLOAD PUSH4 0xECEAB67 PUSH1 0xE3 SHL DUP2 MSTORE PUSH1 0x4 ADD PUSH1 0x40 MLOAD DUP1 SWAP2 SUB SWAP1 REVERT JUMPDEST PUSH32 0x1FD9E056A24D14C4ABC642FCC325992A946906D0DBC57DD70278AAF12842024D DUP3 ADD PUSH2 0x221B JUMPI PUSH1 0x40 MLOAD PUSH4 0x4EF6D7FB PUSH1 0xE0 SHL DUP2 MSTORE PUSH1 0x4 ADD PUSH1 0x40 MLOAD DUP1 SWAP2 SUB SWAP1 REVERT JUMPDEST PUSH1 0x0 DUP3 DUP2 MSTORE PUSH1 0x1 PUSH1 0x20 MSTORE PUSH1 0x40 SWAP1 KECCAK256 PUSH2 0x2233 DUP3 DUP3 PUSH2 0x30B4 JUMP JUMPDEST POP DUP2 PUSH32 0xECE574603820D07BC9B91F2A932BAADF4628AABCB8AFBA49776529C14A6104B2 DUP3 PUSH1 0x40 MLOAD PUSH2 0x2264 SWAP2 SWAP1 PUSH2 0x2543 JUMP JUMPDEST PUSH1 0x40 MLOAD DUP1 SWAP2 SUB SWAP1 LOG2 POP POP JUMP JUMPDEST PUSH1 0x0 PUSH2 0x812 DUP4 DUP4 PUSH2 0x2470 JUMP JUMPDEST PUSH1 0x0 DUP2 DUP2 MSTORE PUSH1 0x1 DUP4 ADD PUSH1 0x20 MSTORE PUSH1 0x40 DUP2 KECCAK256 SLOAD DUP1 ISZERO PUSH2 0x2365 JUMPI PUSH1 0x0 PUSH2 0x22A0 PUSH1 0x1 DUP4 PUSH2 0x3214 JUMP JUMPDEST DUP6 SLOAD SWAP1 SWAP2 POP PUSH1 0x0 SWAP1 PUSH2 0x22B4 SWAP1 PUSH1 0x1 SWAP1 PUSH2 0x3214 JUMP JUMPDEST SWAP1 POP DUP2 DUP2 EQ PUSH2 0x2319 JUMPI PUSH1 0x0 DUP7 PUSH1 0x0 ADD DUP3 DUP2 SLOAD DUP2 LT PUSH2 0x22D4 JUMPI PUSH2 0x22D4 PUSH2 0x2E42 JUMP JUMPDEST SWAP1 PUSH1 0x0 MSTORE PUSH1 0x20 PUSH1 0x0 KECCAK256 ADD SLOAD SWAP1 POP DUP1 DUP8 PUSH1 0x0 ADD DUP5 DUP2 SLOAD DUP2 LT PUSH2 0x22F7 JUMPI PUSH2 0x22F7 PUSH2 0x2E42 JUMP JUMPDEST PUSH1 0x0 SWAP2 DUP3 MSTORE PUSH1 0x20 DUP1 DUP4 KECCAK256 SWAP1 SWAP2 ADD SWAP3 SWAP1 SWAP3 SSTORE SWAP2 DUP3 MSTORE PUSH1 0x1 DUP9 ADD SWAP1 MSTORE PUSH1 0x40 SWAP1 KECCAK256 DUP4 SWAP1 SSTORE JUMPDEST DUP6 SLOAD DUP7 SWAP1 DUP1 PUSH2 0x232A JUMPI PUSH2 0x232A PUSH2 0x3227 JUMP JUMPDEST PUSH1 0x1 SWAP1 SUB DUP2 DUP2 SWAP1 PUSH1 0x0 MSTORE PUSH1 0x20 PUSH1 0x0 KECCAK256 ADD PUSH1 0x0 SWAP1 SSTORE SWAP1 SSTORE DUP6 PUSH1 0x1 ADD PUSH1 0x0 DUP7 DUP2 MSTORE PUSH1 0x20 ADD SWAP1 DUP2 MSTORE PUSH1 0x20 ADD PUSH1 0x0 KECCAK256 PUSH1 0x0 SWAP1 SSTORE PUSH1 0x1 SWAP4 POP POP POP POP PUSH2 0x767 JUMP JUMPDEST PUSH1 0x0 SWAP2 POP POP PUSH2 0x767 JUMP JUMPDEST PUSH1 0x60 DUP2 PUSH1 0x0 SUB PUSH2 0x2396 JUMPI POP POP PUSH1 0x40 DUP1 MLOAD DUP1 DUP3 ADD SWAP1 SWAP2 MSTORE PUSH1 0x1 DUP2 MSTORE PUSH1 0x3 PUSH1 0xFC SHL PUSH1 0x20 DUP3 ADD MSTORE SWAP1 JUMP JUMPDEST DUP2 PUSH1 0x0 JUMPDEST DUP2 ISZERO PUSH2 0x23C0 JUMPI DUP1 PUSH2 0x23AA DUP2 PUSH2 0x2F02 JUMP JUMPDEST SWAP2 POP PUSH2 0x23B9 SWAP1 POP PUSH1 0xA DUP4 PUSH2 0x3253 JUMP JUMPDEST SWAP2 POP PUSH2 0x239A JUMP JUMPDEST PUSH1 0x0 DUP2 PUSH1 0x1 PUSH1 0x1 PUSH1 0x40 SHL SUB DUP2 GT ISZERO PUSH2 0x23DA JUMPI PUSH2 0x23DA PUSH2 0x2556 JUMP JUMPDEST PUSH1 0x40 MLOAD SWAP1 DUP1 DUP3 MSTORE DUP1 PUSH1 0x1F ADD PUSH1 0x1F NOT AND PUSH1 0x20 ADD DUP3 ADD PUSH1 0x40 MSTORE DUP1 ISZERO PUSH2 0x2404 JUMPI PUSH1 0x20 DUP3 ADD DUP2 DUP1 CALLDATASIZE DUP4 CALLDATACOPY ADD SWAP1 POP JUMPDEST POP SWAP1 POP JUMPDEST DUP5 ISZERO PUSH2 0x1DAE JUMPI DUP2 PUSH2 0x2418 DUP2 PUSH2 0x3267 JUMP JUMPDEST SWAP3 POP PUSH2 0x2427 SWAP1 POP PUSH1 0xA DUP7 PUSH2 0x327E JUMP JUMPDEST PUSH2 0x2432 SWAP1 PUSH1 0x30 PUSH2 0x2E6E JUMP JUMPDEST PUSH1 0xF8 SHL DUP2 DUP4 DUP2 MLOAD DUP2 LT PUSH2 0x2447 JUMPI PUSH2 0x2447 PUSH2 0x2E42 JUMP JUMPDEST PUSH1 0x20 ADD ADD SWAP1 PUSH1 0x1 PUSH1 0x1 PUSH1 0xF8 SHL SUB NOT AND SWAP1 DUP2 PUSH1 0x0 BYTE SWAP1 MSTORE8 POP PUSH2 0x2469 PUSH1 0xA DUP7 PUSH2 0x3253 JUMP JUMPDEST SWAP5 POP PUSH2 0x2408 JUMP JUMPDEST PUSH1 0x0 DUP3 PUSH1 0x0 ADD DUP3 DUP2 SLOAD DUP2 LT PUSH2 0x2487 JUMPI PUSH2 0x2487 PUSH2 0x2E42 JUMP JUMPDEST SWAP1 PUSH1 0x0 MSTORE PUSH1 0x20 PUSH1 0x0 KECCAK256 ADD SLOAD SWAP1 POP SWAP3 SWAP2 POP POP JUMP JUMPDEST PUSH1 0x20 DUP2 MSTORE DUP2 PUSH1 0x20 DUP3 ADD MSTORE DUP2 DUP4 PUSH1 0x40 DUP4 ADD CALLDATACOPY PUSH1 0x0 DUP2 DUP4 ADD PUSH1 0x40 SWAP1 DUP2 ADD SWAP2 SWAP1 SWAP2 MSTORE PUSH1 0x1F SWAP1 SWAP3 ADD PUSH1 0x1F NOT AND ADD ADD SWAP2 SWAP1 POP JUMP JUMPDEST PUSH1 0x0 PUSH1 0x20 DUP3 DUP5 SUB SLT ISZERO PUSH2 0x24DB JUMPI PUSH1 0x0 DUP1 REVERT JUMPDEST DUP2 CALLDATALOAD PUSH1 0x1 PUSH1 0x1 PUSH1 0xE0 SHL SUB NOT DUP2 AND DUP2 EQ PUSH2 0x812 JUMPI PUSH1 0x0 DUP1 REVERT JUMPDEST PUSH1 0x0 JUMPDEST DUP4 DUP2 LT ISZERO PUSH2 0x250E JUMPI DUP2 DUP2 ADD MLOAD DUP4 DUP3 ADD MSTORE PUSH1 0x20 ADD PUSH2 0x24F6 JUMP JUMPDEST POP POP PUSH1 0x0 SWAP2 ADD MSTORE JUMP JUMPDEST PUSH1 0x0 DUP2 MLOAD DUP1 DUP5 MSTORE PUSH2 0x252F DUP2 PUSH1 0x20 DUP7 ADD PUSH1 0x20 DUP7 ADD PUSH2 0x24F3 JUMP JUMPDEST PUSH1 0x1F ADD PUSH1 0x1F NOT AND SWAP3 SWAP1 SWAP3 ADD PUSH1 0x20 ADD SWAP3 SWAP2 POP POP JUMP JUMPDEST PUSH1 0x20 DUP2 MSTORE PUSH1 0x0 PUSH2 0x812 PUSH1 0x20 DUP4 ADD DUP5 PUSH2 0x2517 JUMP JUMPDEST PUSH4 0x4E487B71 PUSH1 0xE0 SHL PUSH1 0x0 MSTORE PUSH1 0x41 PUSH1 0x4 MSTORE PUSH1 0x24 PUSH1 0x0 REVERT JUMPDEST PUSH1 0x40 MLOAD PUSH1 0x1F DUP3 ADD PUSH1 0x1F NOT AND DUP2 ADD PUSH1 0x1 PUSH1 0x1 PUSH1 0x40 SHL SUB DUP2 GT DUP3 DUP3 LT OR ISZERO PUSH2 0x2594 JUMPI PUSH2 0x2594 PUSH2 0x2556 JUMP JUMPDEST PUSH1 0x40 MSTORE SWAP2 SWAP1 POP JUMP JUMPDEST PUSH1 0x0 PUSH1 0x1 PUSH1 0x1 PUSH1 0x40 SHL SUB DUP3 GT ISZERO PUSH2 0x25B5 JUMPI PUSH2 0x25B5 PUSH2 0x2556 JUMP JUMPDEST POP PUSH1 0x1F ADD PUSH1 0x1F NOT AND PUSH1 0x20 ADD SWAP1 JUMP JUMPDEST PUSH1 0x0 DUP3 PUSH1 0x1F DUP4 ADD SLT PUSH2 0x25D4 JUMPI PUSH1 0x0 DUP1 REVERT JUMPDEST DUP2 CALLDATALOAD PUSH2 0x25E7 PUSH2 0x25E2 DUP3 PUSH2 0x259C JUMP JUMPDEST PUSH2 0x256C JUMP JUMPDEST DUP2 DUP2 MSTORE DUP5 PUSH1 0x20 DUP4 DUP7 ADD ADD GT ISZERO PUSH2 0x25FC JUMPI PUSH1 0x0 DUP1 REVERT JUMPDEST DUP2 PUSH1 0x20 DUP6 ADD PUSH1 0x20 DUP4 ADD CALLDATACOPY PUSH1 0x0 SWAP2 DUP2 ADD PUSH1 0x20 ADD SWAP2 SWAP1 SWAP2 MSTORE SWAP4 SWAP3 POP POP POP JUMP JUMPDEST PUSH1 0x0 PUSH1 0x20 DUP3 DUP5 SUB SLT ISZERO PUSH2 0x262B JUMPI PUSH1 0x0 DUP1 REVERT JUMPDEST DUP2 CALLDATALOAD PUSH1 0x1 PUSH1 0x1 PUSH1 0x40 SHL SUB DUP2 GT ISZERO PUSH2 0x2641 JUMPI PUSH1 0x0 DUP1 REVERT JUMPDEST PUSH2 0x1DAE DUP5 DUP3 DUP6 ADD PUSH2 0x25C3 JUMP JUMPDEST PUSH1 0x0 DUP1 PUSH1 0x40 DUP4 DUP6 SUB SLT ISZERO PUSH2 0x2660 JUMPI PUSH1 0x0 DUP1 REVERT JUMPDEST POP POP DUP1 CALLDATALOAD SWAP3 PUSH1 0x20 SWAP1 SWAP2 ADD CALLDATALOAD SWAP2 POP JUMP JUMPDEST PUSH1 0x0 PUSH1 0x1 PUSH1 0x1 PUSH1 0x40 SHL SUB DUP3 GT ISZERO PUSH2 0x2688 JUMPI PUSH2 0x2688 PUSH2 0x2556 JUMP JUMPDEST POP PUSH1 0x5 SHL PUSH1 0x20 ADD SWAP1 JUMP JUMPDEST PUSH1 0x0 DUP3 PUSH1 0x1F DUP4 ADD SLT PUSH2 0x26A3 JUMPI PUSH1 0x0 DUP1 REVERT JUMPDEST DUP2 CALLDATALOAD PUSH1 0x20 PUSH2 0x26B3 PUSH2 0x25E2 DUP4 PUSH2 0x266F JUMP JUMPDEST DUP3 DUP2 MSTORE PUSH1 0x5 SWAP3 SWAP1 SWAP3 SHL DUP5 ADD DUP2 ADD SWAP2 DUP2 DUP2 ADD SWAP1 DUP7 DUP5 GT ISZERO PUSH2 0x26D2 JUMPI PUSH1 0x0 DUP1 REVERT JUMPDEST DUP3 DUP7 ADD JUMPDEST DUP5 DUP2 LT ISZERO PUSH2 0x26ED JUMPI DUP1 CALLDATALOAD DUP4 MSTORE SWAP2 DUP4 ADD SWAP2 DUP4 ADD PUSH2 0x26D6 JUMP JUMPDEST POP SWAP7 SWAP6 POP POP POP POP POP POP JUMP JUMPDEST PUSH1 0x0 DUP1 PUSH1 0x40 DUP4 DUP6 SUB SLT ISZERO PUSH2 0x270B JUMPI PUSH1 0x0 DUP1 REVERT JUMPDEST DUP3 CALLDATALOAD PUSH1 0x1 PUSH1 0x1 PUSH1 0x40 SHL SUB DUP1 DUP3 GT ISZERO PUSH2 0x2722 JUMPI PUSH1 0x0 DUP1 REVERT JUMPDEST PUSH2 0x272E DUP7 DUP4 DUP8 ADD PUSH2 0x2692 JUMP JUMPDEST SWAP4 POP PUSH1 0x20 DUP6 ADD CALLDATALOAD SWAP2 POP DUP1 DUP3 GT ISZERO PUSH2 0x2744 JUMPI PUSH1 0x0 DUP1 REVERT JUMPDEST POP PUSH2 0x2751 DUP6 DUP3 DUP7 ADD PUSH2 0x2692 JUMP JUMPDEST SWAP2 POP POP SWAP3 POP SWAP3 SWAP1 POP JUMP JUMPDEST PUSH1 0x0 PUSH1 0x20 DUP1 DUP4 ADD DUP2 DUP5 MSTORE DUP1 DUP6 MLOAD DUP1 DUP4 MSTORE PUSH1 0x40 DUP7 ADD SWAP2 POP PUSH1 0x40 DUP2 PUSH1 0x5 SHL DUP8 ADD ADD SWAP3 POP DUP4 DUP8 ADD PUSH1 0x0 JUMPDEST DUP3 DUP2 LT ISZERO PUSH2 0x27B0 JUMPI PUSH1 0x3F NOT DUP9 DUP7 SUB ADD DUP5 MSTORE PUSH2 0x279E DUP6 DUP4 MLOAD PUSH2 0x2517 JUMP JUMPDEST SWAP5 POP SWAP3 DUP6 ADD SWAP3 SWAP1 DUP6 ADD SWAP1 PUSH1 0x1 ADD PUSH2 0x2782 JUMP JUMPDEST POP SWAP3 SWAP8 SWAP7 POP POP POP POP POP POP POP JUMP JUMPDEST PUSH1 0x0 PUSH1 0x20 DUP3 DUP5 SUB SLT ISZERO PUSH2 0x27CF JUMPI PUSH1 0x0 DUP1 REVERT JUMPDEST POP CALLDATALOAD SWAP2 SWAP1 POP JUMP JUMPDEST DUP1 CALLDATALOAD PUSH1 0x1 PUSH1 0x1 PUSH1 0xA0 SHL SUB DUP2 AND DUP2 EQ PUSH2 0x27ED JUMPI PUSH1 0x0 DUP1 REVERT JUMPDEST SWAP2 SWAP1 POP JUMP JUMPDEST PUSH1 0x0 DUP1 PUSH1 0x40 DUP4 DUP6 SUB SLT ISZERO PUSH2 0x2805 JUMPI PUSH1 0x0 DUP1 REVERT JUMPDEST PUSH2 0x280E DUP4 PUSH2 0x27D6 JUMP JUMPDEST SWAP5 PUSH1 0x20 SWAP4 SWAP1 SWAP4 ADD CALLDATALOAD SWAP4 POP POP POP JUMP JUMPDEST PUSH1 0x0 PUSH1 0x20 DUP3 DUP5 SUB SLT ISZERO PUSH2 0x282E JUMPI PUSH1 0x0 DUP1 REVERT JUMPDEST PUSH2 0x812 DUP3 PUSH2 0x27D6 JUMP JUMPDEST PUSH1 0x20 DUP1 DUP3 MSTORE DUP3 MLOAD DUP3 DUP3 ADD DUP2 SWAP1 MSTORE PUSH1 0x0 SWAP2 SWAP1 DUP5 DUP3 ADD SWAP1 PUSH1 0x40 DUP6 ADD SWAP1 DUP5 JUMPDEST DUP2 DUP2 LT ISZERO PUSH2 0x2878 JUMPI DUP4 MLOAD PUSH1 0x1 PUSH1 0x1 PUSH1 0xA0 SHL SUB AND DUP4 MSTORE SWAP3 DUP5 ADD SWAP3 SWAP2 DUP5 ADD SWAP2 PUSH1 0x1 ADD PUSH2 0x2853 JUMP JUMPDEST POP SWAP1 SWAP7 SWAP6 POP POP POP POP POP POP JUMP JUMPDEST DUP1 CALLDATALOAD DUP1 ISZERO ISZERO DUP2 EQ PUSH2 0x27ED JUMPI PUSH1 0x0 DUP1 REVERT JUMPDEST PUSH1 0x0 DUP1 PUSH1 0x0 DUP1 PUSH1 0x0 PUSH1 0xA0 DUP7 DUP9 SUB SLT ISZERO PUSH2 0x28AC JUMPI PUSH1 0x0 DUP1 REVERT JUMPDEST PUSH2 0x28B5 DUP7 PUSH2 0x27D6 JUMP JUMPDEST SWAP5 POP PUSH2 0x28C3 PUSH1 0x20 DUP8 ADD PUSH2 0x27D6 JUMP JUMPDEST SWAP4 POP PUSH1 0x40 DUP7 ADD CALLDATALOAD SWAP3 POP PUSH2 0x28D8 PUSH1 0x60 DUP8 ADD PUSH2 0x2884 JUMP JUMPDEST SWAP2 POP PUSH1 0x80 DUP7 ADD CALLDATALOAD PUSH1 0x1 PUSH1 0x1 PUSH1 0x40 SHL SUB DUP2 GT ISZERO PUSH2 0x28F3 JUMPI PUSH1 0x0 DUP1 REVERT JUMPDEST PUSH2 0x28FF DUP9 DUP3 DUP10 ADD PUSH2 0x25C3 JUMP JUMPDEST SWAP2 POP POP SWAP3 SWAP6 POP SWAP3 SWAP6 SWAP1 SWAP4 POP JUMP JUMPDEST PUSH1 0x0 DUP1 PUSH1 0x20 DUP4 DUP6 SUB SLT ISZERO PUSH2 0x291F JUMPI PUSH1 0x0 DUP1 REVERT JUMPDEST DUP3 CALLDATALOAD PUSH1 0x1 PUSH1 0x1 PUSH1 0x40 SHL SUB DUP1 DUP3 GT ISZERO PUSH2 0x2936 JUMPI PUSH1 0x0 DUP1 REVERT JUMPDEST DUP2 DUP6 ADD SWAP2 POP DUP6 PUSH1 0x1F DUP4 ADD SLT PUSH2 0x294A JUMPI PUSH1 0x0 DUP1 REVERT JUMPDEST DUP2 CALLDATALOAD DUP2 DUP2 GT ISZERO PUSH2 0x2959 JUMPI PUSH1 0x0 DUP1 REVERT JUMPDEST DUP7 PUSH1 0x20 DUP3 PUSH1 0x5 SHL DUP6 ADD ADD GT ISZERO PUSH2 0x296E JUMPI PUSH1 0x0 DUP1 REVERT JUMPDEST PUSH1 0x20 SWAP3 SWAP1 SWAP3 ADD SWAP7 SWAP2 SWAP6 POP SWAP1 SWAP4 POP POP POP POP JUMP JUMPDEST PUSH1 0x0 DUP3 PUSH1 0x1F DUP4 ADD SLT PUSH2 0x2991 JUMPI PUSH1 0x0 DUP1 REVERT JUMPDEST DUP2 CALLDATALOAD PUSH1 0x20 PUSH2 0x29A1 PUSH2 0x25E2 DUP4 PUSH2 0x266F JUMP JUMPDEST DUP3 DUP2 MSTORE PUSH1 0x5 SWAP3 SWAP1 SWAP3 SHL DUP5 ADD DUP2 ADD SWAP2 DUP2 DUP2 ADD SWAP1 DUP7 DUP5 GT ISZERO PUSH2 0x29C0 JUMPI PUSH1 0x0 DUP1 REVERT JUMPDEST DUP3 DUP7 ADD JUMPDEST DUP5 DUP2 LT ISZERO PUSH2 0x26ED JUMPI PUSH2 0x29D5 DUP2 PUSH2 0x27D6 JUMP JUMPDEST DUP4 MSTORE SWAP2 DUP4 ADD SWAP2 DUP4 ADD PUSH2 0x29C4 JUMP JUMPDEST PUSH1 0x0 DUP3 PUSH1 0x1F DUP4 ADD SLT PUSH2 0x29F3 JUMPI PUSH1 0x0 DUP1 REVERT JUMPDEST DUP2 CALLDATALOAD PUSH1 0x20 PUSH2 0x2A03 PUSH2 0x25E2 DUP4 PUSH2 0x266F JUMP JUMPDEST DUP3 DUP2 MSTORE PUSH1 0x5 SWAP3 SWAP1 SWAP3 SHL DUP5 ADD DUP2 ADD SWAP2 DUP2 DUP2 ADD SWAP1 DUP7 DUP5 GT ISZERO PUSH2 0x2A22 JUMPI PUSH1 0x0 DUP1 REVERT JUMPDEST DUP3 DUP7 ADD JUMPDEST DUP5 DUP2 LT ISZERO PUSH2 0x26ED JUMPI PUSH2 0x2A37 DUP2 PUSH2 0x2884 JUMP JUMPDEST DUP4 MSTORE SWAP2 DUP4 ADD SWAP2 DUP4 ADD PUSH2 0x2A26 JUMP JUMPDEST PUSH1 0x0 DUP3 PUSH1 0x1F DUP4 ADD SLT PUSH2 0x2A55 JUMPI PUSH1 0x0 DUP1 REVERT JUMPDEST DUP2 CALLDATALOAD PUSH1 0x20 PUSH2 0x2A65 PUSH2 0x25E2 DUP4 PUSH2 0x266F JUMP JUMPDEST DUP3 DUP2 MSTORE PUSH1 0x5 SWAP3 SWAP1 SWAP3 SHL DUP5 ADD DUP2 ADD SWAP2 DUP2 DUP2 ADD SWAP1 DUP7 DUP5 GT ISZERO PUSH2 0x2A84 JUMPI PUSH1 0x0 DUP1 REVERT JUMPDEST DUP3 DUP7 ADD JUMPDEST DUP5 DUP2 LT ISZERO PUSH2 0x26ED JUMPI DUP1 CALLDATALOAD PUSH1 0x1 PUSH1 0x1 PUSH1 0x40 SHL SUB DUP2 GT ISZERO PUSH2 0x2AA7 JUMPI PUSH1 0x0 DUP1 DUP2 REVERT JUMPDEST PUSH2 0x2AB5 DUP10 DUP7 DUP4 DUP12 ADD ADD PUSH2 0x25C3 JUMP JUMPDEST DUP5 MSTORE POP SWAP2 DUP4 ADD SWAP2 DUP4 ADD PUSH2 0x2A88 JUMP JUMPDEST PUSH1 0x0 DUP1 PUSH1 0x0 DUP1 PUSH1 0x0 PUSH1 0xA0 DUP7 DUP9 SUB SLT ISZERO PUSH2 0x2ADB JUMPI PUSH1 0x0 DUP1 REVERT JUMPDEST DUP6 CALLDATALOAD PUSH1 0x1 PUSH1 0x1 PUSH1 0x40 SHL SUB DUP1 DUP3 GT ISZERO PUSH2 0x2AF2 JUMPI PUSH1 0x0 DUP1 REVERT JUMPDEST PUSH2 0x2AFE DUP10 DUP4 DUP11 ADD PUSH2 0x2980 JUMP JUMPDEST SWAP7 POP PUSH1 0x20 DUP9 ADD CALLDATALOAD SWAP2 POP DUP1 DUP3 GT ISZERO PUSH2 0x2B14 JUMPI PUSH1 0x0 DUP1 REVERT JUMPDEST PUSH2 0x2B20 DUP10 DUP4 DUP11 ADD PUSH2 0x2980 JUMP JUMPDEST SWAP6 POP PUSH1 0x40 DUP9 ADD CALLDATALOAD SWAP2 POP DUP1 DUP3 GT ISZERO PUSH2 0x2B36 JUMPI PUSH1 0x0 DUP1 REVERT JUMPDEST PUSH2 0x2B42 DUP10 DUP4 DUP11 ADD PUSH2 0x2692 JUMP JUMPDEST SWAP5 POP PUSH1 0x60 DUP9 ADD CALLDATALOAD SWAP2 POP DUP1 DUP3 GT ISZERO PUSH2 0x2B58 JUMPI PUSH1 0x0 DUP1 REVERT JUMPDEST PUSH2 0x2B64 DUP10 DUP4 DUP11 ADD PUSH2 0x29E2 JUMP JUMPDEST SWAP4 POP PUSH1 0x80 DUP9 ADD CALLDATALOAD SWAP2 POP DUP1 DUP3 GT ISZERO PUSH2 0x2B7A JUMPI PUSH1 0x0 DUP1 REVERT JUMPDEST POP PUSH2 0x28FF DUP9 DUP3 DUP10 ADD PUSH2 0x2A44 JUMP JUMPDEST PUSH1 0x0 DUP1 PUSH1 0x40 DUP4 DUP6 SUB SLT ISZERO PUSH2 0x2B9A JUMPI PUSH1 0x0 DUP1 REVERT JUMPDEST DUP3 CALLDATALOAD SWAP2 POP PUSH1 0x20 DUP4 ADD CALLDATALOAD PUSH1 0x1 PUSH1 0x1 PUSH1 0x40 SHL SUB DUP2 GT ISZERO PUSH2 0x2BB7 JUMPI PUSH1 0x0 DUP1 REVERT JUMPDEST PUSH2 0x2751 DUP6 DUP3 DUP7 ADD PUSH2 0x25C3 JUMP JUMPDEST PUSH1 0x0 DUP1 PUSH1 0x0 PUSH1 0x60 DUP5 DUP7 SUB SLT ISZERO PUSH2 0x2BD8 JUMPI PUSH1 0x0 DUP1 REVERT JUMPDEST PUSH2 0x2BE1 DUP5 PUSH2 0x27D6 JUMP JUMPDEST SWAP3 POP PUSH1 0x20 DUP5 ADD CALLDATALOAD SWAP2 POP PUSH1 0x40 DUP5 ADD CALLDATALOAD PUSH1 0x1 PUSH1 0x1 PUSH1 0x40 SHL SUB DUP2 GT ISZERO PUSH2 0x2C03 JUMPI PUSH1 0x0 DUP1 REVERT JUMPDEST PUSH2 0x2C0F DUP7 DUP3 DUP8 ADD PUSH2 0x25C3 JUMP JUMPDEST SWAP2 POP POP SWAP3 POP SWAP3 POP SWAP3 JUMP JUMPDEST PUSH1 0x0 DUP1 PUSH1 0x40 DUP4 DUP6 SUB SLT ISZERO PUSH2 0x2C2C JUMPI PUSH1 0x0 DUP1 REVERT JUMPDEST DUP3 CALLDATALOAD PUSH1 0x1 PUSH1 0x1 PUSH1 0x40 SHL SUB DUP1 DUP3 GT ISZERO PUSH2 0x2C43 JUMPI PUSH1 0x0 DUP1 REVERT JUMPDEST PUSH2 0x2C4F DUP7 DUP4 DUP8 ADD PUSH2 0x2692 JUMP JUMPDEST SWAP4 POP PUSH1 0x20 DUP6 ADD CALLDATALOAD SWAP2 POP DUP1 DUP3 GT ISZERO PUSH2 0x2C65 JUMPI PUSH1 0x0 DUP1 REVERT JUMPDEST POP PUSH2 0x2751 DUP6 DUP3 DUP7 ADD PUSH2 0x2A44 JUMP JUMPDEST PUSH1 0x20 DUP1 DUP3 MSTORE DUP3 MLOAD DUP3 DUP3 ADD DUP2 SWAP1 MSTORE PUSH1 0x0 SWAP2 SWAP1 DUP5 DUP3 ADD SWAP1 PUSH1 0x40 DUP6 ADD SWAP1 DUP5 JUMPDEST DUP2 DUP2 LT ISZERO PUSH2 0x2878 JUMPI DUP4 MLOAD DUP4 MSTORE SWAP3 DUP5 ADD SWAP3 SWAP2 DUP5 ADD SWAP2 PUSH1 0x1 ADD PUSH2 0x2C8E JUMP JUMPDEST PUSH1 0x0 DUP1 PUSH1 0x0 PUSH1 0x60 DUP5 DUP7 SUB SLT ISZERO PUSH2 0x2CBF JUMPI PUSH1 0x0 DUP1 REVERT JUMPDEST DUP4 CALLDATALOAD PUSH1 0x1 PUSH1 0x1 PUSH1 0x40 SHL SUB DUP1 DUP3 GT ISZERO PUSH2 0x2CD6 JUMPI PUSH1 0x0 DUP1 REVERT JUMPDEST PUSH2 0x2CE2 DUP8 DUP4 DUP9 ADD PUSH2 0x2692 JUMP JUMPDEST SWAP5 POP PUSH1 0x20 DUP7 ADD CALLDATALOAD SWAP2 POP DUP1 DUP3 GT ISZERO PUSH2 0x2CF8 JUMPI PUSH1 0x0 DUP1 REVERT JUMPDEST PUSH2 0x2D04 DUP8 DUP4 DUP9 ADD PUSH2 0x2692 JUMP JUMPDEST SWAP4 POP PUSH1 0x40 DUP7 ADD CALLDATALOAD SWAP2 POP DUP1 DUP3 GT ISZERO PUSH2 0x2D1A JUMPI PUSH1 0x0 DUP1 REVERT JUMPDEST POP PUSH2 0x2C0F DUP7 DUP3 DUP8 ADD PUSH2 0x2A44 JUMP JUMPDEST PUSH1 0x0 DUP1 PUSH1 0x0 PUSH1 0x60 DUP5 DUP7 SUB SLT ISZERO PUSH2 0x2D3C JUMPI PUSH1 0x0 DUP1 REVERT JUMPDEST DUP4 CALLDATALOAD SWAP3 POP PUSH1 0x20 DUP5 ADD CALLDATALOAD SWAP2 POP PUSH1 0x40 DUP5 ADD CALLDATALOAD PUSH1 0x1 PUSH1 0x1 PUSH1 0x40 SHL SUB DUP2 GT ISZERO PUSH2 0x2C03 JUMPI PUSH1 0x0 DUP1 REVERT JUMPDEST PUSH1 0x0 DUP1 PUSH1 0x0 DUP1 PUSH1 0x80 DUP6 DUP8 SUB SLT ISZERO PUSH2 0x2D76 JUMPI PUSH1 0x0 DUP1 REVERT JUMPDEST PUSH2 0x2D7F DUP6 PUSH2 0x27D6 JUMP JUMPDEST SWAP4 POP PUSH1 0x20 DUP6 ADD CALLDATALOAD SWAP3 POP PUSH2 0x2D94 PUSH1 0x40 DUP7 ADD PUSH2 0x2884 JUMP JUMPDEST SWAP2 POP PUSH1 0x60 DUP6 ADD CALLDATALOAD PUSH1 0x1 PUSH1 0x1 PUSH1 0x40 SHL SUB DUP2 GT ISZERO PUSH2 0x2DAF JUMPI PUSH1 0x0 DUP1 REVERT JUMPDEST PUSH2 0x2DBB DUP8 DUP3 DUP9 ADD PUSH2 0x25C3 JUMP JUMPDEST SWAP2 POP POP SWAP3 SWAP6 SWAP2 SWAP5 POP SWAP3 POP JUMP JUMPDEST PUSH1 0x0 PUSH1 0x20 DUP3 DUP5 SUB SLT ISZERO PUSH2 0x2DD9 JUMPI PUSH1 0x0 DUP1 REVERT JUMPDEST DUP2 CALLDATALOAD PUSH1 0x1 PUSH1 0x1 PUSH1 0x40 SHL SUB DUP2 GT ISZERO PUSH2 0x2DEF JUMPI PUSH1 0x0 DUP1 REVERT JUMPDEST PUSH2 0x1DAE DUP5 DUP3 DUP6 ADD PUSH2 0x2692 JUMP JUMPDEST DUP4 DUP6 DUP3 CALLDATACOPY PUSH1 0x60 SWAP3 SWAP1 SWAP3 SHL PUSH1 0x1 PUSH1 0x1 PUSH1 0x60 SHL SUB NOT AND SWAP2 SWAP1 SWAP3 ADD SWAP1 DUP2 MSTORE PUSH1 0x14 DUP2 ADD SWAP2 SWAP1 SWAP2 MSTORE PUSH1 0x34 ADD SWAP2 SWAP1 POP JUMP JUMPDEST PUSH1 0x0 DUP3 MLOAD PUSH2 0x2E38 DUP2 DUP5 PUSH1 0x20 DUP8 ADD PUSH2 0x24F3 JUMP JUMPDEST SWAP2 SWAP1 SWAP2 ADD SWAP3 SWAP2 POP POP JUMP JUMPDEST PUSH4 0x4E487B71 PUSH1 0xE0 SHL PUSH1 0x0 MSTORE PUSH1 0x32 PUSH1 0x4 MSTORE PUSH1 0x24 PUSH1 0x0 REVERT JUMPDEST PUSH4 0x4E487B71 PUSH1 0xE0 SHL PUSH1 0x0 MSTORE PUSH1 0x11 PUSH1 0x4 MSTORE PUSH1 0x24 PUSH1 0x0 REVERT JUMPDEST DUP1 DUP3 ADD DUP1 DUP3 GT ISZERO PUSH2 0x767 JUMPI PUSH2 0x767 PUSH2 0x2E58 JUMP JUMPDEST DUP1 MLOAD PUSH1 0x20 DUP1 DUP4 ADD MLOAD SWAP2 SWAP1 DUP2 LT ISZERO PUSH2 0x1381 JUMPI PUSH1 0x0 NOT PUSH1 0x20 SWAP2 SWAP1 SWAP2 SUB PUSH1 0x3 SHL SHL AND SWAP2 SWAP1 POP JUMP JUMPDEST PUSH1 0x0 DUP1 DUP4 CALLDATALOAD PUSH1 0x1E NOT DUP5 CALLDATASIZE SUB ADD DUP2 SLT PUSH2 0x2EBC JUMPI PUSH1 0x0 DUP1 REVERT JUMPDEST DUP4 ADD DUP1 CALLDATALOAD SWAP2 POP PUSH1 0x1 PUSH1 0x1 PUSH1 0x40 SHL SUB DUP3 GT ISZERO PUSH2 0x2ED6 JUMPI PUSH1 0x0 DUP1 REVERT JUMPDEST PUSH1 0x20 ADD SWAP2 POP CALLDATASIZE DUP2 SWAP1 SUB DUP3 SGT ISZERO PUSH2 0x2EEB JUMPI PUSH1 0x0 DUP1 REVERT JUMPDEST SWAP3 POP SWAP3 SWAP1 POP JUMP JUMPDEST DUP2 DUP4 DUP3 CALLDATACOPY PUSH1 0x0 SWAP2 ADD SWAP1 DUP2 MSTORE SWAP2 SWAP1 POP JUMP JUMPDEST PUSH1 0x0 PUSH1 0x1 DUP3 ADD PUSH2 0x2F14 JUMPI PUSH2 0x2F14 PUSH2 0x2E58 JUMP JUMPDEST POP PUSH1 0x1 ADD SWAP1 JUMP JUMPDEST PUSH1 0x1 DUP1 PUSH1 0xA0 SHL SUB DUP6 AND DUP2 MSTORE DUP4 PUSH1 0x20 DUP3 ADD MSTORE DUP3 ISZERO ISZERO PUSH1 0x40 DUP3 ADD MSTORE PUSH1 0x80 PUSH1 0x60 DUP3 ADD MSTORE PUSH1 0x0 PUSH2 0x2F4A PUSH1 0x80 DUP4 ADD DUP5 PUSH2 0x2517 JUMP JUMPDEST SWAP7 SWAP6 POP POP POP POP POP POP JUMP JUMPDEST DUP1 MLOAD PUSH1 0x20 DUP3 ADD MLOAD PUSH1 0x1 PUSH1 0x1 PUSH1 0x60 SHL SUB NOT DUP1 DUP3 AND SWAP3 SWAP2 SWAP1 PUSH1 0x14 DUP4 LT ISZERO PUSH2 0x2F83 JUMPI DUP1 DUP2 DUP5 PUSH1 0x14 SUB PUSH1 0x3 SHL SHL DUP4 AND AND SWAP4 POP JUMPDEST POP POP POP SWAP2 SWAP1 POP JUMP JUMPDEST PUSH1 0x1 DUP2 DUP2 SHR SWAP1 DUP3 AND DUP1 PUSH2 0x2F9F JUMPI PUSH1 0x7F DUP3 AND SWAP2 POP JUMPDEST PUSH1 0x20 DUP3 LT DUP2 SUB PUSH2 0x1381 JUMPI PUSH4 0x4E487B71 PUSH1 0xE0 SHL PUSH1 0x0 MSTORE PUSH1 0x22 PUSH1 0x4 MSTORE PUSH1 0x24 PUSH1 0x0 REVERT JUMPDEST PUSH1 0x1 PUSH1 0x1 PUSH1 0xA0 SHL SUB DUP5 AND DUP2 MSTORE DUP3 ISZERO ISZERO PUSH1 0x20 DUP3 ADD MSTORE PUSH1 0x60 PUSH1 0x40 DUP3 ADD DUP2 SWAP1 MSTORE PUSH1 0x0 SWAP1 PUSH2 0x2FEB SWAP1 DUP4 ADD DUP5 PUSH2 0x2517 JUMP JUMPDEST SWAP6 SWAP5 POP POP POP POP POP JUMP JUMPDEST PUSH1 0x1 PUSH1 0x1 PUSH1 0xA0 SHL SUB DUP7 DUP2 AND DUP3 MSTORE DUP6 DUP2 AND PUSH1 0x20 DUP4 ADD MSTORE DUP5 AND PUSH1 0x40 DUP3 ADD MSTORE PUSH1 0x60 DUP2 ADD DUP4 SWAP1 MSTORE PUSH1 0xA0 PUSH1 0x80 DUP3 ADD DUP2 SWAP1 MSTORE PUSH1 0x0 SWAP1 PUSH2 0x1E69 SWAP1 DUP4 ADD DUP5 PUSH2 0x2517 JUMP JUMPDEST PUSH1 0x0 DUP4 MLOAD PUSH2 0x3041 DUP2 DUP5 PUSH1 0x20 DUP9 ADD PUSH2 0x24F3 JUMP JUMPDEST DUP4 MLOAD SWAP1 DUP4 ADD SWAP1 PUSH2 0x3055 DUP2 DUP4 PUSH1 0x20 DUP9 ADD PUSH2 0x24F3 JUMP JUMPDEST PUSH5 0x173539B7B7 PUSH1 0xD9 SHL SWAP2 ADD SWAP1 DUP2 MSTORE PUSH1 0x5 ADD SWAP5 SWAP4 POP POP POP POP JUMP JUMPDEST PUSH1 0x1F DUP3 GT ISZERO PUSH2 0x10C0 JUMPI PUSH1 0x0 DUP2 DUP2 MSTORE PUSH1 0x20 DUP2 KECCAK256 PUSH1 0x1F DUP6 ADD PUSH1 0x5 SHR DUP2 ADD PUSH1 0x20 DUP7 LT ISZERO PUSH2 0x3095 JUMPI POP DUP1 JUMPDEST PUSH1 0x1F DUP6 ADD PUSH1 0x5 SHR DUP3 ADD SWAP2 POP JUMPDEST DUP2 DUP2 LT ISZERO PUSH2 0xFFD JUMPI DUP3 DUP2 SSTORE PUSH1 0x1 ADD PUSH2 0x30A1 JUMP JUMPDEST DUP2 MLOAD PUSH1 0x1 PUSH1 0x1 PUSH1 0x40 SHL SUB DUP2 GT ISZERO PUSH2 0x30CD JUMPI PUSH2 0x30CD PUSH2 0x2556 JUMP JUMPDEST PUSH2 0x30E1 DUP2 PUSH2 0x30DB DUP5 SLOAD PUSH2 0x2F8B JUMP JUMPDEST DUP5 PUSH2 0x306E JUMP JUMPDEST PUSH1 0x20 DUP1 PUSH1 0x1F DUP4 GT PUSH1 0x1 DUP2 EQ PUSH2 0x3116 JUMPI PUSH1 0x0 DUP5 ISZERO PUSH2 0x30FE JUMPI POP DUP6 DUP4 ADD MLOAD JUMPDEST PUSH1 0x0 NOT PUSH1 0x3 DUP7 SWAP1 SHL SHR NOT AND PUSH1 0x1 DUP6 SWAP1 SHL OR DUP6 SSTORE PUSH2 0xFFD JUMP JUMPDEST PUSH1 0x0 DUP6 DUP2 MSTORE PUSH1 0x20 DUP2 KECCAK256 PUSH1 0x1F NOT DUP7 AND SWAP2 JUMPDEST DUP3 DUP2 LT ISZERO PUSH2 0x3145 JUMPI DUP9 DUP7 ADD MLOAD DUP3 SSTORE SWAP5 DUP5 ADD SWAP5 PUSH1 0x1 SWAP1 SWAP2 ADD SWAP1 DUP5 ADD PUSH2 0x3126 JUMP JUMPDEST POP DUP6 DUP3 LT ISZERO PUSH2 0x3163 JUMPI DUP8 DUP6 ADD MLOAD PUSH1 0x0 NOT PUSH1 0x3 DUP9 SWAP1 SHL PUSH1 0xF8 AND SHR NOT AND DUP2 SSTORE JUMPDEST POP POP POP POP POP PUSH1 0x1 SWAP1 DUP2 SHL ADD SWAP1 SSTORE POP JUMP JUMPDEST DUP3 ISZERO ISZERO DUP2 MSTORE PUSH1 0x40 PUSH1 0x20 DUP3 ADD MSTORE PUSH1 0x0 PUSH2 0x1DAE PUSH1 0x40 DUP4 ADD DUP5 PUSH2 0x2517 JUMP JUMPDEST DUP3 DUP2 MSTORE PUSH1 0x40 PUSH1 0x20 DUP3 ADD MSTORE PUSH1 0x0 PUSH2 0x1DAE PUSH1 0x40 DUP4 ADD DUP5 PUSH2 0x2517 JUMP JUMPDEST PUSH1 0x0 PUSH1 0x20 DUP3 DUP5 SUB SLT ISZERO PUSH2 0x31B9 JUMPI PUSH1 0x0 DUP1 REVERT JUMPDEST DUP2 MLOAD PUSH1 0x1 PUSH1 0x1 PUSH1 0x40 SHL SUB DUP2 GT ISZERO PUSH2 0x31CF JUMPI PUSH1 0x0 DUP1 REVERT JUMPDEST DUP3 ADD PUSH1 0x1F DUP2 ADD DUP5 SGT PUSH2 0x31E0 JUMPI PUSH1 0x0 DUP1 REVERT JUMPDEST DUP1 MLOAD PUSH2 0x31EE PUSH2 0x25E2 DUP3 PUSH2 0x259C JUMP JUMPDEST DUP2 DUP2 MSTORE DUP6 PUSH1 0x20 DUP4 DUP6 ADD ADD GT ISZERO PUSH2 0x3203 JUMPI PUSH1 0x0 DUP1 REVERT JUMPDEST PUSH2 0x2FEB DUP3 PUSH1 0x20 DUP4 ADD PUSH1 0x20 DUP7 ADD PUSH2 0x24F3 JUMP JUMPDEST DUP2 DUP2 SUB DUP2 DUP2 GT ISZERO PUSH2 0x767 JUMPI PUSH2 0x767 PUSH2 0x2E58 JUMP JUMPDEST PUSH4 0x4E487B71 PUSH1 0xE0 SHL PUSH1 0x0 MSTORE PUSH1 0x31 PUSH1 0x4 MSTORE PUSH1 0x24 PUSH1 0x0 REVERT JUMPDEST PUSH4 0x4E487B71 PUSH1 0xE0 SHL PUSH1 0x0 MSTORE PUSH1 0x12 PUSH1 0x4 MSTORE PUSH1 0x24 PUSH1 0x0 REVERT JUMPDEST PUSH1 0x0 DUP3 PUSH2 0x3262 JUMPI PUSH2 0x3262 PUSH2 0x323D JUMP JUMPDEST POP DIV SWAP1 JUMP JUMPDEST PUSH1 0x0 DUP2 PUSH2 0x3276 JUMPI PUSH2 0x3276 PUSH2 0x2E58 JUMP JUMPDEST POP PUSH1 0x0 NOT ADD SWAP1 JUMP JUMPDEST PUSH1 0x0 DUP3 PUSH2 0x328D JUMPI PUSH2 0x328D PUSH2 0x323D JUMP JUMPDEST POP MOD SWAP1 JUMP INVALID LOG2 PUSH5 0x6970667358 0x22 SLT KECCAK256 0xE4 0xD2 SWAP8 0x4D PUSH8 0xF5CF2DDD27111FAB DUP6 0x4C 0xD6 SLOAD AND 0xA9 0xE8 PUSH8 0x83DDC3CA36E33386 PUSH27 0x410764736F6C634300081300330000000000000000000000000000 "},"methodIdentifiers":{"MAX_SUPPLY()":"32cb6b0c","addCreator(address)":"3b9dce05","authorizeOperator(address,bytes32,bytes)":"86a10ddd","balanceOf(address)":"70a08231","batchCalls(bytes[])":"6963d438","batchMintTo(address,uint256)":"e7e51070","currentTokenId()":"009a9b7b","getData(bytes32)":"54f6127f","getDataBatch(bytes32[])":"dedff9c6","getDataBatchForTokenIds(bytes32[],bytes32[])":"1d26fce6","getDataForTokenId(bytes32,bytes32)":"16e023b3","getOperatorsOf(bytes32)":"49a6078d","getTokenMetadataBaseURI()":"04b90591","isOperatorFor(address,bytes32)":"2a3654a4","mintTo(address)":"755edd17","owner()":"8da5cb5b","renounceOwnership()":"715018a6","revokeOperator(address,bytes32,bool,bytes)":"db8c9663","setData(bytes32,bytes)":"7f23690c","setDataBatch(bytes32[],bytes[])":"97902421","setDataBatchForTokenIds(bytes32[],bytes32[],bytes[])":"be9f0e6f","setDataForTokenId(bytes32,bytes32,bytes)":"d6c1407c","setLSP4Metadata(bytes)":"055f5b64","setTokenMetadataBaseURI(bytes)":"d7529a99","supportsInterface(bytes4)":"01ffc9a7","tokenIdsOf(address)":"a3b261f2","tokenOwnerOf(bytes32)":"217b2270","totalSupply()":"18160ddd","transfer(address,address,bytes32,bool,bytes)":"511b6952","transferBatch(address[],address[],bytes32[],bool[],bytes[])":"7e87632c","transferOwnership(address)":"f2fde38b"}}}}}