{
  "_format": "hh-sol-artifact-1",
  "contractName": "POKSOLSP8PureV7",
  "sourceName": "contracts/POKSOLSP8PureV7.sol",
  "abi": [
    {
      "inputs": [
        {
          "internalType": "address",
          "name": "owner",
          "type": "address"
        }
      ],
      "stateMutability": "nonpayable",
      "type": "constructor"
    },
    {
      "inputs": [],
      "name": "ERC725Y_DataKeysValuesEmptyArray",
      "type": "error"
    },
    {
      "inputs": [],
      "name": "ERC725Y_DataKeysValuesLengthMismatch",
      "type": "error"
    },
    {
      "inputs": [],
      "name": "ERC725Y_MsgValueDisallowed",
      "type": "error"
    },
    {
      "inputs": [
        {
          "internalType": "bytes",
          "name": "storedData",
          "type": "bytes"
        }
      ],
      "name": "InvalidExtensionAddress",
      "type": "error"
    },
    {
      "inputs": [
        {
          "internalType": "bytes",
          "name": "data",
          "type": "bytes"
        }
      ],
      "name": "InvalidFunctionSelector",
      "type": "error"
    },
    {
      "inputs": [],
      "name": "LSP4TokenNameNotEditable",
      "type": "error"
    },
    {
      "inputs": [],
      "name": "LSP4TokenSymbolNotEditable",
      "type": "error"
    },
    {
      "inputs": [],
      "name": "LSP4TokenTypeNotEditable",
      "type": "error"
    },
    {
      "inputs": [
        {
          "internalType": "uint256",
          "name": "callIndex",
          "type": "uint256"
        }
      ],
      "name": "LSP8BatchCallFailed",
      "type": "error"
    },
    {
      "inputs": [],
      "name": "LSP8CannotSendToAddressZero",
      "type": "error"
    },
    {
      "inputs": [],
      "name": "LSP8CannotUseAddressZeroAsOperator",
      "type": "error"
    },
    {
      "inputs": [],
      "name": "LSP8InvalidTransferBatch",
      "type": "error"
    },
    {
      "inputs": [
        {
          "internalType": "bytes32",
          "name": "tokenId",
          "type": "bytes32"
        }
      ],
      "name": "LSP8NonExistentTokenId",
      "type": "error"
    },
    {
      "inputs": [
        {
          "internalType": "address",
          "name": "operator",
          "type": "address"
        },
        {
          "internalType": "bytes32",
          "name": "tokenId",
          "type": "bytes32"
        }
      ],
      "name": "LSP8NonExistingOperator",
      "type": "error"
    },
    {
      "inputs": [
        {
          "internalType": "bytes32",
          "name": "tokenId",
          "type": "bytes32"
        },
        {
          "internalType": "address",
          "name": "caller",
          "type": "address"
        }
      ],
      "name": "LSP8NotTokenOperator",
      "type": "error"
    },
    {
      "inputs": [
        {
          "internalType": "address",
          "name": "tokenOwner",
          "type": "address"
        },
        {
          "internalType": "bytes32",
          "name": "tokenId",
          "type": "bytes32"
        },
        {
          "internalType": "address",
          "name": "caller",
          "type": "address"
        }
      ],
      "name": "LSP8NotTokenOwner",
      "type": "error"
    },
    {
      "inputs": [
        {
          "internalType": "address",
          "name": "tokenReceiver",
          "type": "address"
        }
      ],
      "name": "LSP8NotifyTokenReceiverContractMissingLSP1Interface",
      "type": "error"
    },
    {
      "inputs": [
        {
          "internalType": "address",
          "name": "tokenReceiver",
          "type": "address"
        }
      ],
      "name": "LSP8NotifyTokenReceiverIsEOA",
      "type": "error"
    },
    {
      "inputs": [
        {
          "internalType": "address",
          "name": "operator",
          "type": "address"
        },
        {
          "internalType": "bytes32",
          "name": "tokenId",
          "type": "bytes32"
        }
      ],
      "name": "LSP8OperatorAlreadyAuthorized",
      "type": "error"
    },
    {
      "inputs": [
        {
          "internalType": "address",
          "name": "caller",
          "type": "address"
        },
        {
          "internalType": "address",
          "name": "tokenOwner",
          "type": "address"
        },
        {
          "internalType": "bytes32",
          "name": "tokenId",
          "type": "bytes32"
        }
      ],
      "name": "LSP8RevokeOperatorNotAuthorized",
      "type": "error"
    },
    {
      "inputs": [],
      "name": "LSP8TokenContractCannotHoldValue",
      "type": "error"
    },
    {
      "inputs": [
        {
          "internalType": "bytes32",
          "name": "tokenId",
          "type": "bytes32"
        }
      ],
      "name": "LSP8TokenIdAlreadyMinted",
      "type": "error"
    },
    {
      "inputs": [],
      "name": "LSP8TokenIdFormatNotEditable",
      "type": "error"
    },
    {
      "inputs": [],
      "name": "LSP8TokenIdsDataEmptyArray",
      "type": "error"
    },
    {
      "inputs": [],
      "name": "LSP8TokenIdsDataLengthMismatch",
      "type": "error"
    },
    {
      "inputs": [],
      "name": "LSP8TokenOwnerCannotBeOperator",
      "type": "error"
    },
    {
      "inputs": [
        {
          "internalType": "bytes32",
          "name": "tokenId",
          "type": "bytes32"
        },
        {
          "internalType": "address",
          "name": "oldOwner",
          "type": "address"
        },
        {
          "internalType": "address",
          "name": "newOwner",
          "type": "address"
        }
      ],
      "name": "LSP8TokenOwnerChanged",
      "type": "error"
    },
    {
      "inputs": [
        {
          "internalType": "bytes4",
          "name": "functionSelector",
          "type": "bytes4"
        }
      ],
      "name": "NoExtensionFoundForFunctionSelector",
      "type": "error"
    },
    {
      "inputs": [
        {
          "internalType": "address",
          "name": "callerAddress",
          "type": "address"
        }
      ],
      "name": "OwnableCallerNotTheOwner",
      "type": "error"
    },
    {
      "inputs": [],
      "name": "OwnableCannotSetZeroAddressAsOwner",
      "type": "error"
    },
    {
      "anonymous": false,
      "inputs": [
        {
          "indexed": true,
          "internalType": "bytes32",
          "name": "dataKey",
          "type": "bytes32"
        },
        {
          "indexed": false,
          "internalType": "bytes",
          "name": "dataValue",
          "type": "bytes"
        }
      ],
      "name": "DataChanged",
      "type": "event"
    },
    {
      "anonymous": false,
      "inputs": [
        {
          "indexed": true,
          "internalType": "address",
          "name": "operator",
          "type": "address"
        },
        {
          "indexed": true,
          "internalType": "address",
          "name": "tokenOwner",
          "type": "address"
        },
        {
          "indexed": true,
          "internalType": "bytes32",
          "name": "tokenId",
          "type": "bytes32"
        },
        {
          "indexed": false,
          "internalType": "bytes",
          "name": "operatorNotificationData",
          "type": "bytes"
        }
      ],
      "name": "OperatorAuthorizationChanged",
      "type": "event"
    },
    {
      "anonymous": false,
      "inputs": [
        {
          "indexed": true,
          "internalType": "address",
          "name": "operator",
          "type": "address"
        },
        {
          "indexed": true,
          "internalType": "address",
          "name": "tokenOwner",
          "type": "address"
        },
        {
          "indexed": true,
          "internalType": "bytes32",
          "name": "tokenId",
          "type": "bytes32"
        },
        {
          "indexed": false,
          "internalType": "bool",
          "name": "notified",
          "type": "bool"
        },
        {
          "indexed": false,
          "internalType": "bytes",
          "name": "operatorNotificationData",
          "type": "bytes"
        }
      ],
      "name": "OperatorRevoked",
      "type": "event"
    },
    {
      "anonymous": false,
      "inputs": [
        {
          "indexed": true,
          "internalType": "address",
          "name": "previousOwner",
          "type": "address"
        },
        {
          "indexed": true,
          "internalType": "address",
          "name": "newOwner",
          "type": "address"
        }
      ],
      "name": "OwnershipTransferred",
      "type": "event"
    },
    {
      "anonymous": false,
      "inputs": [
        {
          "indexed": true,
          "internalType": "bytes32",
          "name": "tokenId",
          "type": "bytes32"
        },
        {
          "indexed": true,
          "internalType": "bytes32",
          "name": "dataKey",
          "type": "bytes32"
        },
        {
          "indexed": false,
          "internalType": "bytes",
          "name": "dataValue",
          "type": "bytes"
        }
      ],
      "name": "TokenIdDataChanged",
      "type": "event"
    },
    {
      "anonymous": false,
      "inputs": [
        {
          "indexed": false,
          "internalType": "address",
          "name": "operator",
          "type": "address"
        },
        {
          "indexed": true,
          "internalType": "address",
          "name": "from",
          "type": "address"
        },
        {
          "indexed": true,
          "internalType": "address",
          "name": "to",
          "type": "address"
        },
        {
          "indexed": true,
          "internalType": "bytes32",
          "name": "tokenId",
          "type": "bytes32"
        },
        {
          "indexed": false,
          "internalType": "bool",
          "name": "force",
          "type": "bool"
        },
        {
          "indexed": false,
          "internalType": "bytes",
          "name": "data",
          "type": "bytes"
        }
      ],
      "name": "Transfer",
      "type": "event"
    },
    {
      "stateMutability": "payable",
      "type": "fallback"
    },
    {
      "inputs": [],
      "name": "MAX_SUPPLY",
      "outputs": [
        {
          "internalType": "uint256",
          "name": "",
          "type": "uint256"
        }
      ],
      "stateMutability": "view",
      "type": "function"
    },
    {
      "inputs": [
        {
          "internalType": "address",
          "name": "creatorAddress",
          "type": "address"
        }
      ],
      "name": "addCreator",
      "outputs": [],
      "stateMutability": "nonpayable",
      "type": "function"
    },
    {
      "inputs": [
        {
          "internalType": "address",
          "name": "operator",
          "type": "address"
        },
        {
          "internalType": "bytes32",
          "name": "tokenId",
          "type": "bytes32"
        },
        {
          "internalType": "bytes",
          "name": "operatorNotificationData",
          "type": "bytes"
        }
      ],
      "name": "authorizeOperator",
      "outputs": [],
      "stateMutability": "nonpayable",
      "type": "function"
    },
    {
      "inputs": [
        {
          "internalType": "address",
          "name": "tokenOwner",
          "type": "address"
        }
      ],
      "name": "balanceOf",
      "outputs": [
        {
          "internalType": "uint256",
          "name": "",
          "type": "uint256"
        }
      ],
      "stateMutability": "view",
      "type": "function"
    },
    {
      "inputs": [
        {
          "internalType": "bytes[]",
          "name": "data",
          "type": "bytes[]"
        }
      ],
      "name": "batchCalls",
      "outputs": [
        {
          "internalType": "bytes[]",
          "name": "results",
          "type": "bytes[]"
        }
      ],
      "stateMutability": "nonpayable",
      "type": "function"
    },
    {
      "inputs": [
        {
          "internalType": "address",
          "name": "recipient",
          "type": "address"
        },
        {
          "internalType": "uint256",
          "name": "amount",
          "type": "uint256"
        }
      ],
      "name": "batchMintTo",
      "outputs": [],
      "stateMutability": "nonpayable",
      "type": "function"
    },
    {
      "inputs": [],
      "name": "currentTokenId",
      "outputs": [
        {
          "internalType": "uint256",
          "name": "",
          "type": "uint256"
        }
      ],
      "stateMutability": "view",
      "type": "function"
    },
    {
      "inputs": [
        {
          "internalType": "bytes32",
          "name": "dataKey",
          "type": "bytes32"
        }
      ],
      "name": "getData",
      "outputs": [
        {
          "internalType": "bytes",
          "name": "dataValue",
          "type": "bytes"
        }
      ],
      "stateMutability": "view",
      "type": "function"
    },
    {
      "inputs": [
        {
          "internalType": "bytes32[]",
          "name": "dataKeys",
          "type": "bytes32[]"
        }
      ],
      "name": "getDataBatch",
      "outputs": [
        {
          "internalType": "bytes[]",
          "name": "dataValues",
          "type": "bytes[]"
        }
      ],
      "stateMutability": "view",
      "type": "function"
    },
    {
      "inputs": [
        {
          "internalType": "bytes32[]",
          "name": "tokenIds",
          "type": "bytes32[]"
        },
        {
          "internalType": "bytes32[]",
          "name": "dataKeys",
          "type": "bytes32[]"
        }
      ],
      "name": "getDataBatchForTokenIds",
      "outputs": [
        {
          "internalType": "bytes[]",
          "name": "dataValues",
          "type": "bytes[]"
        }
      ],
      "stateMutability": "view",
      "type": "function"
    },
    {
      "inputs": [
        {
          "internalType": "bytes32",
          "name": "tokenId",
          "type": "bytes32"
        },
        {
          "internalType": "bytes32",
          "name": "dataKey",
          "type": "bytes32"
        }
      ],
      "name": "getDataForTokenId",
      "outputs": [
        {
          "internalType": "bytes",
          "name": "dataValue",
          "type": "bytes"
        }
      ],
      "stateMutability": "view",
      "type": "function"
    },
    {
      "inputs": [
        {
          "internalType": "bytes32",
          "name": "tokenId",
          "type": "bytes32"
        }
      ],
      "name": "getOperatorsOf",
      "outputs": [
        {
          "internalType": "address[]",
          "name": "",
          "type": "address[]"
        }
      ],
      "stateMutability": "view",
      "type": "function"
    },
    {
      "inputs": [
        {
          "internalType": "address",
          "name": "operator",
          "type": "address"
        },
        {
          "internalType": "bytes32",
          "name": "tokenId",
          "type": "bytes32"
        }
      ],
      "name": "isOperatorFor",
      "outputs": [
        {
          "internalType": "bool",
          "name": "",
          "type": "bool"
        }
      ],
      "stateMutability": "view",
      "type": "function"
    },
    {
      "inputs": [
        {
          "internalType": "address",
          "name": "recipient",
          "type": "address"
        }
      ],
      "name": "mintTo",
      "outputs": [
        {
          "internalType": "bytes32",
          "name": "tokenId",
          "type": "bytes32"
        }
      ],
      "stateMutability": "nonpayable",
      "type": "function"
    },
    {
      "inputs": [],
      "name": "owner",
      "outputs": [
        {
          "internalType": "address",
          "name": "",
          "type": "address"
        }
      ],
      "stateMutability": "view",
      "type": "function"
    },
    {
      "inputs": [],
      "name": "renounceOwnership",
      "outputs": [],
      "stateMutability": "nonpayable",
      "type": "function"
    },
    {
      "inputs": [
        {
          "internalType": "address",
          "name": "operator",
          "type": "address"
        },
        {
          "internalType": "bytes32",
          "name": "tokenId",
          "type": "bytes32"
        },
        {
          "internalType": "bool",
          "name": "notify",
          "type": "bool"
        },
        {
          "internalType": "bytes",
          "name": "operatorNotificationData",
          "type": "bytes"
        }
      ],
      "name": "revokeOperator",
      "outputs": [],
      "stateMutability": "nonpayable",
      "type": "function"
    },
    {
      "inputs": [
        {
          "internalType": "bytes32",
          "name": "dataKey",
          "type": "bytes32"
        },
        {
          "internalType": "bytes",
          "name": "dataValue",
          "type": "bytes"
        }
      ],
      "name": "setData",
      "outputs": [],
      "stateMutability": "payable",
      "type": "function"
    },
    {
      "inputs": [
        {
          "internalType": "bytes32[]",
          "name": "dataKeys",
          "type": "bytes32[]"
        },
        {
          "internalType": "bytes[]",
          "name": "dataValues",
          "type": "bytes[]"
        }
      ],
      "name": "setDataBatch",
      "outputs": [],
      "stateMutability": "payable",
      "type": "function"
    },
    {
      "inputs": [
        {
          "internalType": "bytes32[]",
          "name": "tokenIds",
          "type": "bytes32[]"
        },
        {
          "internalType": "bytes32[]",
          "name": "dataKeys",
          "type": "bytes32[]"
        },
        {
          "internalType": "bytes[]",
          "name": "dataValues",
          "type": "bytes[]"
        }
      ],
      "name": "setDataBatchForTokenIds",
      "outputs": [],
      "stateMutability": "nonpayable",
      "type": "function"
    },
    {
      "inputs": [
        {
          "internalType": "bytes32",
          "name": "tokenId",
          "type": "bytes32"
        },
        {
          "internalType": "bytes32",
          "name": "dataKey",
          "type": "bytes32"
        },
        {
          "internalType": "bytes",
          "name": "dataValue",
          "type": "bytes"
        }
      ],
      "name": "setDataForTokenId",
      "outputs": [],
      "stateMutability": "nonpayable",
      "type": "function"
    },
    {
      "inputs": [
        {
          "internalType": "bytes32",
          "name": "metadataHash",
          "type": "bytes32"
        },
        {
          "internalType": "bytes",
          "name": "metadataURI",
          "type": "bytes"
        }
      ],
      "name": "setLSP4Metadata",
      "outputs": [],
      "stateMutability": "nonpayable",
      "type": "function"
    },
    {
      "inputs": [
        {
          "internalType": "bytes",
          "name": "baseURI",
          "type": "bytes"
        }
      ],
      "name": "setTokenMetadataBaseURI",
      "outputs": [],
      "stateMutability": "nonpayable",
      "type": "function"
    },
    {
      "inputs": [
        {
          "internalType": "bytes4",
          "name": "interfaceId",
          "type": "bytes4"
        }
      ],
      "name": "supportsInterface",
      "outputs": [
        {
          "internalType": "bool",
          "name": "",
          "type": "bool"
        }
      ],
      "stateMutability": "view",
      "type": "function"
    },
    {
      "inputs": [
        {
          "internalType": "address",
          "name": "tokenOwner",
          "type": "address"
        }
      ],
      "name": "tokenIdsOf",
      "outputs": [
        {
          "internalType": "bytes32[]",
          "name": "",
          "type": "bytes32[]"
        }
      ],
      "stateMutability": "view",
      "type": "function"
    },
    {
      "inputs": [
        {
          "internalType": "bytes32",
          "name": "tokenId",
          "type": "bytes32"
        }
      ],
      "name": "tokenOwnerOf",
      "outputs": [
        {
          "internalType": "address",
          "name": "",
          "type": "address"
        }
      ],
      "stateMutability": "view",
      "type": "function"
    },
    {
      "inputs": [],
      "name": "totalSupply",
      "outputs": [
        {
          "internalType": "uint256",
          "name": "",
          "type": "uint256"
        }
      ],
      "stateMutability": "view",
      "type": "function"
    },
    {
      "inputs": [
        {
          "internalType": "address",
          "name": "from",
          "type": "address"
        },
        {
          "internalType": "address",
          "name": "to",
          "type": "address"
        },
        {
          "internalType": "bytes32",
          "name": "tokenId",
          "type": "bytes32"
        },
        {
          "internalType": "bool",
          "name": "force",
          "type": "bool"
        },
        {
          "internalType": "bytes",
          "name": "data",
          "type": "bytes"
        }
      ],
      "name": "transfer",
      "outputs": [],
      "stateMutability": "nonpayable",
      "type": "function"
    },
    {
      "inputs": [
        {
          "internalType": "address[]",
          "name": "from",
          "type": "address[]"
        },
        {
          "internalType": "address[]",
          "name": "to",
          "type": "address[]"
        },
        {
          "internalType": "bytes32[]",
          "name": "tokenId",
          "type": "bytes32[]"
        },
        {
          "internalType": "bool[]",
          "name": "force",
          "type": "bool[]"
        },
        {
          "internalType": "bytes[]",
          "name": "data",
          "type": "bytes[]"
        }
      ],
      "name": "transferBatch",
      "outputs": [],
      "stateMutability": "nonpayable",
      "type": "function"
    },
    {
      "inputs": [
        {
          "internalType": "address",
          "name": "newOwner",
          "type": "address"
        }
      ],
      "name": "transferOwnership",
      "outputs": [],
      "stateMutability": "nonpayable",
      "type": "function"
    },
    {
      "stateMutability": "payable",
      "type": "receive"
    }
  ],
  "bytecode": "0x60806040523480156200001157600080fd5b506040516200386d3803806200386d833981016040819052620000349162000391565b604080518082018252600f81526e504f4b534f20437962657270756e6b60881b60208083019190915282518084019093526005835264504f4b534f60d81b9083015290826001600084848484816001600160a01b038116620000a9576040516306b620db60e21b815260040160405180910390fd5b620000b481620001f7565b506040805180820190915260048152632936598960e21b6020820152620000fd907feafec4d89fa9619884b60000a4d96624a38f7ac2d8d9a604ecf07c12c77e480c9062000265565b620001297fdeba1e292f8ba88238e10ab3c7f88bd4be4fac56cad5194b6ecceaf653468af18562000265565b620001557f2f0a68ab07768e01943a599e73362a0e17a63a72e94dd2e384d2c1d4db9327568462000265565b60408051602081018390526200019e917fe0261fa95db2eb3b5439bd033cda66d56b96f92f243a8228fd87550ed7bdfdb3910160408051601f1981840301815291905262000265565b50506040805160208101859052620001eb93507ff675e9361af1c1664c1868cfa3eb97672d6b1a513aa5b81dec34c9ee330e818d92500160408051601f19818403018152919052620002be565b50505050505062000584565b6000546001600160a01b038281169116146200026257600080546040516001600160a01b03808516939216917f8be0079c531659141344cd1fd0a4f28419497f9722a3daafe3b4186f6b6457e091a3600080546001600160a01b0319166001600160a01b0383161790555b50565b60008281526001602052604090206200027f828262000468565b50817fece574603820d07bc9b91f2a932baadf4628aabcb8afba49776529c14a6104b282604051620002b2919062000534565b60405180910390a25050565b620002ca8282620002ce565b5050565b7f2145e1d6d074577dc71ef54c3807742b41b053a9352ae6b491331509acb9750f82016200030f576040516385c169bd60e01b815260040160405180910390fd5b7fd0f59754f88971fe6bc5a6618cc9d5f1e859c58d16b22d1c7b2d3e2b246cd8aa82016200035057604051630eceab6760e31b815260040160405180910390fd5b7f1fd9e056a24d14c4abc642fcc325992a946906d0dbc57dd70278aaf12842024d82016200026557604051634ef6d7fb60e01b815260040160405180910390fd5b600060208284031215620003a457600080fd5b81516001600160a01b0381168114620003bc57600080fd5b9392505050565b634e487b7160e01b600052604160045260246000fd5b600181811c90821680620003ee57607f821691505b6020821081036200040f57634e487b7160e01b600052602260045260246000fd5b50919050565b601f8211156200046357600081815260208120601f850160051c810160208610156200043e5750805b601f850160051c820191505b818110156200045f578281556001016200044a565b5050505b505050565b81516001600160401b03811115620004845762000484620003c3565b6200049c81620004958454620003d9565b8462000415565b602080601f831160018114620004d45760008415620004bb5750858301515b600019600386901b1c1916600185901b1785556200045f565b600085815260208120601f198616915b828110156200050557888601518255948401946001909101908401620004e4565b5085821015620005245787850151600019600388901b60f8161c191681555b5050505050600190811b01905550565b600060208083528351808285015260005b81811015620005635785810183015185820160400152820162000545565b506000604082860101526040601f19601f8301168501019250505092915050565b6132d980620005946000396000f3fe6080604052600436106101d05760003560e01c8063755edd17116100f7578063a3b261f211610095578063db8c966311610064578063db8c9663146105d7578063dedff9c6146105f7578063e7e5107014610617578063f2fde38b146106375761022b565b8063a3b261f21461054a578063be9f0e6f14610577578063d6c1407c14610597578063d7529a99146105b75761022b565b806380d0a868116100d157806380d0a868146104d957806386a10ddd146104f95780638da5cb5b1461051957806397902421146105375761022b565b8063755edd17146104865780637e87632c146104a65780637f23690c146104c65761022b565b806332cb6b0c1161016f57806354f6127f1161013e57806354f6127f146104115780636963d4381461043157806370a0823114610451578063715018a6146104715761022b565b806332cb6b0c1461038c5780633b9dce05146103a257806349a6078d146103c4578063511b6952146103f15761022b565b806318160ddd116101ab57806318160ddd146102f25780631d26fce614610307578063217b2270146103345780632a3654a41461036c5761022b565b80629a9b7b1461026c57806301ffc9a71461029557806316e023b3146102c55761022b565b3661022b57346000036102125760405163e5099ee360e01b81526004016102099060208082526004908201526000604082015260600190565b60405180910390fd5b6040516330fa4a2160e11b815260040160405180910390fd5b6000366060600482101561025657828260405163e5099ee360e01b8152600401610209929190612475565b6102608383610657565b80519350602001915050f35b34801561027857600080fd5b5061028260075481565b6040519081526020015b60405180910390f35b3480156102a157600080fd5b506102b56102b03660046124a4565b61074d565b604051901515815260200161028c565b3480156102d157600080fd5b506102e56102e03660046124ce565b610781565b60405161028c9190612540565b3480156102fe57600080fd5b50600254610282565b34801561031357600080fd5b50610327610322366004612627565b610794565b60405161028c919061268a565b34801561034057600080fd5b5061035461034f3660046126ec565b61087b565b6040516001600160a01b03909116815260200161028c565b34801561037857600080fd5b506102b5610387366004612721565b6108b4565b34801561039857600080fd5b506102826101f481565b3480156103ae57600080fd5b506103c26103bd36600461274b565b6108c0565b005b3480156103d057600080fd5b506103e46103df3660046126ec565b610a64565b60405161028c9190612766565b3480156103fd57600080fd5b506103c261040c36600461283b565b610a86565b34801561041d57600080fd5b506102e561042c3660046126ec565b610ac3565b34801561043d57600080fd5b5061032761044c3660046128b3565b610ace565b34801561045d57600080fd5b5061028261046c36600461274b565b610bfd565b34801561047d57600080fd5b506103c2610c1e565b34801561049257600080fd5b506102826104a136600461274b565b610c32565b3480156104b257600080fd5b506103c26104c1366004612a6a565b610ccb565b6103c26104d4366004612b2e565b610dba565b3480156104e557600080fd5b506103c26104f4366004612b2e565b610def565b34801561050557600080fd5b506103c2610514366004612b6a565b610e57565b34801561052557600080fd5b506000546001600160a01b0316610354565b6103c2610545366004612bc0565b610fd1565b34801561055657600080fd5b5061056a61056536600461274b565b61108c565b60405161028c9190612c19565b34801561058357600080fd5b506103c2610592366004612c51565b6110b0565b3480156105a357600080fd5b506103c26105b2366004612cce565b61117b565b3480156105c357600080fd5b506103c26105d2366004612d07565b61118e565b3480156105e357600080fd5b506103c26105f2366004612d3b565b6111c3565b34801561060357600080fd5b50610327610612366004612da2565b6112a7565b34801561062357600080fd5b506103c2610632366004612721565b611351565b34801561064357600080fd5b506103c261065236600461274b565b61140b565b606060006106706000356001600160e01b031916611443565b5090506001600160a01b0381166106a85760405163bb370b2b60e01b81526001600160e01b0319600035166004820152602401610209565b600080826001600160a01b031634878733346040516020016106cd9493929190612dd6565b60408051601f19818403018152908290526106e791612e01565b60006040518083038185875af1925050503d8060008114610724576040519150601f19603f3d011682016040523d82523d6000602084013e610729565b606091505b5091509150811561073e579250610747915050565b80518060208301fd5b92915050565b60006001600160e01b03198216631d138b8360e11b14806107725750610772826114c1565b806107475750610747826114e6565b606061078d838361151d565b9392505050565b606081518351146107b8576040516317d38eff60e11b815260040160405180910390fd5b82516001600160401b038111156107d1576107d1612553565b60405190808252806020026020018201604052801561080457816020015b60608152602001906001900390816107ef5790505b50905060005b83518110156108745761084f84828151811061082857610828612e1d565b602002602001015184838151811061084257610842612e1d565b602002602001015161151d565b82828151811061086157610861612e1d565b602090810291909101015260010161080a565b5092915050565b6000818152600360205260408120546001600160a01b03168061074757604051635747cd1b60e11b815260048101849052602401610209565b600061078d83836115cb565b6108c8611608565b60006108f37f114bd03b3a46d48759680d81ebb2b414fda7d030a7105a851867accf1c2352e7611644565b905060006020825110610907575060208101515b604080517f114bd03b3a46d48759680d81ebb2b414fda7d030a7105a851867accf1c2352e7602080830191909152818301849052825180830384018152606080840190945280519101209185901b6001600160601b03191660808201526109829082906094015b6040516020818303038152906040526116e6565b6109f07f114bd03b3a46d48759680d81ebb2b414fda7d030a7105a851867accf1c2352e76109b1846001612e49565b6109bc856001612e49565b604080516fffffffffffffffffffffffffffffffff19608094851b811660208301529290931b90911660308301520161096e565b60405169036f42f57aecc15a72ed60b51b60208201526001600160601b0319606086901b16602a820152600090603e01604051602081830303815290604052610a3890612e5c565b9050610a5d81604051806040016040528060018152602001600160f81b8152506116e6565b5050505050565b6060610a6f82611730565b600082815260056020526040902061074790611768565b610a9033846115cb565b610ab657604051631294d2a960e01b815260048101849052336024820152604401610209565b610a5d8585858585611775565b606061074782611644565b6060816001600160401b03811115610ae857610ae8612553565b604051908082528060200260200182016040528015610b1b57816020015b6060815260200190600190039081610b065790505b50905060005b828110156108745760008030868685818110610b3f57610b3f612e1d565b9050602002810190610b519190612e80565b604051610b5f929190612ecd565b600060405180830381855af49150503d8060008114610b9a576040519150601f19603f3d011682016040523d82523d6000602084013e610b9f565b606091505b509150915081610bd557805115610bb95780518082602001fd5b60405163234eb81960e01b815260048101849052602401610209565b80848481518110610be857610be8612e1d565b60209081029190910101525050600101610b21565b6001600160a01b038116600090815260046020526040812061074790611957565b610c26611608565b610c306000611961565b565b6000610c3c611608565b6101f460075410610c845760405162461bcd60e51b815260206004820152601260248201527113585e081cdd5c1c1b1e481c995858da195960721b6044820152606401610209565b60075460001b9050610ca882826001604051806020016040528060008152506119cf565b610cb181611b3f565b60078054906000610cc183612edd565b9190505550919050565b8451845181141580610cde575083518114155b80610cea575082518114155b80610cf6575081518114155b15610d14576040516393a8311960e01b815260040160405180910390fd5b60005b81811015610db157610da9878281518110610d3457610d34612e1d565b6020026020010151878381518110610d4e57610d4e612e1d565b6020026020010151878481518110610d6857610d68612e1d565b6020026020010151878581518110610d8257610d82612e1d565b6020026020010151878681518110610d9c57610d9c612e1d565b6020026020010151610a86565b600101610d17565b50505050505050565b610dc2611608565b3415610de15760405163f36ba73760e01b815260040160405180910390fd5b610deb82826116e6565b5050565b610df7611608565b604051600090610e169063379abe3560e11b9085908590602001612ef6565b60408051601f198184030181529190529050610e527f9afb95cacc9f95858ec44aa8c3b685511002e30ae54415823f406128b85b238e826116e6565b505050565b6000610e628361087b565b90506001600160a01b0381163314610ea557604051632d938f5160e11b81526001600160a01b038216600482015260248101849052336044820152606401610209565b6001600160a01b038416610ecc57604051639577b8b360e01b815260040160405180910390fd5b836001600160a01b0316816001600160a01b031603610efe576040516344fed6b160e11b815260040160405180910390fd5b6000838152600560205260408120610f169086611c07565b905080610f48576040516314ec4d6d60e31b81526001600160a01b038616600482015260248101859052604401610209565b83826001600160a01b0316866001600160a01b03167f1b1b58aa2ec0cec2228b2d37124556d41f5a1f7b12f089171f896cc23667121586604051610f8c9190612540565b60405180910390a460003385600186604051602001610fae9493929190612f2c565b6040516020818303038152906040529050610fc98682611c1c565b505050505050565b610fd9611608565b3415610ff85760405163f36ba73760e01b815260040160405180910390fd5b805182511461101a57604051633bcc897960e01b815260040160405180910390fd5b815160000361103c576040516397da5f9560e01b815260040160405180910390fd5b60005b8251811015610e525761108483828151811061105d5761105d612e1d565b602002602001015183838151811061107757611077612e1d565b60200260200101516116e6565b60010161103f565b6001600160a01b038116600090815260046020526040902060609061074790611768565b6110b8611608565b815183511415806110cb57508051825114155b156110e9576040516317d38eff60e11b815260040160405180910390fd5b825160000361110b576040516380c9830560e01b815260040160405180910390fd5b60005b83518110156111755761116d84828151811061112c5761112c612e1d565b602002602001015184838151811061114657611146612e1d565b602002602001015184848151811061116057611160612e1d565b6020026020010151611c47565b60010161110e565b50505050565b611183611608565b610e52838383611c47565b611196611608565b6111c07f1a7628600c3bac7101f53697f48df381ddc36b9015e7d7c9c5633d1252aa2843826116e6565b50565b60006111ce8461087b565b9050336001600160a01b03821614611221576001600160a01b03851633146112215760405163760b5acd60e01b81523360048201526001600160a01b038216602482015260448101859052606401610209565b6001600160a01b03851661124857604051639577b8b360e01b815260040160405180910390fd5b846001600160a01b0316816001600160a01b03160361127a576040516344fed6b160e11b815260040160405180910390fd5b6112878582868686611ca9565b8215610a5d5760008185600085604051602001610fae9493929190612f2c565b606081516001600160401b038111156112c2576112c2612553565b6040519080825280602002602001820160405280156112f557816020015b60608152602001906001900390816112e05790505b50905060005b825181101561134b5761132683828151811061131957611319612e1d565b6020026020010151611644565b82828151811061133857611338612e1d565b60209081029190910101526001016112fb565b50919050565b611359611608565b6101f48160075461136a9190612e49565b11156113ac5760405162461bcd60e51b81526020600482015260116024820152704e6f7420656e6f75676820737570706c7960781b6044820152606401610209565b60005b81811015610e52576007546040805160208101909152600081526113d990859083906001906119cf565b6113e281611b3f565b600780549060006113f283612edd565b919050555050808061140390612edd565b9150506113af565b611413611608565b6001600160a01b03811661143a576040516306b620db60e21b815260040160405180910390fd5b6111c081611961565b60008080611468696773c5a04a6d4300884b60b11b6001600160e01b03198616611d49565b9050600061147582611644565b905080516014141580156114895750805115155b156114a957806040516342bfe79f60e01b81526004016102099190612540565b6114b281612f65565b60601c95600195509350505050565b60006001600160e01b0319821663a918fa6b60e01b1480610747575061074782611d9d565b6000806114f96301ffc9a760e01b611443565b5090506001600160a01b0381166115135750600092915050565b61078d8184611dd2565b6000828152600660209081526040808320848452909152902080546060919061154590612f9c565b80601f016020809104026020016040519081016040528092919081815260200182805461157190612f9c565b80156115be5780601f10611593576101008083540402835291602001916115be565b820191906000526020600020905b8154815290600101906020018083116115a157829003601f168201915b5050505050905092915050565b60006115d68261087b565b6001600160a01b0316836001600160a01b0316148061078d5750600082815260056020526040902061078d9084611e5b565b3361161b6000546001600160a01b031690565b6001600160a01b031614610c305760405163bf1169c560e01b8152336004820152602401610209565b600081815260016020526040902080546060919061166190612f9c565b80601f016020809104026020016040519081016040528092919081815260200182805461168d90612f9c565b80156116da5780601f106116af576101008083540402835291602001916116da565b820191906000526020600020905b8154815290600101906020018083116116bd57829003601f168201915b50505050509050919050565b7f098a16c9e50e3e99b3e797305c146898d294e5aec55a47e213cb3611ccf17e73820161172657604051631b32400560e11b815260040160405180910390fd5b610deb8282611e7d565b6000818152600360205260409020546001600160a01b03166111c057604051635747cd1b60e11b815260048101829052602401610209565b6060600061078d83611e87565b60006117808461087b565b9050856001600160a01b0316816001600160a01b0316146117ce57604051632d938f5160e11b81526001600160a01b0380831660048301526024820186905287166044820152606401610209565b6001600160a01b0385166117f5576040516324ecef4d60e01b815260040160405180910390fd5b60006118008561087b565b9050806001600160a01b0316826001600160a01b03161461184e57604051635a9c31d360e01b8152600481018690526001600160a01b03808416602483015282166044820152606401610209565b6118588786611ee2565b6001600160a01b038716600090815260046020526040902061187a9086611f3a565b506001600160a01b038616600090815260046020526040902061189d9086611f46565b506000858152600360205260409081902080546001600160a01b0319166001600160a01b0389811691821790925591518792918a16907fb333c813a7426a7a11e2b190cad52c44119421594b47f6f32ace6d8c7207b2bf906119049033908a908a90612fd0565b60405180910390a460003388888887604051602001611927959493929190613005565b60405160208183030381529060405290506119428882611f52565b61194d878683611f7d565b5050505050505050565b6000610747825490565b6000546001600160a01b038281169116146111c057600080546040516001600160a01b03808516939216917f8be0079c531659141344cd1fd0a4f28419497f9722a3daafe3b4186f6b6457e091a3600080546001600160a01b0383166001600160a01b031990911617905550565b6001600160a01b0384166119f6576040516324ecef4d60e01b815260040160405180910390fd5b6000838152600360205260409020546001600160a01b031615611a2f576040516334c7b51160e01b815260048101849052602401610209565b6000838152600360205260409020546001600160a01b031615611a68576040516334c7b51160e01b815260048101849052602401610209565b600260008154611a7790612edd565b909155506001600160a01b0384166000908152600460205260409020611a9d9084611f46565b5060008381526003602052604080822080546001600160a01b0319166001600160a01b03881690811790915590518592907fb333c813a7426a7a11e2b190cad52c44119421594b47f6f32ace6d8c7207b2bf90611aff90339088908890612fd0565b60405180910390a46000336000868685604051602001611b23959493929190613005565b6040516020818303038152906040529050610a5d858483611f7d565b6000611b6a7f1a7628600c3bac7101f53697f48df381ddc36b9015e7d7c9c5633d1252aa2843611644565b90508051600003611b79575050565b6000611b8483612085565b905060008282604051602001611b9b929190613040565b60408051601f19818403018152908290529150600090611bca9063379abe3560e11b9083908590602001612ef6565b60408051601f198184030181529190529050610a5d857f9afb95cacc9f95858ec44aa8c3b685511002e30ae54415823f406128b85b238e83611c47565b600061078d836001600160a01b038416612186565b610deb827f8a1c15a8799f71b547e08e2bcb2e85257e81b0a07eee2ce6712549eef1f00970836121d5565b60008381526006602090815260408083208584529091529020611c6a82826130c5565b5081837fa6e4251f855f750545fe414f120db91c76b88def14d120969e5bb2d3f05debbb83604051611c9c9190612540565b60405180910390a3505050565b6000838152600560205260408120611cc19087612222565b905080611cf3576040516312a8c6a360e21b81526001600160a01b038716600482015260248101859052604401610209565b83856001600160a01b0316876001600160a01b03167fc78cd419d6136f9f1c1c6aec1d3fae098cffaf8bc86314a8f2685e32fe574e3c8686604051611d39929190613184565b60405180910390a4505050505050565b604080516001600160b01b0319841660208201526000602a82018190526001600160601b03198416602c83015291829101604051602081830303815290604052905080611d9590612e5c565b949350505050565b60006001600160e01b031982166318a6a9a560e21b148061074757506301ffc9a760e01b6001600160e01b0319831614610747565b604080516001600160e01b03198316602480830191909152825180830390910181526044909101909152602080820180516001600160e01b03166301ffc9a760e01b178152825160009392849283928392918391908a617530fa92503d91506000519050828015611e44575060208210155b8015611e505750600081115b979650505050505050565b6001600160a01b0381166000908152600183016020526040812054151561078d565b610deb8282612237565b6060816000018054806020026020016040519081016040528092919081815260200182805480156116da57602002820191906000526020600020905b815481526020019060010190808311611ec35750505050509050919050565b600081815260056020526040812090611efa82611957565b90506000805b82811015610fc957611f1384600061234c565b9150611f32828787600060405180602001604052806000815250611ca9565b600101611f00565b600061078d8383612358565b600061078d8383612186565b610deb827fb23eae7e6d1564b295b4c3e3be402d9a2f0776c57bdf365903496f6fa481ab00836121d5565b611f8e83631aed5a8560e21b611dd2565b1561202857604051631aed5a8560e21b81526001600160a01b03841690636bb56a1490611fe1907f0b084a55ebf70fd3c06fd755269dac2212c4d3f0f4d09079780bfa50c1b2984d90859060040161319f565b6000604051808303816000875af1158015612000573d6000803e3d6000fd5b505050506040513d6000823e601f3d908101601f1916820160405261117591908101906131b8565b81610e52576001600160a01b0383163b1561206157604051634349776d60e01b81526001600160a01b0384166004820152602401610209565b604051630317313760e01b81526001600160a01b0384166004820152602401610209565b6060816000036120ac5750506040805180820190915260018152600360fc1b602082015290565b8160005b81156120d657806120c081612edd565b91506120cf9050600a8361323b565b91506120b0565b6000816001600160401b038111156120f0576120f0612553565b6040519080825280601f01601f19166020018201604052801561211a576020820181803683370190505b5090505b8415611d95578161212e8161324f565b925061213d9050600a86613266565b612148906030612e49565b60f81b81838151811061215d5761215d612e1d565b60200101906001600160f81b031916908160001a90535061217f600a8661323b565b945061211e565b60008181526001830160205260408120546121cd57508154600181810184556000848152602080822090930184905584548482528286019093526040902091909155610747565b506000610747565b6121ef6001600160a01b038416631aed5a8560e21b611dd2565b15610e5257604051631aed5a8560e21b81526001600160a01b03841690636bb56a1490611fe1908590859060040161319f565b600061078d836001600160a01b038416612358565b7f2145e1d6d074577dc71ef54c3807742b41b053a9352ae6b491331509acb9750f8201612277576040516385c169bd60e01b815260040160405180910390fd5b7fd0f59754f88971fe6bc5a6618cc9d5f1e859c58d16b22d1c7b2d3e2b246cd8aa82016122b757604051630eceab6760e31b815260040160405180910390fd5b7f1fd9e056a24d14c4abc642fcc325992a946906d0dbc57dd70278aaf12842024d82016122f757604051634ef6d7fb60e01b815260040160405180910390fd5b600082815260016020526040902061230f82826130c5565b50817fece574603820d07bc9b91f2a932baadf4628aabcb8afba49776529c14a6104b2826040516123409190612540565b60405180910390a25050565b600061078d838361244b565b6000818152600183016020526040812054801561244157600061237c60018361327a565b85549091506000906123909060019061327a565b90508181146123f55760008660000182815481106123b0576123b0612e1d565b90600052602060002001549050808760000184815481106123d3576123d3612e1d565b6000918252602080832090910192909255918252600188019052604090208390555b85548690806124065761240661328d565b600190038181906000526020600020016000905590558560010160008681526020019081526020016000206000905560019350505050610747565b6000915050610747565b600082600001828154811061246257612462612e1d565b9060005260206000200154905092915050565b60208152816020820152818360408301376000818301604090810191909152601f909201601f19160101919050565b6000602082840312156124b657600080fd5b81356001600160e01b03198116811461078d57600080fd5b600080604083850312156124e157600080fd5b50508035926020909101359150565b60005b8381101561250b5781810151838201526020016124f3565b50506000910152565b6000815180845261252c8160208601602086016124f0565b601f01601f19169290920160200192915050565b60208152600061078d6020830184612514565b634e487b7160e01b600052604160045260246000fd5b604051601f8201601f191681016001600160401b038111828210171561259157612591612553565b604052919050565b60006001600160401b038211156125b2576125b2612553565b5060051b60200190565b600082601f8301126125cd57600080fd5b813560206125e26125dd83612599565b612569565b82815260059290921b8401810191818101908684111561260157600080fd5b8286015b8481101561261c5780358352918301918301612605565b509695505050505050565b6000806040838503121561263a57600080fd5b82356001600160401b038082111561265157600080fd5b61265d868387016125bc565b9350602085013591508082111561267357600080fd5b50612680858286016125bc565b9150509250929050565b6000602080830181845280855180835260408601915060408160051b870101925083870160005b828110156126df57603f198886030184526126cd858351612514565b945092850192908501906001016126b1565b5092979650505050505050565b6000602082840312156126fe57600080fd5b5035919050565b80356001600160a01b038116811461271c57600080fd5b919050565b6000806040838503121561273457600080fd5b61273d83612705565b946020939093013593505050565b60006020828403121561275d57600080fd5b61078d82612705565b6020808252825182820181905260009190848201906040850190845b818110156127a75783516001600160a01b031683529284019291840191600101612782565b50909695505050505050565b8035801515811461271c57600080fd5b60006001600160401b038211156127dc576127dc612553565b50601f01601f191660200190565b600082601f8301126127fb57600080fd5b81356128096125dd826127c3565b81815284602083860101111561281e57600080fd5b816020850160208301376000918101602001919091529392505050565b600080600080600060a0868803121561285357600080fd5b61285c86612705565b945061286a60208701612705565b93506040860135925061287f606087016127b3565b915060808601356001600160401b0381111561289a57600080fd5b6128a6888289016127ea565b9150509295509295909350565b600080602083850312156128c657600080fd5b82356001600160401b03808211156128dd57600080fd5b818501915085601f8301126128f157600080fd5b81358181111561290057600080fd5b8660208260051b850101111561291557600080fd5b60209290920196919550909350505050565b600082601f83011261293857600080fd5b813560206129486125dd83612599565b82815260059290921b8401810191818101908684111561296757600080fd5b8286015b8481101561261c5761297c81612705565b835291830191830161296b565b600082601f83011261299a57600080fd5b813560206129aa6125dd83612599565b82815260059290921b840181019181810190868411156129c957600080fd5b8286015b8481101561261c576129de816127b3565b83529183019183016129cd565b600082601f8301126129fc57600080fd5b81356020612a0c6125dd83612599565b82815260059290921b84018101918181019086841115612a2b57600080fd5b8286015b8481101561261c5780356001600160401b03811115612a4e5760008081fd5b612a5c8986838b01016127ea565b845250918301918301612a2f565b600080600080600060a08688031215612a8257600080fd5b85356001600160401b0380821115612a9957600080fd5b612aa589838a01612927565b96506020880135915080821115612abb57600080fd5b612ac789838a01612927565b95506040880135915080821115612add57600080fd5b612ae989838a016125bc565b94506060880135915080821115612aff57600080fd5b612b0b89838a01612989565b93506080880135915080821115612b2157600080fd5b506128a6888289016129eb565b60008060408385031215612b4157600080fd5b8235915060208301356001600160401b03811115612b5e57600080fd5b612680858286016127ea565b600080600060608486031215612b7f57600080fd5b612b8884612705565b92506020840135915060408401356001600160401b03811115612baa57600080fd5b612bb6868287016127ea565b9150509250925092565b60008060408385031215612bd357600080fd5b82356001600160401b0380821115612bea57600080fd5b612bf6868387016125bc565b93506020850135915080821115612c0c57600080fd5b50612680858286016129eb565b6020808252825182820181905260009190848201906040850190845b818110156127a757835183529284019291840191600101612c35565b600080600060608486031215612c6657600080fd5b83356001600160401b0380821115612c7d57600080fd5b612c89878388016125bc565b94506020860135915080821115612c9f57600080fd5b612cab878388016125bc565b93506040860135915080821115612cc157600080fd5b50612bb6868287016129eb565b600080600060608486031215612ce357600080fd5b833592506020840135915060408401356001600160401b03811115612baa57600080fd5b600060208284031215612d1957600080fd5b81356001600160401b03811115612d2f57600080fd5b611d95848285016127ea565b60008060008060808587031215612d5157600080fd5b612d5a85612705565b935060208501359250612d6f604086016127b3565b915060608501356001600160401b03811115612d8a57600080fd5b612d96878288016127ea565b91505092959194509250565b600060208284031215612db457600080fd5b81356001600160401b03811115612dca57600080fd5b611d95848285016125bc565b8385823760609290921b6001600160601b031916919092019081526014810191909152603401919050565b60008251612e138184602087016124f0565b9190910192915050565b634e487b7160e01b600052603260045260246000fd5b634e487b7160e01b600052601160045260246000fd5b8082018082111561074757610747612e33565b8051602080830151919081101561134b5760001960209190910360031b1b16919050565b6000808335601e19843603018112612e9757600080fd5b8301803591506001600160401b03821115612eb157600080fd5b602001915036819003821315612ec657600080fd5b9250929050565b8183823760009101908152919050565b600060018201612eef57612eef612e33565b5060010190565b63ffffffff60e01b8416815282600482015260008251612f1d8160248501602087016124f0565b91909101602401949350505050565b60018060a01b03851681528360208201528215156040820152608060608201526000612f5b6080830184612514565b9695505050505050565b805160208201516001600160601b03198082169291906014831015612f945780818460140360031b1b83161693505b505050919050565b600181811c90821680612fb057607f821691505b60208210810361134b57634e487b7160e01b600052602260045260246000fd5b6001600160a01b03841681528215156020820152606060408201819052600090612ffc90830184612514565b95945050505050565b6001600160a01b0386811682528581166020830152841660408201526060810183905260a060808201819052600090611e5090830184612514565b600083516130528184602088016124f0565b8351908301906130668183602088016124f0565b64173539b7b760d91b9101908152600501949350505050565b601f821115610e5257600081815260208120601f850160051c810160208610156130a65750805b601f850160051c820191505b81811015610fc9578281556001016130b2565b81516001600160401b038111156130de576130de612553565b6130f2816130ec8454612f9c565b8461307f565b602080601f831160018114613127576000841561310f5750858301515b600019600386901b1c1916600185901b178555610fc9565b600085815260208120601f198616915b8281101561315657888601518255948401946001909101908401613137565b50858210156131745787850151600019600388901b60f8161c191681555b5050505050600190811b01905550565b8215158152604060208201526000611d956040830184612514565b828152604060208201526000611d956040830184612514565b6000602082840312156131ca57600080fd5b81516001600160401b038111156131e057600080fd5b8201601f810184136131f157600080fd5b80516131ff6125dd826127c3565b81815285602083850101111561321457600080fd5b612ffc8260208301602086016124f0565b634e487b7160e01b600052601260045260246000fd5b60008261324a5761324a613225565b500490565b60008161325e5761325e612e33565b506000190190565b60008261327557613275613225565b500690565b8181038181111561074757610747612e33565b634e487b7160e01b600052603160045260246000fdfea2646970667358221220280ca6f09813ddb89e501049a89d8deb0fba8f7e8b6af168de595f3fc707783264736f6c63430008130033",
  "linkReferences": {},
  "deployedLinkReferences": {}
}