{
  "_format": "hh-sol-artifact-1",
  "contractName": "POKSOMinterV7",
  "sourceName": "contracts/POKSOMinterV7.sol",
  "abi": [
    {
      "inputs": [
        {
          "internalType": "address",
          "name": "lsp8Address",
          "type": "address"
        }
      ],
      "stateMutability": "nonpayable",
      "type": "constructor"
    },
    {
      "anonymous": false,
      "inputs": [
        {
          "indexed": true,
          "internalType": "address",
          "name": "minter",
          "type": "address"
        },
        {
          "indexed": false,
          "internalType": "uint256",
          "name": "amount",
          "type": "uint256"
        },
        {
          "indexed": false,
          "internalType": "uint256",
          "name": "totalPrice",
          "type": "uint256"
        }
      ],
      "name": "BatchMint",
      "type": "event"
    },
    {
      "anonymous": false,
      "inputs": [
        {
          "indexed": true,
          "internalType": "address",
          "name": "minter",
          "type": "address"
        },
        {
          "indexed": true,
          "internalType": "bytes32",
          "name": "tokenId",
          "type": "bytes32"
        },
        {
          "indexed": false,
          "internalType": "uint256",
          "name": "price",
          "type": "uint256"
        }
      ],
      "name": "Mint",
      "type": "event"
    },
    {
      "anonymous": false,
      "inputs": [
        {
          "indexed": false,
          "internalType": "uint256",
          "name": "oldPrice",
          "type": "uint256"
        },
        {
          "indexed": false,
          "internalType": "uint256",
          "name": "newPrice",
          "type": "uint256"
        }
      ],
      "name": "MintPriceChanged",
      "type": "event"
    },
    {
      "inputs": [],
      "name": "MAX_PER_WALLET",
      "outputs": [
        {
          "internalType": "uint256",
          "name": "",
          "type": "uint256"
        }
      ],
      "stateMutability": "view",
      "type": "function"
    },
    {
      "inputs": [],
      "name": "MINT_PRICE",
      "outputs": [
        {
          "internalType": "uint256",
          "name": "",
          "type": "uint256"
        }
      ],
      "stateMutability": "view",
      "type": "function"
    },
    {
      "inputs": [
        {
          "internalType": "address",
          "name": "creatorAddress",
          "type": "address"
        }
      ],
      "name": "addCreator",
      "outputs": [],
      "stateMutability": "nonpayable",
      "type": "function"
    },
    {
      "inputs": [
        {
          "internalType": "uint256",
          "name": "amount",
          "type": "uint256"
        }
      ],
      "name": "batchMint",
      "outputs": [],
      "stateMutability": "payable",
      "type": "function"
    },
    {
      "inputs": [
        {
          "internalType": "address",
          "name": "user",
          "type": "address"
        }
      ],
      "name": "getMintInfo",
      "outputs": [
        {
          "internalType": "uint256",
          "name": "minted",
          "type": "uint256"
        },
        {
          "internalType": "uint256",
          "name": "remaining",
          "type": "uint256"
        },
        {
          "internalType": "uint256",
          "name": "currentId",
          "type": "uint256"
        }
      ],
      "stateMutability": "view",
      "type": "function"
    },
    {
      "inputs": [],
      "name": "lsp8",
      "outputs": [
        {
          "internalType": "contract IPOKSOLSP8PureV7",
          "name": "",
          "type": "address"
        }
      ],
      "stateMutability": "view",
      "type": "function"
    },
    {
      "inputs": [],
      "name": "mint",
      "outputs": [],
      "stateMutability": "payable",
      "type": "function"
    },
    {
      "inputs": [
        {
          "internalType": "address",
          "name": "",
          "type": "address"
        }
      ],
      "name": "mintedByWallet",
      "outputs": [
        {
          "internalType": "uint256",
          "name": "",
          "type": "uint256"
        }
      ],
      "stateMutability": "view",
      "type": "function"
    },
    {
      "inputs": [],
      "name": "owner",
      "outputs": [
        {
          "internalType": "address",
          "name": "",
          "type": "address"
        }
      ],
      "stateMutability": "view",
      "type": "function"
    },
    {
      "inputs": [
        {
          "internalType": "bytes32",
          "name": "metadataHash",
          "type": "bytes32"
        },
        {
          "internalType": "bytes",
          "name": "metadataURI",
          "type": "bytes"
        }
      ],
      "name": "setLSP4Metadata",
      "outputs": [],
      "stateMutability": "nonpayable",
      "type": "function"
    },
    {
      "inputs": [
        {
          "internalType": "uint256",
          "name": "newPrice",
          "type": "uint256"
        }
      ],
      "name": "setMintPrice",
      "outputs": [],
      "stateMutability": "nonpayable",
      "type": "function"
    },
    {
      "inputs": [
        {
          "internalType": "bytes",
          "name": "baseURI",
          "type": "bytes"
        }
      ],
      "name": "setTokenMetadataBaseURI",
      "outputs": [],
      "stateMutability": "nonpayable",
      "type": "function"
    },
    {
      "inputs": [],
      "name": "withdraw",
      "outputs": [],
      "stateMutability": "nonpayable",
      "type": "function"
    },
    {
      "stateMutability": "payable",
      "type": "receive"
    }
  ],
  "bytecode": "0x6080604052600060015534801561001557600080fd5b50604051610fa1380380610fa183398101604081905261003491610062565b600280546001600160a01b039092166001600160a01b03199283161790556004805490911633179055610092565b60006020828403121561007457600080fd5b81516001600160a01b038116811461008b57600080fd5b9392505050565b610f00806100a16000396000f3fe6080604052600436106100c65760003560e01c80638467be0d1161007f578063c002d23d11610059578063c002d23d14610257578063d7529a991461026d578063f4a0a5281461028d578063f69c00e4146102ad57600080fd5b80638467be0d146101d15780638da5cb5b146101e4578063b7d08c5c1461021c57600080fd5b80630d7581111461011d5780630f2cdd6c1461015d5780631249c58b146101725780633b9dce051461017c5780633ccfd60b1461019c57806380d0a868146101b157600080fd5b366101185760405162461bcd60e51b815260206004820152601960248201527f557365206d696e742829206f722062617463684d696e7428290000000000000060448201526064015b60405180910390fd5b600080fd5b34801561012957600080fd5b5061014a610138366004610c3a565b60036020526000908152604090205481565b6040519081526020015b60405180910390f35b34801561016957600080fd5b5061014a600a81565b61017a6102cd565b005b34801561018857600080fd5b5061017a610197366004610c3a565b61058b565b3480156101a857600080fd5b5061017a610618565b3480156101bd57600080fd5b5061017a6101cc366004610d0d565b610714565b61017a6101df366004610d54565b6107a6565b3480156101f057600080fd5b50600454610204906001600160a01b031681565b6040516001600160a01b039091168152602001610154565b34801561022857600080fd5b5061023c610237366004610c3a565b610acb565b60408051938452602084019290925290820152606001610154565b34801561026357600080fd5b5061014a60015481565b34801561027957600080fd5b5061017a610288366004610d6d565b610b71565b34801561029957600080fd5b5061017a6102a8366004610d54565b610bcb565b3480156102b957600080fd5b50600254610204906001600160a01b031681565b6000546001036103105760405162461bcd60e51b815260206004820152600e60248201526d1499595b9d1c985b9d0818d85b1b60921b604482015260640161010f565b600160008190555434101561035e5760405162461bcd60e51b8152602060048201526014602482015273125b9cdd59999a58da595b9d081c185e5b595b9d60621b604482015260640161010f565b33600090815260036020526040902054600a116103b65760405162461bcd60e51b815260206004820152601660248201527513585e081c195c881dd85b1b195d081c995858da195960521b604482015260640161010f565b60025460408051629a9b7b60e01b815290516101f4926001600160a01b031691629a9b7b9160048083019260209291908290030181865afa1580156103ff573d6000803e3d6000fd5b505050506040513d601f19601f820116820180604052508101906104239190610daa565b106104655760405162461bcd60e51b815260206004820152601260248201527113585e081cdd5c1c1b1e481c995858da195960721b604482015260640161010f565b60025460405163755edd1760e01b81523360048201526000916001600160a01b03169063755edd17906024016020604051808303816000875af11580156104b0573d6000803e3d6000fd5b505050506040513d601f19601f820116820180604052508101906104d49190610daa565b3360009081526003602052604081208054929350906104f283610dd9565b919050555060015434111561053e5760015433906108fc906105149034610df2565b6040518115909202916000818181858888f1935050505015801561053c573d6000803e3d6000fd5b505b80336001600160a01b03167f103a2d32aec953695f3b9ec5ed6c1c6cb822debe92cf1fcf0832cb2c262c7eec60015460405161057c91815260200190565b60405180910390a35060008055565b6004546001600160a01b031633146105b55760405162461bcd60e51b815260040161010f90610e0b565b600254604051633b9dce0560e01b81526001600160a01b03838116600483015290911690633b9dce05906024015b600060405180830381600087803b1580156105fd57600080fd5b505af1158015610611573d6000803e3d6000fd5b5050505050565b6004546001600160a01b031633146106425760405162461bcd60e51b815260040161010f90610e0b565b478061067b5760405162461bcd60e51b81526020600482015260086024820152674e6f2066756e647360c01b604482015260640161010f565b6004546040516000916001600160a01b03169083908381818185875af1925050503d80600081146106c8576040519150601f19603f3d011682016040523d82523d6000602084013e6106cd565b606091505b50509050806107105760405162461bcd60e51b815260206004820152600f60248201526e151c985b9cd9995c8819985a5b1959608a1b604482015260640161010f565b5050565b6004546001600160a01b0316331461073e5760405162461bcd60e51b815260040161010f90610e0b565b60025460405163101a150d60e31b81526001600160a01b03909116906380d0a868906107709085908590600401610e74565b600060405180830381600087803b15801561078a57600080fd5b505af115801561079e573d6000803e3d6000fd5b505050505050565b6000546001036107e95760405162461bcd60e51b815260206004820152600e60248201526d1499595b9d1c985b9d0818d85b1b60921b604482015260640161010f565b600160005580158015906107fe5750600a8111155b61083b5760405162461bcd60e51b815260206004820152600e60248201526d125b9d985b1a5908185b5bdd5b9d60921b604482015260640161010f565b33600090815260036020526040902054600a90610859908390610e8d565b11156108a05760405162461bcd60e51b8152602060048201526016602482015275115e18d959591cc81b585e081c195c881dd85b1b195d60521b604482015260640161010f565b6101f481600260009054906101000a90046001600160a01b03166001600160a01b0316629a9b7b6040518163ffffffff1660e01b8152600401602060405180830381865afa1580156108f6573d6000803e3d6000fd5b505050506040513d601f19601f8201168201806040525081019061091a9190610daa565b6109249190610e8d565b11156109665760405162461bcd60e51b81526020600482015260116024820152704e6f7420656e6f75676820737570706c7960781b604482015260640161010f565b6000816001546109769190610ea0565b9050803410156109bf5760405162461bcd60e51b8152602060048201526014602482015273125b9cdd59999a58da595b9d081c185e5b595b9d60621b604482015260640161010f565b600254604051630e7e510760e41b8152336004820152602481018490526001600160a01b039091169063e7e5107090604401600060405180830381600087803b158015610a0b57600080fd5b505af1158015610a1f573d6000803e3d6000fd5b50503360009081526003602052604081208054869450909250610a43908490610e8d565b909155505034811015610a8857336108fc610a5e8334610df2565b6040518115909202916000818181858888f19350505050158015610a86573d6000803e3d6000fd5b505b604080518381526020810183905233917f63232c37f2c1fdcb4fc657df1cef6cabc7181c5b604530242590ffe5fa91ab74910160405180910390a2505060008055565b6001600160a01b0381166000908152600360205260408120549080610af183600a610df2565b9150600260009054906101000a90046001600160a01b03166001600160a01b0316629a9b7b6040518163ffffffff1660e01b8152600401602060405180830381865afa158015610b45573d6000803e3d6000fd5b505050506040513d601f19601f82011682018060405250810190610b699190610daa565b929491935050565b6004546001600160a01b03163314610b9b5760405162461bcd60e51b815260040161010f90610e0b565b60025460405163d7529a9960e01b81526001600160a01b039091169063d7529a99906105e3908490600401610eb7565b6004546001600160a01b03163314610bf55760405162461bcd60e51b815260040161010f90610e0b565b600180549082905560408051828152602081018490527f2063f24eb8e50478aa99484fcf0f591be5a95d83129c7388c3da4bd776655e7a910160405180910390a15050565b600060208284031215610c4c57600080fd5b81356001600160a01b0381168114610c6357600080fd5b9392505050565b634e487b7160e01b600052604160045260246000fd5b600082601f830112610c9157600080fd5b813567ffffffffffffffff80821115610cac57610cac610c6a565b604051601f8301601f19908116603f01168101908282118183101715610cd457610cd4610c6a565b81604052838152866020858801011115610ced57600080fd5b836020870160208301376000602085830101528094505050505092915050565b60008060408385031215610d2057600080fd5b82359150602083013567ffffffffffffffff811115610d3e57600080fd5b610d4a85828601610c80565b9150509250929050565b600060208284031215610d6657600080fd5b5035919050565b600060208284031215610d7f57600080fd5b813567ffffffffffffffff811115610d9657600080fd5b610da284828501610c80565b949350505050565b600060208284031215610dbc57600080fd5b5051919050565b634e487b7160e01b600052601160045260246000fd5b600060018201610deb57610deb610dc3565b5060010190565b81810381811115610e0557610e05610dc3565b92915050565b6020808252600990820152682737ba1037bbb732b960b91b604082015260600190565b6000815180845260005b81811015610e5457602081850181015186830182015201610e38565b506000602082860101526020601f19601f83011685010191505092915050565b828152604060208201526000610da26040830184610e2e565b80820180821115610e0557610e05610dc3565b8082028115828204841417610e0557610e05610dc3565b602081526000610c636020830184610e2e56fea26469706673582212206901df317ad78354ca665f2933bb88dad6c968973b1843acf8db5e08fc9ddeb264736f6c63430008130033",
  "linkReferences": {},
  "deployedLinkReferences": {}
}