{
  "_format": "hh-sol-artifact-1",
  "contractName": "POKSOMinterV6",
  "sourceName": "contracts/POKSOMinterV6.sol",
  "abi": [
    {
      "inputs": [
        {
          "internalType": "address",
          "name": "lsp8Address",
          "type": "address"
        }
      ],
      "stateMutability": "nonpayable",
      "type": "constructor"
    },
    {
      "anonymous": false,
      "inputs": [
        {
          "indexed": true,
          "internalType": "address",
          "name": "minter",
          "type": "address"
        },
        {
          "indexed": false,
          "internalType": "uint256",
          "name": "amount",
          "type": "uint256"
        },
        {
          "indexed": false,
          "internalType": "uint256",
          "name": "totalPrice",
          "type": "uint256"
        }
      ],
      "name": "BatchMint",
      "type": "event"
    },
    {
      "anonymous": false,
      "inputs": [
        {
          "indexed": true,
          "internalType": "address",
          "name": "minter",
          "type": "address"
        },
        {
          "indexed": true,
          "internalType": "bytes32",
          "name": "tokenId",
          "type": "bytes32"
        },
        {
          "indexed": false,
          "internalType": "uint256",
          "name": "price",
          "type": "uint256"
        }
      ],
      "name": "Mint",
      "type": "event"
    },
    {
      "inputs": [],
      "name": "MAX_PER_WALLET",
      "outputs": [
        {
          "internalType": "uint256",
          "name": "",
          "type": "uint256"
        }
      ],
      "stateMutability": "view",
      "type": "function"
    },
    {
      "inputs": [],
      "name": "MINT_PRICE",
      "outputs": [
        {
          "internalType": "uint256",
          "name": "",
          "type": "uint256"
        }
      ],
      "stateMutability": "view",
      "type": "function"
    },
    {
      "inputs": [
        {
          "internalType": "address",
          "name": "creatorAddress",
          "type": "address"
        }
      ],
      "name": "addCreator",
      "outputs": [],
      "stateMutability": "nonpayable",
      "type": "function"
    },
    {
      "inputs": [
        {
          "internalType": "uint256",
          "name": "amount",
          "type": "uint256"
        }
      ],
      "name": "batchMint",
      "outputs": [],
      "stateMutability": "payable",
      "type": "function"
    },
    {
      "inputs": [
        {
          "internalType": "address",
          "name": "user",
          "type": "address"
        }
      ],
      "name": "getMintInfo",
      "outputs": [
        {
          "internalType": "uint256",
          "name": "minted",
          "type": "uint256"
        },
        {
          "internalType": "uint256",
          "name": "remaining",
          "type": "uint256"
        },
        {
          "internalType": "uint256",
          "name": "currentId",
          "type": "uint256"
        }
      ],
      "stateMutability": "view",
      "type": "function"
    },
    {
      "inputs": [],
      "name": "getTokenMetadataBaseURI",
      "outputs": [
        {
          "internalType": "bytes",
          "name": "",
          "type": "bytes"
        }
      ],
      "stateMutability": "view",
      "type": "function"
    },
    {
      "inputs": [],
      "name": "lsp8",
      "outputs": [
        {
          "internalType": "contract IPOKSOLSP8PureV6",
          "name": "",
          "type": "address"
        }
      ],
      "stateMutability": "view",
      "type": "function"
    },
    {
      "inputs": [],
      "name": "mint",
      "outputs": [],
      "stateMutability": "payable",
      "type": "function"
    },
    {
      "inputs": [
        {
          "internalType": "address",
          "name": "",
          "type": "address"
        }
      ],
      "name": "mintedByWallet",
      "outputs": [
        {
          "internalType": "uint256",
          "name": "",
          "type": "uint256"
        }
      ],
      "stateMutability": "view",
      "type": "function"
    },
    {
      "inputs": [],
      "name": "owner",
      "outputs": [
        {
          "internalType": "address",
          "name": "",
          "type": "address"
        }
      ],
      "stateMutability": "view",
      "type": "function"
    },
    {
      "inputs": [
        {
          "internalType": "bytes",
          "name": "metadataURI",
          "type": "bytes"
        }
      ],
      "name": "setLSP4Metadata",
      "outputs": [],
      "stateMutability": "nonpayable",
      "type": "function"
    },
    {
      "inputs": [
        {
          "internalType": "bytes",
          "name": "baseURI",
          "type": "bytes"
        }
      ],
      "name": "setTokenMetadataBaseURI",
      "outputs": [],
      "stateMutability": "nonpayable",
      "type": "function"
    },
    {
      "stateMutability": "payable",
      "type": "receive"
    }
  ],
  "bytecode": "0x608060405234801561001057600080fd5b50604051610e14380380610e1483398101604081905261002f9161005d565b600180546001600160a01b039092166001600160a01b0319928316179055600380549091163317905561008d565b60006020828403121561006f57600080fd5b81516001600160a01b038116811461008657600080fd5b9392505050565b610d788061009c6000396000f3fe6080604052600436106100ab5760003560e01c80638467be0d116100645780638467be0d146101d85780638da5cb5b146101eb578063b7d08c5c14610223578063c002d23d1461025e578063d7529a9914610273578063f69c00e41461029357600080fd5b806304b9059114610113578063055f5b641461013e5780630d758111146101605780630f2cdd6c1461019b5780631249c58b146101b05780633b9dce05146101b857600080fd5b3661010e5760405162461bcd60e51b815260206004820152602860248201527f504f4b534f4d696e74657256363a20757365206d696e742829206f722062617460448201526763684d696e74282960c01b60648201526084015b60405180910390fd5b600080fd5b34801561011f57600080fd5b506101286102b3565b6040516101359190610ab5565b60405180910390f35b34801561014a57600080fd5b5061015e610159366004610b57565b61032a565b005b34801561016c57600080fd5b5061018d61017b366004610bd7565b60026020526000908152604090205481565b604051908152602001610135565b3480156101a757600080fd5b5061018d600a81565b61015e6103b9565b3480156101c457600080fd5b5061015e6101d3366004610bd7565b610637565b61015e6101e6366004610c07565b610693565b3480156101f757600080fd5b5060035461020b906001600160a01b031681565b6040516001600160a01b039091168152602001610135565b34801561022f57600080fd5b5061024361023e366004610bd7565b610991565b60408051938452602084019290925290820152606001610135565b34801561026a57600080fd5b5061018d600081565b34801561027f57600080fd5b5061015e61028e366004610b57565b610a37565b34801561029f57600080fd5b5060015461020b906001600160a01b031681565b600154604080516304b9059160e01b815290516060926001600160a01b0316916304b905919160048083019260009291908290030181865afa1580156102fd573d6000803e3d6000fd5b505050506040513d6000823e601f3d908101601f191682016040526103259190810190610c20565b905090565b6003546001600160a01b031633146103545760405162461bcd60e51b815260040161010590610c97565b600154604051630157d6d960e21b81526001600160a01b039091169063055f5b6490610384908490600401610ab5565b600060405180830381600087803b15801561039e57600080fd5b505af11580156103b2573d6000803e3d6000fd5b5050505050565b60005460010361040b5760405162461bcd60e51b815260206004820152601f60248201527f5265656e7472616e637947756172643a207265656e7472616e742063616c6c006044820152606401610105565b6001600090815533815260026020526040902054600a1161046e5760405162461bcd60e51b815260206004820152601d60248201527f504f4b534f4d696e74657256363a206d6178207065722077616c6c65740000006044820152606401610105565b60015460408051629a9b7b60e01b815290516101f4926001600160a01b031691629a9b7b9160048083019260209291908290030181865afa1580156104b7573d6000803e3d6000fd5b505050506040513d601f19601f820116820180604052508101906104db9190610cce565b106105325760405162461bcd60e51b815260206004820152602160248201527f504f4b534f4d696e74657256363a206d617820737570706c79207265616368656044820152601960fa1b6064820152608401610105565b60015460405163755edd1760e01b81523360048201526000916001600160a01b03169063755edd17906024016020604051808303816000875af115801561057d573d6000803e3d6000fd5b505050506040513d601f19601f820116820180604052508101906105a19190610cce565b3360009081526002602052604081208054929350906105bf83610cfd565b909155505034156105f85760405133903480156108fc02916000818181858888f193505050501580156105f6573d6000803e3d6000fd5b505b60405160008152819033907f103a2d32aec953695f3b9ec5ed6c1c6cb822debe92cf1fcf0832cb2c262c7eec9060200160405180910390a35060008055565b6003546001600160a01b031633146106615760405162461bcd60e51b815260040161010590610c97565b600154604051633b9dce0560e01b81526001600160a01b03838116600483015290911690633b9dce0590602401610384565b6000546001036106e55760405162461bcd60e51b815260206004820152601f60248201527f5265656e7472616e637947756172643a207265656e7472616e742063616c6c006044820152606401610105565b600160005580158015906106fa5750600a8111155b6107465760405162461bcd60e51b815260206004820152601d60248201527f504f4b534f4d696e74657256363a20696e76616c696420616d6f756e740000006044820152606401610105565b33600090815260026020526040902054600a90610764908390610d16565b11156107c05760405162461bcd60e51b815260206004820152602560248201527f504f4b534f4d696e74657256363a2065786365656473206d6178207065722077604482015264185b1b195d60da1b6064820152608401610105565b6101f481600160009054906101000a90046001600160a01b03166001600160a01b0316629a9b7b6040518163ffffffff1660e01b8152600401602060405180830381865afa158015610816573d6000803e3d6000fd5b505050506040513d601f19601f8201168201806040525081019061083a9190610cce565b6108449190610d16565b11156108925760405162461bcd60e51b815260206004820181905260248201527f504f4b534f4d696e74657256363a206e6f7420656e6f75676820737570706c796044820152606401610105565b600154604051630e7e510760e41b8152336004820152602481018390526001600160a01b039091169063e7e5107090604401600060405180830381600087803b1580156108de57600080fd5b505af11580156108f2573d6000803e3d6000fd5b50503360009081526002602052604081208054859450909250610916908490610d16565b9091555050341561094f5760405133903480156108fc02916000818181858888f1935050505015801561094d573d6000803e3d6000fd5b505b604080518281526000602082015233917f63232c37f2c1fdcb4fc657df1cef6cabc7181c5b604530242590ffe5fa91ab74910160405180910390a25060008055565b6001600160a01b03811660009081526002602052604081205490806109b783600a610d2f565b9150600160009054906101000a90046001600160a01b03166001600160a01b0316629a9b7b6040518163ffffffff1660e01b8152600401602060405180830381865afa158015610a0b573d6000803e3d6000fd5b505050506040513d601f19601f82011682018060405250810190610a2f9190610cce565b929491935050565b6003546001600160a01b03163314610a615760405162461bcd60e51b815260040161010590610c97565b60015460405163d7529a9960e01b81526001600160a01b039091169063d7529a9990610384908490600401610ab5565b60005b83811015610aac578181015183820152602001610a94565b50506000910152565b6020815260008251806020840152610ad4816040850160208701610a91565b601f01601f19169190910160400192915050565b634e487b7160e01b600052604160045260246000fd5b604051601f8201601f1916810167ffffffffffffffff81118282101715610b2757610b27610ae8565b604052919050565b600067ffffffffffffffff821115610b4957610b49610ae8565b50601f01601f191660200190565b600060208284031215610b6957600080fd5b813567ffffffffffffffff811115610b8057600080fd5b8201601f81018413610b9157600080fd5b8035610ba4610b9f82610b2f565b610afe565b818152856020838501011115610bb957600080fd5b81602084016020830137600091810160200191909152949350505050565b600060208284031215610be957600080fd5b81356001600160a01b0381168114610c0057600080fd5b9392505050565b600060208284031215610c1957600080fd5b5035919050565b600060208284031215610c3257600080fd5b815167ffffffffffffffff811115610c4957600080fd5b8201601f81018413610c5a57600080fd5b8051610c68610b9f82610b2f565b818152856020838501011115610c7d57600080fd5b610c8e826020830160208601610a91565b95945050505050565b60208082526018908201527f504f4b534f4d696e74657256363a206e6f74206f776e65720000000000000000604082015260600190565b600060208284031215610ce057600080fd5b5051919050565b634e487b7160e01b600052601160045260246000fd5b600060018201610d0f57610d0f610ce7565b5060010190565b80820180821115610d2957610d29610ce7565b92915050565b81810381811115610d2957610d29610ce756fea2646970667358221220cd6ab6173da98d299523267a97129778856e9589541cb6bdefe8c2daa7a5c4ca64736f6c63430008130033",
  "linkReferences": {},
  "deployedLinkReferences": {}
}