{
  "_format": "hh-sol-artifact-1",
  "contractName": "POKSOLSP8Real",
  "sourceName": "contracts/POKSOLSP8Real.sol",
  "abi": [
    {
      "inputs": [
        {
          "internalType": "string",
          "name": "name_",
          "type": "string"
        },
        {
          "internalType": "string",
          "name": "symbol_",
          "type": "string"
        },
        {
          "internalType": "address",
          "name": "newOwner_",
          "type": "address"
        },
        {
          "internalType": "string",
          "name": "baseURI_",
          "type": "string"
        }
      ],
      "stateMutability": "nonpayable",
      "type": "constructor"
    },
    {
      "inputs": [],
      "name": "ERC725Y_DataKeysValuesEmptyArray",
      "type": "error"
    },
    {
      "inputs": [],
      "name": "ERC725Y_DataKeysValuesLengthMismatch",
      "type": "error"
    },
    {
      "inputs": [],
      "name": "ERC725Y_MsgValueDisallowed",
      "type": "error"
    },
    {
      "inputs": [
        {
          "internalType": "bytes",
          "name": "storedData",
          "type": "bytes"
        }
      ],
      "name": "InvalidExtensionAddress",
      "type": "error"
    },
    {
      "inputs": [
        {
          "internalType": "bytes",
          "name": "data",
          "type": "bytes"
        }
      ],
      "name": "InvalidFunctionSelector",
      "type": "error"
    },
    {
      "inputs": [],
      "name": "LSP4TokenNameNotEditable",
      "type": "error"
    },
    {
      "inputs": [],
      "name": "LSP4TokenSymbolNotEditable",
      "type": "error"
    },
    {
      "inputs": [],
      "name": "LSP4TokenTypeNotEditable",
      "type": "error"
    },
    {
      "inputs": [
        {
          "internalType": "uint256",
          "name": "callIndex",
          "type": "uint256"
        }
      ],
      "name": "LSP8BatchCallFailed",
      "type": "error"
    },
    {
      "inputs": [],
      "name": "LSP8CannotSendToAddressZero",
      "type": "error"
    },
    {
      "inputs": [],
      "name": "LSP8CannotUseAddressZeroAsOperator",
      "type": "error"
    },
    {
      "inputs": [],
      "name": "LSP8InvalidTransferBatch",
      "type": "error"
    },
    {
      "inputs": [
        {
          "internalType": "bytes32",
          "name": "tokenId",
          "type": "bytes32"
        }
      ],
      "name": "LSP8NonExistentTokenId",
      "type": "error"
    },
    {
      "inputs": [
        {
          "internalType": "address",
          "name": "operator",
          "type": "address"
        },
        {
          "internalType": "bytes32",
          "name": "tokenId",
          "type": "bytes32"
        }
      ],
      "name": "LSP8NonExistingOperator",
      "type": "error"
    },
    {
      "inputs": [
        {
          "internalType": "bytes32",
          "name": "tokenId",
          "type": "bytes32"
        },
        {
          "internalType": "address",
          "name": "caller",
          "type": "address"
        }
      ],
      "name": "LSP8NotTokenOperator",
      "type": "error"
    },
    {
      "inputs": [
        {
          "internalType": "address",
          "name": "tokenOwner",
          "type": "address"
        },
        {
          "internalType": "bytes32",
          "name": "tokenId",
          "type": "bytes32"
        },
        {
          "internalType": "address",
          "name": "caller",
          "type": "address"
        }
      ],
      "name": "LSP8NotTokenOwner",
      "type": "error"
    },
    {
      "inputs": [
        {
          "internalType": "address",
          "name": "tokenReceiver",
          "type": "address"
        }
      ],
      "name": "LSP8NotifyTokenReceiverContractMissingLSP1Interface",
      "type": "error"
    },
    {
      "inputs": [
        {
          "internalType": "address",
          "name": "tokenReceiver",
          "type": "address"
        }
      ],
      "name": "LSP8NotifyTokenReceiverIsEOA",
      "type": "error"
    },
    {
      "inputs": [
        {
          "internalType": "address",
          "name": "operator",
          "type": "address"
        },
        {
          "internalType": "bytes32",
          "name": "tokenId",
          "type": "bytes32"
        }
      ],
      "name": "LSP8OperatorAlreadyAuthorized",
      "type": "error"
    },
    {
      "inputs": [
        {
          "internalType": "address",
          "name": "caller",
          "type": "address"
        },
        {
          "internalType": "address",
          "name": "tokenOwner",
          "type": "address"
        },
        {
          "internalType": "bytes32",
          "name": "tokenId",
          "type": "bytes32"
        }
      ],
      "name": "LSP8RevokeOperatorNotAuthorized",
      "type": "error"
    },
    {
      "inputs": [
        {
          "internalType": "bytes32",
          "name": "tokenId",
          "type": "bytes32"
        }
      ],
      "name": "LSP8TokenIdAlreadyMinted",
      "type": "error"
    },
    {
      "inputs": [],
      "name": "LSP8TokenIdFormatNotEditable",
      "type": "error"
    },
    {
      "inputs": [],
      "name": "LSP8TokenIdsDataEmptyArray",
      "type": "error"
    },
    {
      "inputs": [],
      "name": "LSP8TokenIdsDataLengthMismatch",
      "type": "error"
    },
    {
      "inputs": [],
      "name": "LSP8TokenOwnerCannotBeOperator",
      "type": "error"
    },
    {
      "inputs": [
        {
          "internalType": "bytes32",
          "name": "tokenId",
          "type": "bytes32"
        },
        {
          "internalType": "address",
          "name": "oldOwner",
          "type": "address"
        },
        {
          "internalType": "address",
          "name": "newOwner",
          "type": "address"
        }
      ],
      "name": "LSP8TokenOwnerChanged",
      "type": "error"
    },
    {
      "inputs": [
        {
          "internalType": "bytes4",
          "name": "functionSelector",
          "type": "bytes4"
        }
      ],
      "name": "NoExtensionFoundForFunctionSelector",
      "type": "error"
    },
    {
      "inputs": [
        {
          "internalType": "address",
          "name": "callerAddress",
          "type": "address"
        }
      ],
      "name": "OwnableCallerNotTheOwner",
      "type": "error"
    },
    {
      "inputs": [],
      "name": "OwnableCannotSetZeroAddressAsOwner",
      "type": "error"
    },
    {
      "anonymous": false,
      "inputs": [
        {
          "indexed": true,
          "internalType": "address",
          "name": "minter",
          "type": "address"
        },
        {
          "indexed": false,
          "internalType": "uint256",
          "name": "amount",
          "type": "uint256"
        },
        {
          "indexed": false,
          "internalType": "uint256",
          "name": "totalPrice",
          "type": "uint256"
        }
      ],
      "name": "BatchMint",
      "type": "event"
    },
    {
      "anonymous": false,
      "inputs": [
        {
          "indexed": true,
          "internalType": "bytes32",
          "name": "dataKey",
          "type": "bytes32"
        },
        {
          "indexed": false,
          "internalType": "bytes",
          "name": "dataValue",
          "type": "bytes"
        }
      ],
      "name": "DataChanged",
      "type": "event"
    },
    {
      "anonymous": false,
      "inputs": [
        {
          "indexed": true,
          "internalType": "address",
          "name": "minter",
          "type": "address"
        },
        {
          "indexed": true,
          "internalType": "bytes32",
          "name": "tokenId",
          "type": "bytes32"
        },
        {
          "indexed": false,
          "internalType": "uint256",
          "name": "price",
          "type": "uint256"
        }
      ],
      "name": "Mint",
      "type": "event"
    },
    {
      "anonymous": false,
      "inputs": [
        {
          "indexed": true,
          "internalType": "address",
          "name": "operator",
          "type": "address"
        },
        {
          "indexed": true,
          "internalType": "address",
          "name": "tokenOwner",
          "type": "address"
        },
        {
          "indexed": true,
          "internalType": "bytes32",
          "name": "tokenId",
          "type": "bytes32"
        },
        {
          "indexed": false,
          "internalType": "bytes",
          "name": "operatorNotificationData",
          "type": "bytes"
        }
      ],
      "name": "OperatorAuthorizationChanged",
      "type": "event"
    },
    {
      "anonymous": false,
      "inputs": [
        {
          "indexed": true,
          "internalType": "address",
          "name": "operator",
          "type": "address"
        },
        {
          "indexed": true,
          "internalType": "address",
          "name": "tokenOwner",
          "type": "address"
        },
        {
          "indexed": true,
          "internalType": "bytes32",
          "name": "tokenId",
          "type": "bytes32"
        },
        {
          "indexed": false,
          "internalType": "bool",
          "name": "notified",
          "type": "bool"
        },
        {
          "indexed": false,
          "internalType": "bytes",
          "name": "operatorNotificationData",
          "type": "bytes"
        }
      ],
      "name": "OperatorRevoked",
      "type": "event"
    },
    {
      "anonymous": false,
      "inputs": [
        {
          "indexed": true,
          "internalType": "address",
          "name": "previousOwner",
          "type": "address"
        },
        {
          "indexed": true,
          "internalType": "address",
          "name": "newOwner",
          "type": "address"
        }
      ],
      "name": "OwnershipTransferred",
      "type": "event"
    },
    {
      "anonymous": false,
      "inputs": [
        {
          "indexed": true,
          "internalType": "bytes32",
          "name": "tokenId",
          "type": "bytes32"
        },
        {
          "indexed": true,
          "internalType": "bytes32",
          "name": "dataKey",
          "type": "bytes32"
        },
        {
          "indexed": false,
          "internalType": "bytes",
          "name": "dataValue",
          "type": "bytes"
        }
      ],
      "name": "TokenIdDataChanged",
      "type": "event"
    },
    {
      "anonymous": false,
      "inputs": [
        {
          "indexed": false,
          "internalType": "address",
          "name": "operator",
          "type": "address"
        },
        {
          "indexed": true,
          "internalType": "address",
          "name": "from",
          "type": "address"
        },
        {
          "indexed": true,
          "internalType": "address",
          "name": "to",
          "type": "address"
        },
        {
          "indexed": true,
          "internalType": "bytes32",
          "name": "tokenId",
          "type": "bytes32"
        },
        {
          "indexed": false,
          "internalType": "bool",
          "name": "force",
          "type": "bool"
        },
        {
          "indexed": false,
          "internalType": "bytes",
          "name": "data",
          "type": "bytes"
        }
      ],
      "name": "Transfer",
      "type": "event"
    },
    {
      "anonymous": false,
      "inputs": [
        {
          "indexed": true,
          "internalType": "address",
          "name": "owner",
          "type": "address"
        },
        {
          "indexed": false,
          "internalType": "uint256",
          "name": "amount",
          "type": "uint256"
        }
      ],
      "name": "Withdrawal",
      "type": "event"
    },
    {
      "stateMutability": "payable",
      "type": "fallback"
    },
    {
      "inputs": [],
      "name": "MAX_PER_WALLET",
      "outputs": [
        {
          "internalType": "uint256",
          "name": "",
          "type": "uint256"
        }
      ],
      "stateMutability": "view",
      "type": "function"
    },
    {
      "inputs": [],
      "name": "MAX_SUPPLY",
      "outputs": [
        {
          "internalType": "uint256",
          "name": "",
          "type": "uint256"
        }
      ],
      "stateMutability": "view",
      "type": "function"
    },
    {
      "inputs": [],
      "name": "MINT_PRICE",
      "outputs": [
        {
          "internalType": "uint256",
          "name": "",
          "type": "uint256"
        }
      ],
      "stateMutability": "view",
      "type": "function"
    },
    {
      "inputs": [
        {
          "internalType": "address",
          "name": "operator",
          "type": "address"
        },
        {
          "internalType": "bytes32",
          "name": "tokenId",
          "type": "bytes32"
        },
        {
          "internalType": "bytes",
          "name": "operatorNotificationData",
          "type": "bytes"
        }
      ],
      "name": "authorizeOperator",
      "outputs": [],
      "stateMutability": "nonpayable",
      "type": "function"
    },
    {
      "inputs": [
        {
          "internalType": "address",
          "name": "tokenOwner",
          "type": "address"
        }
      ],
      "name": "balanceOf",
      "outputs": [
        {
          "internalType": "uint256",
          "name": "",
          "type": "uint256"
        }
      ],
      "stateMutability": "view",
      "type": "function"
    },
    {
      "inputs": [
        {
          "internalType": "bytes[]",
          "name": "data",
          "type": "bytes[]"
        }
      ],
      "name": "batchCalls",
      "outputs": [
        {
          "internalType": "bytes[]",
          "name": "results",
          "type": "bytes[]"
        }
      ],
      "stateMutability": "nonpayable",
      "type": "function"
    },
    {
      "inputs": [
        {
          "internalType": "uint256",
          "name": "amount",
          "type": "uint256"
        }
      ],
      "name": "batchMint",
      "outputs": [],
      "stateMutability": "payable",
      "type": "function"
    },
    {
      "inputs": [],
      "name": "currentTokenId",
      "outputs": [
        {
          "internalType": "uint256",
          "name": "",
          "type": "uint256"
        }
      ],
      "stateMutability": "view",
      "type": "function"
    },
    {
      "inputs": [],
      "name": "getBaseURI",
      "outputs": [
        {
          "internalType": "string",
          "name": "",
          "type": "string"
        }
      ],
      "stateMutability": "view",
      "type": "function"
    },
    {
      "inputs": [],
      "name": "getContractInfo",
      "outputs": [
        {
          "internalType": "uint256",
          "name": "_mintPrice",
          "type": "uint256"
        },
        {
          "internalType": "uint256",
          "name": "_maxPerWallet",
          "type": "uint256"
        },
        {
          "internalType": "uint256",
          "name": "_maxSupply",
          "type": "uint256"
        },
        {
          "internalType": "uint256",
          "name": "_mintedCount",
          "type": "uint256"
        },
        {
          "internalType": "uint256",
          "name": "_availableSupply",
          "type": "uint256"
        }
      ],
      "stateMutability": "view",
      "type": "function"
    },
    {
      "inputs": [
        {
          "internalType": "bytes32",
          "name": "dataKey",
          "type": "bytes32"
        }
      ],
      "name": "getData",
      "outputs": [
        {
          "internalType": "bytes",
          "name": "dataValue",
          "type": "bytes"
        }
      ],
      "stateMutability": "view",
      "type": "function"
    },
    {
      "inputs": [
        {
          "internalType": "bytes32[]",
          "name": "dataKeys",
          "type": "bytes32[]"
        }
      ],
      "name": "getDataBatch",
      "outputs": [
        {
          "internalType": "bytes[]",
          "name": "dataValues",
          "type": "bytes[]"
        }
      ],
      "stateMutability": "view",
      "type": "function"
    },
    {
      "inputs": [
        {
          "internalType": "bytes32[]",
          "name": "tokenIds",
          "type": "bytes32[]"
        },
        {
          "internalType": "bytes32[]",
          "name": "dataKeys",
          "type": "bytes32[]"
        }
      ],
      "name": "getDataBatchForTokenIds",
      "outputs": [
        {
          "internalType": "bytes[]",
          "name": "dataValues",
          "type": "bytes[]"
        }
      ],
      "stateMutability": "view",
      "type": "function"
    },
    {
      "inputs": [
        {
          "internalType": "bytes32",
          "name": "tokenId",
          "type": "bytes32"
        },
        {
          "internalType": "bytes32",
          "name": "dataKey",
          "type": "bytes32"
        }
      ],
      "name": "getDataForTokenId",
      "outputs": [
        {
          "internalType": "bytes",
          "name": "dataValue",
          "type": "bytes"
        }
      ],
      "stateMutability": "view",
      "type": "function"
    },
    {
      "inputs": [
        {
          "internalType": "bytes32",
          "name": "tokenId",
          "type": "bytes32"
        }
      ],
      "name": "getOperatorsOf",
      "outputs": [
        {
          "internalType": "address[]",
          "name": "",
          "type": "address[]"
        }
      ],
      "stateMutability": "view",
      "type": "function"
    },
    {
      "inputs": [
        {
          "internalType": "address",
          "name": "tokenOwner_",
          "type": "address"
        }
      ],
      "name": "getTokensOf",
      "outputs": [
        {
          "internalType": "bytes32[]",
          "name": "",
          "type": "bytes32[]"
        }
      ],
      "stateMutability": "view",
      "type": "function"
    },
    {
      "inputs": [
        {
          "internalType": "address",
          "name": "operator",
          "type": "address"
        },
        {
          "internalType": "bytes32",
          "name": "tokenId",
          "type": "bytes32"
        }
      ],
      "name": "isOperatorFor",
      "outputs": [
        {
          "internalType": "bool",
          "name": "",
          "type": "bool"
        }
      ],
      "stateMutability": "view",
      "type": "function"
    },
    {
      "inputs": [],
      "name": "maxPerWallet",
      "outputs": [
        {
          "internalType": "uint256",
          "name": "",
          "type": "uint256"
        }
      ],
      "stateMutability": "pure",
      "type": "function"
    },
    {
      "inputs": [],
      "name": "maxSupply",
      "outputs": [
        {
          "internalType": "uint256",
          "name": "",
          "type": "uint256"
        }
      ],
      "stateMutability": "pure",
      "type": "function"
    },
    {
      "inputs": [
        {
          "internalType": "bytes32",
          "name": "tokenId",
          "type": "bytes32"
        }
      ],
      "name": "mint",
      "outputs": [],
      "stateMutability": "payable",
      "type": "function"
    },
    {
      "inputs": [],
      "name": "mintPrice",
      "outputs": [
        {
          "internalType": "uint256",
          "name": "",
          "type": "uint256"
        }
      ],
      "stateMutability": "pure",
      "type": "function"
    },
    {
      "inputs": [
        {
          "internalType": "address",
          "name": "",
          "type": "address"
        }
      ],
      "name": "mintedByWallet",
      "outputs": [
        {
          "internalType": "uint256",
          "name": "",
          "type": "uint256"
        }
      ],
      "stateMutability": "view",
      "type": "function"
    },
    {
      "inputs": [],
      "name": "mintedCount",
      "outputs": [
        {
          "internalType": "uint256",
          "name": "",
          "type": "uint256"
        }
      ],
      "stateMutability": "view",
      "type": "function"
    },
    {
      "inputs": [],
      "name": "owner",
      "outputs": [
        {
          "internalType": "address",
          "name": "",
          "type": "address"
        }
      ],
      "stateMutability": "view",
      "type": "function"
    },
    {
      "inputs": [],
      "name": "renounceOwnership",
      "outputs": [],
      "stateMutability": "nonpayable",
      "type": "function"
    },
    {
      "inputs": [
        {
          "internalType": "address",
          "name": "operator",
          "type": "address"
        },
        {
          "internalType": "bytes32",
          "name": "tokenId",
          "type": "bytes32"
        },
        {
          "internalType": "bool",
          "name": "notify",
          "type": "bool"
        },
        {
          "internalType": "bytes",
          "name": "operatorNotificationData",
          "type": "bytes"
        }
      ],
      "name": "revokeOperator",
      "outputs": [],
      "stateMutability": "nonpayable",
      "type": "function"
    },
    {
      "inputs": [
        {
          "internalType": "string",
          "name": "newBaseURI",
          "type": "string"
        }
      ],
      "name": "setBaseURI",
      "outputs": [],
      "stateMutability": "nonpayable",
      "type": "function"
    },
    {
      "inputs": [
        {
          "internalType": "bytes32",
          "name": "dataKey",
          "type": "bytes32"
        },
        {
          "internalType": "bytes",
          "name": "dataValue",
          "type": "bytes"
        }
      ],
      "name": "setData",
      "outputs": [],
      "stateMutability": "payable",
      "type": "function"
    },
    {
      "inputs": [
        {
          "internalType": "bytes32[]",
          "name": "dataKeys",
          "type": "bytes32[]"
        },
        {
          "internalType": "bytes[]",
          "name": "dataValues",
          "type": "bytes[]"
        }
      ],
      "name": "setDataBatch",
      "outputs": [],
      "stateMutability": "payable",
      "type": "function"
    },
    {
      "inputs": [
        {
          "internalType": "bytes32[]",
          "name": "tokenIds",
          "type": "bytes32[]"
        },
        {
          "internalType": "bytes32[]",
          "name": "dataKeys",
          "type": "bytes32[]"
        },
        {
          "internalType": "bytes[]",
          "name": "dataValues",
          "type": "bytes[]"
        }
      ],
      "name": "setDataBatchForTokenIds",
      "outputs": [],
      "stateMutability": "nonpayable",
      "type": "function"
    },
    {
      "inputs": [
        {
          "internalType": "bytes32",
          "name": "tokenId",
          "type": "bytes32"
        },
        {
          "internalType": "bytes32",
          "name": "dataKey",
          "type": "bytes32"
        },
        {
          "internalType": "bytes",
          "name": "dataValue",
          "type": "bytes"
        }
      ],
      "name": "setDataForTokenId",
      "outputs": [],
      "stateMutability": "nonpayable",
      "type": "function"
    },
    {
      "inputs": [
        {
          "internalType": "bytes4",
          "name": "interfaceId",
          "type": "bytes4"
        }
      ],
      "name": "supportsInterface",
      "outputs": [
        {
          "internalType": "bool",
          "name": "",
          "type": "bool"
        }
      ],
      "stateMutability": "view",
      "type": "function"
    },
    {
      "inputs": [
        {
          "internalType": "address",
          "name": "tokenOwner",
          "type": "address"
        }
      ],
      "name": "tokenIdsOf",
      "outputs": [
        {
          "internalType": "bytes32[]",
          "name": "",
          "type": "bytes32[]"
        }
      ],
      "stateMutability": "view",
      "type": "function"
    },
    {
      "inputs": [
        {
          "internalType": "bytes32",
          "name": "tokenId",
          "type": "bytes32"
        }
      ],
      "name": "tokenOwnerOf",
      "outputs": [
        {
          "internalType": "address",
          "name": "",
          "type": "address"
        }
      ],
      "stateMutability": "view",
      "type": "function"
    },
    {
      "inputs": [
        {
          "internalType": "bytes32",
          "name": "tokenId",
          "type": "bytes32"
        }
      ],
      "name": "tokenURI",
      "outputs": [
        {
          "internalType": "string",
          "name": "",
          "type": "string"
        }
      ],
      "stateMutability": "view",
      "type": "function"
    },
    {
      "inputs": [],
      "name": "totalSupply",
      "outputs": [
        {
          "internalType": "uint256",
          "name": "",
          "type": "uint256"
        }
      ],
      "stateMutability": "view",
      "type": "function"
    },
    {
      "inputs": [
        {
          "internalType": "address",
          "name": "from",
          "type": "address"
        },
        {
          "internalType": "address",
          "name": "to",
          "type": "address"
        },
        {
          "internalType": "bytes32",
          "name": "tokenId",
          "type": "bytes32"
        },
        {
          "internalType": "bool",
          "name": "force",
          "type": "bool"
        },
        {
          "internalType": "bytes",
          "name": "data",
          "type": "bytes"
        }
      ],
      "name": "transfer",
      "outputs": [],
      "stateMutability": "nonpayable",
      "type": "function"
    },
    {
      "inputs": [
        {
          "internalType": "address[]",
          "name": "from",
          "type": "address[]"
        },
        {
          "internalType": "address[]",
          "name": "to",
          "type": "address[]"
        },
        {
          "internalType": "bytes32[]",
          "name": "tokenId",
          "type": "bytes32[]"
        },
        {
          "internalType": "bool[]",
          "name": "force",
          "type": "bool[]"
        },
        {
          "internalType": "bytes[]",
          "name": "data",
          "type": "bytes[]"
        }
      ],
      "name": "transferBatch",
      "outputs": [],
      "stateMutability": "nonpayable",
      "type": "function"
    },
    {
      "inputs": [
        {
          "internalType": "address",
          "name": "newOwner",
          "type": "address"
        }
      ],
      "name": "transferOwnership",
      "outputs": [],
      "stateMutability": "nonpayable",
      "type": "function"
    },
    {
      "inputs": [],
      "name": "withdraw",
      "outputs": [],
      "stateMutability": "nonpayable",
      "type": "function"
    },
    {
      "stateMutability": "payable",
      "type": "receive"
    }
  ],
  "bytecode": "0x60806040523480156200001157600080fd5b5060405162003f1238038062003f12833981016040819052620000349162000432565b8383836001600084848484816001600160a01b03811662000068576040516306b620db60e21b815260040160405180910390fd5b6200007381620001cb565b506040805180820190915260048152632936598960e21b6020820152620000bc907feafec4d89fa9619884b60000a4d96624a38f7ac2d8d9a604ecf07c12c77e480c9062000239565b620000e87fdeba1e292f8ba88238e10ab3c7f88bd4be4fac56cad5194b6ecceaf653468af18562000239565b620001147f2f0a68ab07768e01943a599e73362a0e17a63a72e94dd2e384d2c1d4db9327568462000239565b60408051602081018390526200015d917fe0261fa95db2eb3b5439bd033cda66d56b96f92f243a8228fd87550ed7bdfdb3910160408051601f1981840301815291905262000239565b50506040805160208101859052620001aa93507ff675e9361af1c1664c1868cfa3eb97672d6b1a513aa5b81dec34c9ee330e818d92500160408051601f1981840301815291905262000292565b50505050508060099081620001c0919062000574565b505050505062000675565b6000546001600160a01b038281169116146200023657600080546040516001600160a01b03808516939216917f8be0079c531659141344cd1fd0a4f28419497f9722a3daafe3b4186f6b6457e091a3600080546001600160a01b0319166001600160a01b0383161790555b50565b600082815260016020526040902062000253828262000574565b50817fece574603820d07bc9b91f2a932baadf4628aabcb8afba49776529c14a6104b28260405162000286919062000640565b60405180910390a25050565b6200029e8282620002a2565b5050565b7f2145e1d6d074577dc71ef54c3807742b41b053a9352ae6b491331509acb9750f8201620002e3576040516385c169bd60e01b815260040160405180910390fd5b7fd0f59754f88971fe6bc5a6618cc9d5f1e859c58d16b22d1c7b2d3e2b246cd8aa82016200032457604051630eceab6760e31b815260040160405180910390fd5b7f1fd9e056a24d14c4abc642fcc325992a946906d0dbc57dd70278aaf12842024d82016200023957604051634ef6d7fb60e01b815260040160405180910390fd5b634e487b7160e01b600052604160045260246000fd5b60005b83811015620003985781810151838201526020016200037e565b50506000910152565b600082601f830112620003b357600080fd5b81516001600160401b0380821115620003d057620003d062000365565b604051601f8301601f19908116603f01168101908282118183101715620003fb57620003fb62000365565b816040528381528660208588010111156200041557600080fd5b620004288460208301602089016200037b565b9695505050505050565b600080600080608085870312156200044957600080fd5b84516001600160401b03808211156200046157600080fd5b6200046f88838901620003a1565b955060208701519150808211156200048657600080fd5b6200049488838901620003a1565b604088015190955091506001600160a01b0382168214620004b457600080fd5b606087015191935080821115620004ca57600080fd5b50620004d987828801620003a1565b91505092959194509250565b600181811c90821680620004fa57607f821691505b6020821081036200051b57634e487b7160e01b600052602260045260246000fd5b50919050565b601f8211156200056f57600081815260208120601f850160051c810160208610156200054a5750805b601f850160051c820191505b818110156200056b5782815560010162000556565b5050505b505050565b81516001600160401b0381111562000590576200059062000365565b620005a881620005a18454620004e5565b8462000521565b602080601f831160018114620005e05760008415620005c75750858301515b600019600386901b1c1916600185901b1785556200056b565b600085815260208120601f198616915b828110156200061157888601518255948401946001909101908401620005f0565b5085821015620006305787850151600019600388901b60f8161c191681555b5050505050600190811b01905550565b6020815260008251806020840152620006618160408501602087016200037b565b601f01601f19169190910160400192915050565b61388d80620006856000396000f3fe60806040526004361061023e5760003560e01c8063714c53981161012e578063adf2cead116100ab578063d5abeb011161006f578063d5abeb01146106e9578063d6c1407c146106fe578063db8c96631461071e578063dedff9c61461073e578063f2fde38b1461075e57610245565b8063adf2cead14610665578063afbb8d5114610678578063be9f0e6f14610698578063c002d23d146106b8578063cf721b15146106d457610245565b80638467be0d116100f25780638467be0d146105e157806386a10ddd146105f45780638da5cb5b146106145780639790242114610632578063a3b261f21461064557610245565b8063714c539814610547578063715018a61461055c5780637cc1f867146105715780637e87632c146105ae5780637f23690c146105ce57610245565b806332cb6b0c116101bc57806354f6127f1161018057806354f6127f146104ac57806355f804b3146104cc5780636817c76c146104ec5780636963d4381461050757806370a082311461052757610245565b806332cb6b0c1461041e5780633ccfd60b14610434578063453c23101461044b57806349a6078d1461045f578063511b69521461048c57610245565b806316e023b31161020357806316e023b31461035757806318160ddd146103845780631d26fce614610399578063217b2270146103c65780632a3654a4146103fe57610245565b80629a9b7b1461028f57806301ffc9a7146102b85780630986b210146102e85780630d758111146103155780630f2cdd6c1461034257610245565b3661024557005b6000366060600482101561027957828260405163e5099ee360e01b815260040161027092919061296d565b60405180910390fd5b610283838361077e565b80519350602001915050f35b34801561029b57600080fd5b506102a560075481565b6040519081526020015b60405180910390f35b3480156102c457600080fd5b506102d86102d336600461299c565b610874565b60405190151581526020016102af565b3480156102f457600080fd5b506103086103033660046129db565b6108a8565b6040516102af91906129f8565b34801561032157600080fd5b506102a56103303660046129db565b60086020526000908152604090205481565b34801561034e57600080fd5b506102a5600a81565b34801561036357600080fd5b50610377610372366004612a3c565b6108b3565b6040516102af9190612aae565b34801561039057600080fd5b506002546102a5565b3480156103a557600080fd5b506103b96103b4366004612b95565b6108c6565b6040516102af9190612bf8565b3480156103d257600080fd5b506103e66103e1366004612c5a565b6109ad565b6040516001600160a01b0390911681526020016102af565b34801561040a57600080fd5b506102d8610419366004612c73565b6109e6565b34801561042a57600080fd5b506102a56101f481565b34801561044057600080fd5b506104496109f2565b005b34801561045757600080fd5b50600a6102a5565b34801561046b57600080fd5b5061047f61047a366004612c5a565b610b49565b6040516102af9190612c9f565b34801561049857600080fd5b506104496104a7366004612d70565b610b6b565b3480156104b857600080fd5b506103776104c7366004612c5a565b610baf565b3480156104d857600080fd5b506104496104e7366004612dec565b610bba565b3480156104f857600080fd5b50674563918244f400006102a5565b34801561051357600080fd5b506103b9610522366004612e34565b610bd2565b34801561053357600080fd5b506102a56105423660046129db565b610d01565b34801561055357600080fd5b50610377610d22565b34801561056857600080fd5b50610449610db4565b34801561057d57600080fd5b50610586610dc8565b604080519586526020860194909452928401919091526060830152608082015260a0016102af565b3480156105ba57600080fd5b506104496105c9366004612fed565b610e02565b6104496105dc3660046130b1565b610ef1565b6104496105ef366004612c5a565b610f22565b34801561060057600080fd5b5061044961060f3660046130ed565b6111bf565b34801561062057600080fd5b506000546001600160a01b03166103e6565b610449610640366004613145565b611339565b34801561065157600080fd5b506103086106603660046129db565b6113f9565b610449610673366004612c5a565b61141d565b34801561068457600080fd5b50610377610693366004612c5a565b611654565b3480156106a457600080fd5b506104496106b336600461319e565b6116e9565b3480156106c457600080fd5b506102a5674563918244f4000081565b3480156106e057600080fd5b506007546102a5565b3480156106f557600080fd5b506101f46102a5565b34801561070a57600080fd5b5061044961071936600461321b565b6117b4565b34801561072a57600080fd5b50610449610739366004613254565b6117c7565b34801561074a57600080fd5b506103b96107593660046132bd565b6118ab565b34801561076a57600080fd5b506104496107793660046129db565b611955565b606060006107976000356001600160e01b031916611990565b5090506001600160a01b0381166107cf5760405163bb370b2b60e01b81526001600160e01b0319600035166004820152602401610270565b600080826001600160a01b031634878733346040516020016107f494939291906132f1565b60408051601f198184030181529082905261080e9161331c565b60006040518083038185875af1925050503d806000811461084b576040519150601f19603f3d011682016040523d82523d6000602084013e610850565b606091505b5091509150811561086557925061086e915050565b80518060208301fd5b92915050565b60006001600160e01b03198216631d138b8360e11b1480610899575061089982611a0e565b8061086e575061086e82611a33565b606061086e826113f9565b60606108bf8383611a6a565b9392505050565b606081518351146108ea576040516317d38eff60e11b815260040160405180910390fd5b82516001600160401b0381111561090357610903612ac1565b60405190808252806020026020018201604052801561093657816020015b60608152602001906001900390816109215790505b50905060005b83518110156109a65761098184828151811061095a5761095a613338565b602002602001015184838151811061097457610974613338565b6020026020010151611a6a565b82828151811061099357610993613338565b602090810291909101015260010161093c565b5092915050565b6000818152600360205260408120546001600160a01b03168061086e57604051635747cd1b60e11b815260048101849052602401610270565b60006108bf8383611b18565b6109fa611b55565b4780610a545760405162461bcd60e51b815260206004820152602360248201527f504f4b534f4c5350385265616c3a206e6f2066756e647320746f20776974686460448201526272617760e81b6064820152608401610270565b600080546040516001600160a01b039091169083908381818185875af1925050503d8060008114610aa1576040519150601f19603f3d011682016040523d82523d6000602084013e610aa6565b606091505b5050905080610af75760405162461bcd60e51b815260206004820181905260248201527f504f4b534f4c5350385265616c3a207769746864726177616c206661696c65646044820152606401610270565b6000546001600160a01b03166001600160a01b03167f7fcf532c15f0a6db0bd6d0e038bea71d30d808c7d98cb3bf7268a95bf5081b6583604051610b3d91815260200190565b60405180910390a25050565b6060610b5482611b91565b600082815260056020526040902061086e90611bc9565b610b753384611b18565b610b9b57604051631294d2a960e01b815260048101849052336024820152604401610270565b610ba88585858585611bd6565b5050505050565b606061086e82611db8565b610bc2611b55565b6009610bce82826133c8565b5050565b6060816001600160401b03811115610bec57610bec612ac1565b604051908082528060200260200182016040528015610c1f57816020015b6060815260200190600190039081610c0a5790505b50905060005b828110156109a65760008030868685818110610c4357610c43613338565b9050602002810190610c559190613487565b604051610c639291906134d4565b600060405180830381855af49150503d8060008114610c9e576040519150601f19603f3d011682016040523d82523d6000602084013e610ca3565b606091505b509150915081610cd957805115610cbd5780518082602001fd5b60405163234eb81960e01b815260048101849052602401610270565b80848481518110610cec57610cec613338565b60209081029190910101525050600101610c25565b6001600160a01b038116600090815260046020526040812061086e90611e5a565b606060098054610d319061334e565b80601f0160208091040260200160405190810160405280929190818152602001828054610d5d9061334e565b8015610daa5780601f10610d7f57610100808354040283529160200191610daa565b820191906000526020600020905b815481529060010190602001808311610d8d57829003601f168201915b5050505050905090565b610dbc611b55565b610dc66000611e64565b565b6000806000806000674563918244f40000600a6101f46007546007546101f4610df191906134fa565b945094509450945094509091929394565b8451845181141580610e15575083518114155b80610e21575082518114155b80610e2d575081518114155b15610e4b576040516393a8311960e01b815260040160405180910390fd5b60005b81811015610ee857610ee0878281518110610e6b57610e6b613338565b6020026020010151878381518110610e8557610e85613338565b6020026020010151878481518110610e9f57610e9f613338565b6020026020010151878581518110610eb957610eb9613338565b6020026020010151878681518110610ed357610ed3613338565b6020026020010151610b6b565b600101610e4e565b50505050505050565b610ef9611b55565b3415610f185760405163f36ba73760e01b815260040160405180910390fd5b610bce8282611ed2565b600081118015610f335750600a8111155b610f7f5760405162461bcd60e51b815260206004820152601d60248201527f504f4b534f4c5350385265616c3a20696e76616c696420616d6f756e740000006044820152606401610270565b6101f481600754610f90919061350d565b1115610fde5760405162461bcd60e51b815260206004820181905260248201527f504f4b534f4c5350385265616c3a206e6f7420656e6f75676820737570706c796044820152606401610270565b33600090815260086020526040902054600a90610ffc90839061350d565b11156110585760405162461bcd60e51b815260206004820152602560248201527f504f4b534f4c5350385265616c3a2065786365656473206d6178207065722077604482015264185b1b195d60da1b6064820152608401610270565b600061106c82674563918244f40000613520565b90508034101561108e5760405162461bcd60e51b815260040161027090613537565b60005b82811015611122576007546040805160208101909152600081526110bb9033908390600190611f1c565b600780549060006110cb8361357a565b9091555050604051674563918244f400008152819033907f103a2d32aec953695f3b9ec5ed6c1c6cb822debe92cf1fcf0832cb2c262c7eec9060200160405180910390a3508061111a8161357a565b915050611091565b50336000908152600860205260408120805484929061114290849061350d565b90915550503481101561118757336108fc61115d83346134fa565b6040518115909202916000818181858888f19350505050158015611185573d6000803e3d6000fd5b505b604080518381526020810183905233917f63232c37f2c1fdcb4fc657df1cef6cabc7181c5b604530242590ffe5fa91ab749101610b3d565b60006111ca836109ad565b90506001600160a01b038116331461120d57604051632d938f5160e11b81526001600160a01b038216600482015260248101849052336044820152606401610270565b6001600160a01b03841661123457604051639577b8b360e01b815260040160405180910390fd5b836001600160a01b0316816001600160a01b031603611266576040516344fed6b160e11b815260040160405180910390fd5b600083815260056020526040812061127e908661208c565b9050806112b0576040516314ec4d6d60e31b81526001600160a01b038616600482015260248101859052604401610270565b83826001600160a01b0316866001600160a01b03167f1b1b58aa2ec0cec2228b2d37124556d41f5a1f7b12f089171f896cc236671215866040516112f49190612aae565b60405180910390a4600033856001866040516020016113169493929190613593565b604051602081830303815290604052905061133186826120a1565b505050505050565b611341611b55565b34156113605760405163f36ba73760e01b815260040160405180910390fd5b805182511461138257604051633bcc897960e01b815260040160405180910390fd5b81516000036113a4576040516397da5f9560e01b815260040160405180910390fd5b60005b82518110156113f4576113ec8382815181106113c5576113c5613338565b60200260200101518383815181106113df576113df613338565b6020026020010151611ed2565b6001016113a7565b505050565b6001600160a01b038116600090815260046020526040902060609061086e90611bc9565b674563918244f400003410156114455760405162461bcd60e51b815260040161027090613537565b6101f4600754106114a25760405162461bcd60e51b815260206004820152602160248201527f504f4b534f4c5350385265616c3a206d617820737570706c79207265616368656044820152601960fa1b6064820152608401610270565b33600090815260086020526040902054600a1161150f5760405162461bcd60e51b815260206004820152602560248201527f504f4b534f4c5350385265616c3a206d6178207065722077616c6c65742072656044820152641858da195960da1b6064820152608401610270565b611518816120cc565b156115715760405162461bcd60e51b815260206004820152602360248201527f504f4b534f4c5350385265616c3a20746f6b656e20616c7265616479206d696e6044820152621d195960ea1b6064820152608401610270565b61158d3382600160405180602001604052806000815250611f1c565b6007805490600061159d8361357a565b90915550503360009081526008602052604081208054916115bd8361357a565b9190505550674563918244f4000034111561161257336108fc6115e8674563918244f40000346134fa565b6040518115909202916000818181858888f19350505050158015611610573d6000803e3d6000fd5b505b604051674563918244f400008152819033907f103a2d32aec953695f3b9ec5ed6c1c6cb822debe92cf1fcf0832cb2c262c7eec9060200160405180910390a350565b606061165f826120cc565b6116b75760405162461bcd60e51b815260206004820152602360248201527f504f4b534f4c5350385265616c3a20746f6b656e20646f6573206e6f742065786044820152621a5cdd60ea1b6064820152608401610270565b60096116c283612141565b6040516020016116d39291906135cc565b6040516020818303038152906040529050919050565b6116f1611b55565b8151835114158061170457508051825114155b15611722576040516317d38eff60e11b815260040160405180910390fd5b8251600003611744576040516380c9830560e01b815260040160405180910390fd5b60005b83518110156117ae576117a684828151811061176557611765613338565b602002602001015184838151811061177f5761177f613338565b602002602001015184848151811061179957611799613338565b602002602001015161224c565b600101611747565b50505050565b6117bc611b55565b6113f483838361224c565b60006117d2846109ad565b9050336001600160a01b03821614611825576001600160a01b03851633146118255760405163760b5acd60e01b81523360048201526001600160a01b038216602482015260448101859052606401610270565b6001600160a01b03851661184c57604051639577b8b360e01b815260040160405180910390fd5b846001600160a01b0316816001600160a01b03160361187e576040516344fed6b160e11b815260040160405180910390fd5b61188b85828686866122ae565b8215610ba857600081856000856040516020016113169493929190613593565b606081516001600160401b038111156118c6576118c6612ac1565b6040519080825280602002602001820160405280156118f957816020015b60608152602001906001900390816118e45790505b50905060005b825181101561194f5761192a83828151811061191d5761191d613338565b6020026020010151611db8565b82828151811061193c5761193c613338565b60209081029190910101526001016118ff565b50919050565b61195d611b55565b6001600160a01b038116611984576040516306b620db60e21b815260040160405180910390fd5b61198d81611e64565b50565b600080806119b5696773c5a04a6d4300884b60b11b6001600160e01b0319861661234e565b905060006119c282611db8565b905080516014141580156119d65750805115155b156119f657806040516342bfe79f60e01b81526004016102709190612aae565b6119ff81613663565b60601c95600195509350505050565b60006001600160e01b0319821663a918fa6b60e01b148061086e575061086e826123a2565b600080611a466301ffc9a760e01b611990565b5090506001600160a01b038116611a605750600092915050565b6108bf81846123d7565b60008281526006602090815260408083208484529091529020805460609190611a929061334e565b80601f0160208091040260200160405190810160405280929190818152602001828054611abe9061334e565b8015611b0b5780601f10611ae057610100808354040283529160200191611b0b565b820191906000526020600020905b815481529060010190602001808311611aee57829003601f168201915b5050505050905092915050565b6000611b23826109ad565b6001600160a01b0316836001600160a01b031614806108bf575060008281526005602052604090206108bf9084612460565b33611b686000546001600160a01b031690565b6001600160a01b031614610dc65760405163bf1169c560e01b8152336004820152602401610270565b6000818152600360205260409020546001600160a01b031661198d57604051635747cd1b60e11b815260048101829052602401610270565b606060006108bf83612482565b6000611be1846109ad565b9050856001600160a01b0316816001600160a01b031614611c2f57604051632d938f5160e11b81526001600160a01b0380831660048301526024820186905287166044820152606401610270565b6001600160a01b038516611c56576040516324ecef4d60e01b815260040160405180910390fd5b6000611c61856109ad565b9050806001600160a01b0316826001600160a01b031614611caf57604051635a9c31d360e01b8152600481018690526001600160a01b03808416602483015282166044820152606401610270565b611cb987866124dd565b6001600160a01b0387166000908152600460205260409020611cdb9086612535565b506001600160a01b0386166000908152600460205260409020611cfe9086612541565b506000858152600360205260409081902080546001600160a01b0319166001600160a01b0389811691821790925591518792918a16907fb333c813a7426a7a11e2b190cad52c44119421594b47f6f32ace6d8c7207b2bf90611d659033908a908a9061369a565b60405180910390a460003388888887604051602001611d889594939291906136cf565b6040516020818303038152906040529050611da3888261254d565b611dae878683612578565b5050505050505050565b6000818152600160205260409020805460609190611dd59061334e565b80601f0160208091040260200160405190810160405280929190818152602001828054611e019061334e565b8015611e4e5780601f10611e2357610100808354040283529160200191611e4e565b820191906000526020600020905b815481529060010190602001808311611e3157829003601f168201915b50505050509050919050565b600061086e825490565b6000546001600160a01b0382811691161461198d57600080546040516001600160a01b03808516939216917f8be0079c531659141344cd1fd0a4f28419497f9722a3daafe3b4186f6b6457e091a3600080546001600160a01b0383166001600160a01b031990911617905550565b7f098a16c9e50e3e99b3e797305c146898d294e5aec55a47e213cb3611ccf17e738201611f1257604051631b32400560e11b815260040160405180910390fd5b610bce8282612680565b6001600160a01b038416611f43576040516324ecef4d60e01b815260040160405180910390fd5b6000838152600360205260409020546001600160a01b031615611f7c576040516334c7b51160e01b815260048101849052602401610270565b6000838152600360205260409020546001600160a01b031615611fb5576040516334c7b51160e01b815260048101849052602401610270565b600260008154611fc49061357a565b909155506001600160a01b0384166000908152600460205260409020611fea9084612541565b5060008381526003602052604080822080546001600160a01b0319166001600160a01b03881690811790915590518592907fb333c813a7426a7a11e2b190cad52c44119421594b47f6f32ace6d8c7207b2bf9061204c9033908890889061369a565b60405180910390a460003360008686856040516020016120709594939291906136cf565b6040516020818303038152906040529050610ba8858483612578565b60006108bf836001600160a01b03841661268a565b610bce827f8a1c15a8799f71b547e08e2bcb2e85257e81b0a07eee2ce6712549eef1f00970836126d9565b604051630217b22760e41b815260048101829052600090309063217b227090602401602060405180830381865afa925050508015612127575060408051601f3d908101601f191682019092526121249181019061370a565b60015b61213357506000919050565b50600192915050565b919050565b6060816000036121685750506040805180820190915260018152600360fc1b602082015290565b8160005b8115612192578061217c8161357a565b915061218b9050600a8361373d565b915061216c565b6000816001600160401b038111156121ac576121ac612ac1565b6040519080825280601f01601f1916602001820160405280156121d6576020820181803683370190505b508593509050815b8315612243576121ef600a85613751565b6121fa90603061350d565b60f81b8261220783613765565b9250828151811061221a5761221a613338565b60200101906001600160f81b031916908160001a90535061223c600a8561373d565b93506121de565b50949350505050565b6000838152600660209081526040808320858452909152902061226f82826133c8565b5081837fa6e4251f855f750545fe414f120db91c76b88def14d120969e5bb2d3f05debbb836040516122a19190612aae565b60405180910390a3505050565b60008381526005602052604081206122c69087612726565b9050806122f8576040516312a8c6a360e21b81526001600160a01b038716600482015260248101859052604401610270565b83856001600160a01b0316876001600160a01b03167fc78cd419d6136f9f1c1c6aec1d3fae098cffaf8bc86314a8f2685e32fe574e3c868660405161233e92919061377c565b60405180910390a4505050505050565b604080516001600160b01b0319841660208201526000602a82018190526001600160601b03198416602c8301529182910160405160208183030381529060405290508061239a90613797565b949350505050565b60006001600160e01b031982166318a6a9a560e21b148061086e57506301ffc9a760e01b6001600160e01b031983161461086e565b604080516001600160e01b03198316602480830191909152825180830390910181526044909101909152602080820180516001600160e01b03166301ffc9a760e01b178152825160009392849283928392918391908a617530fa92503d91506000519050828015612449575060208210155b80156124555750600081115b979650505050505050565b6001600160a01b038116600090815260018301602052604081205415156108bf565b606081600001805480602002602001604051908101604052809291908181526020018280548015611e4e57602002820191906000526020600020905b8154815260200190600101908083116124be5750505050509050919050565b6000818152600560205260408120906124f582611e5a565b90506000805b828110156113315761250e84600061273b565b915061252d8287876000604051806020016040528060008152506122ae565b6001016124fb565b60006108bf8383612747565b60006108bf838361268a565b610bce827fb23eae7e6d1564b295b4c3e3be402d9a2f0776c57bdf365903496f6fa481ab00836126d9565b61258983631aed5a8560e21b6123d7565b1561262357604051631aed5a8560e21b81526001600160a01b03841690636bb56a14906125dc907f0b084a55ebf70fd3c06fd755269dac2212c4d3f0f4d09079780bfa50c1b2984d9085906004016137bb565b6000604051808303816000875af11580156125fb573d6000803e3d6000fd5b505050506040513d6000823e601f3d908101601f191682016040526117ae91908101906137d4565b816113f4576001600160a01b0383163b1561265c57604051634349776d60e01b81526001600160a01b0384166004820152602401610270565b604051630317313760e01b81526001600160a01b0384166004820152602401610270565b610bce828261283a565b60008181526001830160205260408120546126d15750815460018181018455600084815260208082209093018490558454848252828601909352604090209190915561086e565b50600061086e565b6126f36001600160a01b038416631aed5a8560e21b6123d7565b156113f457604051631aed5a8560e21b81526001600160a01b03841690636bb56a14906125dc90859085906004016137bb565b60006108bf836001600160a01b038416612747565b60006108bf8383612943565b6000818152600183016020526040812054801561283057600061276b6001836134fa565b855490915060009061277f906001906134fa565b90508181146127e457600086600001828154811061279f5761279f613338565b90600052602060002001549050808760000184815481106127c2576127c2613338565b6000918252602080832090910192909255918252600188019052604090208390555b85548690806127f5576127f5613841565b60019003818190600052602060002001600090559055856001016000868152602001908152602001600020600090556001935050505061086e565b600091505061086e565b7f2145e1d6d074577dc71ef54c3807742b41b053a9352ae6b491331509acb9750f820161287a576040516385c169bd60e01b815260040160405180910390fd5b7fd0f59754f88971fe6bc5a6618cc9d5f1e859c58d16b22d1c7b2d3e2b246cd8aa82016128ba57604051630eceab6760e31b815260040160405180910390fd5b7f1fd9e056a24d14c4abc642fcc325992a946906d0dbc57dd70278aaf12842024d82016128fa57604051634ef6d7fb60e01b815260040160405180910390fd5b600082815260016020526040902061291282826133c8565b50817fece574603820d07bc9b91f2a932baadf4628aabcb8afba49776529c14a6104b282604051610b3d9190612aae565b600082600001828154811061295a5761295a613338565b9060005260206000200154905092915050565b60208152816020820152818360408301376000818301604090810191909152601f909201601f19160101919050565b6000602082840312156129ae57600080fd5b81356001600160e01b0319811681146108bf57600080fd5b6001600160a01b038116811461198d57600080fd5b6000602082840312156129ed57600080fd5b81356108bf816129c6565b6020808252825182820181905260009190848201906040850190845b81811015612a3057835183529284019291840191600101612a14565b50909695505050505050565b60008060408385031215612a4f57600080fd5b50508035926020909101359150565b60005b83811015612a79578181015183820152602001612a61565b50506000910152565b60008151808452612a9a816020860160208601612a5e565b601f01601f19169290920160200192915050565b6020815260006108bf6020830184612a82565b634e487b7160e01b600052604160045260246000fd5b604051601f8201601f191681016001600160401b0381118282101715612aff57612aff612ac1565b604052919050565b60006001600160401b03821115612b2057612b20612ac1565b5060051b60200190565b600082601f830112612b3b57600080fd5b81356020612b50612b4b83612b07565b612ad7565b82815260059290921b84018101918181019086841115612b6f57600080fd5b8286015b84811015612b8a5780358352918301918301612b73565b509695505050505050565b60008060408385031215612ba857600080fd5b82356001600160401b0380821115612bbf57600080fd5b612bcb86838701612b2a565b93506020850135915080821115612be157600080fd5b50612bee85828601612b2a565b9150509250929050565b6000602080830181845280855180835260408601915060408160051b870101925083870160005b82811015612c4d57603f19888603018452612c3b858351612a82565b94509285019290850190600101612c1f565b5092979650505050505050565b600060208284031215612c6c57600080fd5b5035919050565b60008060408385031215612c8657600080fd5b8235612c91816129c6565b946020939093013593505050565b6020808252825182820181905260009190848201906040850190845b81811015612a305783516001600160a01b031683529284019291840191600101612cbb565b8035801515811461213c57600080fd5b60006001600160401b03821115612d0957612d09612ac1565b50601f01601f191660200190565b6000612d25612b4b84612cf0565b9050828152838383011115612d3957600080fd5b828260208301376000602084830101529392505050565b600082601f830112612d6157600080fd5b6108bf83833560208501612d17565b600080600080600060a08688031215612d8857600080fd5b8535612d93816129c6565b94506020860135612da3816129c6565b935060408601359250612db860608701612ce0565b915060808601356001600160401b03811115612dd357600080fd5b612ddf88828901612d50565b9150509295509295909350565b600060208284031215612dfe57600080fd5b81356001600160401b03811115612e1457600080fd5b8201601f81018413612e2557600080fd5b61239a84823560208401612d17565b60008060208385031215612e4757600080fd5b82356001600160401b0380821115612e5e57600080fd5b818501915085601f830112612e7257600080fd5b813581811115612e8157600080fd5b8660208260051b8501011115612e9657600080fd5b60209290920196919550909350505050565b600082601f830112612eb957600080fd5b81356020612ec9612b4b83612b07565b82815260059290921b84018101918181019086841115612ee857600080fd5b8286015b84811015612b8a578035612eff816129c6565b8352918301918301612eec565b600082601f830112612f1d57600080fd5b81356020612f2d612b4b83612b07565b82815260059290921b84018101918181019086841115612f4c57600080fd5b8286015b84811015612b8a57612f6181612ce0565b8352918301918301612f50565b600082601f830112612f7f57600080fd5b81356020612f8f612b4b83612b07565b82815260059290921b84018101918181019086841115612fae57600080fd5b8286015b84811015612b8a5780356001600160401b03811115612fd15760008081fd5b612fdf8986838b0101612d50565b845250918301918301612fb2565b600080600080600060a0868803121561300557600080fd5b85356001600160401b038082111561301c57600080fd5b61302889838a01612ea8565b9650602088013591508082111561303e57600080fd5b61304a89838a01612ea8565b9550604088013591508082111561306057600080fd5b61306c89838a01612b2a565b9450606088013591508082111561308257600080fd5b61308e89838a01612f0c565b935060808801359150808211156130a457600080fd5b50612ddf88828901612f6e565b600080604083850312156130c457600080fd5b8235915060208301356001600160401b038111156130e157600080fd5b612bee85828601612d50565b60008060006060848603121561310257600080fd5b833561310d816129c6565b92506020840135915060408401356001600160401b0381111561312f57600080fd5b61313b86828701612d50565b9150509250925092565b6000806040838503121561315857600080fd5b82356001600160401b038082111561316f57600080fd5b61317b86838701612b2a565b9350602085013591508082111561319157600080fd5b50612bee85828601612f6e565b6000806000606084860312156131b357600080fd5b83356001600160401b03808211156131ca57600080fd5b6131d687838801612b2a565b945060208601359150808211156131ec57600080fd5b6131f887838801612b2a565b9350604086013591508082111561320e57600080fd5b5061313b86828701612f6e565b60008060006060848603121561323057600080fd5b833592506020840135915060408401356001600160401b0381111561312f57600080fd5b6000806000806080858703121561326a57600080fd5b8435613275816129c6565b93506020850135925061328a60408601612ce0565b915060608501356001600160401b038111156132a557600080fd5b6132b187828801612d50565b91505092959194509250565b6000602082840312156132cf57600080fd5b81356001600160401b038111156132e557600080fd5b61239a84828501612b2a565b8385823760609290921b6001600160601b031916919092019081526014810191909152603401919050565b6000825161332e818460208701612a5e565b9190910192915050565b634e487b7160e01b600052603260045260246000fd5b600181811c9082168061336257607f821691505b60208210810361194f57634e487b7160e01b600052602260045260246000fd5b601f8211156113f457600081815260208120601f850160051c810160208610156133a95750805b601f850160051c820191505b81811015611331578281556001016133b5565b81516001600160401b038111156133e1576133e1612ac1565b6133f5816133ef845461334e565b84613382565b602080601f83116001811461342a57600084156134125750858301515b600019600386901b1c1916600185901b178555611331565b600085815260208120601f198616915b828110156134595788860151825594840194600190910190840161343a565b50858210156134775787850151600019600388901b60f8161c191681555b5050505050600190811b01905550565b6000808335601e1984360301811261349e57600080fd5b8301803591506001600160401b038211156134b857600080fd5b6020019150368190038213156134cd57600080fd5b9250929050565b8183823760009101908152919050565b634e487b7160e01b600052601160045260246000fd5b8181038181111561086e5761086e6134e4565b8082018082111561086e5761086e6134e4565b808202811582820484141761086e5761086e6134e4565b60208082526023908201527f504f4b534f4c5350385265616c3a20696e73756666696369656e74207061796d604082015262195b9d60ea1b606082015260800190565b60006001820161358c5761358c6134e4565b5060010190565b60018060a01b038516815283602082015282151560408201526080606082015260006135c26080830184612a82565b9695505050505050565b60008084546135da8161334e565b600182811680156135f2576001811461360757613636565b60ff1984168752821515830287019450613636565b8860005260208060002060005b8581101561362d5781548a820152908401908201613614565b50505082870194505b50505050835161364a818360208801612a5e565b64173539b7b760d91b9101908152600501949350505050565b805160208201516001600160601b031980821692919060148310156136925780818460140360031b1b83161693505b505050919050565b6001600160a01b038416815282151560208201526060604082018190526000906136c690830184612a82565b95945050505050565b6001600160a01b0386811682528581166020830152841660408201526060810183905260a06080820181905260009061245590830184612a82565b60006020828403121561371c57600080fd5b81516108bf816129c6565b634e487b7160e01b600052601260045260246000fd5b60008261374c5761374c613727565b500490565b60008261376057613760613727565b500690565b600081613774576137746134e4565b506000190190565b821515815260406020820152600061239a6040830184612a82565b8051602080830151919081101561194f5760001960209190910360031b1b16919050565b82815260406020820152600061239a6040830184612a82565b6000602082840312156137e657600080fd5b81516001600160401b038111156137fc57600080fd5b8201601f8101841361380d57600080fd5b805161381b612b4b82612cf0565b81815285602083850101111561383057600080fd5b6136c6826020830160208601612a5e565b634e487b7160e01b600052603160045260246000fdfea26469706673582212208ede5992a3f9cf45b73c75485c0f0b3dac829fc916241bf93f8baa901bbac57364736f6c63430008130033",
  "linkReferences": {},
  "deployedLinkReferences": {}
}