{
  "_format": "hh-sol-artifact-1",
  "contractName": "POKSOLSP8Pure",
  "sourceName": "contracts/POKSOLSP8Pure.sol",
  "abi": [
    {
      "inputs": [
        {
          "internalType": "address",
          "name": "owner",
          "type": "address"
        }
      ],
      "stateMutability": "nonpayable",
      "type": "constructor"
    },
    {
      "inputs": [],
      "name": "ERC725Y_DataKeysValuesEmptyArray",
      "type": "error"
    },
    {
      "inputs": [],
      "name": "ERC725Y_DataKeysValuesLengthMismatch",
      "type": "error"
    },
    {
      "inputs": [],
      "name": "ERC725Y_MsgValueDisallowed",
      "type": "error"
    },
    {
      "inputs": [
        {
          "internalType": "bytes",
          "name": "storedData",
          "type": "bytes"
        }
      ],
      "name": "InvalidExtensionAddress",
      "type": "error"
    },
    {
      "inputs": [
        {
          "internalType": "bytes",
          "name": "data",
          "type": "bytes"
        }
      ],
      "name": "InvalidFunctionSelector",
      "type": "error"
    },
    {
      "inputs": [],
      "name": "LSP4TokenNameNotEditable",
      "type": "error"
    },
    {
      "inputs": [],
      "name": "LSP4TokenSymbolNotEditable",
      "type": "error"
    },
    {
      "inputs": [],
      "name": "LSP4TokenTypeNotEditable",
      "type": "error"
    },
    {
      "inputs": [
        {
          "internalType": "uint256",
          "name": "callIndex",
          "type": "uint256"
        }
      ],
      "name": "LSP8BatchCallFailed",
      "type": "error"
    },
    {
      "inputs": [],
      "name": "LSP8CannotSendToAddressZero",
      "type": "error"
    },
    {
      "inputs": [],
      "name": "LSP8CannotUseAddressZeroAsOperator",
      "type": "error"
    },
    {
      "inputs": [],
      "name": "LSP8InvalidTransferBatch",
      "type": "error"
    },
    {
      "inputs": [
        {
          "internalType": "bytes32",
          "name": "tokenId",
          "type": "bytes32"
        }
      ],
      "name": "LSP8NonExistentTokenId",
      "type": "error"
    },
    {
      "inputs": [
        {
          "internalType": "address",
          "name": "operator",
          "type": "address"
        },
        {
          "internalType": "bytes32",
          "name": "tokenId",
          "type": "bytes32"
        }
      ],
      "name": "LSP8NonExistingOperator",
      "type": "error"
    },
    {
      "inputs": [
        {
          "internalType": "bytes32",
          "name": "tokenId",
          "type": "bytes32"
        },
        {
          "internalType": "address",
          "name": "caller",
          "type": "address"
        }
      ],
      "name": "LSP8NotTokenOperator",
      "type": "error"
    },
    {
      "inputs": [
        {
          "internalType": "address",
          "name": "tokenOwner",
          "type": "address"
        },
        {
          "internalType": "bytes32",
          "name": "tokenId",
          "type": "bytes32"
        },
        {
          "internalType": "address",
          "name": "caller",
          "type": "address"
        }
      ],
      "name": "LSP8NotTokenOwner",
      "type": "error"
    },
    {
      "inputs": [
        {
          "internalType": "address",
          "name": "tokenReceiver",
          "type": "address"
        }
      ],
      "name": "LSP8NotifyTokenReceiverContractMissingLSP1Interface",
      "type": "error"
    },
    {
      "inputs": [
        {
          "internalType": "address",
          "name": "tokenReceiver",
          "type": "address"
        }
      ],
      "name": "LSP8NotifyTokenReceiverIsEOA",
      "type": "error"
    },
    {
      "inputs": [
        {
          "internalType": "address",
          "name": "operator",
          "type": "address"
        },
        {
          "internalType": "bytes32",
          "name": "tokenId",
          "type": "bytes32"
        }
      ],
      "name": "LSP8OperatorAlreadyAuthorized",
      "type": "error"
    },
    {
      "inputs": [
        {
          "internalType": "address",
          "name": "caller",
          "type": "address"
        },
        {
          "internalType": "address",
          "name": "tokenOwner",
          "type": "address"
        },
        {
          "internalType": "bytes32",
          "name": "tokenId",
          "type": "bytes32"
        }
      ],
      "name": "LSP8RevokeOperatorNotAuthorized",
      "type": "error"
    },
    {
      "inputs": [],
      "name": "LSP8TokenContractCannotHoldValue",
      "type": "error"
    },
    {
      "inputs": [
        {
          "internalType": "bytes32",
          "name": "tokenId",
          "type": "bytes32"
        }
      ],
      "name": "LSP8TokenIdAlreadyMinted",
      "type": "error"
    },
    {
      "inputs": [],
      "name": "LSP8TokenIdFormatNotEditable",
      "type": "error"
    },
    {
      "inputs": [],
      "name": "LSP8TokenIdsDataEmptyArray",
      "type": "error"
    },
    {
      "inputs": [],
      "name": "LSP8TokenIdsDataLengthMismatch",
      "type": "error"
    },
    {
      "inputs": [],
      "name": "LSP8TokenOwnerCannotBeOperator",
      "type": "error"
    },
    {
      "inputs": [
        {
          "internalType": "bytes32",
          "name": "tokenId",
          "type": "bytes32"
        },
        {
          "internalType": "address",
          "name": "oldOwner",
          "type": "address"
        },
        {
          "internalType": "address",
          "name": "newOwner",
          "type": "address"
        }
      ],
      "name": "LSP8TokenOwnerChanged",
      "type": "error"
    },
    {
      "inputs": [
        {
          "internalType": "bytes4",
          "name": "functionSelector",
          "type": "bytes4"
        }
      ],
      "name": "NoExtensionFoundForFunctionSelector",
      "type": "error"
    },
    {
      "inputs": [
        {
          "internalType": "address",
          "name": "callerAddress",
          "type": "address"
        }
      ],
      "name": "OwnableCallerNotTheOwner",
      "type": "error"
    },
    {
      "inputs": [],
      "name": "OwnableCannotSetZeroAddressAsOwner",
      "type": "error"
    },
    {
      "anonymous": false,
      "inputs": [
        {
          "indexed": true,
          "internalType": "bytes32",
          "name": "dataKey",
          "type": "bytes32"
        },
        {
          "indexed": false,
          "internalType": "bytes",
          "name": "dataValue",
          "type": "bytes"
        }
      ],
      "name": "DataChanged",
      "type": "event"
    },
    {
      "anonymous": false,
      "inputs": [
        {
          "indexed": true,
          "internalType": "address",
          "name": "operator",
          "type": "address"
        },
        {
          "indexed": true,
          "internalType": "address",
          "name": "tokenOwner",
          "type": "address"
        },
        {
          "indexed": true,
          "internalType": "bytes32",
          "name": "tokenId",
          "type": "bytes32"
        },
        {
          "indexed": false,
          "internalType": "bytes",
          "name": "operatorNotificationData",
          "type": "bytes"
        }
      ],
      "name": "OperatorAuthorizationChanged",
      "type": "event"
    },
    {
      "anonymous": false,
      "inputs": [
        {
          "indexed": true,
          "internalType": "address",
          "name": "operator",
          "type": "address"
        },
        {
          "indexed": true,
          "internalType": "address",
          "name": "tokenOwner",
          "type": "address"
        },
        {
          "indexed": true,
          "internalType": "bytes32",
          "name": "tokenId",
          "type": "bytes32"
        },
        {
          "indexed": false,
          "internalType": "bool",
          "name": "notified",
          "type": "bool"
        },
        {
          "indexed": false,
          "internalType": "bytes",
          "name": "operatorNotificationData",
          "type": "bytes"
        }
      ],
      "name": "OperatorRevoked",
      "type": "event"
    },
    {
      "anonymous": false,
      "inputs": [
        {
          "indexed": true,
          "internalType": "address",
          "name": "previousOwner",
          "type": "address"
        },
        {
          "indexed": true,
          "internalType": "address",
          "name": "newOwner",
          "type": "address"
        }
      ],
      "name": "OwnershipTransferred",
      "type": "event"
    },
    {
      "anonymous": false,
      "inputs": [
        {
          "indexed": true,
          "internalType": "bytes32",
          "name": "tokenId",
          "type": "bytes32"
        },
        {
          "indexed": true,
          "internalType": "bytes32",
          "name": "dataKey",
          "type": "bytes32"
        },
        {
          "indexed": false,
          "internalType": "bytes",
          "name": "dataValue",
          "type": "bytes"
        }
      ],
      "name": "TokenIdDataChanged",
      "type": "event"
    },
    {
      "anonymous": false,
      "inputs": [
        {
          "indexed": false,
          "internalType": "address",
          "name": "operator",
          "type": "address"
        },
        {
          "indexed": true,
          "internalType": "address",
          "name": "from",
          "type": "address"
        },
        {
          "indexed": true,
          "internalType": "address",
          "name": "to",
          "type": "address"
        },
        {
          "indexed": true,
          "internalType": "bytes32",
          "name": "tokenId",
          "type": "bytes32"
        },
        {
          "indexed": false,
          "internalType": "bool",
          "name": "force",
          "type": "bool"
        },
        {
          "indexed": false,
          "internalType": "bytes",
          "name": "data",
          "type": "bytes"
        }
      ],
      "name": "Transfer",
      "type": "event"
    },
    {
      "stateMutability": "payable",
      "type": "fallback"
    },
    {
      "inputs": [],
      "name": "MAX_SUPPLY",
      "outputs": [
        {
          "internalType": "uint256",
          "name": "",
          "type": "uint256"
        }
      ],
      "stateMutability": "view",
      "type": "function"
    },
    {
      "inputs": [
        {
          "internalType": "address",
          "name": "creatorAddress",
          "type": "address"
        }
      ],
      "name": "addCreator",
      "outputs": [],
      "stateMutability": "nonpayable",
      "type": "function"
    },
    {
      "inputs": [
        {
          "internalType": "address",
          "name": "operator",
          "type": "address"
        },
        {
          "internalType": "bytes32",
          "name": "tokenId",
          "type": "bytes32"
        },
        {
          "internalType": "bytes",
          "name": "operatorNotificationData",
          "type": "bytes"
        }
      ],
      "name": "authorizeOperator",
      "outputs": [],
      "stateMutability": "nonpayable",
      "type": "function"
    },
    {
      "inputs": [
        {
          "internalType": "address",
          "name": "tokenOwner",
          "type": "address"
        }
      ],
      "name": "balanceOf",
      "outputs": [
        {
          "internalType": "uint256",
          "name": "",
          "type": "uint256"
        }
      ],
      "stateMutability": "view",
      "type": "function"
    },
    {
      "inputs": [
        {
          "internalType": "bytes[]",
          "name": "data",
          "type": "bytes[]"
        }
      ],
      "name": "batchCalls",
      "outputs": [
        {
          "internalType": "bytes[]",
          "name": "results",
          "type": "bytes[]"
        }
      ],
      "stateMutability": "nonpayable",
      "type": "function"
    },
    {
      "inputs": [
        {
          "internalType": "address",
          "name": "recipient",
          "type": "address"
        },
        {
          "internalType": "uint256",
          "name": "amount",
          "type": "uint256"
        }
      ],
      "name": "batchMintTo",
      "outputs": [],
      "stateMutability": "nonpayable",
      "type": "function"
    },
    {
      "inputs": [],
      "name": "currentTokenId",
      "outputs": [
        {
          "internalType": "uint256",
          "name": "",
          "type": "uint256"
        }
      ],
      "stateMutability": "view",
      "type": "function"
    },
    {
      "inputs": [
        {
          "internalType": "bytes32",
          "name": "dataKey",
          "type": "bytes32"
        }
      ],
      "name": "getData",
      "outputs": [
        {
          "internalType": "bytes",
          "name": "dataValue",
          "type": "bytes"
        }
      ],
      "stateMutability": "view",
      "type": "function"
    },
    {
      "inputs": [
        {
          "internalType": "bytes32[]",
          "name": "dataKeys",
          "type": "bytes32[]"
        }
      ],
      "name": "getDataBatch",
      "outputs": [
        {
          "internalType": "bytes[]",
          "name": "dataValues",
          "type": "bytes[]"
        }
      ],
      "stateMutability": "view",
      "type": "function"
    },
    {
      "inputs": [
        {
          "internalType": "bytes32[]",
          "name": "tokenIds",
          "type": "bytes32[]"
        },
        {
          "internalType": "bytes32[]",
          "name": "dataKeys",
          "type": "bytes32[]"
        }
      ],
      "name": "getDataBatchForTokenIds",
      "outputs": [
        {
          "internalType": "bytes[]",
          "name": "dataValues",
          "type": "bytes[]"
        }
      ],
      "stateMutability": "view",
      "type": "function"
    },
    {
      "inputs": [
        {
          "internalType": "bytes32",
          "name": "tokenId",
          "type": "bytes32"
        },
        {
          "internalType": "bytes32",
          "name": "dataKey",
          "type": "bytes32"
        }
      ],
      "name": "getDataForTokenId",
      "outputs": [
        {
          "internalType": "bytes",
          "name": "dataValue",
          "type": "bytes"
        }
      ],
      "stateMutability": "view",
      "type": "function"
    },
    {
      "inputs": [
        {
          "internalType": "bytes32",
          "name": "tokenId",
          "type": "bytes32"
        }
      ],
      "name": "getOperatorsOf",
      "outputs": [
        {
          "internalType": "address[]",
          "name": "",
          "type": "address[]"
        }
      ],
      "stateMutability": "view",
      "type": "function"
    },
    {
      "inputs": [
        {
          "internalType": "address",
          "name": "operator",
          "type": "address"
        },
        {
          "internalType": "bytes32",
          "name": "tokenId",
          "type": "bytes32"
        }
      ],
      "name": "isOperatorFor",
      "outputs": [
        {
          "internalType": "bool",
          "name": "",
          "type": "bool"
        }
      ],
      "stateMutability": "view",
      "type": "function"
    },
    {
      "inputs": [
        {
          "internalType": "address",
          "name": "recipient",
          "type": "address"
        }
      ],
      "name": "mintTo",
      "outputs": [
        {
          "internalType": "bytes32",
          "name": "tokenId",
          "type": "bytes32"
        }
      ],
      "stateMutability": "nonpayable",
      "type": "function"
    },
    {
      "inputs": [],
      "name": "owner",
      "outputs": [
        {
          "internalType": "address",
          "name": "",
          "type": "address"
        }
      ],
      "stateMutability": "view",
      "type": "function"
    },
    {
      "inputs": [],
      "name": "renounceOwnership",
      "outputs": [],
      "stateMutability": "nonpayable",
      "type": "function"
    },
    {
      "inputs": [
        {
          "internalType": "address",
          "name": "operator",
          "type": "address"
        },
        {
          "internalType": "bytes32",
          "name": "tokenId",
          "type": "bytes32"
        },
        {
          "internalType": "bool",
          "name": "notify",
          "type": "bool"
        },
        {
          "internalType": "bytes",
          "name": "operatorNotificationData",
          "type": "bytes"
        }
      ],
      "name": "revokeOperator",
      "outputs": [],
      "stateMutability": "nonpayable",
      "type": "function"
    },
    {
      "inputs": [
        {
          "internalType": "bytes32",
          "name": "dataKey",
          "type": "bytes32"
        },
        {
          "internalType": "bytes",
          "name": "dataValue",
          "type": "bytes"
        }
      ],
      "name": "setData",
      "outputs": [],
      "stateMutability": "payable",
      "type": "function"
    },
    {
      "inputs": [
        {
          "internalType": "bytes32[]",
          "name": "dataKeys",
          "type": "bytes32[]"
        },
        {
          "internalType": "bytes[]",
          "name": "dataValues",
          "type": "bytes[]"
        }
      ],
      "name": "setDataBatch",
      "outputs": [],
      "stateMutability": "payable",
      "type": "function"
    },
    {
      "inputs": [
        {
          "internalType": "bytes32[]",
          "name": "tokenIds",
          "type": "bytes32[]"
        },
        {
          "internalType": "bytes32[]",
          "name": "dataKeys",
          "type": "bytes32[]"
        },
        {
          "internalType": "bytes[]",
          "name": "dataValues",
          "type": "bytes[]"
        }
      ],
      "name": "setDataBatchForTokenIds",
      "outputs": [],
      "stateMutability": "nonpayable",
      "type": "function"
    },
    {
      "inputs": [
        {
          "internalType": "bytes32",
          "name": "tokenId",
          "type": "bytes32"
        },
        {
          "internalType": "bytes32",
          "name": "dataKey",
          "type": "bytes32"
        },
        {
          "internalType": "bytes",
          "name": "dataValue",
          "type": "bytes"
        }
      ],
      "name": "setDataForTokenId",
      "outputs": [],
      "stateMutability": "nonpayable",
      "type": "function"
    },
    {
      "inputs": [
        {
          "internalType": "bytes",
          "name": "metadataURI",
          "type": "bytes"
        }
      ],
      "name": "setLSP4Metadata",
      "outputs": [],
      "stateMutability": "nonpayable",
      "type": "function"
    },
    {
      "inputs": [
        {
          "internalType": "bytes4",
          "name": "interfaceId",
          "type": "bytes4"
        }
      ],
      "name": "supportsInterface",
      "outputs": [
        {
          "internalType": "bool",
          "name": "",
          "type": "bool"
        }
      ],
      "stateMutability": "view",
      "type": "function"
    },
    {
      "inputs": [
        {
          "internalType": "address",
          "name": "tokenOwner",
          "type": "address"
        }
      ],
      "name": "tokenIdsOf",
      "outputs": [
        {
          "internalType": "bytes32[]",
          "name": "",
          "type": "bytes32[]"
        }
      ],
      "stateMutability": "view",
      "type": "function"
    },
    {
      "inputs": [
        {
          "internalType": "bytes32",
          "name": "tokenId",
          "type": "bytes32"
        }
      ],
      "name": "tokenOwnerOf",
      "outputs": [
        {
          "internalType": "address",
          "name": "",
          "type": "address"
        }
      ],
      "stateMutability": "view",
      "type": "function"
    },
    {
      "inputs": [],
      "name": "totalSupply",
      "outputs": [
        {
          "internalType": "uint256",
          "name": "",
          "type": "uint256"
        }
      ],
      "stateMutability": "view",
      "type": "function"
    },
    {
      "inputs": [
        {
          "internalType": "address",
          "name": "from",
          "type": "address"
        },
        {
          "internalType": "address",
          "name": "to",
          "type": "address"
        },
        {
          "internalType": "bytes32",
          "name": "tokenId",
          "type": "bytes32"
        },
        {
          "internalType": "bool",
          "name": "force",
          "type": "bool"
        },
        {
          "internalType": "bytes",
          "name": "data",
          "type": "bytes"
        }
      ],
      "name": "transfer",
      "outputs": [],
      "stateMutability": "nonpayable",
      "type": "function"
    },
    {
      "inputs": [
        {
          "internalType": "address[]",
          "name": "from",
          "type": "address[]"
        },
        {
          "internalType": "address[]",
          "name": "to",
          "type": "address[]"
        },
        {
          "internalType": "bytes32[]",
          "name": "tokenId",
          "type": "bytes32[]"
        },
        {
          "internalType": "bool[]",
          "name": "force",
          "type": "bool[]"
        },
        {
          "internalType": "bytes[]",
          "name": "data",
          "type": "bytes[]"
        }
      ],
      "name": "transferBatch",
      "outputs": [],
      "stateMutability": "nonpayable",
      "type": "function"
    },
    {
      "inputs": [
        {
          "internalType": "address",
          "name": "newOwner",
          "type": "address"
        }
      ],
      "name": "transferOwnership",
      "outputs": [],
      "stateMutability": "nonpayable",
      "type": "function"
    },
    {
      "stateMutability": "payable",
      "type": "receive"
    }
  ],
  "bytecode": "0x60806040523480156200001157600080fd5b506040516200355938038062003559833981016040819052620000349162000391565b604080518082018252600f81526e504f4b534f20437962657270756e6b60881b60208083019190915282518084019093526005835264504f4b534f60d81b9083015290826001600084848484816001600160a01b038116620000a9576040516306b620db60e21b815260040160405180910390fd5b620000b481620001f7565b506040805180820190915260048152632936598960e21b6020820152620000fd907feafec4d89fa9619884b60000a4d96624a38f7ac2d8d9a604ecf07c12c77e480c9062000265565b620001297fdeba1e292f8ba88238e10ab3c7f88bd4be4fac56cad5194b6ecceaf653468af18562000265565b620001557f2f0a68ab07768e01943a599e73362a0e17a63a72e94dd2e384d2c1d4db9327568462000265565b60408051602081018390526200019e917fe0261fa95db2eb3b5439bd033cda66d56b96f92f243a8228fd87550ed7bdfdb3910160408051601f1981840301815291905262000265565b50506040805160208101859052620001eb93507ff675e9361af1c1664c1868cfa3eb97672d6b1a513aa5b81dec34c9ee330e818d92500160408051601f19818403018152919052620002be565b50505050505062000584565b6000546001600160a01b038281169116146200026257600080546040516001600160a01b03808516939216917f8be0079c531659141344cd1fd0a4f28419497f9722a3daafe3b4186f6b6457e091a3600080546001600160a01b0319166001600160a01b0383161790555b50565b60008281526001602052604090206200027f828262000468565b50817fece574603820d07bc9b91f2a932baadf4628aabcb8afba49776529c14a6104b282604051620002b2919062000534565b60405180910390a25050565b620002ca8282620002ce565b5050565b7f2145e1d6d074577dc71ef54c3807742b41b053a9352ae6b491331509acb9750f82016200030f576040516385c169bd60e01b815260040160405180910390fd5b7fd0f59754f88971fe6bc5a6618cc9d5f1e859c58d16b22d1c7b2d3e2b246cd8aa82016200035057604051630eceab6760e31b815260040160405180910390fd5b7f1fd9e056a24d14c4abc642fcc325992a946906d0dbc57dd70278aaf12842024d82016200026557604051634ef6d7fb60e01b815260040160405180910390fd5b600060208284031215620003a457600080fd5b81516001600160a01b0381168114620003bc57600080fd5b9392505050565b634e487b7160e01b600052604160045260246000fd5b600181811c90821680620003ee57607f821691505b6020821081036200040f57634e487b7160e01b600052602260045260246000fd5b50919050565b601f8211156200046357600081815260208120601f850160051c810160208610156200043e5750805b601f850160051c820191505b818110156200045f578281556001016200044a565b5050505b505050565b81516001600160401b03811115620004845762000484620003c3565b6200049c81620004958454620003d9565b8462000415565b602080601f831160018114620004d45760008415620004bb5750858301515b600019600386901b1c1916600185901b1785556200045f565b600085815260208120601f198616915b828110156200050557888601518255948401946001909101908401620004e4565b5085821015620005245787850151600019600388901b60f8161c191681555b5050505050600190811b01905550565b600060208083528351808285015260005b81811015620005635785810183015185820160400152820162000545565b506000604082860101526040601f19601f8301168501019250505092915050565b612fc580620005946000396000f3fe6080604052600436106101c55760003560e01c806370a08231116100f75780639790242111610095578063db8c966311610064578063db8c9663146105ac578063dedff9c6146105cc578063e7e51070146105ec578063f2fde38b1461060c57610220565b8063979024211461052c578063a3b261f21461053f578063be9f0e6f1461056c578063d6c1407c1461058c57610220565b80637e87632c116100d15780637e87632c146104bb5780637f23690c146104db57806386a10ddd146104ee5780638da5cb5b1461050e57610220565b806370a0823114610466578063715018a614610486578063755edd171461049b57610220565b80632a3654a41161016457806349a6078d1161013e57806349a6078d146103d9578063511b69521461040657806354f6127f146104265780636963d4381461044657610220565b80632a3654a41461038357806332cb6b0c146103a35780633b9dce05146103b957610220565b806316e023b3116101a057806316e023b3146102dc57806318160ddd146103095780631d26fce61461031e578063217b22701461034b57610220565b80629a9b7b1461026157806301ffc9a71461028a578063055f5b64146102ba57610220565b3661022057346000036102075760405163e5099ee360e01b81526004016101fe9060208082526004908201526000604082015260600190565b60405180910390fd5b6040516330fa4a2160e11b815260040160405180910390fd5b6000366060600482101561024b57828260405163e5099ee360e01b81526004016101fe92919061222b565b610255838361062c565b80519350602001915050f35b34801561026d57600080fd5b5061027760075481565b6040519081526020015b60405180910390f35b34801561029657600080fd5b506102aa6102a536600461225a565b610722565b6040519015158152602001610281565b3480156102c657600080fd5b506102da6102d5366004612347565b610756565b005b3480156102e857600080fd5b506102fc6102f736600461237b565b61078b565b60405161028191906123ed565b34801561031557600080fd5b50600254610277565b34801561032a57600080fd5b5061033e610339366004612489565b61079e565b60405161028191906124ec565b34801561035757600080fd5b5061036b61036636600461254e565b610885565b6040516001600160a01b039091168152602001610281565b34801561038f57600080fd5b506102aa61039e366004612583565b6108be565b3480156103af57600080fd5b506102776101f481565b3480156103c557600080fd5b506102da6103d43660046125ad565b6108ca565b3480156103e557600080fd5b506103f96103f436600461254e565b610a6e565b60405161028191906125c8565b34801561041257600080fd5b506102da610421366004612625565b610a90565b34801561043257600080fd5b506102fc61044136600461254e565b610acd565b34801561045257600080fd5b5061033e61046136600461269d565b610ad8565b34801561047257600080fd5b506102776104813660046125ad565b610c07565b34801561049257600080fd5b506102da610c28565b3480156104a757600080fd5b506102776104b63660046125ad565b610c3c565b3480156104c757600080fd5b506102da6104d6366004612854565b610ce1565b6102da6104e9366004612918565b610dd0565b3480156104fa57600080fd5b506102da610509366004612954565b610e05565b34801561051a57600080fd5b506000546001600160a01b031661036b565b6102da61053a3660046129aa565b610f7f565b34801561054b57600080fd5b5061055f61055a3660046125ad565b61103f565b6040516102819190612a03565b34801561057857600080fd5b506102da610587366004612a3b565b611063565b34801561059857600080fd5b506102da6105a7366004612ab8565b61112e565b3480156105b857600080fd5b506102da6105c7366004612af1565b611141565b3480156105d857600080fd5b5061033e6105e7366004612b58565b611225565b3480156105f857600080fd5b506102da610607366004612583565b6112cf565b34801561061857600080fd5b506102da6106273660046125ad565b61138a565b606060006106456000356001600160e01b0319166113c2565b5090506001600160a01b03811661067d5760405163bb370b2b60e01b81526001600160e01b03196000351660048201526024016101fe565b600080826001600160a01b031634878733346040516020016106a29493929190612b8c565b60408051601f19818403018152908290526106bc91612bb7565b60006040518083038185875af1925050503d80600081146106f9576040519150601f19603f3d011682016040523d82523d6000602084013e6106fe565b606091505b5091509150811561071357925061071c915050565b80518060208301fd5b92915050565b60006001600160e01b03198216631d138b8360e11b1480610747575061074782611440565b8061071c575061071c82611465565b61075e61149c565b6107887f9afb95cacc9f95858ec44aa8c3b685511002e30ae54415823f406128b85b238e826114d8565b50565b60606107978383611522565b9392505050565b606081518351146107c2576040516317d38eff60e11b815260040160405180910390fd5b82516001600160401b038111156107db576107db612284565b60405190808252806020026020018201604052801561080e57816020015b60608152602001906001900390816107f95790505b50905060005b835181101561087e5761085984828151811061083257610832612bd3565b602002602001015184838151811061084c5761084c612bd3565b6020026020010151611522565b82828151811061086b5761086b612bd3565b6020908102919091010152600101610814565b5092915050565b6000818152600360205260408120546001600160a01b03168061071c57604051635747cd1b60e11b8152600481018490526024016101fe565b600061079783836115d0565b6108d261149c565b60006108fd7f114bd03b3a46d48759680d81ebb2b414fda7d030a7105a851867accf1c2352e761160d565b905060006020825110610911575060208101515b604080517f114bd03b3a46d48759680d81ebb2b414fda7d030a7105a851867accf1c2352e7602080830191909152818301849052825180830384018152606080840190945280519101209185901b6001600160601b031916608082015261098c9082906094015b6040516020818303038152906040526114d8565b6109fa7f114bd03b3a46d48759680d81ebb2b414fda7d030a7105a851867accf1c2352e76109bb846001612bff565b6109c6856001612bff565b604080516fffffffffffffffffffffffffffffffff19608094851b811660208301529290931b909116603083015201610978565b60405169036f42f57aecc15a72ed60b51b60208201526001600160601b0319606086901b16602a820152600090603e01604051602081830303815290604052610a4290612c12565b9050610a6781604051806040016040528060018152602001600160f81b8152506114d8565b5050505050565b6060610a79826116af565b600082815260056020526040902061071c906116e7565b610a9a33846115d0565b610ac057604051631294d2a960e01b8152600481018490523360248201526044016101fe565b610a6785858585856116f4565b606061071c8261160d565b6060816001600160401b03811115610af257610af2612284565b604051908082528060200260200182016040528015610b2557816020015b6060815260200190600190039081610b105790505b50905060005b8281101561087e5760008030868685818110610b4957610b49612bd3565b9050602002810190610b5b9190612c36565b604051610b69929190612c83565b600060405180830381855af49150503d8060008114610ba4576040519150601f19603f3d011682016040523d82523d6000602084013e610ba9565b606091505b509150915081610bdf57805115610bc35780518082602001fd5b60405163234eb81960e01b8152600481018490526024016101fe565b80848481518110610bf257610bf2612bd3565b60209081029190910101525050600101610b2b565b6001600160a01b038116600090815260046020526040812061071c906118d6565b610c3061149c565b610c3a60006118e0565b565b6000610c4661149c565b6101f460075410610ca35760405162461bcd60e51b815260206004820152602160248201527f504f4b534f4c535038507572653a206d617820737570706c79207265616368656044820152601960fa1b60648201526084016101fe565b60075460001b9050610cc7828260016040518060200160405280600081525061194e565b60078054906000610cd783612c93565b9190505550919050565b8451845181141580610cf4575083518114155b80610d00575082518114155b80610d0c575081518114155b15610d2a576040516393a8311960e01b815260040160405180910390fd5b60005b81811015610dc757610dbf878281518110610d4a57610d4a612bd3565b6020026020010151878381518110610d6457610d64612bd3565b6020026020010151878481518110610d7e57610d7e612bd3565b6020026020010151878581518110610d9857610d98612bd3565b6020026020010151878681518110610db257610db2612bd3565b6020026020010151610a90565b600101610d2d565b50505050505050565b610dd861149c565b3415610df75760405163f36ba73760e01b815260040160405180910390fd5b610e0182826114d8565b5050565b6000610e1083610885565b90506001600160a01b0381163314610e5357604051632d938f5160e11b81526001600160a01b0382166004820152602481018490523360448201526064016101fe565b6001600160a01b038416610e7a57604051639577b8b360e01b815260040160405180910390fd5b836001600160a01b0316816001600160a01b031603610eac576040516344fed6b160e11b815260040160405180910390fd5b6000838152600560205260408120610ec49086611abe565b905080610ef6576040516314ec4d6d60e31b81526001600160a01b0386166004820152602481018590526044016101fe565b83826001600160a01b0316866001600160a01b03167f1b1b58aa2ec0cec2228b2d37124556d41f5a1f7b12f089171f896cc23667121586604051610f3a91906123ed565b60405180910390a460003385600186604051602001610f5c9493929190612cac565b6040516020818303038152906040529050610f778682611ad3565b505050505050565b610f8761149c565b3415610fa65760405163f36ba73760e01b815260040160405180910390fd5b8051825114610fc857604051633bcc897960e01b815260040160405180910390fd5b8151600003610fea576040516397da5f9560e01b815260040160405180910390fd5b60005b825181101561103a5761103283828151811061100b5761100b612bd3565b602002602001015183838151811061102557611025612bd3565b60200260200101516114d8565b600101610fed565b505050565b6001600160a01b038116600090815260046020526040902060609061071c906116e7565b61106b61149c565b8151835114158061107e57508051825114155b1561109c576040516317d38eff60e11b815260040160405180910390fd5b82516000036110be576040516380c9830560e01b815260040160405180910390fd5b60005b8351811015611128576111208482815181106110df576110df612bd3565b60200260200101518483815181106110f9576110f9612bd3565b602002602001015184848151811061111357611113612bd3565b6020026020010151611afe565b6001016110c1565b50505050565b61113661149c565b61103a838383611afe565b600061114c84610885565b9050336001600160a01b0382161461119f576001600160a01b038516331461119f5760405163760b5acd60e01b81523360048201526001600160a01b0382166024820152604481018590526064016101fe565b6001600160a01b0385166111c657604051639577b8b360e01b815260040160405180910390fd5b846001600160a01b0316816001600160a01b0316036111f8576040516344fed6b160e11b815260040160405180910390fd5b6112058582868686611b60565b8215610a675760008185600085604051602001610f5c9493929190612cac565b606081516001600160401b0381111561124057611240612284565b60405190808252806020026020018201604052801561127357816020015b606081526020019060019003908161125e5790505b50905060005b82518110156112c9576112a483828151811061129757611297612bd3565b602002602001015161160d565b8282815181106112b6576112b6612bd3565b6020908102919091010152600101611279565b50919050565b6112d761149c565b6101f4816007546112e89190612bff565b11156113365760405162461bcd60e51b815260206004820181905260248201527f504f4b534f4c535038507572653a206e6f7420656e6f75676820737570706c7960448201526064016101fe565b60005b8181101561103a576113628360075460001b60016040518060200160405280600081525061194e565b6007805490600061137283612c93565b9190505550808061138290612c93565b915050611339565b61139261149c565b6001600160a01b0381166113b9576040516306b620db60e21b815260040160405180910390fd5b610788816118e0565b600080806113e7696773c5a04a6d4300884b60b11b6001600160e01b03198616611c00565b905060006113f48261160d565b905080516014141580156114085750805115155b1561142857806040516342bfe79f60e01b81526004016101fe91906123ed565b61143181612ce5565b60601c95600195509350505050565b60006001600160e01b0319821663a918fa6b60e01b148061071c575061071c82611c54565b6000806114786301ffc9a760e01b6113c2565b5090506001600160a01b0381166114925750600092915050565b6107978184611c89565b336114af6000546001600160a01b031690565b6001600160a01b031614610c3a5760405163bf1169c560e01b81523360048201526024016101fe565b7f098a16c9e50e3e99b3e797305c146898d294e5aec55a47e213cb3611ccf17e73820161151857604051631b32400560e11b815260040160405180910390fd5b610e018282611d12565b6000828152600660209081526040808320848452909152902080546060919061154a90612d1c565b80601f016020809104026020016040519081016040528092919081815260200182805461157690612d1c565b80156115c35780601f10611598576101008083540402835291602001916115c3565b820191906000526020600020905b8154815290600101906020018083116115a657829003601f168201915b5050505050905092915050565b60006115db82610885565b6001600160a01b0316836001600160a01b03161480610797575060008281526005602052604090206107979084611d1c565b600081815260016020526040902080546060919061162a90612d1c565b80601f016020809104026020016040519081016040528092919081815260200182805461165690612d1c565b80156116a35780601f10611678576101008083540402835291602001916116a3565b820191906000526020600020905b81548152906001019060200180831161168657829003601f168201915b50505050509050919050565b6000818152600360205260409020546001600160a01b031661078857604051635747cd1b60e11b8152600481018290526024016101fe565b6060600061079783611d3e565b60006116ff84610885565b9050856001600160a01b0316816001600160a01b03161461174d57604051632d938f5160e11b81526001600160a01b03808316600483015260248201869052871660448201526064016101fe565b6001600160a01b038516611774576040516324ecef4d60e01b815260040160405180910390fd5b600061177f85610885565b9050806001600160a01b0316826001600160a01b0316146117cd57604051635a9c31d360e01b8152600481018690526001600160a01b038084166024830152821660448201526064016101fe565b6117d78786611d99565b6001600160a01b03871660009081526004602052604090206117f99086611df1565b506001600160a01b038616600090815260046020526040902061181c9086611dfd565b506000858152600360205260409081902080546001600160a01b0319166001600160a01b0389811691821790925591518792918a16907fb333c813a7426a7a11e2b190cad52c44119421594b47f6f32ace6d8c7207b2bf906118839033908a908a90612d50565b60405180910390a4600033888888876040516020016118a6959493929190612d85565b60405160208183030381529060405290506118c18882611e09565b6118cc878683611e34565b5050505050505050565b600061071c825490565b6000546001600160a01b0382811691161461078857600080546040516001600160a01b03808516939216917f8be0079c531659141344cd1fd0a4f28419497f9722a3daafe3b4186f6b6457e091a3600080546001600160a01b0383166001600160a01b031990911617905550565b6001600160a01b038416611975576040516324ecef4d60e01b815260040160405180910390fd5b6000838152600360205260409020546001600160a01b0316156119ae576040516334c7b51160e01b8152600481018490526024016101fe565b6000838152600360205260409020546001600160a01b0316156119e7576040516334c7b51160e01b8152600481018490526024016101fe565b6002600081546119f690612c93565b909155506001600160a01b0384166000908152600460205260409020611a1c9084611dfd565b5060008381526003602052604080822080546001600160a01b0319166001600160a01b03881690811790915590518592907fb333c813a7426a7a11e2b190cad52c44119421594b47f6f32ace6d8c7207b2bf90611a7e90339088908890612d50565b60405180910390a46000336000868685604051602001611aa2959493929190612d85565b6040516020818303038152906040529050610a67858483611e34565b6000610797836001600160a01b038416611f3c565b610e01827f8a1c15a8799f71b547e08e2bcb2e85257e81b0a07eee2ce6712549eef1f0097083611f8b565b60008381526006602090815260408083208584529091529020611b218282612e06565b5081837fa6e4251f855f750545fe414f120db91c76b88def14d120969e5bb2d3f05debbb83604051611b5391906123ed565b60405180910390a3505050565b6000838152600560205260408120611b789087611fd8565b905080611baa576040516312a8c6a360e21b81526001600160a01b0387166004820152602481018590526044016101fe565b83856001600160a01b0316876001600160a01b03167fc78cd419d6136f9f1c1c6aec1d3fae098cffaf8bc86314a8f2685e32fe574e3c8686604051611bf0929190612ec5565b60405180910390a4505050505050565b604080516001600160b01b0319841660208201526000602a82018190526001600160601b03198416602c83015291829101604051602081830303815290604052905080611c4c90612c12565b949350505050565b60006001600160e01b031982166318a6a9a560e21b148061071c57506301ffc9a760e01b6001600160e01b031983161461071c565b604080516001600160e01b03198316602480830191909152825180830390910181526044909101909152602080820180516001600160e01b03166301ffc9a760e01b178152825160009392849283928392918391908a617530fa92503d91506000519050828015611cfb575060208210155b8015611d075750600081115b979650505050505050565b610e018282611fed565b6001600160a01b03811660009081526001830160205260408120541515610797565b6060816000018054806020026020016040519081016040528092919081815260200182805480156116a357602002820191906000526020600020905b815481526020019060010190808311611d7a5750505050509050919050565b600081815260056020526040812090611db1826118d6565b90506000805b82811015610f7757611dca846000612102565b9150611de9828787600060405180602001604052806000815250611b60565b600101611db7565b6000610797838361210e565b60006107978383611f3c565b610e01827fb23eae7e6d1564b295b4c3e3be402d9a2f0776c57bdf365903496f6fa481ab0083611f8b565b611e4583631aed5a8560e21b611c89565b15611edf57604051631aed5a8560e21b81526001600160a01b03841690636bb56a1490611e98907f0b084a55ebf70fd3c06fd755269dac2212c4d3f0f4d09079780bfa50c1b2984d908590600401612ee0565b6000604051808303816000875af1158015611eb7573d6000803e3d6000fd5b505050506040513d6000823e601f3d908101601f191682016040526111289190810190612ef9565b8161103a576001600160a01b0383163b15611f1857604051634349776d60e01b81526001600160a01b03841660048201526024016101fe565b604051630317313760e01b81526001600160a01b03841660048201526024016101fe565b6000818152600183016020526040812054611f835750815460018181018455600084815260208082209093018490558454848252828601909352604090209190915561071c565b50600061071c565b611fa56001600160a01b038416631aed5a8560e21b611c89565b1561103a57604051631aed5a8560e21b81526001600160a01b03841690636bb56a1490611e989085908590600401612ee0565b6000610797836001600160a01b03841661210e565b7f2145e1d6d074577dc71ef54c3807742b41b053a9352ae6b491331509acb9750f820161202d576040516385c169bd60e01b815260040160405180910390fd5b7fd0f59754f88971fe6bc5a6618cc9d5f1e859c58d16b22d1c7b2d3e2b246cd8aa820161206d57604051630eceab6760e31b815260040160405180910390fd5b7f1fd9e056a24d14c4abc642fcc325992a946906d0dbc57dd70278aaf12842024d82016120ad57604051634ef6d7fb60e01b815260040160405180910390fd5b60008281526001602052604090206120c58282612e06565b50817fece574603820d07bc9b91f2a932baadf4628aabcb8afba49776529c14a6104b2826040516120f691906123ed565b60405180910390a25050565b60006107978383612201565b600081815260018301602052604081205480156121f7576000612132600183612f66565b855490915060009061214690600190612f66565b90508181146121ab57600086600001828154811061216657612166612bd3565b906000526020600020015490508087600001848154811061218957612189612bd3565b6000918252602080832090910192909255918252600188019052604090208390555b85548690806121bc576121bc612f79565b60019003818190600052602060002001600090559055856001016000868152602001908152602001600020600090556001935050505061071c565b600091505061071c565b600082600001828154811061221857612218612bd3565b9060005260206000200154905092915050565b60208152816020820152818360408301376000818301604090810191909152601f909201601f19160101919050565b60006020828403121561226c57600080fd5b81356001600160e01b03198116811461079757600080fd5b634e487b7160e01b600052604160045260246000fd5b604051601f8201601f191681016001600160401b03811182821017156122c2576122c2612284565b604052919050565b60006001600160401b038211156122e3576122e3612284565b50601f01601f191660200190565b600082601f83011261230257600080fd5b8135612315612310826122ca565b61229a565b81815284602083860101111561232a57600080fd5b816020850160208301376000918101602001919091529392505050565b60006020828403121561235957600080fd5b81356001600160401b0381111561236f57600080fd5b611c4c848285016122f1565b6000806040838503121561238e57600080fd5b50508035926020909101359150565b60005b838110156123b85781810151838201526020016123a0565b50506000910152565b600081518084526123d981602086016020860161239d565b601f01601f19169290920160200192915050565b60208152600061079760208301846123c1565b60006001600160401b0382111561241957612419612284565b5060051b60200190565b600082601f83011261243457600080fd5b8135602061244461231083612400565b82815260059290921b8401810191818101908684111561246357600080fd5b8286015b8481101561247e5780358352918301918301612467565b509695505050505050565b6000806040838503121561249c57600080fd5b82356001600160401b03808211156124b357600080fd5b6124bf86838701612423565b935060208501359150808211156124d557600080fd5b506124e285828601612423565b9150509250929050565b6000602080830181845280855180835260408601915060408160051b870101925083870160005b8281101561254157603f1988860301845261252f8583516123c1565b94509285019290850190600101612513565b5092979650505050505050565b60006020828403121561256057600080fd5b5035919050565b80356001600160a01b038116811461257e57600080fd5b919050565b6000806040838503121561259657600080fd5b61259f83612567565b946020939093013593505050565b6000602082840312156125bf57600080fd5b61079782612567565b6020808252825182820181905260009190848201906040850190845b818110156126095783516001600160a01b0316835292840192918401916001016125e4565b50909695505050505050565b8035801515811461257e57600080fd5b600080600080600060a0868803121561263d57600080fd5b61264686612567565b945061265460208701612567565b93506040860135925061266960608701612615565b915060808601356001600160401b0381111561268457600080fd5b612690888289016122f1565b9150509295509295909350565b600080602083850312156126b057600080fd5b82356001600160401b03808211156126c757600080fd5b818501915085601f8301126126db57600080fd5b8135818111156126ea57600080fd5b8660208260051b85010111156126ff57600080fd5b60209290920196919550909350505050565b600082601f83011261272257600080fd5b8135602061273261231083612400565b82815260059290921b8401810191818101908684111561275157600080fd5b8286015b8481101561247e5761276681612567565b8352918301918301612755565b600082601f83011261278457600080fd5b8135602061279461231083612400565b82815260059290921b840181019181810190868411156127b357600080fd5b8286015b8481101561247e576127c881612615565b83529183019183016127b7565b600082601f8301126127e657600080fd5b813560206127f661231083612400565b82815260059290921b8401810191818101908684111561281557600080fd5b8286015b8481101561247e5780356001600160401b038111156128385760008081fd5b6128468986838b01016122f1565b845250918301918301612819565b600080600080600060a0868803121561286c57600080fd5b85356001600160401b038082111561288357600080fd5b61288f89838a01612711565b965060208801359150808211156128a557600080fd5b6128b189838a01612711565b955060408801359150808211156128c757600080fd5b6128d389838a01612423565b945060608801359150808211156128e957600080fd5b6128f589838a01612773565b9350608088013591508082111561290b57600080fd5b50612690888289016127d5565b6000806040838503121561292b57600080fd5b8235915060208301356001600160401b0381111561294857600080fd5b6124e2858286016122f1565b60008060006060848603121561296957600080fd5b61297284612567565b92506020840135915060408401356001600160401b0381111561299457600080fd5b6129a0868287016122f1565b9150509250925092565b600080604083850312156129bd57600080fd5b82356001600160401b03808211156129d457600080fd5b6129e086838701612423565b935060208501359150808211156129f657600080fd5b506124e2858286016127d5565b6020808252825182820181905260009190848201906040850190845b8181101561260957835183529284019291840191600101612a1f565b600080600060608486031215612a5057600080fd5b83356001600160401b0380821115612a6757600080fd5b612a7387838801612423565b94506020860135915080821115612a8957600080fd5b612a9587838801612423565b93506040860135915080821115612aab57600080fd5b506129a0868287016127d5565b600080600060608486031215612acd57600080fd5b833592506020840135915060408401356001600160401b0381111561299457600080fd5b60008060008060808587031215612b0757600080fd5b612b1085612567565b935060208501359250612b2560408601612615565b915060608501356001600160401b03811115612b4057600080fd5b612b4c878288016122f1565b91505092959194509250565b600060208284031215612b6a57600080fd5b81356001600160401b03811115612b8057600080fd5b611c4c84828501612423565b8385823760609290921b6001600160601b031916919092019081526014810191909152603401919050565b60008251612bc981846020870161239d565b9190910192915050565b634e487b7160e01b600052603260045260246000fd5b634e487b7160e01b600052601160045260246000fd5b8082018082111561071c5761071c612be9565b805160208083015191908110156112c95760001960209190910360031b1b16919050565b6000808335601e19843603018112612c4d57600080fd5b8301803591506001600160401b03821115612c6757600080fd5b602001915036819003821315612c7c57600080fd5b9250929050565b8183823760009101908152919050565b600060018201612ca557612ca5612be9565b5060010190565b60018060a01b03851681528360208201528215156040820152608060608201526000612cdb60808301846123c1565b9695505050505050565b805160208201516001600160601b03198082169291906014831015612d145780818460140360031b1b83161693505b505050919050565b600181811c90821680612d3057607f821691505b6020821081036112c957634e487b7160e01b600052602260045260246000fd5b6001600160a01b03841681528215156020820152606060408201819052600090612d7c908301846123c1565b95945050505050565b6001600160a01b0386811682528581166020830152841660408201526060810183905260a060808201819052600090611d07908301846123c1565b601f82111561103a57600081815260208120601f850160051c81016020861015612de75750805b601f850160051c820191505b81811015610f7757828155600101612df3565b81516001600160401b03811115612e1f57612e1f612284565b612e3381612e2d8454612d1c565b84612dc0565b602080601f831160018114612e685760008415612e505750858301515b600019600386901b1c1916600185901b178555610f77565b600085815260208120601f198616915b82811015612e9757888601518255948401946001909101908401612e78565b5085821015612eb55787850151600019600388901b60f8161c191681555b5050505050600190811b01905550565b8215158152604060208201526000611c4c60408301846123c1565b828152604060208201526000611c4c60408301846123c1565b600060208284031215612f0b57600080fd5b81516001600160401b03811115612f2157600080fd5b8201601f81018413612f3257600080fd5b8051612f40612310826122ca565b818152856020838501011115612f5557600080fd5b612d7c82602083016020860161239d565b8181038181111561071c5761071c612be9565b634e487b7160e01b600052603160045260246000fdfea26469706673582212200b29dc9f883ce21d646250ea2e060d75837a310cba80b855bb0becdd2738a93364736f6c63430008130033",
  "linkReferences": {},
  "deployedLinkReferences": {}
}