{
  "_format": "hh-sol-artifact-1",
  "contractName": "POKSOLSP8Pure",
  "sourceName": "contracts/POKSOLSP8Pure.sol",
  "abi": [
    {
      "inputs": [
        {
          "internalType": "address",
          "name": "owner",
          "type": "address"
        }
      ],
      "stateMutability": "nonpayable",
      "type": "constructor"
    },
    {
      "inputs": [],
      "name": "ERC725Y_DataKeysValuesEmptyArray",
      "type": "error"
    },
    {
      "inputs": [],
      "name": "ERC725Y_DataKeysValuesLengthMismatch",
      "type": "error"
    },
    {
      "inputs": [],
      "name": "ERC725Y_MsgValueDisallowed",
      "type": "error"
    },
    {
      "inputs": [
        {
          "internalType": "bytes",
          "name": "storedData",
          "type": "bytes"
        }
      ],
      "name": "InvalidExtensionAddress",
      "type": "error"
    },
    {
      "inputs": [
        {
          "internalType": "bytes",
          "name": "data",
          "type": "bytes"
        }
      ],
      "name": "InvalidFunctionSelector",
      "type": "error"
    },
    {
      "inputs": [],
      "name": "LSP4TokenNameNotEditable",
      "type": "error"
    },
    {
      "inputs": [],
      "name": "LSP4TokenSymbolNotEditable",
      "type": "error"
    },
    {
      "inputs": [],
      "name": "LSP4TokenTypeNotEditable",
      "type": "error"
    },
    {
      "inputs": [
        {
          "internalType": "uint256",
          "name": "callIndex",
          "type": "uint256"
        }
      ],
      "name": "LSP8BatchCallFailed",
      "type": "error"
    },
    {
      "inputs": [],
      "name": "LSP8CannotSendToAddressZero",
      "type": "error"
    },
    {
      "inputs": [],
      "name": "LSP8CannotUseAddressZeroAsOperator",
      "type": "error"
    },
    {
      "inputs": [],
      "name": "LSP8InvalidTransferBatch",
      "type": "error"
    },
    {
      "inputs": [
        {
          "internalType": "bytes32",
          "name": "tokenId",
          "type": "bytes32"
        }
      ],
      "name": "LSP8NonExistentTokenId",
      "type": "error"
    },
    {
      "inputs": [
        {
          "internalType": "address",
          "name": "operator",
          "type": "address"
        },
        {
          "internalType": "bytes32",
          "name": "tokenId",
          "type": "bytes32"
        }
      ],
      "name": "LSP8NonExistingOperator",
      "type": "error"
    },
    {
      "inputs": [
        {
          "internalType": "bytes32",
          "name": "tokenId",
          "type": "bytes32"
        },
        {
          "internalType": "address",
          "name": "caller",
          "type": "address"
        }
      ],
      "name": "LSP8NotTokenOperator",
      "type": "error"
    },
    {
      "inputs": [
        {
          "internalType": "address",
          "name": "tokenOwner",
          "type": "address"
        },
        {
          "internalType": "bytes32",
          "name": "tokenId",
          "type": "bytes32"
        },
        {
          "internalType": "address",
          "name": "caller",
          "type": "address"
        }
      ],
      "name": "LSP8NotTokenOwner",
      "type": "error"
    },
    {
      "inputs": [
        {
          "internalType": "address",
          "name": "tokenReceiver",
          "type": "address"
        }
      ],
      "name": "LSP8NotifyTokenReceiverContractMissingLSP1Interface",
      "type": "error"
    },
    {
      "inputs": [
        {
          "internalType": "address",
          "name": "tokenReceiver",
          "type": "address"
        }
      ],
      "name": "LSP8NotifyTokenReceiverIsEOA",
      "type": "error"
    },
    {
      "inputs": [
        {
          "internalType": "address",
          "name": "operator",
          "type": "address"
        },
        {
          "internalType": "bytes32",
          "name": "tokenId",
          "type": "bytes32"
        }
      ],
      "name": "LSP8OperatorAlreadyAuthorized",
      "type": "error"
    },
    {
      "inputs": [
        {
          "internalType": "address",
          "name": "caller",
          "type": "address"
        },
        {
          "internalType": "address",
          "name": "tokenOwner",
          "type": "address"
        },
        {
          "internalType": "bytes32",
          "name": "tokenId",
          "type": "bytes32"
        }
      ],
      "name": "LSP8RevokeOperatorNotAuthorized",
      "type": "error"
    },
    {
      "inputs": [],
      "name": "LSP8TokenContractCannotHoldValue",
      "type": "error"
    },
    {
      "inputs": [
        {
          "internalType": "bytes32",
          "name": "tokenId",
          "type": "bytes32"
        }
      ],
      "name": "LSP8TokenIdAlreadyMinted",
      "type": "error"
    },
    {
      "inputs": [],
      "name": "LSP8TokenIdFormatNotEditable",
      "type": "error"
    },
    {
      "inputs": [],
      "name": "LSP8TokenIdsDataEmptyArray",
      "type": "error"
    },
    {
      "inputs": [],
      "name": "LSP8TokenIdsDataLengthMismatch",
      "type": "error"
    },
    {
      "inputs": [],
      "name": "LSP8TokenOwnerCannotBeOperator",
      "type": "error"
    },
    {
      "inputs": [
        {
          "internalType": "bytes32",
          "name": "tokenId",
          "type": "bytes32"
        },
        {
          "internalType": "address",
          "name": "oldOwner",
          "type": "address"
        },
        {
          "internalType": "address",
          "name": "newOwner",
          "type": "address"
        }
      ],
      "name": "LSP8TokenOwnerChanged",
      "type": "error"
    },
    {
      "inputs": [
        {
          "internalType": "bytes4",
          "name": "functionSelector",
          "type": "bytes4"
        }
      ],
      "name": "NoExtensionFoundForFunctionSelector",
      "type": "error"
    },
    {
      "inputs": [
        {
          "internalType": "address",
          "name": "callerAddress",
          "type": "address"
        }
      ],
      "name": "OwnableCallerNotTheOwner",
      "type": "error"
    },
    {
      "inputs": [],
      "name": "OwnableCannotSetZeroAddressAsOwner",
      "type": "error"
    },
    {
      "anonymous": false,
      "inputs": [
        {
          "indexed": true,
          "internalType": "bytes32",
          "name": "dataKey",
          "type": "bytes32"
        },
        {
          "indexed": false,
          "internalType": "bytes",
          "name": "dataValue",
          "type": "bytes"
        }
      ],
      "name": "DataChanged",
      "type": "event"
    },
    {
      "anonymous": false,
      "inputs": [
        {
          "indexed": true,
          "internalType": "address",
          "name": "operator",
          "type": "address"
        },
        {
          "indexed": true,
          "internalType": "address",
          "name": "tokenOwner",
          "type": "address"
        },
        {
          "indexed": true,
          "internalType": "bytes32",
          "name": "tokenId",
          "type": "bytes32"
        },
        {
          "indexed": false,
          "internalType": "bytes",
          "name": "operatorNotificationData",
          "type": "bytes"
        }
      ],
      "name": "OperatorAuthorizationChanged",
      "type": "event"
    },
    {
      "anonymous": false,
      "inputs": [
        {
          "indexed": true,
          "internalType": "address",
          "name": "operator",
          "type": "address"
        },
        {
          "indexed": true,
          "internalType": "address",
          "name": "tokenOwner",
          "type": "address"
        },
        {
          "indexed": true,
          "internalType": "bytes32",
          "name": "tokenId",
          "type": "bytes32"
        },
        {
          "indexed": false,
          "internalType": "bool",
          "name": "notified",
          "type": "bool"
        },
        {
          "indexed": false,
          "internalType": "bytes",
          "name": "operatorNotificationData",
          "type": "bytes"
        }
      ],
      "name": "OperatorRevoked",
      "type": "event"
    },
    {
      "anonymous": false,
      "inputs": [
        {
          "indexed": true,
          "internalType": "address",
          "name": "previousOwner",
          "type": "address"
        },
        {
          "indexed": true,
          "internalType": "address",
          "name": "newOwner",
          "type": "address"
        }
      ],
      "name": "OwnershipTransferred",
      "type": "event"
    },
    {
      "anonymous": false,
      "inputs": [
        {
          "indexed": true,
          "internalType": "bytes32",
          "name": "tokenId",
          "type": "bytes32"
        },
        {
          "indexed": true,
          "internalType": "bytes32",
          "name": "dataKey",
          "type": "bytes32"
        },
        {
          "indexed": false,
          "internalType": "bytes",
          "name": "dataValue",
          "type": "bytes"
        }
      ],
      "name": "TokenIdDataChanged",
      "type": "event"
    },
    {
      "anonymous": false,
      "inputs": [
        {
          "indexed": false,
          "internalType": "address",
          "name": "operator",
          "type": "address"
        },
        {
          "indexed": true,
          "internalType": "address",
          "name": "from",
          "type": "address"
        },
        {
          "indexed": true,
          "internalType": "address",
          "name": "to",
          "type": "address"
        },
        {
          "indexed": true,
          "internalType": "bytes32",
          "name": "tokenId",
          "type": "bytes32"
        },
        {
          "indexed": false,
          "internalType": "bool",
          "name": "force",
          "type": "bool"
        },
        {
          "indexed": false,
          "internalType": "bytes",
          "name": "data",
          "type": "bytes"
        }
      ],
      "name": "Transfer",
      "type": "event"
    },
    {
      "stateMutability": "payable",
      "type": "fallback"
    },
    {
      "inputs": [],
      "name": "MAX_SUPPLY",
      "outputs": [
        {
          "internalType": "uint256",
          "name": "",
          "type": "uint256"
        }
      ],
      "stateMutability": "view",
      "type": "function"
    },
    {
      "inputs": [
        {
          "internalType": "address",
          "name": "creatorAddress",
          "type": "address"
        }
      ],
      "name": "addCreator",
      "outputs": [],
      "stateMutability": "nonpayable",
      "type": "function"
    },
    {
      "inputs": [
        {
          "internalType": "address",
          "name": "operator",
          "type": "address"
        },
        {
          "internalType": "bytes32",
          "name": "tokenId",
          "type": "bytes32"
        },
        {
          "internalType": "bytes",
          "name": "operatorNotificationData",
          "type": "bytes"
        }
      ],
      "name": "authorizeOperator",
      "outputs": [],
      "stateMutability": "nonpayable",
      "type": "function"
    },
    {
      "inputs": [
        {
          "internalType": "address",
          "name": "tokenOwner",
          "type": "address"
        }
      ],
      "name": "balanceOf",
      "outputs": [
        {
          "internalType": "uint256",
          "name": "",
          "type": "uint256"
        }
      ],
      "stateMutability": "view",
      "type": "function"
    },
    {
      "inputs": [
        {
          "internalType": "bytes[]",
          "name": "data",
          "type": "bytes[]"
        }
      ],
      "name": "batchCalls",
      "outputs": [
        {
          "internalType": "bytes[]",
          "name": "results",
          "type": "bytes[]"
        }
      ],
      "stateMutability": "nonpayable",
      "type": "function"
    },
    {
      "inputs": [
        {
          "internalType": "address",
          "name": "recipient",
          "type": "address"
        },
        {
          "internalType": "uint256",
          "name": "amount",
          "type": "uint256"
        }
      ],
      "name": "batchMintTo",
      "outputs": [],
      "stateMutability": "nonpayable",
      "type": "function"
    },
    {
      "inputs": [],
      "name": "currentTokenId",
      "outputs": [
        {
          "internalType": "uint256",
          "name": "",
          "type": "uint256"
        }
      ],
      "stateMutability": "view",
      "type": "function"
    },
    {
      "inputs": [
        {
          "internalType": "bytes32",
          "name": "dataKey",
          "type": "bytes32"
        }
      ],
      "name": "getData",
      "outputs": [
        {
          "internalType": "bytes",
          "name": "dataValue",
          "type": "bytes"
        }
      ],
      "stateMutability": "view",
      "type": "function"
    },
    {
      "inputs": [
        {
          "internalType": "bytes32[]",
          "name": "dataKeys",
          "type": "bytes32[]"
        }
      ],
      "name": "getDataBatch",
      "outputs": [
        {
          "internalType": "bytes[]",
          "name": "dataValues",
          "type": "bytes[]"
        }
      ],
      "stateMutability": "view",
      "type": "function"
    },
    {
      "inputs": [
        {
          "internalType": "bytes32[]",
          "name": "tokenIds",
          "type": "bytes32[]"
        },
        {
          "internalType": "bytes32[]",
          "name": "dataKeys",
          "type": "bytes32[]"
        }
      ],
      "name": "getDataBatchForTokenIds",
      "outputs": [
        {
          "internalType": "bytes[]",
          "name": "dataValues",
          "type": "bytes[]"
        }
      ],
      "stateMutability": "view",
      "type": "function"
    },
    {
      "inputs": [
        {
          "internalType": "bytes32",
          "name": "tokenId",
          "type": "bytes32"
        },
        {
          "internalType": "bytes32",
          "name": "dataKey",
          "type": "bytes32"
        }
      ],
      "name": "getDataForTokenId",
      "outputs": [
        {
          "internalType": "bytes",
          "name": "dataValue",
          "type": "bytes"
        }
      ],
      "stateMutability": "view",
      "type": "function"
    },
    {
      "inputs": [
        {
          "internalType": "bytes32",
          "name": "tokenId",
          "type": "bytes32"
        }
      ],
      "name": "getOperatorsOf",
      "outputs": [
        {
          "internalType": "address[]",
          "name": "",
          "type": "address[]"
        }
      ],
      "stateMutability": "view",
      "type": "function"
    },
    {
      "inputs": [],
      "name": "getTokenMetadataBaseURI",
      "outputs": [
        {
          "internalType": "bytes",
          "name": "",
          "type": "bytes"
        }
      ],
      "stateMutability": "view",
      "type": "function"
    },
    {
      "inputs": [
        {
          "internalType": "address",
          "name": "operator",
          "type": "address"
        },
        {
          "internalType": "bytes32",
          "name": "tokenId",
          "type": "bytes32"
        }
      ],
      "name": "isOperatorFor",
      "outputs": [
        {
          "internalType": "bool",
          "name": "",
          "type": "bool"
        }
      ],
      "stateMutability": "view",
      "type": "function"
    },
    {
      "inputs": [
        {
          "internalType": "address",
          "name": "recipient",
          "type": "address"
        }
      ],
      "name": "mintTo",
      "outputs": [
        {
          "internalType": "bytes32",
          "name": "tokenId",
          "type": "bytes32"
        }
      ],
      "stateMutability": "nonpayable",
      "type": "function"
    },
    {
      "inputs": [],
      "name": "owner",
      "outputs": [
        {
          "internalType": "address",
          "name": "",
          "type": "address"
        }
      ],
      "stateMutability": "view",
      "type": "function"
    },
    {
      "inputs": [],
      "name": "renounceOwnership",
      "outputs": [],
      "stateMutability": "nonpayable",
      "type": "function"
    },
    {
      "inputs": [
        {
          "internalType": "address",
          "name": "operator",
          "type": "address"
        },
        {
          "internalType": "bytes32",
          "name": "tokenId",
          "type": "bytes32"
        },
        {
          "internalType": "bool",
          "name": "notify",
          "type": "bool"
        },
        {
          "internalType": "bytes",
          "name": "operatorNotificationData",
          "type": "bytes"
        }
      ],
      "name": "revokeOperator",
      "outputs": [],
      "stateMutability": "nonpayable",
      "type": "function"
    },
    {
      "inputs": [
        {
          "internalType": "bytes32",
          "name": "dataKey",
          "type": "bytes32"
        },
        {
          "internalType": "bytes",
          "name": "dataValue",
          "type": "bytes"
        }
      ],
      "name": "setData",
      "outputs": [],
      "stateMutability": "payable",
      "type": "function"
    },
    {
      "inputs": [
        {
          "internalType": "bytes32[]",
          "name": "dataKeys",
          "type": "bytes32[]"
        },
        {
          "internalType": "bytes[]",
          "name": "dataValues",
          "type": "bytes[]"
        }
      ],
      "name": "setDataBatch",
      "outputs": [],
      "stateMutability": "payable",
      "type": "function"
    },
    {
      "inputs": [
        {
          "internalType": "bytes32[]",
          "name": "tokenIds",
          "type": "bytes32[]"
        },
        {
          "internalType": "bytes32[]",
          "name": "dataKeys",
          "type": "bytes32[]"
        },
        {
          "internalType": "bytes[]",
          "name": "dataValues",
          "type": "bytes[]"
        }
      ],
      "name": "setDataBatchForTokenIds",
      "outputs": [],
      "stateMutability": "nonpayable",
      "type": "function"
    },
    {
      "inputs": [
        {
          "internalType": "bytes32",
          "name": "tokenId",
          "type": "bytes32"
        },
        {
          "internalType": "bytes32",
          "name": "dataKey",
          "type": "bytes32"
        },
        {
          "internalType": "bytes",
          "name": "dataValue",
          "type": "bytes"
        }
      ],
      "name": "setDataForTokenId",
      "outputs": [],
      "stateMutability": "nonpayable",
      "type": "function"
    },
    {
      "inputs": [
        {
          "internalType": "bytes",
          "name": "metadataURI",
          "type": "bytes"
        }
      ],
      "name": "setLSP4Metadata",
      "outputs": [],
      "stateMutability": "nonpayable",
      "type": "function"
    },
    {
      "inputs": [
        {
          "internalType": "bytes",
          "name": "baseURI",
          "type": "bytes"
        }
      ],
      "name": "setTokenMetadataBaseURI",
      "outputs": [],
      "stateMutability": "nonpayable",
      "type": "function"
    },
    {
      "inputs": [
        {
          "internalType": "bytes4",
          "name": "interfaceId",
          "type": "bytes4"
        }
      ],
      "name": "supportsInterface",
      "outputs": [
        {
          "internalType": "bool",
          "name": "",
          "type": "bool"
        }
      ],
      "stateMutability": "view",
      "type": "function"
    },
    {
      "inputs": [
        {
          "internalType": "address",
          "name": "tokenOwner",
          "type": "address"
        }
      ],
      "name": "tokenIdsOf",
      "outputs": [
        {
          "internalType": "bytes32[]",
          "name": "",
          "type": "bytes32[]"
        }
      ],
      "stateMutability": "view",
      "type": "function"
    },
    {
      "inputs": [
        {
          "internalType": "bytes32",
          "name": "tokenId",
          "type": "bytes32"
        }
      ],
      "name": "tokenOwnerOf",
      "outputs": [
        {
          "internalType": "address",
          "name": "",
          "type": "address"
        }
      ],
      "stateMutability": "view",
      "type": "function"
    },
    {
      "inputs": [],
      "name": "totalSupply",
      "outputs": [
        {
          "internalType": "uint256",
          "name": "",
          "type": "uint256"
        }
      ],
      "stateMutability": "view",
      "type": "function"
    },
    {
      "inputs": [
        {
          "internalType": "address",
          "name": "from",
          "type": "address"
        },
        {
          "internalType": "address",
          "name": "to",
          "type": "address"
        },
        {
          "internalType": "bytes32",
          "name": "tokenId",
          "type": "bytes32"
        },
        {
          "internalType": "bool",
          "name": "force",
          "type": "bool"
        },
        {
          "internalType": "bytes",
          "name": "data",
          "type": "bytes"
        }
      ],
      "name": "transfer",
      "outputs": [],
      "stateMutability": "nonpayable",
      "type": "function"
    },
    {
      "inputs": [
        {
          "internalType": "address[]",
          "name": "from",
          "type": "address[]"
        },
        {
          "internalType": "address[]",
          "name": "to",
          "type": "address[]"
        },
        {
          "internalType": "bytes32[]",
          "name": "tokenId",
          "type": "bytes32[]"
        },
        {
          "internalType": "bool[]",
          "name": "force",
          "type": "bool[]"
        },
        {
          "internalType": "bytes[]",
          "name": "data",
          "type": "bytes[]"
        }
      ],
      "name": "transferBatch",
      "outputs": [],
      "stateMutability": "nonpayable",
      "type": "function"
    },
    {
      "inputs": [
        {
          "internalType": "address",
          "name": "newOwner",
          "type": "address"
        }
      ],
      "name": "transferOwnership",
      "outputs": [],
      "stateMutability": "nonpayable",
      "type": "function"
    },
    {
      "stateMutability": "payable",
      "type": "receive"
    }
  ],
  "bytecode": "0x60806040523480156200001157600080fd5b506040516200360638038062003606833981016040819052620000349162000391565b604080518082018252600f81526e504f4b534f20437962657270756e6b60881b60208083019190915282518084019093526005835264504f4b534f60d81b9083015290826001600084848484816001600160a01b038116620000a9576040516306b620db60e21b815260040160405180910390fd5b620000b481620001f7565b506040805180820190915260048152632936598960e21b6020820152620000fd907feafec4d89fa9619884b60000a4d96624a38f7ac2d8d9a604ecf07c12c77e480c9062000265565b620001297fdeba1e292f8ba88238e10ab3c7f88bd4be4fac56cad5194b6ecceaf653468af18562000265565b620001557f2f0a68ab07768e01943a599e73362a0e17a63a72e94dd2e384d2c1d4db9327568462000265565b60408051602081018390526200019e917fe0261fa95db2eb3b5439bd033cda66d56b96f92f243a8228fd87550ed7bdfdb3910160408051601f1981840301815291905262000265565b50506040805160208101859052620001eb93507ff675e9361af1c1664c1868cfa3eb97672d6b1a513aa5b81dec34c9ee330e818d92500160408051601f19818403018152919052620002be565b50505050505062000584565b6000546001600160a01b038281169116146200026257600080546040516001600160a01b03808516939216917f8be0079c531659141344cd1fd0a4f28419497f9722a3daafe3b4186f6b6457e091a3600080546001600160a01b0319166001600160a01b0383161790555b50565b60008281526001602052604090206200027f828262000468565b50817fece574603820d07bc9b91f2a932baadf4628aabcb8afba49776529c14a6104b282604051620002b2919062000534565b60405180910390a25050565b620002ca8282620002ce565b5050565b7f2145e1d6d074577dc71ef54c3807742b41b053a9352ae6b491331509acb9750f82016200030f576040516385c169bd60e01b815260040160405180910390fd5b7fd0f59754f88971fe6bc5a6618cc9d5f1e859c58d16b22d1c7b2d3e2b246cd8aa82016200035057604051630eceab6760e31b815260040160405180910390fd5b7f1fd9e056a24d14c4abc642fcc325992a946906d0dbc57dd70278aaf12842024d82016200026557604051634ef6d7fb60e01b815260040160405180910390fd5b600060208284031215620003a457600080fd5b81516001600160a01b0381168114620003bc57600080fd5b9392505050565b634e487b7160e01b600052604160045260246000fd5b600181811c90821680620003ee57607f821691505b6020821081036200040f57634e487b7160e01b600052602260045260246000fd5b50919050565b601f8211156200046357600081815260208120601f850160051c810160208610156200043e5750805b601f850160051c820191505b818110156200045f578281556001016200044a565b5050505b505050565b81516001600160401b03811115620004845762000484620003c3565b6200049c81620004958454620003d9565b8462000415565b602080601f831160018114620004d45760008415620004bb5750858301515b600019600386901b1c1916600185901b1785556200045f565b600085815260208120601f198616915b828110156200050557888601518255948401946001909101908401620004e4565b5085821015620005245787850151600019600388901b60f8161c191681555b5050505050600190811b01905550565b600060208083528351808285015260005b81811015620005635785810183015185820160400152820162000545565b506000604082860101526040601f19601f8301168501019250505092915050565b61307280620005946000396000f3fe6080604052600436106101db5760003560e01c806370a0823111610102578063a3b261f211610095578063db8c966311610064578063db8c9663146105f7578063dedff9c614610617578063e7e5107014610637578063f2fde38b1461065757610236565b8063a3b261f21461056a578063be9f0e6f14610597578063d6c1407c146105b7578063d7529a99146105d757610236565b80637f23690c116100d15780637f23690c1461050657806386a10ddd146105195780638da5cb5b14610539578063979024211461055757610236565b806370a0823114610491578063715018a6146104b1578063755edd17146104c65780637e87632c146104e657610236565b8063217b22701161017a57806349a6078d1161014957806349a6078d14610404578063511b69521461043157806354f6127f146104515780636963d4381461047157610236565b8063217b2270146103765780632a3654a4146103ae57806332cb6b0c146103ce5780633b9dce05146103e457610236565b8063055f5b64116101b6578063055f5b64146102f257806316e023b31461031457806318160ddd146103345780631d26fce61461034957610236565b80629a9b7b1461027757806301ffc9a7146102a057806304b90591146102d057610236565b36610236573460000361021d5760405163e5099ee360e01b81526004016102149060208082526004908201526000604082015260600190565b60405180910390fd5b6040516330fa4a2160e11b815260040160405180910390fd5b6000366060600482101561026157828260405163e5099ee360e01b81526004016102149291906122d8565b61026b8383610677565b80519350602001915050f35b34801561028357600080fd5b5061028d60075481565b6040519081526020015b60405180910390f35b3480156102ac57600080fd5b506102c06102bb366004612307565b61076d565b6040519015158152602001610297565b3480156102dc57600080fd5b506102e56107a1565b6040516102979190612381565b3480156102fe57600080fd5b5061031261030d366004612457565b6107d1565b005b34801561032057600080fd5b506102e561032f36600461248b565b610806565b34801561034057600080fd5b5060025461028d565b34801561035557600080fd5b50610369610364366004612536565b610819565b6040516102979190612599565b34801561038257600080fd5b506103966103913660046125fb565b610900565b6040516001600160a01b039091168152602001610297565b3480156103ba57600080fd5b506102c06103c9366004612630565b610939565b3480156103da57600080fd5b5061028d6101f481565b3480156103f057600080fd5b506103126103ff36600461265a565b610945565b34801561041057600080fd5b5061042461041f3660046125fb565b610ae9565b6040516102979190612675565b34801561043d57600080fd5b5061031261044c3660046126d2565b610b0b565b34801561045d57600080fd5b506102e561046c3660046125fb565b610b48565b34801561047d57600080fd5b5061036961048c36600461274a565b610b53565b34801561049d57600080fd5b5061028d6104ac36600461265a565b610c82565b3480156104bd57600080fd5b50610312610ca3565b3480156104d257600080fd5b5061028d6104e136600461265a565b610cb7565b3480156104f257600080fd5b50610312610501366004612901565b610d5c565b6103126105143660046129c5565b610e4b565b34801561052557600080fd5b50610312610534366004612a01565b610e80565b34801561054557600080fd5b506000546001600160a01b0316610396565b610312610565366004612a57565b610ffa565b34801561057657600080fd5b5061058a61058536600461265a565b6110ba565b6040516102979190612ab0565b3480156105a357600080fd5b506103126105b2366004612ae8565b6110de565b3480156105c357600080fd5b506103126105d2366004612b65565b6111a9565b3480156105e357600080fd5b506103126105f2366004612457565b6111bc565b34801561060357600080fd5b50610312610612366004612b9e565b6111ee565b34801561062357600080fd5b50610369610632366004612c05565b6112d2565b34801561064357600080fd5b50610312610652366004612630565b61137c565b34801561066357600080fd5b5061031261067236600461265a565b611437565b606060006106906000356001600160e01b03191661146f565b5090506001600160a01b0381166106c85760405163bb370b2b60e01b81526001600160e01b0319600035166004820152602401610214565b600080826001600160a01b031634878733346040516020016106ed9493929190612c39565b60408051601f198184030181529082905261070791612c64565b60006040518083038185875af1925050503d8060008114610744576040519150601f19603f3d011682016040523d82523d6000602084013e610749565b606091505b5091509150811561075e579250610767915050565b80518060208301fd5b92915050565b60006001600160e01b03198216631d138b8360e11b14806107925750610792826114ed565b80610767575061076782611512565b60606107cc7f1a7628600c3bac7101f53697f48df381ddc36b9015e7d7c9c5633d1252aa2843611549565b905090565b6107d96115eb565b6108037f9afb95cacc9f95858ec44aa8c3b685511002e30ae54415823f406128b85b238e82611627565b50565b60606108128383611671565b9392505050565b6060815183511461083d576040516317d38eff60e11b815260040160405180910390fd5b82516001600160401b0381111561085657610856612394565b60405190808252806020026020018201604052801561088957816020015b60608152602001906001900390816108745790505b50905060005b83518110156108f9576108d48482815181106108ad576108ad612c80565b60200260200101518483815181106108c7576108c7612c80565b6020026020010151611671565b8282815181106108e6576108e6612c80565b602090810291909101015260010161088f565b5092915050565b6000818152600360205260408120546001600160a01b03168061076757604051635747cd1b60e11b815260048101849052602401610214565b6000610812838361171f565b61094d6115eb565b60006109787f114bd03b3a46d48759680d81ebb2b414fda7d030a7105a851867accf1c2352e7611549565b90506000602082511061098c575060208101515b604080517f114bd03b3a46d48759680d81ebb2b414fda7d030a7105a851867accf1c2352e7602080830191909152818301849052825180830384018152606080840190945280519101209185901b6001600160601b0319166080820152610a079082906094015b604051602081830303815290604052611627565b610a757f114bd03b3a46d48759680d81ebb2b414fda7d030a7105a851867accf1c2352e7610a36846001612cac565b610a41856001612cac565b604080516fffffffffffffffffffffffffffffffff19608094851b811660208301529290931b9091166030830152016109f3565b60405169036f42f57aecc15a72ed60b51b60208201526001600160601b0319606086901b16602a820152600090603e01604051602081830303815290604052610abd90612cbf565b9050610ae281604051806040016040528060018152602001600160f81b815250611627565b5050505050565b6060610af48261175c565b600082815260056020526040902061076790611794565b610b15338461171f565b610b3b57604051631294d2a960e01b815260048101849052336024820152604401610214565b610ae285858585856117a1565b606061076782611549565b6060816001600160401b03811115610b6d57610b6d612394565b604051908082528060200260200182016040528015610ba057816020015b6060815260200190600190039081610b8b5790505b50905060005b828110156108f95760008030868685818110610bc457610bc4612c80565b9050602002810190610bd69190612ce3565b604051610be4929190612d30565b600060405180830381855af49150503d8060008114610c1f576040519150601f19603f3d011682016040523d82523d6000602084013e610c24565b606091505b509150915081610c5a57805115610c3e5780518082602001fd5b60405163234eb81960e01b815260048101849052602401610214565b80848481518110610c6d57610c6d612c80565b60209081029190910101525050600101610ba6565b6001600160a01b038116600090815260046020526040812061076790611983565b610cab6115eb565b610cb5600061198d565b565b6000610cc16115eb565b6101f460075410610d1e5760405162461bcd60e51b815260206004820152602160248201527f504f4b534f4c535038507572653a206d617820737570706c79207265616368656044820152601960fa1b6064820152608401610214565b60075460001b9050610d4282826001604051806020016040528060008152506119fb565b60078054906000610d5283612d40565b9190505550919050565b8451845181141580610d6f575083518114155b80610d7b575082518114155b80610d87575081518114155b15610da5576040516393a8311960e01b815260040160405180910390fd5b60005b81811015610e4257610e3a878281518110610dc557610dc5612c80565b6020026020010151878381518110610ddf57610ddf612c80565b6020026020010151878481518110610df957610df9612c80565b6020026020010151878581518110610e1357610e13612c80565b6020026020010151878681518110610e2d57610e2d612c80565b6020026020010151610b0b565b600101610da8565b50505050505050565b610e536115eb565b3415610e725760405163f36ba73760e01b815260040160405180910390fd5b610e7c8282611627565b5050565b6000610e8b83610900565b90506001600160a01b0381163314610ece57604051632d938f5160e11b81526001600160a01b038216600482015260248101849052336044820152606401610214565b6001600160a01b038416610ef557604051639577b8b360e01b815260040160405180910390fd5b836001600160a01b0316816001600160a01b031603610f27576040516344fed6b160e11b815260040160405180910390fd5b6000838152600560205260408120610f3f9086611b6b565b905080610f71576040516314ec4d6d60e31b81526001600160a01b038616600482015260248101859052604401610214565b83826001600160a01b0316866001600160a01b03167f1b1b58aa2ec0cec2228b2d37124556d41f5a1f7b12f089171f896cc23667121586604051610fb59190612381565b60405180910390a460003385600186604051602001610fd79493929190612d59565b6040516020818303038152906040529050610ff28682611b80565b505050505050565b6110026115eb565b34156110215760405163f36ba73760e01b815260040160405180910390fd5b805182511461104357604051633bcc897960e01b815260040160405180910390fd5b8151600003611065576040516397da5f9560e01b815260040160405180910390fd5b60005b82518110156110b5576110ad83828151811061108657611086612c80565b60200260200101518383815181106110a0576110a0612c80565b6020026020010151611627565b600101611068565b505050565b6001600160a01b038116600090815260046020526040902060609061076790611794565b6110e66115eb565b815183511415806110f957508051825114155b15611117576040516317d38eff60e11b815260040160405180910390fd5b8251600003611139576040516380c9830560e01b815260040160405180910390fd5b60005b83518110156111a35761119b84828151811061115a5761115a612c80565b602002602001015184838151811061117457611174612c80565b602002602001015184848151811061118e5761118e612c80565b6020026020010151611bab565b60010161113c565b50505050565b6111b16115eb565b6110b5838383611bab565b6111c46115eb565b6108037f1a7628600c3bac7101f53697f48df381ddc36b9015e7d7c9c5633d1252aa284382611627565b60006111f984610900565b9050336001600160a01b0382161461124c576001600160a01b038516331461124c5760405163760b5acd60e01b81523360048201526001600160a01b038216602482015260448101859052606401610214565b6001600160a01b03851661127357604051639577b8b360e01b815260040160405180910390fd5b846001600160a01b0316816001600160a01b0316036112a5576040516344fed6b160e11b815260040160405180910390fd5b6112b28582868686611c0d565b8215610ae25760008185600085604051602001610fd79493929190612d59565b606081516001600160401b038111156112ed576112ed612394565b60405190808252806020026020018201604052801561132057816020015b606081526020019060019003908161130b5790505b50905060005b82518110156113765761135183828151811061134457611344612c80565b6020026020010151611549565b82828151811061136357611363612c80565b6020908102919091010152600101611326565b50919050565b6113846115eb565b6101f4816007546113959190612cac565b11156113e35760405162461bcd60e51b815260206004820181905260248201527f504f4b534f4c535038507572653a206e6f7420656e6f75676820737570706c796044820152606401610214565b60005b818110156110b55761140f8360075460001b6001604051806020016040528060008152506119fb565b6007805490600061141f83612d40565b9190505550808061142f90612d40565b9150506113e6565b61143f6115eb565b6001600160a01b038116611466576040516306b620db60e21b815260040160405180910390fd5b6108038161198d565b60008080611494696773c5a04a6d4300884b60b11b6001600160e01b03198616611cad565b905060006114a182611549565b905080516014141580156114b55750805115155b156114d557806040516342bfe79f60e01b81526004016102149190612381565b6114de81612d92565b60601c95600195509350505050565b60006001600160e01b0319821663a918fa6b60e01b1480610767575061076782611d01565b6000806115256301ffc9a760e01b61146f565b5090506001600160a01b03811661153f5750600092915050565b6108128184611d36565b600081815260016020526040902080546060919061156690612dc9565b80601f016020809104026020016040519081016040528092919081815260200182805461159290612dc9565b80156115df5780601f106115b4576101008083540402835291602001916115df565b820191906000526020600020905b8154815290600101906020018083116115c257829003601f168201915b50505050509050919050565b336115fe6000546001600160a01b031690565b6001600160a01b031614610cb55760405163bf1169c560e01b8152336004820152602401610214565b7f098a16c9e50e3e99b3e797305c146898d294e5aec55a47e213cb3611ccf17e73820161166757604051631b32400560e11b815260040160405180910390fd5b610e7c8282611dbf565b6000828152600660209081526040808320848452909152902080546060919061169990612dc9565b80601f01602080910402602001604051908101604052809291908181526020018280546116c590612dc9565b80156117125780601f106116e757610100808354040283529160200191611712565b820191906000526020600020905b8154815290600101906020018083116116f557829003601f168201915b5050505050905092915050565b600061172a82610900565b6001600160a01b0316836001600160a01b03161480610812575060008281526005602052604090206108129084611dc9565b6000818152600360205260409020546001600160a01b031661080357604051635747cd1b60e11b815260048101829052602401610214565b6060600061081283611deb565b60006117ac84610900565b9050856001600160a01b0316816001600160a01b0316146117fa57604051632d938f5160e11b81526001600160a01b0380831660048301526024820186905287166044820152606401610214565b6001600160a01b038516611821576040516324ecef4d60e01b815260040160405180910390fd5b600061182c85610900565b9050806001600160a01b0316826001600160a01b03161461187a57604051635a9c31d360e01b8152600481018690526001600160a01b03808416602483015282166044820152606401610214565b6118848786611e46565b6001600160a01b03871660009081526004602052604090206118a69086611e9e565b506001600160a01b03861660009081526004602052604090206118c99086611eaa565b506000858152600360205260409081902080546001600160a01b0319166001600160a01b0389811691821790925591518792918a16907fb333c813a7426a7a11e2b190cad52c44119421594b47f6f32ace6d8c7207b2bf906119309033908a908a90612dfd565b60405180910390a460003388888887604051602001611953959493929190612e32565b604051602081830303815290604052905061196e8882611eb6565b611979878683611ee1565b5050505050505050565b6000610767825490565b6000546001600160a01b0382811691161461080357600080546040516001600160a01b03808516939216917f8be0079c531659141344cd1fd0a4f28419497f9722a3daafe3b4186f6b6457e091a3600080546001600160a01b0383166001600160a01b031990911617905550565b6001600160a01b038416611a22576040516324ecef4d60e01b815260040160405180910390fd5b6000838152600360205260409020546001600160a01b031615611a5b576040516334c7b51160e01b815260048101849052602401610214565b6000838152600360205260409020546001600160a01b031615611a94576040516334c7b51160e01b815260048101849052602401610214565b600260008154611aa390612d40565b909155506001600160a01b0384166000908152600460205260409020611ac99084611eaa565b5060008381526003602052604080822080546001600160a01b0319166001600160a01b03881690811790915590518592907fb333c813a7426a7a11e2b190cad52c44119421594b47f6f32ace6d8c7207b2bf90611b2b90339088908890612dfd565b60405180910390a46000336000868685604051602001611b4f959493929190612e32565b6040516020818303038152906040529050610ae2858483611ee1565b6000610812836001600160a01b038416611fe9565b610e7c827f8a1c15a8799f71b547e08e2bcb2e85257e81b0a07eee2ce6712549eef1f0097083612038565b60008381526006602090815260408083208584529091529020611bce8282612eb3565b5081837fa6e4251f855f750545fe414f120db91c76b88def14d120969e5bb2d3f05debbb83604051611c009190612381565b60405180910390a3505050565b6000838152600560205260408120611c259087612085565b905080611c57576040516312a8c6a360e21b81526001600160a01b038716600482015260248101859052604401610214565b83856001600160a01b0316876001600160a01b03167fc78cd419d6136f9f1c1c6aec1d3fae098cffaf8bc86314a8f2685e32fe574e3c8686604051611c9d929190612f72565b60405180910390a4505050505050565b604080516001600160b01b0319841660208201526000602a82018190526001600160601b03198416602c83015291829101604051602081830303815290604052905080611cf990612cbf565b949350505050565b60006001600160e01b031982166318a6a9a560e21b148061076757506301ffc9a760e01b6001600160e01b0319831614610767565b604080516001600160e01b03198316602480830191909152825180830390910181526044909101909152602080820180516001600160e01b03166301ffc9a760e01b178152825160009392849283928392918391908a617530fa92503d91506000519050828015611da8575060208210155b8015611db45750600081115b979650505050505050565b610e7c828261209a565b6001600160a01b03811660009081526001830160205260408120541515610812565b6060816000018054806020026020016040519081016040528092919081815260200182805480156115df57602002820191906000526020600020905b815481526020019060010190808311611e275750505050509050919050565b600081815260056020526040812090611e5e82611983565b90506000805b82811015610ff257611e778460006121af565b9150611e96828787600060405180602001604052806000815250611c0d565b600101611e64565b600061081283836121bb565b60006108128383611fe9565b610e7c827fb23eae7e6d1564b295b4c3e3be402d9a2f0776c57bdf365903496f6fa481ab0083612038565b611ef283631aed5a8560e21b611d36565b15611f8c57604051631aed5a8560e21b81526001600160a01b03841690636bb56a1490611f45907f0b084a55ebf70fd3c06fd755269dac2212c4d3f0f4d09079780bfa50c1b2984d908590600401612f8d565b6000604051808303816000875af1158015611f64573d6000803e3d6000fd5b505050506040513d6000823e601f3d908101601f191682016040526111a39190810190612fa6565b816110b5576001600160a01b0383163b15611fc557604051634349776d60e01b81526001600160a01b0384166004820152602401610214565b604051630317313760e01b81526001600160a01b0384166004820152602401610214565b600081815260018301602052604081205461203057508154600181810184556000848152602080822090930184905584548482528286019093526040902091909155610767565b506000610767565b6120526001600160a01b038416631aed5a8560e21b611d36565b156110b557604051631aed5a8560e21b81526001600160a01b03841690636bb56a1490611f459085908590600401612f8d565b6000610812836001600160a01b0384166121bb565b7f2145e1d6d074577dc71ef54c3807742b41b053a9352ae6b491331509acb9750f82016120da576040516385c169bd60e01b815260040160405180910390fd5b7fd0f59754f88971fe6bc5a6618cc9d5f1e859c58d16b22d1c7b2d3e2b246cd8aa820161211a57604051630eceab6760e31b815260040160405180910390fd5b7f1fd9e056a24d14c4abc642fcc325992a946906d0dbc57dd70278aaf12842024d820161215a57604051634ef6d7fb60e01b815260040160405180910390fd5b60008281526001602052604090206121728282612eb3565b50817fece574603820d07bc9b91f2a932baadf4628aabcb8afba49776529c14a6104b2826040516121a39190612381565b60405180910390a25050565b600061081283836122ae565b600081815260018301602052604081205480156122a45760006121df600183613013565b85549091506000906121f390600190613013565b905081811461225857600086600001828154811061221357612213612c80565b906000526020600020015490508087600001848154811061223657612236612c80565b6000918252602080832090910192909255918252600188019052604090208390555b855486908061226957612269613026565b600190038181906000526020600020016000905590558560010160008681526020019081526020016000206000905560019350505050610767565b6000915050610767565b60008260000182815481106122c5576122c5612c80565b9060005260206000200154905092915050565b60208152816020820152818360408301376000818301604090810191909152601f909201601f19160101919050565b60006020828403121561231957600080fd5b81356001600160e01b03198116811461081257600080fd5b60005b8381101561234c578181015183820152602001612334565b50506000910152565b6000815180845261236d816020860160208601612331565b601f01601f19169290920160200192915050565b6020815260006108126020830184612355565b634e487b7160e01b600052604160045260246000fd5b604051601f8201601f191681016001600160401b03811182821017156123d2576123d2612394565b604052919050565b60006001600160401b038211156123f3576123f3612394565b50601f01601f191660200190565b600082601f83011261241257600080fd5b8135612425612420826123da565b6123aa565b81815284602083860101111561243a57600080fd5b816020850160208301376000918101602001919091529392505050565b60006020828403121561246957600080fd5b81356001600160401b0381111561247f57600080fd5b611cf984828501612401565b6000806040838503121561249e57600080fd5b50508035926020909101359150565b60006001600160401b038211156124c6576124c6612394565b5060051b60200190565b600082601f8301126124e157600080fd5b813560206124f1612420836124ad565b82815260059290921b8401810191818101908684111561251057600080fd5b8286015b8481101561252b5780358352918301918301612514565b509695505050505050565b6000806040838503121561254957600080fd5b82356001600160401b038082111561256057600080fd5b61256c868387016124d0565b9350602085013591508082111561258257600080fd5b5061258f858286016124d0565b9150509250929050565b6000602080830181845280855180835260408601915060408160051b870101925083870160005b828110156125ee57603f198886030184526125dc858351612355565b945092850192908501906001016125c0565b5092979650505050505050565b60006020828403121561260d57600080fd5b5035919050565b80356001600160a01b038116811461262b57600080fd5b919050565b6000806040838503121561264357600080fd5b61264c83612614565b946020939093013593505050565b60006020828403121561266c57600080fd5b61081282612614565b6020808252825182820181905260009190848201906040850190845b818110156126b65783516001600160a01b031683529284019291840191600101612691565b50909695505050505050565b8035801515811461262b57600080fd5b600080600080600060a086880312156126ea57600080fd5b6126f386612614565b945061270160208701612614565b935060408601359250612716606087016126c2565b915060808601356001600160401b0381111561273157600080fd5b61273d88828901612401565b9150509295509295909350565b6000806020838503121561275d57600080fd5b82356001600160401b038082111561277457600080fd5b818501915085601f83011261278857600080fd5b81358181111561279757600080fd5b8660208260051b85010111156127ac57600080fd5b60209290920196919550909350505050565b600082601f8301126127cf57600080fd5b813560206127df612420836124ad565b82815260059290921b840181019181810190868411156127fe57600080fd5b8286015b8481101561252b5761281381612614565b8352918301918301612802565b600082601f83011261283157600080fd5b81356020612841612420836124ad565b82815260059290921b8401810191818101908684111561286057600080fd5b8286015b8481101561252b57612875816126c2565b8352918301918301612864565b600082601f83011261289357600080fd5b813560206128a3612420836124ad565b82815260059290921b840181019181810190868411156128c257600080fd5b8286015b8481101561252b5780356001600160401b038111156128e55760008081fd5b6128f38986838b0101612401565b8452509183019183016128c6565b600080600080600060a0868803121561291957600080fd5b85356001600160401b038082111561293057600080fd5b61293c89838a016127be565b9650602088013591508082111561295257600080fd5b61295e89838a016127be565b9550604088013591508082111561297457600080fd5b61298089838a016124d0565b9450606088013591508082111561299657600080fd5b6129a289838a01612820565b935060808801359150808211156129b857600080fd5b5061273d88828901612882565b600080604083850312156129d857600080fd5b8235915060208301356001600160401b038111156129f557600080fd5b61258f85828601612401565b600080600060608486031215612a1657600080fd5b612a1f84612614565b92506020840135915060408401356001600160401b03811115612a4157600080fd5b612a4d86828701612401565b9150509250925092565b60008060408385031215612a6a57600080fd5b82356001600160401b0380821115612a8157600080fd5b612a8d868387016124d0565b93506020850135915080821115612aa357600080fd5b5061258f85828601612882565b6020808252825182820181905260009190848201906040850190845b818110156126b657835183529284019291840191600101612acc565b600080600060608486031215612afd57600080fd5b83356001600160401b0380821115612b1457600080fd5b612b20878388016124d0565b94506020860135915080821115612b3657600080fd5b612b42878388016124d0565b93506040860135915080821115612b5857600080fd5b50612a4d86828701612882565b600080600060608486031215612b7a57600080fd5b833592506020840135915060408401356001600160401b03811115612a4157600080fd5b60008060008060808587031215612bb457600080fd5b612bbd85612614565b935060208501359250612bd2604086016126c2565b915060608501356001600160401b03811115612bed57600080fd5b612bf987828801612401565b91505092959194509250565b600060208284031215612c1757600080fd5b81356001600160401b03811115612c2d57600080fd5b611cf9848285016124d0565b8385823760609290921b6001600160601b031916919092019081526014810191909152603401919050565b60008251612c76818460208701612331565b9190910192915050565b634e487b7160e01b600052603260045260246000fd5b634e487b7160e01b600052601160045260246000fd5b8082018082111561076757610767612c96565b805160208083015191908110156113765760001960209190910360031b1b16919050565b6000808335601e19843603018112612cfa57600080fd5b8301803591506001600160401b03821115612d1457600080fd5b602001915036819003821315612d2957600080fd5b9250929050565b8183823760009101908152919050565b600060018201612d5257612d52612c96565b5060010190565b60018060a01b03851681528360208201528215156040820152608060608201526000612d886080830184612355565b9695505050505050565b805160208201516001600160601b03198082169291906014831015612dc15780818460140360031b1b83161693505b505050919050565b600181811c90821680612ddd57607f821691505b60208210810361137657634e487b7160e01b600052602260045260246000fd5b6001600160a01b03841681528215156020820152606060408201819052600090612e2990830184612355565b95945050505050565b6001600160a01b0386811682528581166020830152841660408201526060810183905260a060808201819052600090611db490830184612355565b601f8211156110b557600081815260208120601f850160051c81016020861015612e945750805b601f850160051c820191505b81811015610ff257828155600101612ea0565b81516001600160401b03811115612ecc57612ecc612394565b612ee081612eda8454612dc9565b84612e6d565b602080601f831160018114612f155760008415612efd5750858301515b600019600386901b1c1916600185901b178555610ff2565b600085815260208120601f198616915b82811015612f4457888601518255948401946001909101908401612f25565b5085821015612f625787850151600019600388901b60f8161c191681555b5050505050600190811b01905550565b8215158152604060208201526000611cf96040830184612355565b828152604060208201526000611cf96040830184612355565b600060208284031215612fb857600080fd5b81516001600160401b03811115612fce57600080fd5b8201601f81018413612fdf57600080fd5b8051612fed612420826123da565b81815285602083850101111561300257600080fd5b612e29826020830160208601612331565b8181038181111561076757610767612c96565b634e487b7160e01b600052603160045260246000fdfea26469706673582212200184ecbb43604aae298cf0b136e40cec87c4db00f1f81e9f2ff1bb739180d62164736f6c63430008130033",
  "linkReferences": {},
  "deployedLinkReferences": {}
}