{
  "_format": "hh-sol-artifact-1",
  "contractName": "POKSOLSP8Pure",
  "sourceName": "contracts/POKSOLSP8Pure.sol",
  "abi": [
    {
      "inputs": [
        {
          "internalType": "address",
          "name": "owner",
          "type": "address"
        }
      ],
      "stateMutability": "nonpayable",
      "type": "constructor"
    },
    {
      "inputs": [],
      "name": "ERC725Y_DataKeysValuesEmptyArray",
      "type": "error"
    },
    {
      "inputs": [],
      "name": "ERC725Y_DataKeysValuesLengthMismatch",
      "type": "error"
    },
    {
      "inputs": [],
      "name": "ERC725Y_MsgValueDisallowed",
      "type": "error"
    },
    {
      "inputs": [
        {
          "internalType": "bytes",
          "name": "storedData",
          "type": "bytes"
        }
      ],
      "name": "InvalidExtensionAddress",
      "type": "error"
    },
    {
      "inputs": [
        {
          "internalType": "bytes",
          "name": "data",
          "type": "bytes"
        }
      ],
      "name": "InvalidFunctionSelector",
      "type": "error"
    },
    {
      "inputs": [],
      "name": "LSP4TokenNameNotEditable",
      "type": "error"
    },
    {
      "inputs": [],
      "name": "LSP4TokenSymbolNotEditable",
      "type": "error"
    },
    {
      "inputs": [],
      "name": "LSP4TokenTypeNotEditable",
      "type": "error"
    },
    {
      "inputs": [
        {
          "internalType": "uint256",
          "name": "callIndex",
          "type": "uint256"
        }
      ],
      "name": "LSP8BatchCallFailed",
      "type": "error"
    },
    {
      "inputs": [],
      "name": "LSP8CannotSendToAddressZero",
      "type": "error"
    },
    {
      "inputs": [],
      "name": "LSP8CannotUseAddressZeroAsOperator",
      "type": "error"
    },
    {
      "inputs": [],
      "name": "LSP8InvalidTransferBatch",
      "type": "error"
    },
    {
      "inputs": [
        {
          "internalType": "bytes32",
          "name": "tokenId",
          "type": "bytes32"
        }
      ],
      "name": "LSP8NonExistentTokenId",
      "type": "error"
    },
    {
      "inputs": [
        {
          "internalType": "address",
          "name": "operator",
          "type": "address"
        },
        {
          "internalType": "bytes32",
          "name": "tokenId",
          "type": "bytes32"
        }
      ],
      "name": "LSP8NonExistingOperator",
      "type": "error"
    },
    {
      "inputs": [
        {
          "internalType": "bytes32",
          "name": "tokenId",
          "type": "bytes32"
        },
        {
          "internalType": "address",
          "name": "caller",
          "type": "address"
        }
      ],
      "name": "LSP8NotTokenOperator",
      "type": "error"
    },
    {
      "inputs": [
        {
          "internalType": "address",
          "name": "tokenOwner",
          "type": "address"
        },
        {
          "internalType": "bytes32",
          "name": "tokenId",
          "type": "bytes32"
        },
        {
          "internalType": "address",
          "name": "caller",
          "type": "address"
        }
      ],
      "name": "LSP8NotTokenOwner",
      "type": "error"
    },
    {
      "inputs": [
        {
          "internalType": "address",
          "name": "tokenReceiver",
          "type": "address"
        }
      ],
      "name": "LSP8NotifyTokenReceiverContractMissingLSP1Interface",
      "type": "error"
    },
    {
      "inputs": [
        {
          "internalType": "address",
          "name": "tokenReceiver",
          "type": "address"
        }
      ],
      "name": "LSP8NotifyTokenReceiverIsEOA",
      "type": "error"
    },
    {
      "inputs": [
        {
          "internalType": "address",
          "name": "operator",
          "type": "address"
        },
        {
          "internalType": "bytes32",
          "name": "tokenId",
          "type": "bytes32"
        }
      ],
      "name": "LSP8OperatorAlreadyAuthorized",
      "type": "error"
    },
    {
      "inputs": [
        {
          "internalType": "address",
          "name": "caller",
          "type": "address"
        },
        {
          "internalType": "address",
          "name": "tokenOwner",
          "type": "address"
        },
        {
          "internalType": "bytes32",
          "name": "tokenId",
          "type": "bytes32"
        }
      ],
      "name": "LSP8RevokeOperatorNotAuthorized",
      "type": "error"
    },
    {
      "inputs": [],
      "name": "LSP8TokenContractCannotHoldValue",
      "type": "error"
    },
    {
      "inputs": [
        {
          "internalType": "bytes32",
          "name": "tokenId",
          "type": "bytes32"
        }
      ],
      "name": "LSP8TokenIdAlreadyMinted",
      "type": "error"
    },
    {
      "inputs": [],
      "name": "LSP8TokenIdFormatNotEditable",
      "type": "error"
    },
    {
      "inputs": [],
      "name": "LSP8TokenIdsDataEmptyArray",
      "type": "error"
    },
    {
      "inputs": [],
      "name": "LSP8TokenIdsDataLengthMismatch",
      "type": "error"
    },
    {
      "inputs": [],
      "name": "LSP8TokenOwnerCannotBeOperator",
      "type": "error"
    },
    {
      "inputs": [
        {
          "internalType": "bytes32",
          "name": "tokenId",
          "type": "bytes32"
        },
        {
          "internalType": "address",
          "name": "oldOwner",
          "type": "address"
        },
        {
          "internalType": "address",
          "name": "newOwner",
          "type": "address"
        }
      ],
      "name": "LSP8TokenOwnerChanged",
      "type": "error"
    },
    {
      "inputs": [
        {
          "internalType": "bytes4",
          "name": "functionSelector",
          "type": "bytes4"
        }
      ],
      "name": "NoExtensionFoundForFunctionSelector",
      "type": "error"
    },
    {
      "inputs": [
        {
          "internalType": "address",
          "name": "callerAddress",
          "type": "address"
        }
      ],
      "name": "OwnableCallerNotTheOwner",
      "type": "error"
    },
    {
      "inputs": [],
      "name": "OwnableCannotSetZeroAddressAsOwner",
      "type": "error"
    },
    {
      "anonymous": false,
      "inputs": [
        {
          "indexed": true,
          "internalType": "bytes32",
          "name": "dataKey",
          "type": "bytes32"
        },
        {
          "indexed": false,
          "internalType": "bytes",
          "name": "dataValue",
          "type": "bytes"
        }
      ],
      "name": "DataChanged",
      "type": "event"
    },
    {
      "anonymous": false,
      "inputs": [
        {
          "indexed": true,
          "internalType": "address",
          "name": "operator",
          "type": "address"
        },
        {
          "indexed": true,
          "internalType": "address",
          "name": "tokenOwner",
          "type": "address"
        },
        {
          "indexed": true,
          "internalType": "bytes32",
          "name": "tokenId",
          "type": "bytes32"
        },
        {
          "indexed": false,
          "internalType": "bytes",
          "name": "operatorNotificationData",
          "type": "bytes"
        }
      ],
      "name": "OperatorAuthorizationChanged",
      "type": "event"
    },
    {
      "anonymous": false,
      "inputs": [
        {
          "indexed": true,
          "internalType": "address",
          "name": "operator",
          "type": "address"
        },
        {
          "indexed": true,
          "internalType": "address",
          "name": "tokenOwner",
          "type": "address"
        },
        {
          "indexed": true,
          "internalType": "bytes32",
          "name": "tokenId",
          "type": "bytes32"
        },
        {
          "indexed": false,
          "internalType": "bool",
          "name": "notified",
          "type": "bool"
        },
        {
          "indexed": false,
          "internalType": "bytes",
          "name": "operatorNotificationData",
          "type": "bytes"
        }
      ],
      "name": "OperatorRevoked",
      "type": "event"
    },
    {
      "anonymous": false,
      "inputs": [
        {
          "indexed": true,
          "internalType": "address",
          "name": "previousOwner",
          "type": "address"
        },
        {
          "indexed": true,
          "internalType": "address",
          "name": "newOwner",
          "type": "address"
        }
      ],
      "name": "OwnershipTransferred",
      "type": "event"
    },
    {
      "anonymous": false,
      "inputs": [
        {
          "indexed": true,
          "internalType": "bytes32",
          "name": "tokenId",
          "type": "bytes32"
        },
        {
          "indexed": true,
          "internalType": "bytes32",
          "name": "dataKey",
          "type": "bytes32"
        },
        {
          "indexed": false,
          "internalType": "bytes",
          "name": "dataValue",
          "type": "bytes"
        }
      ],
      "name": "TokenIdDataChanged",
      "type": "event"
    },
    {
      "anonymous": false,
      "inputs": [
        {
          "indexed": false,
          "internalType": "address",
          "name": "operator",
          "type": "address"
        },
        {
          "indexed": true,
          "internalType": "address",
          "name": "from",
          "type": "address"
        },
        {
          "indexed": true,
          "internalType": "address",
          "name": "to",
          "type": "address"
        },
        {
          "indexed": true,
          "internalType": "bytes32",
          "name": "tokenId",
          "type": "bytes32"
        },
        {
          "indexed": false,
          "internalType": "bool",
          "name": "force",
          "type": "bool"
        },
        {
          "indexed": false,
          "internalType": "bytes",
          "name": "data",
          "type": "bytes"
        }
      ],
      "name": "Transfer",
      "type": "event"
    },
    {
      "stateMutability": "payable",
      "type": "fallback"
    },
    {
      "inputs": [],
      "name": "MAX_SUPPLY",
      "outputs": [
        {
          "internalType": "uint256",
          "name": "",
          "type": "uint256"
        }
      ],
      "stateMutability": "view",
      "type": "function"
    },
    {
      "inputs": [
        {
          "internalType": "address",
          "name": "operator",
          "type": "address"
        },
        {
          "internalType": "bytes32",
          "name": "tokenId",
          "type": "bytes32"
        },
        {
          "internalType": "bytes",
          "name": "operatorNotificationData",
          "type": "bytes"
        }
      ],
      "name": "authorizeOperator",
      "outputs": [],
      "stateMutability": "nonpayable",
      "type": "function"
    },
    {
      "inputs": [
        {
          "internalType": "address",
          "name": "tokenOwner",
          "type": "address"
        }
      ],
      "name": "balanceOf",
      "outputs": [
        {
          "internalType": "uint256",
          "name": "",
          "type": "uint256"
        }
      ],
      "stateMutability": "view",
      "type": "function"
    },
    {
      "inputs": [
        {
          "internalType": "bytes[]",
          "name": "data",
          "type": "bytes[]"
        }
      ],
      "name": "batchCalls",
      "outputs": [
        {
          "internalType": "bytes[]",
          "name": "results",
          "type": "bytes[]"
        }
      ],
      "stateMutability": "nonpayable",
      "type": "function"
    },
    {
      "inputs": [
        {
          "internalType": "address",
          "name": "recipient",
          "type": "address"
        },
        {
          "internalType": "uint256",
          "name": "amount",
          "type": "uint256"
        }
      ],
      "name": "batchMintTo",
      "outputs": [],
      "stateMutability": "nonpayable",
      "type": "function"
    },
    {
      "inputs": [],
      "name": "currentTokenId",
      "outputs": [
        {
          "internalType": "uint256",
          "name": "",
          "type": "uint256"
        }
      ],
      "stateMutability": "view",
      "type": "function"
    },
    {
      "inputs": [
        {
          "internalType": "bytes32",
          "name": "dataKey",
          "type": "bytes32"
        }
      ],
      "name": "getData",
      "outputs": [
        {
          "internalType": "bytes",
          "name": "dataValue",
          "type": "bytes"
        }
      ],
      "stateMutability": "view",
      "type": "function"
    },
    {
      "inputs": [
        {
          "internalType": "bytes32[]",
          "name": "dataKeys",
          "type": "bytes32[]"
        }
      ],
      "name": "getDataBatch",
      "outputs": [
        {
          "internalType": "bytes[]",
          "name": "dataValues",
          "type": "bytes[]"
        }
      ],
      "stateMutability": "view",
      "type": "function"
    },
    {
      "inputs": [
        {
          "internalType": "bytes32[]",
          "name": "tokenIds",
          "type": "bytes32[]"
        },
        {
          "internalType": "bytes32[]",
          "name": "dataKeys",
          "type": "bytes32[]"
        }
      ],
      "name": "getDataBatchForTokenIds",
      "outputs": [
        {
          "internalType": "bytes[]",
          "name": "dataValues",
          "type": "bytes[]"
        }
      ],
      "stateMutability": "view",
      "type": "function"
    },
    {
      "inputs": [
        {
          "internalType": "bytes32",
          "name": "tokenId",
          "type": "bytes32"
        },
        {
          "internalType": "bytes32",
          "name": "dataKey",
          "type": "bytes32"
        }
      ],
      "name": "getDataForTokenId",
      "outputs": [
        {
          "internalType": "bytes",
          "name": "dataValue",
          "type": "bytes"
        }
      ],
      "stateMutability": "view",
      "type": "function"
    },
    {
      "inputs": [
        {
          "internalType": "bytes32",
          "name": "tokenId",
          "type": "bytes32"
        }
      ],
      "name": "getOperatorsOf",
      "outputs": [
        {
          "internalType": "address[]",
          "name": "",
          "type": "address[]"
        }
      ],
      "stateMutability": "view",
      "type": "function"
    },
    {
      "inputs": [
        {
          "internalType": "address",
          "name": "operator",
          "type": "address"
        },
        {
          "internalType": "bytes32",
          "name": "tokenId",
          "type": "bytes32"
        }
      ],
      "name": "isOperatorFor",
      "outputs": [
        {
          "internalType": "bool",
          "name": "",
          "type": "bool"
        }
      ],
      "stateMutability": "view",
      "type": "function"
    },
    {
      "inputs": [
        {
          "internalType": "address",
          "name": "recipient",
          "type": "address"
        }
      ],
      "name": "mintTo",
      "outputs": [
        {
          "internalType": "bytes32",
          "name": "tokenId",
          "type": "bytes32"
        }
      ],
      "stateMutability": "nonpayable",
      "type": "function"
    },
    {
      "inputs": [],
      "name": "owner",
      "outputs": [
        {
          "internalType": "address",
          "name": "",
          "type": "address"
        }
      ],
      "stateMutability": "view",
      "type": "function"
    },
    {
      "inputs": [],
      "name": "renounceOwnership",
      "outputs": [],
      "stateMutability": "nonpayable",
      "type": "function"
    },
    {
      "inputs": [
        {
          "internalType": "address",
          "name": "operator",
          "type": "address"
        },
        {
          "internalType": "bytes32",
          "name": "tokenId",
          "type": "bytes32"
        },
        {
          "internalType": "bool",
          "name": "notify",
          "type": "bool"
        },
        {
          "internalType": "bytes",
          "name": "operatorNotificationData",
          "type": "bytes"
        }
      ],
      "name": "revokeOperator",
      "outputs": [],
      "stateMutability": "nonpayable",
      "type": "function"
    },
    {
      "inputs": [
        {
          "internalType": "bytes32",
          "name": "dataKey",
          "type": "bytes32"
        },
        {
          "internalType": "bytes",
          "name": "dataValue",
          "type": "bytes"
        }
      ],
      "name": "setData",
      "outputs": [],
      "stateMutability": "payable",
      "type": "function"
    },
    {
      "inputs": [
        {
          "internalType": "bytes32[]",
          "name": "dataKeys",
          "type": "bytes32[]"
        },
        {
          "internalType": "bytes[]",
          "name": "dataValues",
          "type": "bytes[]"
        }
      ],
      "name": "setDataBatch",
      "outputs": [],
      "stateMutability": "payable",
      "type": "function"
    },
    {
      "inputs": [
        {
          "internalType": "bytes32[]",
          "name": "tokenIds",
          "type": "bytes32[]"
        },
        {
          "internalType": "bytes32[]",
          "name": "dataKeys",
          "type": "bytes32[]"
        },
        {
          "internalType": "bytes[]",
          "name": "dataValues",
          "type": "bytes[]"
        }
      ],
      "name": "setDataBatchForTokenIds",
      "outputs": [],
      "stateMutability": "nonpayable",
      "type": "function"
    },
    {
      "inputs": [
        {
          "internalType": "bytes32",
          "name": "tokenId",
          "type": "bytes32"
        },
        {
          "internalType": "bytes32",
          "name": "dataKey",
          "type": "bytes32"
        },
        {
          "internalType": "bytes",
          "name": "dataValue",
          "type": "bytes"
        }
      ],
      "name": "setDataForTokenId",
      "outputs": [],
      "stateMutability": "nonpayable",
      "type": "function"
    },
    {
      "inputs": [
        {
          "internalType": "bytes4",
          "name": "interfaceId",
          "type": "bytes4"
        }
      ],
      "name": "supportsInterface",
      "outputs": [
        {
          "internalType": "bool",
          "name": "",
          "type": "bool"
        }
      ],
      "stateMutability": "view",
      "type": "function"
    },
    {
      "inputs": [
        {
          "internalType": "address",
          "name": "tokenOwner",
          "type": "address"
        }
      ],
      "name": "tokenIdsOf",
      "outputs": [
        {
          "internalType": "bytes32[]",
          "name": "",
          "type": "bytes32[]"
        }
      ],
      "stateMutability": "view",
      "type": "function"
    },
    {
      "inputs": [
        {
          "internalType": "bytes32",
          "name": "tokenId",
          "type": "bytes32"
        }
      ],
      "name": "tokenOwnerOf",
      "outputs": [
        {
          "internalType": "address",
          "name": "",
          "type": "address"
        }
      ],
      "stateMutability": "view",
      "type": "function"
    },
    {
      "inputs": [],
      "name": "totalSupply",
      "outputs": [
        {
          "internalType": "uint256",
          "name": "",
          "type": "uint256"
        }
      ],
      "stateMutability": "view",
      "type": "function"
    },
    {
      "inputs": [
        {
          "internalType": "address",
          "name": "from",
          "type": "address"
        },
        {
          "internalType": "address",
          "name": "to",
          "type": "address"
        },
        {
          "internalType": "bytes32",
          "name": "tokenId",
          "type": "bytes32"
        },
        {
          "internalType": "bool",
          "name": "force",
          "type": "bool"
        },
        {
          "internalType": "bytes",
          "name": "data",
          "type": "bytes"
        }
      ],
      "name": "transfer",
      "outputs": [],
      "stateMutability": "nonpayable",
      "type": "function"
    },
    {
      "inputs": [
        {
          "internalType": "address[]",
          "name": "from",
          "type": "address[]"
        },
        {
          "internalType": "address[]",
          "name": "to",
          "type": "address[]"
        },
        {
          "internalType": "bytes32[]",
          "name": "tokenId",
          "type": "bytes32[]"
        },
        {
          "internalType": "bool[]",
          "name": "force",
          "type": "bool[]"
        },
        {
          "internalType": "bytes[]",
          "name": "data",
          "type": "bytes[]"
        }
      ],
      "name": "transferBatch",
      "outputs": [],
      "stateMutability": "nonpayable",
      "type": "function"
    },
    {
      "inputs": [
        {
          "internalType": "address",
          "name": "newOwner",
          "type": "address"
        }
      ],
      "name": "transferOwnership",
      "outputs": [],
      "stateMutability": "nonpayable",
      "type": "function"
    },
    {
      "stateMutability": "payable",
      "type": "receive"
    }
  ],
  "bytecode": "0x60806040523480156200001157600080fd5b50604051620032f0380380620032f0833981016040819052620000349162000391565b604080518082018252600f81526e504f4b534f20437962657270756e6b60881b60208083019190915282518084019093526005835264504f4b534f60d81b9083015290826001600084848484816001600160a01b038116620000a9576040516306b620db60e21b815260040160405180910390fd5b620000b481620001f7565b506040805180820190915260048152632936598960e21b6020820152620000fd907feafec4d89fa9619884b60000a4d96624a38f7ac2d8d9a604ecf07c12c77e480c9062000265565b620001297fdeba1e292f8ba88238e10ab3c7f88bd4be4fac56cad5194b6ecceaf653468af18562000265565b620001557f2f0a68ab07768e01943a599e73362a0e17a63a72e94dd2e384d2c1d4db9327568462000265565b60408051602081018390526200019e917fe0261fa95db2eb3b5439bd033cda66d56b96f92f243a8228fd87550ed7bdfdb3910160408051601f1981840301815291905262000265565b50506040805160208101859052620001eb93507ff675e9361af1c1664c1868cfa3eb97672d6b1a513aa5b81dec34c9ee330e818d92500160408051601f19818403018152919052620002be565b50505050505062000584565b6000546001600160a01b038281169116146200026257600080546040516001600160a01b03808516939216917f8be0079c531659141344cd1fd0a4f28419497f9722a3daafe3b4186f6b6457e091a3600080546001600160a01b0319166001600160a01b0383161790555b50565b60008281526001602052604090206200027f828262000468565b50817fece574603820d07bc9b91f2a932baadf4628aabcb8afba49776529c14a6104b282604051620002b2919062000534565b60405180910390a25050565b620002ca8282620002ce565b5050565b7f2145e1d6d074577dc71ef54c3807742b41b053a9352ae6b491331509acb9750f82016200030f576040516385c169bd60e01b815260040160405180910390fd5b7fd0f59754f88971fe6bc5a6618cc9d5f1e859c58d16b22d1c7b2d3e2b246cd8aa82016200035057604051630eceab6760e31b815260040160405180910390fd5b7f1fd9e056a24d14c4abc642fcc325992a946906d0dbc57dd70278aaf12842024d82016200026557604051634ef6d7fb60e01b815260040160405180910390fd5b600060208284031215620003a457600080fd5b81516001600160a01b0381168114620003bc57600080fd5b9392505050565b634e487b7160e01b600052604160045260246000fd5b600181811c90821680620003ee57607f821691505b6020821081036200040f57634e487b7160e01b600052602260045260246000fd5b50919050565b601f8211156200046357600081815260208120601f850160051c810160208610156200043e5750805b601f850160051c820191505b818110156200045f578281556001016200044a565b5050505b505050565b81516001600160401b03811115620004845762000484620003c3565b6200049c81620004958454620003d9565b8462000415565b602080601f831160018114620004d45760008415620004bb5750858301515b600019600386901b1c1916600185901b1785556200045f565b600085815260208120601f198616915b828110156200050557888601518255948401946001909101908401620004e4565b5085821015620005245787850151600019600388901b60f8161c191681555b5050505050600190811b01905550565b600060208083528351808285015260005b81811015620005635785810183015185820160400152820162000545565b506000604082860101526040601f19601f8301168501019250505092915050565b612d5c80620005946000396000f3fe60806040526004361061019f5760003560e01c8063715018a6116100ec578063a3b261f21161008a578063db8c966311610064578063db8c966314610546578063dedff9c614610566578063e7e5107014610586578063f2fde38b146105a6576101fa565b8063a3b261f2146104d9578063be9f0e6f14610506578063d6c1407c14610526576101fa565b80637f23690c116100c65780637f23690c1461047557806386a10ddd146104885780638da5cb5b146104a857806397902421146104c6576101fa565b8063715018a614610420578063755edd17146104355780637e87632c14610455576101fa565b80632a3654a411610159578063511b695211610133578063511b69521461039e57806354f6127f146103c05780636963d438146103e057806370a0823114610400576101fa565b80632a3654a41461033b57806332cb6b0c1461035b57806349a6078d14610371576101fa565b80629a9b7b1461023b57806301ffc9a71461026457806316e023b31461029457806318160ddd146102c15780631d26fce6146102d6578063217b227014610303576101fa565b366101fa57346000036101e15760405163e5099ee360e01b81526004016101d89060208082526004908201526000604082015260600190565b60405180910390fd5b6040516330fa4a2160e11b815260040160405180910390fd5b6000366060600482101561022557828260405163e5099ee360e01b81526004016101d8929190611ff6565b61022f83836105c6565b80519350602001915050f35b34801561024757600080fd5b5061025160075481565b6040519081526020015b60405180910390f35b34801561027057600080fd5b5061028461027f366004612025565b6106bc565b604051901515815260200161025b565b3480156102a057600080fd5b506102b46102af36600461204f565b6106f0565b60405161025b91906120c1565b3480156102cd57600080fd5b50600254610251565b3480156102e257600080fd5b506102f66102f13660046121a8565b610703565b60405161025b919061220b565b34801561030f57600080fd5b5061032361031e36600461226d565b6107ea565b6040516001600160a01b03909116815260200161025b565b34801561034757600080fd5b506102846103563660046122a2565b610823565b34801561036757600080fd5b506102516101f481565b34801561037d57600080fd5b5061039161038c36600461226d565b61082f565b60405161025b91906122cc565b3480156103aa57600080fd5b506103be6103b93660046123a1565b610851565b005b3480156103cc57600080fd5b506102b46103db36600461226d565b610895565b3480156103ec57600080fd5b506102f66103fb366004612419565b6108a0565b34801561040c57600080fd5b5061025161041b36600461248d565b6109cf565b34801561042c57600080fd5b506103be6109f0565b34801561044157600080fd5b5061025161045036600461248d565b610a04565b34801561046157600080fd5b506103be6104703660046125eb565b610aa9565b6103be6104833660046126af565b610b98565b34801561049457600080fd5b506103be6104a33660046126eb565b610bcd565b3480156104b457600080fd5b506000546001600160a01b0316610323565b6103be6104d4366004612741565b610d47565b3480156104e557600080fd5b506104f96104f436600461248d565b610e07565b60405161025b919061279a565b34801561051257600080fd5b506103be6105213660046127d2565b610e2b565b34801561053257600080fd5b506103be61054136600461284f565b610ef6565b34801561055257600080fd5b506103be610561366004612888565b610f09565b34801561057257600080fd5b506102f66105813660046128ef565b610fed565b34801561059257600080fd5b506103be6105a13660046122a2565b611097565b3480156105b257600080fd5b506103be6105c136600461248d565b611152565b606060006105df6000356001600160e01b03191661118d565b5090506001600160a01b0381166106175760405163bb370b2b60e01b81526001600160e01b03196000351660048201526024016101d8565b600080826001600160a01b0316348787333460405160200161063c9493929190612923565b60408051601f19818403018152908290526106569161294e565b60006040518083038185875af1925050503d8060008114610693576040519150601f19603f3d011682016040523d82523d6000602084013e610698565b606091505b509150915081156106ad5792506106b6915050565b80518060208301fd5b92915050565b60006001600160e01b03198216631d138b8360e11b14806106e157506106e18261120b565b806106b657506106b682611230565b60606106fc8383611267565b9392505050565b60608151835114610727576040516317d38eff60e11b815260040160405180910390fd5b82516001600160401b03811115610740576107406120d4565b60405190808252806020026020018201604052801561077357816020015b606081526020019060019003908161075e5790505b50905060005b83518110156107e3576107be8482815181106107975761079761296a565b60200260200101518483815181106107b1576107b161296a565b6020026020010151611267565b8282815181106107d0576107d061296a565b6020908102919091010152600101610779565b5092915050565b6000818152600360205260408120546001600160a01b0316806106b657604051635747cd1b60e11b8152600481018490526024016101d8565b60006106fc8383611315565b606061083a82611352565b60008281526005602052604090206106b69061138a565b61085b3384611315565b61088157604051631294d2a960e01b8152600481018490523360248201526044016101d8565b61088e8585858585611397565b5050505050565b60606106b682611579565b6060816001600160401b038111156108ba576108ba6120d4565b6040519080825280602002602001820160405280156108ed57816020015b60608152602001906001900390816108d85790505b50905060005b828110156107e357600080308686858181106109115761091161296a565b90506020028101906109239190612980565b6040516109319291906129cd565b600060405180830381855af49150503d806000811461096c576040519150601f19603f3d011682016040523d82523d6000602084013e610971565b606091505b5091509150816109a75780511561098b5780518082602001fd5b60405163234eb81960e01b8152600481018490526024016101d8565b808484815181106109ba576109ba61296a565b602090810291909101015250506001016108f3565b6001600160a01b03811660009081526004602052604081206106b69061161b565b6109f8611625565b610a026000611661565b565b6000610a0e611625565b6101f460075410610a6b5760405162461bcd60e51b815260206004820152602160248201527f504f4b534f4c535038507572653a206d617820737570706c79207265616368656044820152601960fa1b60648201526084016101d8565b60075460001b9050610a8f82826001604051806020016040528060008152506116cf565b60078054906000610a9f836129f3565b9190505550919050565b8451845181141580610abc575083518114155b80610ac8575082518114155b80610ad4575081518114155b15610af2576040516393a8311960e01b815260040160405180910390fd5b60005b81811015610b8f57610b87878281518110610b1257610b1261296a565b6020026020010151878381518110610b2c57610b2c61296a565b6020026020010151878481518110610b4657610b4661296a565b6020026020010151878581518110610b6057610b6061296a565b6020026020010151878681518110610b7a57610b7a61296a565b6020026020010151610851565b600101610af5565b50505050505050565b610ba0611625565b3415610bbf5760405163f36ba73760e01b815260040160405180910390fd5b610bc9828261183f565b5050565b6000610bd8836107ea565b90506001600160a01b0381163314610c1b57604051632d938f5160e11b81526001600160a01b0382166004820152602481018490523360448201526064016101d8565b6001600160a01b038416610c4257604051639577b8b360e01b815260040160405180910390fd5b836001600160a01b0316816001600160a01b031603610c74576040516344fed6b160e11b815260040160405180910390fd5b6000838152600560205260408120610c8c9086611889565b905080610cbe576040516314ec4d6d60e31b81526001600160a01b0386166004820152602481018590526044016101d8565b83826001600160a01b0316866001600160a01b03167f1b1b58aa2ec0cec2228b2d37124556d41f5a1f7b12f089171f896cc23667121586604051610d0291906120c1565b60405180910390a460003385600186604051602001610d249493929190612a0c565b6040516020818303038152906040529050610d3f868261189e565b505050505050565b610d4f611625565b3415610d6e5760405163f36ba73760e01b815260040160405180910390fd5b8051825114610d9057604051633bcc897960e01b815260040160405180910390fd5b8151600003610db2576040516397da5f9560e01b815260040160405180910390fd5b60005b8251811015610e0257610dfa838281518110610dd357610dd361296a565b6020026020010151838381518110610ded57610ded61296a565b602002602001015161183f565b600101610db5565b505050565b6001600160a01b03811660009081526004602052604090206060906106b69061138a565b610e33611625565b81518351141580610e4657508051825114155b15610e64576040516317d38eff60e11b815260040160405180910390fd5b8251600003610e86576040516380c9830560e01b815260040160405180910390fd5b60005b8351811015610ef057610ee8848281518110610ea757610ea761296a565b6020026020010151848381518110610ec157610ec161296a565b6020026020010151848481518110610edb57610edb61296a565b60200260200101516118c9565b600101610e89565b50505050565b610efe611625565b610e028383836118c9565b6000610f14846107ea565b9050336001600160a01b03821614610f67576001600160a01b0385163314610f675760405163760b5acd60e01b81523360048201526001600160a01b0382166024820152604481018590526064016101d8565b6001600160a01b038516610f8e57604051639577b8b360e01b815260040160405180910390fd5b846001600160a01b0316816001600160a01b031603610fc0576040516344fed6b160e11b815260040160405180910390fd5b610fcd858286868661192b565b821561088e5760008185600085604051602001610d249493929190612a0c565b606081516001600160401b03811115611008576110086120d4565b60405190808252806020026020018201604052801561103b57816020015b60608152602001906001900390816110265790505b50905060005b82518110156110915761106c83828151811061105f5761105f61296a565b6020026020010151611579565b82828151811061107e5761107e61296a565b6020908102919091010152600101611041565b50919050565b61109f611625565b6101f4816007546110b09190612a45565b11156110fe5760405162461bcd60e51b815260206004820181905260248201527f504f4b534f4c535038507572653a206e6f7420656e6f75676820737570706c7960448201526064016101d8565b60005b81811015610e025761112a8360075460001b6001604051806020016040528060008152506116cf565b6007805490600061113a836129f3565b9190505550808061114a906129f3565b915050611101565b61115a611625565b6001600160a01b038116611181576040516306b620db60e21b815260040160405180910390fd5b61118a81611661565b50565b600080806111b2696773c5a04a6d4300884b60b11b6001600160e01b031986166119cb565b905060006111bf82611579565b905080516014141580156111d35750805115155b156111f357806040516342bfe79f60e01b81526004016101d891906120c1565b6111fc81612a58565b60601c95600195509350505050565b60006001600160e01b0319821663a918fa6b60e01b14806106b657506106b682611a1f565b6000806112436301ffc9a760e01b61118d565b5090506001600160a01b03811661125d5750600092915050565b6106fc8184611a54565b6000828152600660209081526040808320848452909152902080546060919061128f90612a8f565b80601f01602080910402602001604051908101604052809291908181526020018280546112bb90612a8f565b80156113085780601f106112dd57610100808354040283529160200191611308565b820191906000526020600020905b8154815290600101906020018083116112eb57829003601f168201915b5050505050905092915050565b6000611320826107ea565b6001600160a01b0316836001600160a01b031614806106fc575060008281526005602052604090206106fc9084611add565b6000818152600360205260409020546001600160a01b031661118a57604051635747cd1b60e11b8152600481018290526024016101d8565b606060006106fc83611aff565b60006113a2846107ea565b9050856001600160a01b0316816001600160a01b0316146113f057604051632d938f5160e11b81526001600160a01b03808316600483015260248201869052871660448201526064016101d8565b6001600160a01b038516611417576040516324ecef4d60e01b815260040160405180910390fd5b6000611422856107ea565b9050806001600160a01b0316826001600160a01b03161461147057604051635a9c31d360e01b8152600481018690526001600160a01b038084166024830152821660448201526064016101d8565b61147a8786611b5a565b6001600160a01b038716600090815260046020526040902061149c9086611bb2565b506001600160a01b03861660009081526004602052604090206114bf9086611bbe565b506000858152600360205260409081902080546001600160a01b0319166001600160a01b0389811691821790925591518792918a16907fb333c813a7426a7a11e2b190cad52c44119421594b47f6f32ace6d8c7207b2bf906115269033908a908a90612ac3565b60405180910390a460003388888887604051602001611549959493929190612af8565b60405160208183030381529060405290506115648882611bca565b61156f878683611bf5565b5050505050505050565b600081815260016020526040902080546060919061159690612a8f565b80601f01602080910402602001604051908101604052809291908181526020018280546115c290612a8f565b801561160f5780601f106115e45761010080835404028352916020019161160f565b820191906000526020600020905b8154815290600101906020018083116115f257829003601f168201915b50505050509050919050565b60006106b6825490565b336116386000546001600160a01b031690565b6001600160a01b031614610a025760405163bf1169c560e01b81523360048201526024016101d8565b6000546001600160a01b0382811691161461118a57600080546040516001600160a01b03808516939216917f8be0079c531659141344cd1fd0a4f28419497f9722a3daafe3b4186f6b6457e091a3600080546001600160a01b0383166001600160a01b031990911617905550565b6001600160a01b0384166116f6576040516324ecef4d60e01b815260040160405180910390fd5b6000838152600360205260409020546001600160a01b03161561172f576040516334c7b51160e01b8152600481018490526024016101d8565b6000838152600360205260409020546001600160a01b031615611768576040516334c7b51160e01b8152600481018490526024016101d8565b600260008154611777906129f3565b909155506001600160a01b038416600090815260046020526040902061179d9084611bbe565b5060008381526003602052604080822080546001600160a01b0319166001600160a01b03881690811790915590518592907fb333c813a7426a7a11e2b190cad52c44119421594b47f6f32ace6d8c7207b2bf906117ff90339088908890612ac3565b60405180910390a46000336000868685604051602001611823959493929190612af8565b604051602081830303815290604052905061088e858483611bf5565b7f098a16c9e50e3e99b3e797305c146898d294e5aec55a47e213cb3611ccf17e73820161187f57604051631b32400560e11b815260040160405180910390fd5b610bc98282611cfd565b60006106fc836001600160a01b038416611d07565b610bc9827f8a1c15a8799f71b547e08e2bcb2e85257e81b0a07eee2ce6712549eef1f0097083611d56565b600083815260066020908152604080832085845290915290206118ec8282612b79565b5081837fa6e4251f855f750545fe414f120db91c76b88def14d120969e5bb2d3f05debbb8360405161191e91906120c1565b60405180910390a3505050565b60008381526005602052604081206119439087611da3565b905080611975576040516312a8c6a360e21b81526001600160a01b0387166004820152602481018590526044016101d8565b83856001600160a01b0316876001600160a01b03167fc78cd419d6136f9f1c1c6aec1d3fae098cffaf8bc86314a8f2685e32fe574e3c86866040516119bb929190612c38565b60405180910390a4505050505050565b604080516001600160b01b0319841660208201526000602a82018190526001600160601b03198416602c83015291829101604051602081830303815290604052905080611a1790612c53565b949350505050565b60006001600160e01b031982166318a6a9a560e21b14806106b657506301ffc9a760e01b6001600160e01b03198316146106b6565b604080516001600160e01b03198316602480830191909152825180830390910181526044909101909152602080820180516001600160e01b03166301ffc9a760e01b178152825160009392849283928392918391908a617530fa92503d91506000519050828015611ac6575060208210155b8015611ad25750600081115b979650505050505050565b6001600160a01b038116600090815260018301602052604081205415156106fc565b60608160000180548060200260200160405190810160405280929190818152602001828054801561160f57602002820191906000526020600020905b815481526020019060010190808311611b3b5750505050509050919050565b600081815260056020526040812090611b728261161b565b90506000805b82811015610d3f57611b8b846000611db8565b9150611baa82878760006040518060200160405280600081525061192b565b600101611b78565b60006106fc8383611dc4565b60006106fc8383611d07565b610bc9827fb23eae7e6d1564b295b4c3e3be402d9a2f0776c57bdf365903496f6fa481ab0083611d56565b611c0683631aed5a8560e21b611a54565b15611ca057604051631aed5a8560e21b81526001600160a01b03841690636bb56a1490611c59907f0b084a55ebf70fd3c06fd755269dac2212c4d3f0f4d09079780bfa50c1b2984d908590600401612c77565b6000604051808303816000875af1158015611c78573d6000803e3d6000fd5b505050506040513d6000823e601f3d908101601f19168201604052610ef09190810190612c90565b81610e02576001600160a01b0383163b15611cd957604051634349776d60e01b81526001600160a01b03841660048201526024016101d8565b604051630317313760e01b81526001600160a01b03841660048201526024016101d8565b610bc98282611eb7565b6000818152600183016020526040812054611d4e575081546001818101845560008481526020808220909301849055845484825282860190935260409020919091556106b6565b5060006106b6565b611d706001600160a01b038416631aed5a8560e21b611a54565b15610e0257604051631aed5a8560e21b81526001600160a01b03841690636bb56a1490611c599085908590600401612c77565b60006106fc836001600160a01b038416611dc4565b60006106fc8383611fcc565b60008181526001830160205260408120548015611ead576000611de8600183612cfd565b8554909150600090611dfc90600190612cfd565b9050818114611e61576000866000018281548110611e1c57611e1c61296a565b9060005260206000200154905080876000018481548110611e3f57611e3f61296a565b6000918252602080832090910192909255918252600188019052604090208390555b8554869080611e7257611e72612d10565b6001900381819060005260206000200160009055905585600101600086815260200190815260200160002060009055600193505050506106b6565b60009150506106b6565b7f2145e1d6d074577dc71ef54c3807742b41b053a9352ae6b491331509acb9750f8201611ef7576040516385c169bd60e01b815260040160405180910390fd5b7fd0f59754f88971fe6bc5a6618cc9d5f1e859c58d16b22d1c7b2d3e2b246cd8aa8201611f3757604051630eceab6760e31b815260040160405180910390fd5b7f1fd9e056a24d14c4abc642fcc325992a946906d0dbc57dd70278aaf12842024d8201611f7757604051634ef6d7fb60e01b815260040160405180910390fd5b6000828152600160205260409020611f8f8282612b79565b50817fece574603820d07bc9b91f2a932baadf4628aabcb8afba49776529c14a6104b282604051611fc091906120c1565b60405180910390a25050565b6000826000018281548110611fe357611fe361296a565b9060005260206000200154905092915050565b60208152816020820152818360408301376000818301604090810191909152601f909201601f19160101919050565b60006020828403121561203757600080fd5b81356001600160e01b0319811681146106fc57600080fd5b6000806040838503121561206257600080fd5b50508035926020909101359150565b60005b8381101561208c578181015183820152602001612074565b50506000910152565b600081518084526120ad816020860160208601612071565b601f01601f19169290920160200192915050565b6020815260006106fc6020830184612095565b634e487b7160e01b600052604160045260246000fd5b604051601f8201601f191681016001600160401b0381118282101715612112576121126120d4565b604052919050565b60006001600160401b03821115612133576121336120d4565b5060051b60200190565b600082601f83011261214e57600080fd5b8135602061216361215e8361211a565b6120ea565b82815260059290921b8401810191818101908684111561218257600080fd5b8286015b8481101561219d5780358352918301918301612186565b509695505050505050565b600080604083850312156121bb57600080fd5b82356001600160401b03808211156121d257600080fd5b6121de8683870161213d565b935060208501359150808211156121f457600080fd5b506122018582860161213d565b9150509250929050565b6000602080830181845280855180835260408601915060408160051b870101925083870160005b8281101561226057603f1988860301845261224e858351612095565b94509285019290850190600101612232565b5092979650505050505050565b60006020828403121561227f57600080fd5b5035919050565b80356001600160a01b038116811461229d57600080fd5b919050565b600080604083850312156122b557600080fd5b6122be83612286565b946020939093013593505050565b6020808252825182820181905260009190848201906040850190845b8181101561230d5783516001600160a01b0316835292840192918401916001016122e8565b50909695505050505050565b8035801515811461229d57600080fd5b60006001600160401b03821115612342576123426120d4565b50601f01601f191660200190565b600082601f83011261236157600080fd5b813561236f61215e82612329565b81815284602083860101111561238457600080fd5b816020850160208301376000918101602001919091529392505050565b600080600080600060a086880312156123b957600080fd5b6123c286612286565b94506123d060208701612286565b9350604086013592506123e560608701612319565b915060808601356001600160401b0381111561240057600080fd5b61240c88828901612350565b9150509295509295909350565b6000806020838503121561242c57600080fd5b82356001600160401b038082111561244357600080fd5b818501915085601f83011261245757600080fd5b81358181111561246657600080fd5b8660208260051b850101111561247b57600080fd5b60209290920196919550909350505050565b60006020828403121561249f57600080fd5b6106fc82612286565b600082601f8301126124b957600080fd5b813560206124c961215e8361211a565b82815260059290921b840181019181810190868411156124e857600080fd5b8286015b8481101561219d576124fd81612286565b83529183019183016124ec565b600082601f83011261251b57600080fd5b8135602061252b61215e8361211a565b82815260059290921b8401810191818101908684111561254a57600080fd5b8286015b8481101561219d5761255f81612319565b835291830191830161254e565b600082601f83011261257d57600080fd5b8135602061258d61215e8361211a565b82815260059290921b840181019181810190868411156125ac57600080fd5b8286015b8481101561219d5780356001600160401b038111156125cf5760008081fd5b6125dd8986838b0101612350565b8452509183019183016125b0565b600080600080600060a0868803121561260357600080fd5b85356001600160401b038082111561261a57600080fd5b61262689838a016124a8565b9650602088013591508082111561263c57600080fd5b61264889838a016124a8565b9550604088013591508082111561265e57600080fd5b61266a89838a0161213d565b9450606088013591508082111561268057600080fd5b61268c89838a0161250a565b935060808801359150808211156126a257600080fd5b5061240c8882890161256c565b600080604083850312156126c257600080fd5b8235915060208301356001600160401b038111156126df57600080fd5b61220185828601612350565b60008060006060848603121561270057600080fd5b61270984612286565b92506020840135915060408401356001600160401b0381111561272b57600080fd5b61273786828701612350565b9150509250925092565b6000806040838503121561275457600080fd5b82356001600160401b038082111561276b57600080fd5b6127778683870161213d565b9350602085013591508082111561278d57600080fd5b506122018582860161256c565b6020808252825182820181905260009190848201906040850190845b8181101561230d578351835292840192918401916001016127b6565b6000806000606084860312156127e757600080fd5b83356001600160401b03808211156127fe57600080fd5b61280a8783880161213d565b9450602086013591508082111561282057600080fd5b61282c8783880161213d565b9350604086013591508082111561284257600080fd5b506127378682870161256c565b60008060006060848603121561286457600080fd5b833592506020840135915060408401356001600160401b0381111561272b57600080fd5b6000806000806080858703121561289e57600080fd5b6128a785612286565b9350602085013592506128bc60408601612319565b915060608501356001600160401b038111156128d757600080fd5b6128e387828801612350565b91505092959194509250565b60006020828403121561290157600080fd5b81356001600160401b0381111561291757600080fd5b611a178482850161213d565b8385823760609290921b6001600160601b031916919092019081526014810191909152603401919050565b60008251612960818460208701612071565b9190910192915050565b634e487b7160e01b600052603260045260246000fd5b6000808335601e1984360301811261299757600080fd5b8301803591506001600160401b038211156129b157600080fd5b6020019150368190038213156129c657600080fd5b9250929050565b8183823760009101908152919050565b634e487b7160e01b600052601160045260246000fd5b600060018201612a0557612a056129dd565b5060010190565b60018060a01b03851681528360208201528215156040820152608060608201526000612a3b6080830184612095565b9695505050505050565b808201808211156106b6576106b66129dd565b805160208201516001600160601b03198082169291906014831015612a875780818460140360031b1b83161693505b505050919050565b600181811c90821680612aa357607f821691505b60208210810361109157634e487b7160e01b600052602260045260246000fd5b6001600160a01b03841681528215156020820152606060408201819052600090612aef90830184612095565b95945050505050565b6001600160a01b0386811682528581166020830152841660408201526060810183905260a060808201819052600090611ad290830184612095565b601f821115610e0257600081815260208120601f850160051c81016020861015612b5a5750805b601f850160051c820191505b81811015610d3f57828155600101612b66565b81516001600160401b03811115612b9257612b926120d4565b612ba681612ba08454612a8f565b84612b33565b602080601f831160018114612bdb5760008415612bc35750858301515b600019600386901b1c1916600185901b178555610d3f565b600085815260208120601f198616915b82811015612c0a57888601518255948401946001909101908401612beb565b5085821015612c285787850151600019600388901b60f8161c191681555b5050505050600190811b01905550565b8215158152604060208201526000611a176040830184612095565b805160208083015191908110156110915760001960209190910360031b1b16919050565b828152604060208201526000611a176040830184612095565b600060208284031215612ca257600080fd5b81516001600160401b03811115612cb857600080fd5b8201601f81018413612cc957600080fd5b8051612cd761215e82612329565b818152856020838501011115612cec57600080fd5b612aef826020830160208601612071565b818103818111156106b6576106b66129dd565b634e487b7160e01b600052603160045260246000fdfea2646970667358221220f0abea8b3bf321e5d59e01d8f4b0fd81f7cf540fb7409b6fbbad9b84e44cc79064736f6c63430008130033",
  "linkReferences": {},
  "deployedLinkReferences": {}
}