{
  "_format": "hh-sol-artifact-1",
  "contractName": "POKSOLSP8PureV6",
  "sourceName": "contracts/POKSOLSP8PureV6.sol",
  "abi": [
    {
      "inputs": [
        {
          "internalType": "address",
          "name": "owner",
          "type": "address"
        }
      ],
      "stateMutability": "nonpayable",
      "type": "constructor"
    },
    {
      "inputs": [],
      "name": "ERC725Y_DataKeysValuesEmptyArray",
      "type": "error"
    },
    {
      "inputs": [],
      "name": "ERC725Y_DataKeysValuesLengthMismatch",
      "type": "error"
    },
    {
      "inputs": [],
      "name": "ERC725Y_MsgValueDisallowed",
      "type": "error"
    },
    {
      "inputs": [
        {
          "internalType": "bytes",
          "name": "storedData",
          "type": "bytes"
        }
      ],
      "name": "InvalidExtensionAddress",
      "type": "error"
    },
    {
      "inputs": [
        {
          "internalType": "bytes",
          "name": "data",
          "type": "bytes"
        }
      ],
      "name": "InvalidFunctionSelector",
      "type": "error"
    },
    {
      "inputs": [],
      "name": "LSP4TokenNameNotEditable",
      "type": "error"
    },
    {
      "inputs": [],
      "name": "LSP4TokenSymbolNotEditable",
      "type": "error"
    },
    {
      "inputs": [],
      "name": "LSP4TokenTypeNotEditable",
      "type": "error"
    },
    {
      "inputs": [
        {
          "internalType": "uint256",
          "name": "callIndex",
          "type": "uint256"
        }
      ],
      "name": "LSP8BatchCallFailed",
      "type": "error"
    },
    {
      "inputs": [],
      "name": "LSP8CannotSendToAddressZero",
      "type": "error"
    },
    {
      "inputs": [],
      "name": "LSP8CannotUseAddressZeroAsOperator",
      "type": "error"
    },
    {
      "inputs": [],
      "name": "LSP8InvalidTransferBatch",
      "type": "error"
    },
    {
      "inputs": [
        {
          "internalType": "bytes32",
          "name": "tokenId",
          "type": "bytes32"
        }
      ],
      "name": "LSP8NonExistentTokenId",
      "type": "error"
    },
    {
      "inputs": [
        {
          "internalType": "address",
          "name": "operator",
          "type": "address"
        },
        {
          "internalType": "bytes32",
          "name": "tokenId",
          "type": "bytes32"
        }
      ],
      "name": "LSP8NonExistingOperator",
      "type": "error"
    },
    {
      "inputs": [
        {
          "internalType": "bytes32",
          "name": "tokenId",
          "type": "bytes32"
        },
        {
          "internalType": "address",
          "name": "caller",
          "type": "address"
        }
      ],
      "name": "LSP8NotTokenOperator",
      "type": "error"
    },
    {
      "inputs": [
        {
          "internalType": "address",
          "name": "tokenOwner",
          "type": "address"
        },
        {
          "internalType": "bytes32",
          "name": "tokenId",
          "type": "bytes32"
        },
        {
          "internalType": "address",
          "name": "caller",
          "type": "address"
        }
      ],
      "name": "LSP8NotTokenOwner",
      "type": "error"
    },
    {
      "inputs": [
        {
          "internalType": "address",
          "name": "tokenReceiver",
          "type": "address"
        }
      ],
      "name": "LSP8NotifyTokenReceiverContractMissingLSP1Interface",
      "type": "error"
    },
    {
      "inputs": [
        {
          "internalType": "address",
          "name": "tokenReceiver",
          "type": "address"
        }
      ],
      "name": "LSP8NotifyTokenReceiverIsEOA",
      "type": "error"
    },
    {
      "inputs": [
        {
          "internalType": "address",
          "name": "operator",
          "type": "address"
        },
        {
          "internalType": "bytes32",
          "name": "tokenId",
          "type": "bytes32"
        }
      ],
      "name": "LSP8OperatorAlreadyAuthorized",
      "type": "error"
    },
    {
      "inputs": [
        {
          "internalType": "address",
          "name": "caller",
          "type": "address"
        },
        {
          "internalType": "address",
          "name": "tokenOwner",
          "type": "address"
        },
        {
          "internalType": "bytes32",
          "name": "tokenId",
          "type": "bytes32"
        }
      ],
      "name": "LSP8RevokeOperatorNotAuthorized",
      "type": "error"
    },
    {
      "inputs": [],
      "name": "LSP8TokenContractCannotHoldValue",
      "type": "error"
    },
    {
      "inputs": [
        {
          "internalType": "bytes32",
          "name": "tokenId",
          "type": "bytes32"
        }
      ],
      "name": "LSP8TokenIdAlreadyMinted",
      "type": "error"
    },
    {
      "inputs": [],
      "name": "LSP8TokenIdFormatNotEditable",
      "type": "error"
    },
    {
      "inputs": [],
      "name": "LSP8TokenIdsDataEmptyArray",
      "type": "error"
    },
    {
      "inputs": [],
      "name": "LSP8TokenIdsDataLengthMismatch",
      "type": "error"
    },
    {
      "inputs": [],
      "name": "LSP8TokenOwnerCannotBeOperator",
      "type": "error"
    },
    {
      "inputs": [
        {
          "internalType": "bytes32",
          "name": "tokenId",
          "type": "bytes32"
        },
        {
          "internalType": "address",
          "name": "oldOwner",
          "type": "address"
        },
        {
          "internalType": "address",
          "name": "newOwner",
          "type": "address"
        }
      ],
      "name": "LSP8TokenOwnerChanged",
      "type": "error"
    },
    {
      "inputs": [
        {
          "internalType": "bytes4",
          "name": "functionSelector",
          "type": "bytes4"
        }
      ],
      "name": "NoExtensionFoundForFunctionSelector",
      "type": "error"
    },
    {
      "inputs": [
        {
          "internalType": "address",
          "name": "callerAddress",
          "type": "address"
        }
      ],
      "name": "OwnableCallerNotTheOwner",
      "type": "error"
    },
    {
      "inputs": [],
      "name": "OwnableCannotSetZeroAddressAsOwner",
      "type": "error"
    },
    {
      "anonymous": false,
      "inputs": [
        {
          "indexed": true,
          "internalType": "bytes32",
          "name": "dataKey",
          "type": "bytes32"
        },
        {
          "indexed": false,
          "internalType": "bytes",
          "name": "dataValue",
          "type": "bytes"
        }
      ],
      "name": "DataChanged",
      "type": "event"
    },
    {
      "anonymous": false,
      "inputs": [
        {
          "indexed": true,
          "internalType": "address",
          "name": "operator",
          "type": "address"
        },
        {
          "indexed": true,
          "internalType": "address",
          "name": "tokenOwner",
          "type": "address"
        },
        {
          "indexed": true,
          "internalType": "bytes32",
          "name": "tokenId",
          "type": "bytes32"
        },
        {
          "indexed": false,
          "internalType": "bytes",
          "name": "operatorNotificationData",
          "type": "bytes"
        }
      ],
      "name": "OperatorAuthorizationChanged",
      "type": "event"
    },
    {
      "anonymous": false,
      "inputs": [
        {
          "indexed": true,
          "internalType": "address",
          "name": "operator",
          "type": "address"
        },
        {
          "indexed": true,
          "internalType": "address",
          "name": "tokenOwner",
          "type": "address"
        },
        {
          "indexed": true,
          "internalType": "bytes32",
          "name": "tokenId",
          "type": "bytes32"
        },
        {
          "indexed": false,
          "internalType": "bool",
          "name": "notified",
          "type": "bool"
        },
        {
          "indexed": false,
          "internalType": "bytes",
          "name": "operatorNotificationData",
          "type": "bytes"
        }
      ],
      "name": "OperatorRevoked",
      "type": "event"
    },
    {
      "anonymous": false,
      "inputs": [
        {
          "indexed": true,
          "internalType": "address",
          "name": "previousOwner",
          "type": "address"
        },
        {
          "indexed": true,
          "internalType": "address",
          "name": "newOwner",
          "type": "address"
        }
      ],
      "name": "OwnershipTransferred",
      "type": "event"
    },
    {
      "anonymous": false,
      "inputs": [
        {
          "indexed": true,
          "internalType": "bytes32",
          "name": "tokenId",
          "type": "bytes32"
        },
        {
          "indexed": true,
          "internalType": "bytes32",
          "name": "dataKey",
          "type": "bytes32"
        },
        {
          "indexed": false,
          "internalType": "bytes",
          "name": "dataValue",
          "type": "bytes"
        }
      ],
      "name": "TokenIdDataChanged",
      "type": "event"
    },
    {
      "anonymous": false,
      "inputs": [
        {
          "indexed": false,
          "internalType": "address",
          "name": "operator",
          "type": "address"
        },
        {
          "indexed": true,
          "internalType": "address",
          "name": "from",
          "type": "address"
        },
        {
          "indexed": true,
          "internalType": "address",
          "name": "to",
          "type": "address"
        },
        {
          "indexed": true,
          "internalType": "bytes32",
          "name": "tokenId",
          "type": "bytes32"
        },
        {
          "indexed": false,
          "internalType": "bool",
          "name": "force",
          "type": "bool"
        },
        {
          "indexed": false,
          "internalType": "bytes",
          "name": "data",
          "type": "bytes"
        }
      ],
      "name": "Transfer",
      "type": "event"
    },
    {
      "stateMutability": "payable",
      "type": "fallback"
    },
    {
      "inputs": [],
      "name": "MAX_SUPPLY",
      "outputs": [
        {
          "internalType": "uint256",
          "name": "",
          "type": "uint256"
        }
      ],
      "stateMutability": "view",
      "type": "function"
    },
    {
      "inputs": [
        {
          "internalType": "address",
          "name": "creatorAddress",
          "type": "address"
        }
      ],
      "name": "addCreator",
      "outputs": [],
      "stateMutability": "nonpayable",
      "type": "function"
    },
    {
      "inputs": [
        {
          "internalType": "address",
          "name": "operator",
          "type": "address"
        },
        {
          "internalType": "bytes32",
          "name": "tokenId",
          "type": "bytes32"
        },
        {
          "internalType": "bytes",
          "name": "operatorNotificationData",
          "type": "bytes"
        }
      ],
      "name": "authorizeOperator",
      "outputs": [],
      "stateMutability": "nonpayable",
      "type": "function"
    },
    {
      "inputs": [
        {
          "internalType": "address",
          "name": "tokenOwner",
          "type": "address"
        }
      ],
      "name": "balanceOf",
      "outputs": [
        {
          "internalType": "uint256",
          "name": "",
          "type": "uint256"
        }
      ],
      "stateMutability": "view",
      "type": "function"
    },
    {
      "inputs": [
        {
          "internalType": "bytes[]",
          "name": "data",
          "type": "bytes[]"
        }
      ],
      "name": "batchCalls",
      "outputs": [
        {
          "internalType": "bytes[]",
          "name": "results",
          "type": "bytes[]"
        }
      ],
      "stateMutability": "nonpayable",
      "type": "function"
    },
    {
      "inputs": [
        {
          "internalType": "address",
          "name": "recipient",
          "type": "address"
        },
        {
          "internalType": "uint256",
          "name": "amount",
          "type": "uint256"
        }
      ],
      "name": "batchMintTo",
      "outputs": [],
      "stateMutability": "nonpayable",
      "type": "function"
    },
    {
      "inputs": [],
      "name": "currentTokenId",
      "outputs": [
        {
          "internalType": "uint256",
          "name": "",
          "type": "uint256"
        }
      ],
      "stateMutability": "view",
      "type": "function"
    },
    {
      "inputs": [
        {
          "internalType": "bytes32",
          "name": "dataKey",
          "type": "bytes32"
        }
      ],
      "name": "getData",
      "outputs": [
        {
          "internalType": "bytes",
          "name": "dataValue",
          "type": "bytes"
        }
      ],
      "stateMutability": "view",
      "type": "function"
    },
    {
      "inputs": [
        {
          "internalType": "bytes32[]",
          "name": "dataKeys",
          "type": "bytes32[]"
        }
      ],
      "name": "getDataBatch",
      "outputs": [
        {
          "internalType": "bytes[]",
          "name": "dataValues",
          "type": "bytes[]"
        }
      ],
      "stateMutability": "view",
      "type": "function"
    },
    {
      "inputs": [
        {
          "internalType": "bytes32[]",
          "name": "tokenIds",
          "type": "bytes32[]"
        },
        {
          "internalType": "bytes32[]",
          "name": "dataKeys",
          "type": "bytes32[]"
        }
      ],
      "name": "getDataBatchForTokenIds",
      "outputs": [
        {
          "internalType": "bytes[]",
          "name": "dataValues",
          "type": "bytes[]"
        }
      ],
      "stateMutability": "view",
      "type": "function"
    },
    {
      "inputs": [
        {
          "internalType": "bytes32",
          "name": "tokenId",
          "type": "bytes32"
        },
        {
          "internalType": "bytes32",
          "name": "dataKey",
          "type": "bytes32"
        }
      ],
      "name": "getDataForTokenId",
      "outputs": [
        {
          "internalType": "bytes",
          "name": "dataValue",
          "type": "bytes"
        }
      ],
      "stateMutability": "view",
      "type": "function"
    },
    {
      "inputs": [
        {
          "internalType": "bytes32",
          "name": "tokenId",
          "type": "bytes32"
        }
      ],
      "name": "getOperatorsOf",
      "outputs": [
        {
          "internalType": "address[]",
          "name": "",
          "type": "address[]"
        }
      ],
      "stateMutability": "view",
      "type": "function"
    },
    {
      "inputs": [],
      "name": "getTokenMetadataBaseURI",
      "outputs": [
        {
          "internalType": "bytes",
          "name": "",
          "type": "bytes"
        }
      ],
      "stateMutability": "view",
      "type": "function"
    },
    {
      "inputs": [
        {
          "internalType": "address",
          "name": "operator",
          "type": "address"
        },
        {
          "internalType": "bytes32",
          "name": "tokenId",
          "type": "bytes32"
        }
      ],
      "name": "isOperatorFor",
      "outputs": [
        {
          "internalType": "bool",
          "name": "",
          "type": "bool"
        }
      ],
      "stateMutability": "view",
      "type": "function"
    },
    {
      "inputs": [
        {
          "internalType": "address",
          "name": "recipient",
          "type": "address"
        }
      ],
      "name": "mintTo",
      "outputs": [
        {
          "internalType": "bytes32",
          "name": "tokenId",
          "type": "bytes32"
        }
      ],
      "stateMutability": "nonpayable",
      "type": "function"
    },
    {
      "inputs": [],
      "name": "owner",
      "outputs": [
        {
          "internalType": "address",
          "name": "",
          "type": "address"
        }
      ],
      "stateMutability": "view",
      "type": "function"
    },
    {
      "inputs": [],
      "name": "renounceOwnership",
      "outputs": [],
      "stateMutability": "nonpayable",
      "type": "function"
    },
    {
      "inputs": [
        {
          "internalType": "address",
          "name": "operator",
          "type": "address"
        },
        {
          "internalType": "bytes32",
          "name": "tokenId",
          "type": "bytes32"
        },
        {
          "internalType": "bool",
          "name": "notify",
          "type": "bool"
        },
        {
          "internalType": "bytes",
          "name": "operatorNotificationData",
          "type": "bytes"
        }
      ],
      "name": "revokeOperator",
      "outputs": [],
      "stateMutability": "nonpayable",
      "type": "function"
    },
    {
      "inputs": [
        {
          "internalType": "bytes32",
          "name": "dataKey",
          "type": "bytes32"
        },
        {
          "internalType": "bytes",
          "name": "dataValue",
          "type": "bytes"
        }
      ],
      "name": "setData",
      "outputs": [],
      "stateMutability": "payable",
      "type": "function"
    },
    {
      "inputs": [
        {
          "internalType": "bytes32[]",
          "name": "dataKeys",
          "type": "bytes32[]"
        },
        {
          "internalType": "bytes[]",
          "name": "dataValues",
          "type": "bytes[]"
        }
      ],
      "name": "setDataBatch",
      "outputs": [],
      "stateMutability": "payable",
      "type": "function"
    },
    {
      "inputs": [
        {
          "internalType": "bytes32[]",
          "name": "tokenIds",
          "type": "bytes32[]"
        },
        {
          "internalType": "bytes32[]",
          "name": "dataKeys",
          "type": "bytes32[]"
        },
        {
          "internalType": "bytes[]",
          "name": "dataValues",
          "type": "bytes[]"
        }
      ],
      "name": "setDataBatchForTokenIds",
      "outputs": [],
      "stateMutability": "nonpayable",
      "type": "function"
    },
    {
      "inputs": [
        {
          "internalType": "bytes32",
          "name": "tokenId",
          "type": "bytes32"
        },
        {
          "internalType": "bytes32",
          "name": "dataKey",
          "type": "bytes32"
        },
        {
          "internalType": "bytes",
          "name": "dataValue",
          "type": "bytes"
        }
      ],
      "name": "setDataForTokenId",
      "outputs": [],
      "stateMutability": "nonpayable",
      "type": "function"
    },
    {
      "inputs": [
        {
          "internalType": "bytes",
          "name": "metadataURI",
          "type": "bytes"
        }
      ],
      "name": "setLSP4Metadata",
      "outputs": [],
      "stateMutability": "nonpayable",
      "type": "function"
    },
    {
      "inputs": [
        {
          "internalType": "bytes",
          "name": "baseURI",
          "type": "bytes"
        }
      ],
      "name": "setTokenMetadataBaseURI",
      "outputs": [],
      "stateMutability": "nonpayable",
      "type": "function"
    },
    {
      "inputs": [
        {
          "internalType": "bytes4",
          "name": "interfaceId",
          "type": "bytes4"
        }
      ],
      "name": "supportsInterface",
      "outputs": [
        {
          "internalType": "bool",
          "name": "",
          "type": "bool"
        }
      ],
      "stateMutability": "view",
      "type": "function"
    },
    {
      "inputs": [
        {
          "internalType": "address",
          "name": "tokenOwner",
          "type": "address"
        }
      ],
      "name": "tokenIdsOf",
      "outputs": [
        {
          "internalType": "bytes32[]",
          "name": "",
          "type": "bytes32[]"
        }
      ],
      "stateMutability": "view",
      "type": "function"
    },
    {
      "inputs": [
        {
          "internalType": "bytes32",
          "name": "tokenId",
          "type": "bytes32"
        }
      ],
      "name": "tokenOwnerOf",
      "outputs": [
        {
          "internalType": "address",
          "name": "",
          "type": "address"
        }
      ],
      "stateMutability": "view",
      "type": "function"
    },
    {
      "inputs": [],
      "name": "totalSupply",
      "outputs": [
        {
          "internalType": "uint256",
          "name": "",
          "type": "uint256"
        }
      ],
      "stateMutability": "view",
      "type": "function"
    },
    {
      "inputs": [
        {
          "internalType": "address",
          "name": "from",
          "type": "address"
        },
        {
          "internalType": "address",
          "name": "to",
          "type": "address"
        },
        {
          "internalType": "bytes32",
          "name": "tokenId",
          "type": "bytes32"
        },
        {
          "internalType": "bool",
          "name": "force",
          "type": "bool"
        },
        {
          "internalType": "bytes",
          "name": "data",
          "type": "bytes"
        }
      ],
      "name": "transfer",
      "outputs": [],
      "stateMutability": "nonpayable",
      "type": "function"
    },
    {
      "inputs": [
        {
          "internalType": "address[]",
          "name": "from",
          "type": "address[]"
        },
        {
          "internalType": "address[]",
          "name": "to",
          "type": "address[]"
        },
        {
          "internalType": "bytes32[]",
          "name": "tokenId",
          "type": "bytes32[]"
        },
        {
          "internalType": "bool[]",
          "name": "force",
          "type": "bool[]"
        },
        {
          "internalType": "bytes[]",
          "name": "data",
          "type": "bytes[]"
        }
      ],
      "name": "transferBatch",
      "outputs": [],
      "stateMutability": "nonpayable",
      "type": "function"
    },
    {
      "inputs": [
        {
          "internalType": "address",
          "name": "newOwner",
          "type": "address"
        }
      ],
      "name": "transferOwnership",
      "outputs": [],
      "stateMutability": "nonpayable",
      "type": "function"
    },
    {
      "stateMutability": "payable",
      "type": "receive"
    }
  ],
  "bytecode": "0x60806040523480156200001157600080fd5b506040516200385f3803806200385f833981016040819052620000349162000394565b60408051808201825260128152712827a5a9a79021bcb132b9383ab735902b1b60711b60208083019190915282518084019093526005835264504f4b534f60d81b9083015290826001600084848484816001600160a01b038116620000ac576040516306b620db60e21b815260040160405180910390fd5b620000b781620001fa565b506040805180820190915260048152632936598960e21b602082015262000100907feafec4d89fa9619884b60000a4d96624a38f7ac2d8d9a604ecf07c12c77e480c9062000268565b6200012c7fdeba1e292f8ba88238e10ab3c7f88bd4be4fac56cad5194b6ecceaf653468af18562000268565b620001587f2f0a68ab07768e01943a599e73362a0e17a63a72e94dd2e384d2c1d4db9327568462000268565b6040805160208101839052620001a1917fe0261fa95db2eb3b5439bd033cda66d56b96f92f243a8228fd87550ed7bdfdb3910160408051601f1981840301815291905262000268565b50506040805160208101859052620001ee93507ff675e9361af1c1664c1868cfa3eb97672d6b1a513aa5b81dec34c9ee330e818d92500160408051601f19818403018152919052620002c1565b50505050505062000587565b6000546001600160a01b038281169116146200026557600080546040516001600160a01b03808516939216917f8be0079c531659141344cd1fd0a4f28419497f9722a3daafe3b4186f6b6457e091a3600080546001600160a01b0319166001600160a01b0383161790555b50565b60008281526001602052604090206200028282826200046b565b50817fece574603820d07bc9b91f2a932baadf4628aabcb8afba49776529c14a6104b282604051620002b5919062000537565b60405180910390a25050565b620002cd8282620002d1565b5050565b7f2145e1d6d074577dc71ef54c3807742b41b053a9352ae6b491331509acb9750f820162000312576040516385c169bd60e01b815260040160405180910390fd5b7fd0f59754f88971fe6bc5a6618cc9d5f1e859c58d16b22d1c7b2d3e2b246cd8aa82016200035357604051630eceab6760e31b815260040160405180910390fd5b7f1fd9e056a24d14c4abc642fcc325992a946906d0dbc57dd70278aaf12842024d82016200026857604051634ef6d7fb60e01b815260040160405180910390fd5b600060208284031215620003a757600080fd5b81516001600160a01b0381168114620003bf57600080fd5b9392505050565b634e487b7160e01b600052604160045260246000fd5b600181811c90821680620003f157607f821691505b6020821081036200041257634e487b7160e01b600052602260045260246000fd5b50919050565b601f8211156200046657600081815260208120601f850160051c81016020861015620004415750805b601f850160051c820191505b8181101562000462578281556001016200044d565b5050505b505050565b81516001600160401b03811115620004875762000487620003c6565b6200049f81620004988454620003dc565b8462000418565b602080601f831160018114620004d75760008415620004be5750858301515b600019600386901b1c1916600185901b17855562000462565b600085815260208120601f198616915b828110156200050857888601518255948401946001909101908401620004e7565b5085821015620005275787850151600019600388901b60f8161c191681555b5050505050600190811b01905550565b600060208083528351808285015260005b81811015620005665785810183015185820160400152820162000548565b506000604082860101526040601f19601f8301168501019250505092915050565b6132c880620005976000396000f3fe6080604052600436106101db5760003560e01c806370a0823111610102578063a3b261f211610095578063db8c966311610064578063db8c9663146105f7578063dedff9c614610617578063e7e5107014610637578063f2fde38b1461065757610236565b8063a3b261f21461056a578063be9f0e6f14610597578063d6c1407c146105b7578063d7529a99146105d757610236565b80637f23690c116100d15780637f23690c1461050657806386a10ddd146105195780638da5cb5b14610539578063979024211461055757610236565b806370a0823114610491578063715018a6146104b1578063755edd17146104c65780637e87632c146104e657610236565b8063217b22701161017a57806349a6078d1161014957806349a6078d14610404578063511b69521461043157806354f6127f146104515780636963d4381461047157610236565b8063217b2270146103765780632a3654a4146103ae57806332cb6b0c146103ce5780633b9dce05146103e457610236565b8063055f5b64116101b6578063055f5b64146102f257806316e023b31461031457806318160ddd146103345780631d26fce61461034957610236565b80629a9b7b1461027757806301ffc9a7146102a057806304b90591146102d057610236565b36610236573460000361021d5760405163e5099ee360e01b81526004016102149060208082526004908201526000604082015260600190565b60405180910390fd5b6040516330fa4a2160e11b815260040160405180910390fd5b6000366060600482101561026157828260405163e5099ee360e01b815260040161021492919061249a565b61026b8383610677565b80519350602001915050f35b34801561028357600080fd5b5061028d60075481565b6040519081526020015b60405180910390f35b3480156102ac57600080fd5b506102c06102bb3660046124c9565b61076d565b6040519015158152602001610297565b3480156102dc57600080fd5b506102e56107a1565b6040516102979190612543565b3480156102fe57600080fd5b5061031261030d366004612619565b6107d1565b005b34801561032057600080fd5b506102e561032f36600461264d565b610806565b34801561034057600080fd5b5060025461028d565b34801561035557600080fd5b506103696103643660046126f8565b610819565b604051610297919061275b565b34801561038257600080fd5b506103966103913660046127bd565b610900565b6040516001600160a01b039091168152602001610297565b3480156103ba57600080fd5b506102c06103c93660046127f2565b610939565b3480156103da57600080fd5b5061028d6101f481565b3480156103f057600080fd5b506103126103ff36600461281c565b610945565b34801561041057600080fd5b5061042461041f3660046127bd565b610ae9565b6040516102979190612837565b34801561043d57600080fd5b5061031261044c366004612894565b610b0b565b34801561045d57600080fd5b506102e561046c3660046127bd565b610b48565b34801561047d57600080fd5b5061036961048c36600461290c565b610b53565b34801561049d57600080fd5b5061028d6104ac36600461281c565b610c82565b3480156104bd57600080fd5b50610312610ca3565b3480156104d257600080fd5b5061028d6104e136600461281c565b610cb7565b3480156104f257600080fd5b50610312610501366004612ac3565b610d67565b610312610514366004612b87565b610e56565b34801561052557600080fd5b50610312610534366004612bc3565b610e8b565b34801561054557600080fd5b506000546001600160a01b0316610396565b610312610565366004612c19565b611005565b34801561057657600080fd5b5061058a61058536600461281c565b6110c5565b6040516102979190612c72565b3480156105a357600080fd5b506103126105b2366004612caa565b6110e9565b3480156105c357600080fd5b506103126105d2366004612d27565b6111b4565b3480156105e357600080fd5b506103126105f2366004612619565b6111c7565b34801561060357600080fd5b50610312610612366004612d60565b6111f9565b34801561062357600080fd5b50610369610632366004612dc7565b6112dd565b34801561064357600080fd5b506103126106523660046127f2565b611387565b34801561066357600080fd5b5061031261067236600461281c565b611458565b606060006106906000356001600160e01b031916611490565b5090506001600160a01b0381166106c85760405163bb370b2b60e01b81526001600160e01b0319600035166004820152602401610214565b600080826001600160a01b031634878733346040516020016106ed9493929190612dfb565b60408051601f198184030181529082905261070791612e26565b60006040518083038185875af1925050503d8060008114610744576040519150601f19603f3d011682016040523d82523d6000602084013e610749565b606091505b5091509150811561075e579250610767915050565b80518060208301fd5b92915050565b60006001600160e01b03198216631d138b8360e11b148061079257506107928261150e565b80610767575061076782611533565b60606107cc7f1a7628600c3bac7101f53697f48df381ddc36b9015e7d7c9c5633d1252aa284361156a565b905090565b6107d961160c565b6108037f9afb95cacc9f95858ec44aa8c3b685511002e30ae54415823f406128b85b238e82611648565b50565b60606108128383611692565b9392505050565b6060815183511461083d576040516317d38eff60e11b815260040160405180910390fd5b82516001600160401b0381111561085657610856612556565b60405190808252806020026020018201604052801561088957816020015b60608152602001906001900390816108745790505b50905060005b83518110156108f9576108d48482815181106108ad576108ad612e42565b60200260200101518483815181106108c7576108c7612e42565b6020026020010151611692565b8282815181106108e6576108e6612e42565b602090810291909101015260010161088f565b5092915050565b6000818152600360205260408120546001600160a01b03168061076757604051635747cd1b60e11b815260048101849052602401610214565b60006108128383611740565b61094d61160c565b60006109787f114bd03b3a46d48759680d81ebb2b414fda7d030a7105a851867accf1c2352e761156a565b90506000602082511061098c575060208101515b604080517f114bd03b3a46d48759680d81ebb2b414fda7d030a7105a851867accf1c2352e7602080830191909152818301849052825180830384018152606080840190945280519101209185901b6001600160601b0319166080820152610a079082906094015b604051602081830303815290604052611648565b610a757f114bd03b3a46d48759680d81ebb2b414fda7d030a7105a851867accf1c2352e7610a36846001612e6e565b610a41856001612e6e565b604080516fffffffffffffffffffffffffffffffff19608094851b811660208301529290931b9091166030830152016109f3565b60405169036f42f57aecc15a72ed60b51b60208201526001600160601b0319606086901b16602a820152600090603e01604051602081830303815290604052610abd90612e81565b9050610ae281604051806040016040528060018152602001600160f81b815250611648565b5050505050565b6060610af48261177d565b6000828152600560205260409020610767906117b5565b610b153384611740565b610b3b57604051631294d2a960e01b815260048101849052336024820152604401610214565b610ae285858585856117c2565b60606107678261156a565b6060816001600160401b03811115610b6d57610b6d612556565b604051908082528060200260200182016040528015610ba057816020015b6060815260200190600190039081610b8b5790505b50905060005b828110156108f95760008030868685818110610bc457610bc4612e42565b9050602002810190610bd69190612ea5565b604051610be4929190612ef2565b600060405180830381855af49150503d8060008114610c1f576040519150601f19603f3d011682016040523d82523d6000602084013e610c24565b606091505b509150915081610c5a57805115610c3e5780518082602001fd5b60405163234eb81960e01b815260048101849052602401610214565b80848481518110610c6d57610c6d612e42565b60209081029190910101525050600101610ba6565b6001600160a01b0381166000908152600460205260408120610767906119a4565b610cab61160c565b610cb560006119ae565b565b6000610cc161160c565b6101f460075410610d205760405162461bcd60e51b815260206004820152602360248201527f504f4b534f4c5350385075726556363a206d617820737570706c7920726561636044820152621a195960ea1b6064820152608401610214565b60075460001b9050610d448282600160405180602001604052806000815250611a1c565b610d4d81611b8c565b60078054906000610d5d83612f02565b9190505550919050565b8451845181141580610d7a575083518114155b80610d86575082518114155b80610d92575081518114155b15610db0576040516393a8311960e01b815260040160405180910390fd5b60005b81811015610e4d57610e45878281518110610dd057610dd0612e42565b6020026020010151878381518110610dea57610dea612e42565b6020026020010151878481518110610e0457610e04612e42565b6020026020010151878581518110610e1e57610e1e612e42565b6020026020010151878681518110610e3857610e38612e42565b6020026020010151610b0b565b600101610db3565b50505050505050565b610e5e61160c565b3415610e7d5760405163f36ba73760e01b815260040160405180910390fd5b610e878282611648565b5050565b6000610e9683610900565b90506001600160a01b0381163314610ed957604051632d938f5160e11b81526001600160a01b038216600482015260248101849052336044820152606401610214565b6001600160a01b038416610f0057604051639577b8b360e01b815260040160405180910390fd5b836001600160a01b0316816001600160a01b031603610f32576040516344fed6b160e11b815260040160405180910390fd5b6000838152600560205260408120610f4a9086611c20565b905080610f7c576040516314ec4d6d60e31b81526001600160a01b038616600482015260248101859052604401610214565b83826001600160a01b0316866001600160a01b03167f1b1b58aa2ec0cec2228b2d37124556d41f5a1f7b12f089171f896cc23667121586604051610fc09190612543565b60405180910390a460003385600186604051602001610fe29493929190612f1b565b6040516020818303038152906040529050610ffd8682611c35565b505050505050565b61100d61160c565b341561102c5760405163f36ba73760e01b815260040160405180910390fd5b805182511461104e57604051633bcc897960e01b815260040160405180910390fd5b8151600003611070576040516397da5f9560e01b815260040160405180910390fd5b60005b82518110156110c0576110b883828151811061109157611091612e42565b60200260200101518383815181106110ab576110ab612e42565b6020026020010151611648565b600101611073565b505050565b6001600160a01b0381166000908152600460205260409020606090610767906117b5565b6110f161160c565b8151835114158061110457508051825114155b15611122576040516317d38eff60e11b815260040160405180910390fd5b8251600003611144576040516380c9830560e01b815260040160405180910390fd5b60005b83518110156111ae576111a684828151811061116557611165612e42565b602002602001015184838151811061117f5761117f612e42565b602002602001015184848151811061119957611199612e42565b6020026020010151611c60565b600101611147565b50505050565b6111bc61160c565b6110c0838383611c60565b6111cf61160c565b6108037f1a7628600c3bac7101f53697f48df381ddc36b9015e7d7c9c5633d1252aa284382611648565b600061120484610900565b9050336001600160a01b03821614611257576001600160a01b03851633146112575760405163760b5acd60e01b81523360048201526001600160a01b038216602482015260448101859052606401610214565b6001600160a01b03851661127e57604051639577b8b360e01b815260040160405180910390fd5b846001600160a01b0316816001600160a01b0316036112b0576040516344fed6b160e11b815260040160405180910390fd5b6112bd8582868686611cc2565b8215610ae25760008185600085604051602001610fe29493929190612f1b565b606081516001600160401b038111156112f8576112f8612556565b60405190808252806020026020018201604052801561132b57816020015b60608152602001906001900390816113165790505b50905060005b82518110156113815761135c83828151811061134f5761134f612e42565b602002602001015161156a565b82828151811061136e5761136e612e42565b6020908102919091010152600101611331565b50919050565b61138f61160c565b6101f4816007546113a09190612e6e565b11156113f95760405162461bcd60e51b815260206004820152602260248201527f504f4b534f4c5350385075726556363a206e6f7420656e6f75676820737570706044820152616c7960f01b6064820152608401610214565b60005b818110156110c0576007546040805160208101909152600081526114269085908390600190611a1c565b61142f81611b8c565b6007805490600061143f83612f02565b919050555050808061145090612f02565b9150506113fc565b61146061160c565b6001600160a01b038116611487576040516306b620db60e21b815260040160405180910390fd5b610803816119ae565b600080806114b5696773c5a04a6d4300884b60b11b6001600160e01b03198616611d62565b905060006114c28261156a565b905080516014141580156114d65750805115155b156114f657806040516342bfe79f60e01b81526004016102149190612543565b6114ff81612f54565b60601c95600195509350505050565b60006001600160e01b0319821663a918fa6b60e01b1480610767575061076782611db6565b6000806115466301ffc9a760e01b611490565b5090506001600160a01b0381166115605750600092915050565b6108128184611deb565b600081815260016020526040902080546060919061158790612f8b565b80601f01602080910402602001604051908101604052809291908181526020018280546115b390612f8b565b80156116005780601f106115d557610100808354040283529160200191611600565b820191906000526020600020905b8154815290600101906020018083116115e357829003601f168201915b50505050509050919050565b3361161f6000546001600160a01b031690565b6001600160a01b031614610cb55760405163bf1169c560e01b8152336004820152602401610214565b7f098a16c9e50e3e99b3e797305c146898d294e5aec55a47e213cb3611ccf17e73820161168857604051631b32400560e11b815260040160405180910390fd5b610e878282611e74565b600082815260066020908152604080832084845290915290208054606091906116ba90612f8b565b80601f01602080910402602001604051908101604052809291908181526020018280546116e690612f8b565b80156117335780601f1061170857610100808354040283529160200191611733565b820191906000526020600020905b81548152906001019060200180831161171657829003601f168201915b5050505050905092915050565b600061174b82610900565b6001600160a01b0316836001600160a01b03161480610812575060008281526005602052604090206108129084611e7e565b6000818152600360205260409020546001600160a01b031661080357604051635747cd1b60e11b815260048101829052602401610214565b6060600061081283611ea0565b60006117cd84610900565b9050856001600160a01b0316816001600160a01b03161461181b57604051632d938f5160e11b81526001600160a01b0380831660048301526024820186905287166044820152606401610214565b6001600160a01b038516611842576040516324ecef4d60e01b815260040160405180910390fd5b600061184d85610900565b9050806001600160a01b0316826001600160a01b03161461189b57604051635a9c31d360e01b8152600481018690526001600160a01b03808416602483015282166044820152606401610214565b6118a58786611efb565b6001600160a01b03871660009081526004602052604090206118c79086611f53565b506001600160a01b03861660009081526004602052604090206118ea9086611f5f565b506000858152600360205260409081902080546001600160a01b0319166001600160a01b0389811691821790925591518792918a16907fb333c813a7426a7a11e2b190cad52c44119421594b47f6f32ace6d8c7207b2bf906119519033908a908a90612fbf565b60405180910390a460003388888887604051602001611974959493929190612ff4565b604051602081830303815290604052905061198f8882611f6b565b61199a878683611f96565b5050505050505050565b6000610767825490565b6000546001600160a01b0382811691161461080357600080546040516001600160a01b03808516939216917f8be0079c531659141344cd1fd0a4f28419497f9722a3daafe3b4186f6b6457e091a3600080546001600160a01b0383166001600160a01b031990911617905550565b6001600160a01b038416611a43576040516324ecef4d60e01b815260040160405180910390fd5b6000838152600360205260409020546001600160a01b031615611a7c576040516334c7b51160e01b815260048101849052602401610214565b6000838152600360205260409020546001600160a01b031615611ab5576040516334c7b51160e01b815260048101849052602401610214565b600260008154611ac490612f02565b909155506001600160a01b0384166000908152600460205260409020611aea9084611f5f565b5060008381526003602052604080822080546001600160a01b0319166001600160a01b03881690811790915590518592907fb333c813a7426a7a11e2b190cad52c44119421594b47f6f32ace6d8c7207b2bf90611b4c90339088908890612fbf565b60405180910390a46000336000868685604051602001611b70959493929190612ff4565b6040516020818303038152906040529050610ae2858483611f96565b6000611bb77f1a7628600c3bac7101f53697f48df381ddc36b9015e7d7c9c5633d1252aa284361156a565b805190915015610e87576000611bcc8361209e565b905060008282604051602001611be392919061302f565b60408051601f1981840301815291905290506111ae847f9afb95cacc9f95858ec44aa8c3b685511002e30ae54415823f406128b85b238e83611c60565b6000610812836001600160a01b0384166120aa565b610e87827f8a1c15a8799f71b547e08e2bcb2e85257e81b0a07eee2ce6712549eef1f00970836120f9565b60008381526006602090815260408083208584529091529020611c8382826130b4565b5081837fa6e4251f855f750545fe414f120db91c76b88def14d120969e5bb2d3f05debbb83604051611cb59190612543565b60405180910390a3505050565b6000838152600560205260408120611cda9087612146565b905080611d0c576040516312a8c6a360e21b81526001600160a01b038716600482015260248101859052604401610214565b83856001600160a01b0316876001600160a01b03167fc78cd419d6136f9f1c1c6aec1d3fae098cffaf8bc86314a8f2685e32fe574e3c8686604051611d52929190613173565b60405180910390a4505050505050565b604080516001600160b01b0319841660208201526000602a82018190526001600160601b03198416602c83015291829101604051602081830303815290604052905080611dae90612e81565b949350505050565b60006001600160e01b031982166318a6a9a560e21b148061076757506301ffc9a760e01b6001600160e01b0319831614610767565b604080516001600160e01b03198316602480830191909152825180830390910181526044909101909152602080820180516001600160e01b03166301ffc9a760e01b178152825160009392849283928392918391908a617530fa92503d91506000519050828015611e5d575060208210155b8015611e695750600081115b979650505050505050565b610e87828261215b565b6001600160a01b03811660009081526001830160205260408120541515610812565b60608160000180548060200260200160405190810160405280929190818152602001828054801561160057602002820191906000526020600020905b815481526020019060010190808311611edc5750505050509050919050565b600081815260056020526040812090611f13826119a4565b90506000805b82811015610ffd57611f2c846000612270565b9150611f4b828787600060405180602001604052806000815250611cc2565b600101611f19565b6000610812838361227c565b600061081283836120aa565b610e87827fb23eae7e6d1564b295b4c3e3be402d9a2f0776c57bdf365903496f6fa481ab00836120f9565b611fa783631aed5a8560e21b611deb565b1561204157604051631aed5a8560e21b81526001600160a01b03841690636bb56a1490611ffa907f0b084a55ebf70fd3c06fd755269dac2212c4d3f0f4d09079780bfa50c1b2984d90859060040161318e565b6000604051808303816000875af1158015612019573d6000803e3d6000fd5b505050506040513d6000823e601f3d908101601f191682016040526111ae91908101906131a7565b816110c0576001600160a01b0383163b1561207a57604051634349776d60e01b81526001600160a01b0384166004820152602401610214565b604051630317313760e01b81526001600160a01b0384166004820152602401610214565b6060816108128161236f565b60008181526001830160205260408120546120f157508154600181810184556000848152602080822090930184905584548482528286019093526040902091909155610767565b506000610767565b6121136001600160a01b038416631aed5a8560e21b611deb565b156110c057604051631aed5a8560e21b81526001600160a01b03841690636bb56a1490611ffa908590859060040161318e565b6000610812836001600160a01b03841661227c565b7f2145e1d6d074577dc71ef54c3807742b41b053a9352ae6b491331509acb9750f820161219b576040516385c169bd60e01b815260040160405180910390fd5b7fd0f59754f88971fe6bc5a6618cc9d5f1e859c58d16b22d1c7b2d3e2b246cd8aa82016121db57604051630eceab6760e31b815260040160405180910390fd5b7f1fd9e056a24d14c4abc642fcc325992a946906d0dbc57dd70278aaf12842024d820161221b57604051634ef6d7fb60e01b815260040160405180910390fd5b600082815260016020526040902061223382826130b4565b50817fece574603820d07bc9b91f2a932baadf4628aabcb8afba49776529c14a6104b2826040516122649190612543565b60405180910390a25050565b60006108128383612470565b600081815260018301602052604081205480156123655760006122a0600183613214565b85549091506000906122b490600190613214565b90508181146123195760008660000182815481106122d4576122d4612e42565b90600052602060002001549050808760000184815481106122f7576122f7612e42565b6000918252602080832090910192909255918252600188019052604090208390555b855486908061232a5761232a613227565b600190038181906000526020600020016000905590558560010160008681526020019081526020016000206000905560019350505050610767565b6000915050610767565b6060816000036123965750506040805180820190915260018152600360fc1b602082015290565b8160005b81156123c057806123aa81612f02565b91506123b99050600a83613253565b915061239a565b6000816001600160401b038111156123da576123da612556565b6040519080825280601f01601f191660200182016040528015612404576020820181803683370190505b5090505b8415611dae578161241881613267565b92506124279050600a8661327e565b612432906030612e6e565b60f81b81838151811061244757612447612e42565b60200101906001600160f81b031916908160001a905350612469600a86613253565b9450612408565b600082600001828154811061248757612487612e42565b9060005260206000200154905092915050565b60208152816020820152818360408301376000818301604090810191909152601f909201601f19160101919050565b6000602082840312156124db57600080fd5b81356001600160e01b03198116811461081257600080fd5b60005b8381101561250e5781810151838201526020016124f6565b50506000910152565b6000815180845261252f8160208601602086016124f3565b601f01601f19169290920160200192915050565b6020815260006108126020830184612517565b634e487b7160e01b600052604160045260246000fd5b604051601f8201601f191681016001600160401b038111828210171561259457612594612556565b604052919050565b60006001600160401b038211156125b5576125b5612556565b50601f01601f191660200190565b600082601f8301126125d457600080fd5b81356125e76125e28261259c565b61256c565b8181528460208386010111156125fc57600080fd5b816020850160208301376000918101602001919091529392505050565b60006020828403121561262b57600080fd5b81356001600160401b0381111561264157600080fd5b611dae848285016125c3565b6000806040838503121561266057600080fd5b50508035926020909101359150565b60006001600160401b0382111561268857612688612556565b5060051b60200190565b600082601f8301126126a357600080fd5b813560206126b36125e28361266f565b82815260059290921b840181019181810190868411156126d257600080fd5b8286015b848110156126ed57803583529183019183016126d6565b509695505050505050565b6000806040838503121561270b57600080fd5b82356001600160401b038082111561272257600080fd5b61272e86838701612692565b9350602085013591508082111561274457600080fd5b5061275185828601612692565b9150509250929050565b6000602080830181845280855180835260408601915060408160051b870101925083870160005b828110156127b057603f1988860301845261279e858351612517565b94509285019290850190600101612782565b5092979650505050505050565b6000602082840312156127cf57600080fd5b5035919050565b80356001600160a01b03811681146127ed57600080fd5b919050565b6000806040838503121561280557600080fd5b61280e836127d6565b946020939093013593505050565b60006020828403121561282e57600080fd5b610812826127d6565b6020808252825182820181905260009190848201906040850190845b818110156128785783516001600160a01b031683529284019291840191600101612853565b50909695505050505050565b803580151581146127ed57600080fd5b600080600080600060a086880312156128ac57600080fd5b6128b5866127d6565b94506128c3602087016127d6565b9350604086013592506128d860608701612884565b915060808601356001600160401b038111156128f357600080fd5b6128ff888289016125c3565b9150509295509295909350565b6000806020838503121561291f57600080fd5b82356001600160401b038082111561293657600080fd5b818501915085601f83011261294a57600080fd5b81358181111561295957600080fd5b8660208260051b850101111561296e57600080fd5b60209290920196919550909350505050565b600082601f83011261299157600080fd5b813560206129a16125e28361266f565b82815260059290921b840181019181810190868411156129c057600080fd5b8286015b848110156126ed576129d5816127d6565b83529183019183016129c4565b600082601f8301126129f357600080fd5b81356020612a036125e28361266f565b82815260059290921b84018101918181019086841115612a2257600080fd5b8286015b848110156126ed57612a3781612884565b8352918301918301612a26565b600082601f830112612a5557600080fd5b81356020612a656125e28361266f565b82815260059290921b84018101918181019086841115612a8457600080fd5b8286015b848110156126ed5780356001600160401b03811115612aa75760008081fd5b612ab58986838b01016125c3565b845250918301918301612a88565b600080600080600060a08688031215612adb57600080fd5b85356001600160401b0380821115612af257600080fd5b612afe89838a01612980565b96506020880135915080821115612b1457600080fd5b612b2089838a01612980565b95506040880135915080821115612b3657600080fd5b612b4289838a01612692565b94506060880135915080821115612b5857600080fd5b612b6489838a016129e2565b93506080880135915080821115612b7a57600080fd5b506128ff88828901612a44565b60008060408385031215612b9a57600080fd5b8235915060208301356001600160401b03811115612bb757600080fd5b612751858286016125c3565b600080600060608486031215612bd857600080fd5b612be1846127d6565b92506020840135915060408401356001600160401b03811115612c0357600080fd5b612c0f868287016125c3565b9150509250925092565b60008060408385031215612c2c57600080fd5b82356001600160401b0380821115612c4357600080fd5b612c4f86838701612692565b93506020850135915080821115612c6557600080fd5b5061275185828601612a44565b6020808252825182820181905260009190848201906040850190845b8181101561287857835183529284019291840191600101612c8e565b600080600060608486031215612cbf57600080fd5b83356001600160401b0380821115612cd657600080fd5b612ce287838801612692565b94506020860135915080821115612cf857600080fd5b612d0487838801612692565b93506040860135915080821115612d1a57600080fd5b50612c0f86828701612a44565b600080600060608486031215612d3c57600080fd5b833592506020840135915060408401356001600160401b03811115612c0357600080fd5b60008060008060808587031215612d7657600080fd5b612d7f856127d6565b935060208501359250612d9460408601612884565b915060608501356001600160401b03811115612daf57600080fd5b612dbb878288016125c3565b91505092959194509250565b600060208284031215612dd957600080fd5b81356001600160401b03811115612def57600080fd5b611dae84828501612692565b8385823760609290921b6001600160601b031916919092019081526014810191909152603401919050565b60008251612e388184602087016124f3565b9190910192915050565b634e487b7160e01b600052603260045260246000fd5b634e487b7160e01b600052601160045260246000fd5b8082018082111561076757610767612e58565b805160208083015191908110156113815760001960209190910360031b1b16919050565b6000808335601e19843603018112612ebc57600080fd5b8301803591506001600160401b03821115612ed657600080fd5b602001915036819003821315612eeb57600080fd5b9250929050565b8183823760009101908152919050565b600060018201612f1457612f14612e58565b5060010190565b60018060a01b03851681528360208201528215156040820152608060608201526000612f4a6080830184612517565b9695505050505050565b805160208201516001600160601b03198082169291906014831015612f835780818460140360031b1b83161693505b505050919050565b600181811c90821680612f9f57607f821691505b60208210810361138157634e487b7160e01b600052602260045260246000fd5b6001600160a01b03841681528215156020820152606060408201819052600090612feb90830184612517565b95945050505050565b6001600160a01b0386811682528581166020830152841660408201526060810183905260a060808201819052600090611e6990830184612517565b600083516130418184602088016124f3565b8351908301906130558183602088016124f3565b64173539b7b760d91b9101908152600501949350505050565b601f8211156110c057600081815260208120601f850160051c810160208610156130955750805b601f850160051c820191505b81811015610ffd578281556001016130a1565b81516001600160401b038111156130cd576130cd612556565b6130e1816130db8454612f8b565b8461306e565b602080601f83116001811461311657600084156130fe5750858301515b600019600386901b1c1916600185901b178555610ffd565b600085815260208120601f198616915b8281101561314557888601518255948401946001909101908401613126565b50858210156131635787850151600019600388901b60f8161c191681555b5050505050600190811b01905550565b8215158152604060208201526000611dae6040830184612517565b828152604060208201526000611dae6040830184612517565b6000602082840312156131b957600080fd5b81516001600160401b038111156131cf57600080fd5b8201601f810184136131e057600080fd5b80516131ee6125e28261259c565b81815285602083850101111561320357600080fd5b612feb8260208301602086016124f3565b8181038181111561076757610767612e58565b634e487b7160e01b600052603160045260246000fd5b634e487b7160e01b600052601260045260246000fd5b6000826132625761326261323d565b500490565b60008161327657613276612e58565b506000190190565b60008261328d5761328d61323d565b50069056fea2646970667358221220e4d2974d67f5cf2ddd27111fab854cd65416a9e86783ddc3ca36e333867a410764736f6c63430008130033",
  "linkReferences": {},
  "deployedLinkReferences": {}
}