{
  "_format": "hh-sol-artifact-1",
  "contractName": "POKSOMinter",
  "sourceName": "contracts/POKSOMinter.sol",
  "abi": [
    {
      "inputs": [
        {
          "internalType": "address",
          "name": "lsp8Address",
          "type": "address"
        }
      ],
      "stateMutability": "nonpayable",
      "type": "constructor"
    },
    {
      "anonymous": false,
      "inputs": [
        {
          "indexed": true,
          "internalType": "address",
          "name": "minter",
          "type": "address"
        },
        {
          "indexed": false,
          "internalType": "uint256",
          "name": "amount",
          "type": "uint256"
        },
        {
          "indexed": false,
          "internalType": "uint256",
          "name": "totalPrice",
          "type": "uint256"
        }
      ],
      "name": "BatchMint",
      "type": "event"
    },
    {
      "anonymous": false,
      "inputs": [
        {
          "indexed": true,
          "internalType": "address",
          "name": "minter",
          "type": "address"
        },
        {
          "indexed": true,
          "internalType": "bytes32",
          "name": "tokenId",
          "type": "bytes32"
        },
        {
          "indexed": false,
          "internalType": "uint256",
          "name": "price",
          "type": "uint256"
        }
      ],
      "name": "Mint",
      "type": "event"
    },
    {
      "inputs": [],
      "name": "MAX_PER_WALLET",
      "outputs": [
        {
          "internalType": "uint256",
          "name": "",
          "type": "uint256"
        }
      ],
      "stateMutability": "view",
      "type": "function"
    },
    {
      "inputs": [],
      "name": "MINT_PRICE",
      "outputs": [
        {
          "internalType": "uint256",
          "name": "",
          "type": "uint256"
        }
      ],
      "stateMutability": "view",
      "type": "function"
    },
    {
      "inputs": [
        {
          "internalType": "uint256",
          "name": "amount",
          "type": "uint256"
        }
      ],
      "name": "batchMint",
      "outputs": [],
      "stateMutability": "payable",
      "type": "function"
    },
    {
      "inputs": [
        {
          "internalType": "address",
          "name": "wallet",
          "type": "address"
        }
      ],
      "name": "getMintedByWallet",
      "outputs": [
        {
          "internalType": "uint256",
          "name": "",
          "type": "uint256"
        }
      ],
      "stateMutability": "view",
      "type": "function"
    },
    {
      "inputs": [],
      "name": "lsp8",
      "outputs": [
        {
          "internalType": "contract IPOKSOLSP8Pure",
          "name": "",
          "type": "address"
        }
      ],
      "stateMutability": "view",
      "type": "function"
    },
    {
      "inputs": [],
      "name": "mint",
      "outputs": [],
      "stateMutability": "payable",
      "type": "function"
    },
    {
      "inputs": [
        {
          "internalType": "address",
          "name": "",
          "type": "address"
        }
      ],
      "name": "mintedByWallet",
      "outputs": [
        {
          "internalType": "uint256",
          "name": "",
          "type": "uint256"
        }
      ],
      "stateMutability": "view",
      "type": "function"
    },
    {
      "inputs": [],
      "name": "owner",
      "outputs": [
        {
          "internalType": "address",
          "name": "",
          "type": "address"
        }
      ],
      "stateMutability": "view",
      "type": "function"
    },
    {
      "inputs": [],
      "name": "remainingSupply",
      "outputs": [
        {
          "internalType": "uint256",
          "name": "",
          "type": "uint256"
        }
      ],
      "stateMutability": "view",
      "type": "function"
    },
    {
      "inputs": [],
      "name": "withdraw",
      "outputs": [],
      "stateMutability": "nonpayable",
      "type": "function"
    },
    {
      "stateMutability": "payable",
      "type": "receive"
    }
  ],
  "bytecode": "0x608060405234801561001057600080fd5b506040516109f23803806109f283398101604081905261002f9161005d565b600080546001600160a01b039092166001600160a01b0319928316179055600280549091163317905561008d565b60006020828403121561006f57600080fd5b81516001600160a01b038116811461008657600080fd5b9392505050565b6109568061009c6000396000f3fe6080604052600436106100955760003560e01c80638467be0d116100595780638467be0d1461014b5780638da5cb5b1461015e578063c002d23d14610196578063da0239a6146101b2578063f69c00e4146101c757600080fd5b80630d758111146100a15780630f2cdd6c146100e15780631249c58b146100f65780631b1cac04146101005780633ccfd60b1461013657600080fd5b3661009c57005b600080fd5b3480156100ad57600080fd5b506100ce6100bc36600461084c565b60016020526000908152604090205481565b6040519081526020015b60405180910390f35b3480156100ed57600080fd5b506100ce600a81565b6100fe6101e7565b005b34801561010c57600080fd5b506100ce61011b36600461084c565b6001600160a01b031660009081526001602052604090205490565b34801561014257600080fd5b506100fe610466565b6100fe61015936600461087c565b6104e8565b34801561016a57600080fd5b5060025461017e906001600160a01b031681565b6040516001600160a01b0390911681526020016100d8565b3480156101a257600080fd5b506100ce674563918244f4000081565b3480156101be57600080fd5b506100ce6107c4565b3480156101d357600080fd5b5060005461017e906001600160a01b031681565b674563918244f4000034101561023b5760405162461bcd60e51b8152602060048201526014602482015273125b9cdd59999a58da595b9d081c185e5b595b9d60621b60448201526064015b60405180910390fd5b33600090815260016020526040902054600a116102935760405162461bcd60e51b815260206004820152601660248201527513585e081c195c881dd85b1b195d081c995858da195960521b6044820152606401610232565b60005460408051629a9b7b60e01b815290516101f4926001600160a01b031691629a9b7b9160048083019260209291908290030181865afa1580156102dc573d6000803e3d6000fd5b505050506040513d601f19601f820116820180604052508101906103009190610895565b106103425760405162461bcd60e51b815260206004820152601260248201527113585e081cdd5c1c1b1e481c995858da195960721b6044820152606401610232565b6000805460405163755edd1760e01b81523360048201526001600160a01b039091169063755edd17906024016020604051808303816000875af115801561038d573d6000803e3d6000fd5b505050506040513d601f19601f820116820180604052508101906103b19190610895565b3360009081526001602052604081208054929350906103cf836108c4565b9190505550674563918244f4000034111561042457336108fc6103fa674563918244f40000346108dd565b6040518115909202916000818181858888f19350505050158015610422573d6000803e3d6000fd5b505b604051674563918244f400008152819033907f103a2d32aec953695f3b9ec5ed6c1c6cb822debe92cf1fcf0832cb2c262c7eec9060200160405180910390a350565b6002546001600160a01b031633146104ac5760405162461bcd60e51b81526020600482015260096024820152682737ba1037bbb732b960b91b6044820152606401610232565b6002546040516001600160a01b03909116904780156108fc02916000818181858888f193505050501580156104e5573d6000803e3d6000fd5b50565b6000811180156104f95750600a8111155b6105365760405162461bcd60e51b815260206004820152600e60248201526d125b9d985b1a5908185b5bdd5b9d60921b6044820152606401610232565b33600090815260016020526040902054600a906105549083906108f6565b111561059b5760405162461bcd60e51b8152602060048201526016602482015275115e18d959591cc81b585e081c195c881dd85b1b195d60521b6044820152606401610232565b6101f48160008054906101000a90046001600160a01b03166001600160a01b0316629a9b7b6040518163ffffffff1660e01b8152600401602060405180830381865afa1580156105ef573d6000803e3d6000fd5b505050506040513d601f19601f820116820180604052508101906106139190610895565b61061d91906108f6565b111561065f5760405162461bcd60e51b81526020600482015260116024820152704e6f7420656e6f75676820737570706c7960781b6044820152606401610232565b600061067382674563918244f40000610909565b9050803410156106bc5760405162461bcd60e51b8152602060048201526014602482015273125b9cdd59999a58da595b9d081c185e5b595b9d60621b6044820152606401610232565b600054604051630e7e510760e41b8152336004820152602481018490526001600160a01b039091169063e7e5107090604401600060405180830381600087803b15801561070857600080fd5b505af115801561071c573d6000803e3d6000fd5b505033600090815260016020526040812080548694509092506107409084906108f6565b90915550503481101561078557336108fc61075b83346108dd565b6040518115909202916000818181858888f19350505050158015610783573d6000803e3d6000fd5b505b604080518381526020810183905233917f63232c37f2c1fdcb4fc657df1cef6cabc7181c5b604530242590ffe5fa91ab74910160405180910390a25050565b60008060009054906101000a90046001600160a01b03166001600160a01b0316629a9b7b6040518163ffffffff1660e01b8152600401602060405180830381865afa158015610817573d6000803e3d6000fd5b505050506040513d601f19601f8201168201806040525081019061083b9190610895565b610847906101f46108dd565b905090565b60006020828403121561085e57600080fd5b81356001600160a01b038116811461087557600080fd5b9392505050565b60006020828403121561088e57600080fd5b5035919050565b6000602082840312156108a757600080fd5b5051919050565b634e487b7160e01b600052601160045260246000fd5b6000600182016108d6576108d66108ae565b5060010190565b818103818111156108f0576108f06108ae565b92915050565b808201808211156108f0576108f06108ae565b80820281158282048414176108f0576108f06108ae56fea2646970667358221220e58629161c2dab101f9966ec2ef3f7dda3ce4d46f894302074065c786f72914664736f6c63430008130033",
  "linkReferences": {},
  "deployedLinkReferences": {}
}