{
  "_format": "hh-sol-artifact-1",
  "contractName": "POKSOLSP8",
  "sourceName": "contracts/POKSOLSP8.sol",
  "abi": [
    {
      "inputs": [
        {
          "internalType": "string",
          "name": "name_",
          "type": "string"
        },
        {
          "internalType": "string",
          "name": "symbol_",
          "type": "string"
        },
        {
          "internalType": "address",
          "name": "newOwner_",
          "type": "address"
        },
        {
          "internalType": "string",
          "name": "baseURI_",
          "type": "string"
        }
      ],
      "stateMutability": "nonpayable",
      "type": "constructor"
    },
    {
      "anonymous": false,
      "inputs": [
        {
          "indexed": true,
          "internalType": "address",
          "name": "operator",
          "type": "address"
        },
        {
          "indexed": true,
          "internalType": "address",
          "name": "tokenOwner",
          "type": "address"
        },
        {
          "indexed": true,
          "internalType": "bytes32",
          "name": "tokenId",
          "type": "bytes32"
        }
      ],
      "name": "AuthorizedOperator",
      "type": "event"
    },
    {
      "anonymous": false,
      "inputs": [
        {
          "indexed": true,
          "internalType": "address",
          "name": "minter",
          "type": "address"
        },
        {
          "indexed": false,
          "internalType": "uint256",
          "name": "amount",
          "type": "uint256"
        },
        {
          "indexed": false,
          "internalType": "uint256",
          "name": "totalPrice",
          "type": "uint256"
        }
      ],
      "name": "BatchMint",
      "type": "event"
    },
    {
      "anonymous": false,
      "inputs": [
        {
          "indexed": true,
          "internalType": "address",
          "name": "minter",
          "type": "address"
        },
        {
          "indexed": true,
          "internalType": "bytes32",
          "name": "tokenId",
          "type": "bytes32"
        },
        {
          "indexed": false,
          "internalType": "uint256",
          "name": "price",
          "type": "uint256"
        }
      ],
      "name": "Mint",
      "type": "event"
    },
    {
      "anonymous": false,
      "inputs": [
        {
          "indexed": true,
          "internalType": "address",
          "name": "previousOwner",
          "type": "address"
        },
        {
          "indexed": true,
          "internalType": "address",
          "name": "newOwner",
          "type": "address"
        }
      ],
      "name": "OwnershipTransferred",
      "type": "event"
    },
    {
      "anonymous": false,
      "inputs": [
        {
          "indexed": true,
          "internalType": "address",
          "name": "operator",
          "type": "address"
        },
        {
          "indexed": true,
          "internalType": "address",
          "name": "tokenOwner",
          "type": "address"
        },
        {
          "indexed": true,
          "internalType": "bytes32",
          "name": "tokenId",
          "type": "bytes32"
        }
      ],
      "name": "RevokedOperator",
      "type": "event"
    },
    {
      "anonymous": false,
      "inputs": [
        {
          "indexed": true,
          "internalType": "address",
          "name": "operator",
          "type": "address"
        },
        {
          "indexed": true,
          "internalType": "address",
          "name": "from",
          "type": "address"
        },
        {
          "indexed": true,
          "internalType": "address",
          "name": "to",
          "type": "address"
        },
        {
          "indexed": false,
          "internalType": "bytes32",
          "name": "tokenId",
          "type": "bytes32"
        },
        {
          "indexed": false,
          "internalType": "bool",
          "name": "force",
          "type": "bool"
        },
        {
          "indexed": false,
          "internalType": "bytes",
          "name": "data",
          "type": "bytes"
        }
      ],
      "name": "Transfer",
      "type": "event"
    },
    {
      "anonymous": false,
      "inputs": [
        {
          "indexed": true,
          "internalType": "address",
          "name": "owner",
          "type": "address"
        },
        {
          "indexed": false,
          "internalType": "uint256",
          "name": "amount",
          "type": "uint256"
        }
      ],
      "name": "Withdrawal",
      "type": "event"
    },
    {
      "inputs": [],
      "name": "MAX_PER_WALLET",
      "outputs": [
        {
          "internalType": "uint256",
          "name": "",
          "type": "uint256"
        }
      ],
      "stateMutability": "view",
      "type": "function"
    },
    {
      "inputs": [],
      "name": "MINT_PRICE",
      "outputs": [
        {
          "internalType": "uint256",
          "name": "",
          "type": "uint256"
        }
      ],
      "stateMutability": "view",
      "type": "function"
    },
    {
      "inputs": [],
      "name": "TOTAL_SUPPLY",
      "outputs": [
        {
          "internalType": "uint256",
          "name": "",
          "type": "uint256"
        }
      ],
      "stateMutability": "view",
      "type": "function"
    },
    {
      "inputs": [
        {
          "internalType": "address",
          "name": "owner_",
          "type": "address"
        }
      ],
      "name": "balanceOf",
      "outputs": [
        {
          "internalType": "uint256",
          "name": "",
          "type": "uint256"
        }
      ],
      "stateMutability": "view",
      "type": "function"
    },
    {
      "inputs": [
        {
          "internalType": "uint256",
          "name": "amount",
          "type": "uint256"
        }
      ],
      "name": "batchMint",
      "outputs": [],
      "stateMutability": "payable",
      "type": "function"
    },
    {
      "inputs": [],
      "name": "currentTokenId",
      "outputs": [
        {
          "internalType": "uint256",
          "name": "",
          "type": "uint256"
        }
      ],
      "stateMutability": "view",
      "type": "function"
    },
    {
      "inputs": [],
      "name": "getBaseURI",
      "outputs": [
        {
          "internalType": "string",
          "name": "",
          "type": "string"
        }
      ],
      "stateMutability": "view",
      "type": "function"
    },
    {
      "inputs": [],
      "name": "getContractInfo",
      "outputs": [
        {
          "internalType": "uint256",
          "name": "_mintPrice",
          "type": "uint256"
        },
        {
          "internalType": "uint256",
          "name": "_maxPerWallet",
          "type": "uint256"
        },
        {
          "internalType": "uint256",
          "name": "_totalSupply",
          "type": "uint256"
        },
        {
          "internalType": "uint256",
          "name": "_mintedCount",
          "type": "uint256"
        },
        {
          "internalType": "uint256",
          "name": "_availableSupply",
          "type": "uint256"
        }
      ],
      "stateMutability": "view",
      "type": "function"
    },
    {
      "inputs": [
        {
          "internalType": "address",
          "name": "tokenOwner_",
          "type": "address"
        }
      ],
      "name": "getTokensOwned",
      "outputs": [
        {
          "internalType": "uint256[]",
          "name": "",
          "type": "uint256[]"
        }
      ],
      "stateMutability": "view",
      "type": "function"
    },
    {
      "inputs": [
        {
          "internalType": "address",
          "name": "owner_",
          "type": "address"
        },
        {
          "internalType": "uint256",
          "name": "tokenId",
          "type": "uint256"
        }
      ],
      "name": "isOwnerOf",
      "outputs": [
        {
          "internalType": "bool",
          "name": "",
          "type": "bool"
        }
      ],
      "stateMutability": "view",
      "type": "function"
    },
    {
      "inputs": [],
      "name": "maxPerWallet",
      "outputs": [
        {
          "internalType": "uint256",
          "name": "",
          "type": "uint256"
        }
      ],
      "stateMutability": "pure",
      "type": "function"
    },
    {
      "inputs": [
        {
          "internalType": "uint256",
          "name": "tokenId",
          "type": "uint256"
        }
      ],
      "name": "mint",
      "outputs": [],
      "stateMutability": "payable",
      "type": "function"
    },
    {
      "inputs": [],
      "name": "mintPrice",
      "outputs": [
        {
          "internalType": "uint256",
          "name": "",
          "type": "uint256"
        }
      ],
      "stateMutability": "pure",
      "type": "function"
    },
    {
      "inputs": [
        {
          "internalType": "address",
          "name": "",
          "type": "address"
        }
      ],
      "name": "mintedByWallet",
      "outputs": [
        {
          "internalType": "uint256",
          "name": "",
          "type": "uint256"
        }
      ],
      "stateMutability": "view",
      "type": "function"
    },
    {
      "inputs": [],
      "name": "mintedCount",
      "outputs": [
        {
          "internalType": "uint256",
          "name": "",
          "type": "uint256"
        }
      ],
      "stateMutability": "view",
      "type": "function"
    },
    {
      "inputs": [],
      "name": "name",
      "outputs": [
        {
          "internalType": "string",
          "name": "",
          "type": "string"
        }
      ],
      "stateMutability": "view",
      "type": "function"
    },
    {
      "inputs": [
        {
          "internalType": "uint256",
          "name": "",
          "type": "uint256"
        }
      ],
      "name": "ownedTokenIndex",
      "outputs": [
        {
          "internalType": "uint256",
          "name": "",
          "type": "uint256"
        }
      ],
      "stateMutability": "view",
      "type": "function"
    },
    {
      "inputs": [
        {
          "internalType": "address",
          "name": "",
          "type": "address"
        },
        {
          "internalType": "uint256",
          "name": "",
          "type": "uint256"
        }
      ],
      "name": "ownedTokens",
      "outputs": [
        {
          "internalType": "uint256",
          "name": "",
          "type": "uint256"
        }
      ],
      "stateMutability": "view",
      "type": "function"
    },
    {
      "inputs": [],
      "name": "owner",
      "outputs": [
        {
          "internalType": "address",
          "name": "",
          "type": "address"
        }
      ],
      "stateMutability": "view",
      "type": "function"
    },
    {
      "inputs": [],
      "name": "renounceOwnership",
      "outputs": [],
      "stateMutability": "nonpayable",
      "type": "function"
    },
    {
      "inputs": [
        {
          "internalType": "string",
          "name": "newBaseURI",
          "type": "string"
        }
      ],
      "name": "setBaseURI",
      "outputs": [],
      "stateMutability": "nonpayable",
      "type": "function"
    },
    {
      "inputs": [],
      "name": "symbol",
      "outputs": [
        {
          "internalType": "string",
          "name": "",
          "type": "string"
        }
      ],
      "stateMutability": "view",
      "type": "function"
    },
    {
      "inputs": [
        {
          "internalType": "uint256",
          "name": "",
          "type": "uint256"
        }
      ],
      "name": "tokenExists",
      "outputs": [
        {
          "internalType": "bool",
          "name": "",
          "type": "bool"
        }
      ],
      "stateMutability": "view",
      "type": "function"
    },
    {
      "inputs": [
        {
          "internalType": "address",
          "name": "owner_",
          "type": "address"
        }
      ],
      "name": "tokenIdsOf",
      "outputs": [
        {
          "internalType": "uint256[]",
          "name": "",
          "type": "uint256[]"
        }
      ],
      "stateMutability": "view",
      "type": "function"
    },
    {
      "inputs": [
        {
          "internalType": "uint256",
          "name": "",
          "type": "uint256"
        }
      ],
      "name": "tokenOwner",
      "outputs": [
        {
          "internalType": "address",
          "name": "",
          "type": "address"
        }
      ],
      "stateMutability": "view",
      "type": "function"
    },
    {
      "inputs": [
        {
          "internalType": "uint256",
          "name": "tokenId",
          "type": "uint256"
        }
      ],
      "name": "tokenOwnerOf",
      "outputs": [
        {
          "internalType": "address",
          "name": "",
          "type": "address"
        }
      ],
      "stateMutability": "view",
      "type": "function"
    },
    {
      "inputs": [
        {
          "internalType": "uint256",
          "name": "tokenId",
          "type": "uint256"
        }
      ],
      "name": "tokenURI",
      "outputs": [
        {
          "internalType": "string",
          "name": "",
          "type": "string"
        }
      ],
      "stateMutability": "view",
      "type": "function"
    },
    {
      "inputs": [],
      "name": "totalSupply",
      "outputs": [
        {
          "internalType": "uint256",
          "name": "",
          "type": "uint256"
        }
      ],
      "stateMutability": "pure",
      "type": "function"
    },
    {
      "inputs": [
        {
          "internalType": "address",
          "name": "newOwner",
          "type": "address"
        }
      ],
      "name": "transferOwnership",
      "outputs": [],
      "stateMutability": "nonpayable",
      "type": "function"
    },
    {
      "inputs": [],
      "name": "withdraw",
      "outputs": [],
      "stateMutability": "nonpayable",
      "type": "function"
    },
    {
      "stateMutability": "payable",
      "type": "receive"
    }
  ],
  "bytecode": "0x60806040523480156200001157600080fd5b5060405162001d3c38038062001d3c83398101604081905262000034916200028c565b6200003f3362000096565b600180556002620000518582620003ce565b506003620000608482620003ce565b50600a6200006f8282620003ce565b506001600160a01b03821633146200008c576200008c82620000e6565b505050506200049a565b600080546001600160a01b038381166001600160a01b0319831681178455604051919092169283917f8be0079c531659141344cd1fd0a4f28419497f9722a3daafe3b4186f6b6457e09190a35050565b620000f062000169565b6001600160a01b0381166200015b5760405162461bcd60e51b815260206004820152602660248201527f4f776e61626c653a206e6577206f776e657220697320746865207a65726f206160448201526564647265737360d01b60648201526084015b60405180910390fd5b620001668162000096565b50565b6000546001600160a01b03163314620001c55760405162461bcd60e51b815260206004820181905260248201527f4f776e61626c653a2063616c6c6572206973206e6f7420746865206f776e6572604482015260640162000152565b565b634e487b7160e01b600052604160045260246000fd5b600082601f830112620001ef57600080fd5b81516001600160401b03808211156200020c576200020c620001c7565b604051601f8301601f19908116603f01168101908282118183101715620002375762000237620001c7565b816040528381526020925086838588010111156200025457600080fd5b600091505b8382101562000278578582018301518183018401529082019062000259565b600093810190920192909252949350505050565b60008060008060808587031215620002a357600080fd5b84516001600160401b0380821115620002bb57600080fd5b620002c988838901620001dd565b95506020870151915080821115620002e057600080fd5b620002ee88838901620001dd565b604088015190955091506001600160a01b03821682146200030e57600080fd5b6060870151919350808211156200032457600080fd5b506200033387828801620001dd565b91505092959194509250565b600181811c908216806200035457607f821691505b6020821081036200037557634e487b7160e01b600052602260045260246000fd5b50919050565b601f821115620003c957600081815260208120601f850160051c81016020861015620003a45750805b601f850160051c820191505b81811015620003c557828155600101620003b0565b5050505b505050565b81516001600160401b03811115620003ea57620003ea620001c7565b6200040281620003fb84546200033f565b846200037b565b602080601f8311600181146200043a5760008415620004215750858301515b600019600386901b1c1916600185901b178555620003c5565b600085815260208120601f198616915b828110156200046b578886015182559484019460019091019084016200044a565b50858210156200048a5787850151600019600388901b60f8161c191681555b5050505050600190811b01905550565b61189280620004aa6000396000f3fe6080604052600436106101cf5760003560e01c80637d6c2195116100f7578063a3b261f211610095578063cf721b1511610064578063cf721b1514610553578063d0048764146104ca578063e149f03614610568578063f2fde38b1461058857600080fd5b8063a3b261f2146104ca578063c002d23d146104f7578063c5b8f77214610513578063c87b56dd1461053357600080fd5b80638da5cb5b116100d15780638da5cb5b1461046e578063902d55a51461048c57806395d89b41146104a2578063a0712d68146104b757600080fd5b80637d6c21951461040e5780638467be0d1461043b57806389885a591461044e57600080fd5b80633ccfd60b1161016f57806370a082311161013e57806370a0823114610371578063714c5398146103a7578063715018a6146103bc5780637cc1f867146103d157600080fd5b80633ccfd60b1461030b578063453c23101461032257806355f804b3146103365780636817c76c1461035657600080fd5b80630d758111116101ab5780630d758111146102665780630f2cdd6c1461029357806318160ddd146102a85780631caaa487146102bd57600080fd5b8062923f9e146101db5780629a9b7b1461022057806306fdde031461024457600080fd5b366101d657005b600080fd5b3480156101e757600080fd5b5061020b6101f63660046113c9565b60076020526000908152604090205460ff1681565b60405190151581526020015b60405180910390f35b34801561022c57600080fd5b5061023660045481565b604051908152602001610217565b34801561025057600080fd5b506102596105a8565b6040516102179190611406565b34801561027257600080fd5b50610236610281366004611455565b60056020526000908152604090205481565b34801561029f57600080fd5b50610236600a81565b3480156102b457600080fd5b506101f4610236565b3480156102c957600080fd5b506102f36102d83660046113c9565b6006602052600090815260409020546001600160a01b031681565b6040516001600160a01b039091168152602001610217565b34801561031757600080fd5b50610320610636565b005b34801561032e57600080fd5b50600a610236565b34801561034257600080fd5b50610320610351366004611486565b610797565b34801561036257600080fd5b50674563918244f40000610236565b34801561037d57600080fd5b5061023661038c366004611455565b6001600160a01b031660009081526008602052604090205490565b3480156103b357600080fd5b506102596107af565b3480156103c857600080fd5b50610320610841565b3480156103dd57600080fd5b506103e6610853565b604080519586526020860194909452928401919091526060830152608082015260a001610217565b34801561041a57600080fd5b506102366104293660046113c9565b60096020526000908152604090205481565b6103206104493660046113c9565b61088d565b34801561045a57600080fd5b506102f36104693660046113c9565b610c02565b34801561047a57600080fd5b506000546001600160a01b03166102f3565b34801561049857600080fd5b506102366101f481565b3480156104ae57600080fd5b50610259610c7c565b6103206104c53660046113c9565b610c89565b3480156104d657600080fd5b506104ea6104e5366004611455565b610fd4565b6040516102179190611537565b34801561050357600080fd5b50610236674563918244f4000081565b34801561051f57600080fd5b5061020b61052e36600461157b565b611040565b34801561053f57600080fd5b5061025961054e3660046113c9565b611080565b34801561055f57600080fd5b50600454610236565b34801561057457600080fd5b5061023661058336600461157b565b611113565b34801561059457600080fd5b506103206105a3366004611455565b611144565b600280546105b5906115a5565b80601f01602080910402602001604051908101604052809291908181526020018280546105e1906115a5565b801561062e5780601f106106035761010080835404028352916020019161062e565b820191906000526020600020905b81548152906001019060200180831161061157829003601f168201915b505050505081565b61063e6111ba565b610646611214565b47806106995760405162461bcd60e51b815260206004820152601f60248201527f504f4b534f4c5350383a206e6f2066756e647320746f2077697468647261770060448201526064015b60405180910390fd5b600080546040516001600160a01b039091169083908381818185875af1925050503d80600081146106e6576040519150601f19603f3d011682016040523d82523d6000602084013e6106eb565b606091505b505090508061073c5760405162461bcd60e51b815260206004820152601c60248201527f504f4b534f4c5350383a207769746864726177616c206661696c6564000000006044820152606401610690565b6000546001600160a01b03166001600160a01b03167f7fcf532c15f0a6db0bd6d0e038bea71d30d808c7d98cb3bf7268a95bf5081b658360405161078291815260200190565b60405180910390a2505061079560018055565b565b61079f6111ba565b600a6107ab828261162e565b5050565b6060600a80546107be906115a5565b80601f01602080910402602001604051908101604052809291908181526020018280546107ea906115a5565b80156108375780601f1061080c57610100808354040283529160200191610837565b820191906000526020600020905b81548152906001019060200180831161081a57829003601f168201915b5050505050905090565b6108496111ba565b610795600061126d565b6000806000806000674563918244f40000600a6101f46004546004546101f461087c9190611704565b945094509450945094509091929394565b610895611214565b6000811180156108a65750600a8111155b6108f25760405162461bcd60e51b815260206004820152601960248201527f504f4b534f4c5350383a20696e76616c696420616d6f756e74000000000000006044820152606401610690565b6101f4816004546109039190611717565b11156109515760405162461bcd60e51b815260206004820152601c60248201527f504f4b534f4c5350383a206e6f7420656e6f75676820737570706c79000000006044820152606401610690565b33600090815260056020526040902054600a9061096f908390611717565b11156109c75760405162461bcd60e51b815260206004820152602160248201527f504f4b534f4c5350383a2065786365656473206d6178207065722077616c6c656044820152601d60fa1b6064820152608401610690565b60006109db82674563918244f4000061172a565b905080341015610a2d5760405162461bcd60e51b815260206004820152601f60248201527f504f4b534f4c5350383a20696e73756666696369656e74207061796d656e74006044820152606401610690565b60005b82811015610b555760048054600081815260066020908152604080832080546001600160a01b0319163390811790915560078352818420805460ff19166001908117909155908452600880845282852080548787526009865293862084905590845290820181558352908220018290558254919290610aae83611741565b909155505060408051828152600160208201526060918101829052600091810182905233919082907fb333c813a7426a7a11e2b190cad52c44119421594b47f6f32ace6d8c7207b2bf9060800160405180910390a4604051674563918244f400008152819033907f103a2d32aec953695f3b9ec5ed6c1c6cb822debe92cf1fcf0832cb2c262c7eec9060200160405180910390a35080610b4d81611741565b915050610a30565b503360009081526005602052604081208054849290610b75908490611717565b909155505034811015610bba57336108fc610b908334611704565b6040518115909202916000818181858888f19350505050158015610bb8573d6000803e3d6000fd5b505b604080518381526020810183905233917f63232c37f2c1fdcb4fc657df1cef6cabc7181c5b604530242590ffe5fa91ab74910160405180910390a250610bff60018055565b50565b60008181526007602052604081205460ff16610c605760405162461bcd60e51b815260206004820152601f60248201527f504f4b534f4c5350383a20746f6b656e20646f6573206e6f74206578697374006044820152606401610690565b506000908152600660205260409020546001600160a01b031690565b600380546105b5906115a5565b610c91611214565b674563918244f40000341015610ce95760405162461bcd60e51b815260206004820152601f60248201527f504f4b534f4c5350383a20696e73756666696369656e74207061796d656e74006044820152606401610690565b6101f460045410610d3c5760405162461bcd60e51b815260206004820152601d60248201527f504f4b534f4c5350383a206d617820737570706c7920726561636865640000006044820152606401610690565b33600090815260056020526040902054600a11610da55760405162461bcd60e51b815260206004820152602160248201527f504f4b534f4c5350383a206d6178207065722077616c6c6574207265616368656044820152601960fa1b6064820152608401610690565b60008181526007602052604090205460ff1615610e045760405162461bcd60e51b815260206004820152601f60248201527f504f4b534f4c5350383a20746f6b656e20616c7265616479206d696e746564006044820152606401610690565b6101f48110610e555760405162461bcd60e51b815260206004820152601b60248201527f504f4b534f4c5350383a20696e76616c696420746f6b656e20494400000000006044820152606401610690565b600081815260066020908152604080832080546001600160a01b0319163390811790915560078352818420805460ff19166001908117909155908452600880845282852080548787526009865293862084905590845290820181558352908220018290556004805491610ec783611741565b9091555050336000908152600560205260408120805491610ee783611741565b9190505550674563918244f40000341115610f3c57336108fc610f12674563918244f4000034611704565b6040518115909202916000818181858888f19350505050158015610f3a573d6000803e3d6000fd5b505b60408051828152600160208201526060918101829052600091810182905233919082907fb333c813a7426a7a11e2b190cad52c44119421594b47f6f32ace6d8c7207b2bf9060800160405180910390a4604051674563918244f400008152819033907f103a2d32aec953695f3b9ec5ed6c1c6cb822debe92cf1fcf0832cb2c262c7eec9060200160405180910390a3610bff60018055565b6001600160a01b03811660009081526008602090815260409182902080548351818402810184019094528084526060939283018282801561103457602002820191906000526020600020905b815481526020019060010190808311611020575b50505050509050919050565b60008181526007602052604081205460ff16801561107757506000828152600660205260409020546001600160a01b038481169116145b90505b92915050565b60008181526007602052604090205460609060ff166110e15760405162461bcd60e51b815260206004820152601f60248201527f504f4b534f4c5350383a20746f6b656e20646f6573206e6f74206578697374006044820152606401610690565b600a6110ec836112bd565b6040516020016110fd92919061175a565b6040516020818303038152906040529050919050565b6008602052816000526040600020818154811061112f57600080fd5b90600052602060002001600091509150505481565b61114c6111ba565b6001600160a01b0381166111b15760405162461bcd60e51b815260206004820152602660248201527f4f776e61626c653a206e6577206f776e657220697320746865207a65726f206160448201526564647265737360d01b6064820152608401610690565b610bff8161126d565b6000546001600160a01b031633146107955760405162461bcd60e51b815260206004820181905260248201527f4f776e61626c653a2063616c6c6572206973206e6f7420746865206f776e65726044820152606401610690565b6002600154036112665760405162461bcd60e51b815260206004820152601f60248201527f5265656e7472616e637947756172643a207265656e7472616e742063616c6c006044820152606401610690565b6002600155565b600080546001600160a01b038381166001600160a01b0319831681178455604051919092169283917f8be0079c531659141344cd1fd0a4f28419497f9722a3daafe3b4186f6b6457e09190a35050565b6060816000036112e45750506040805180820190915260018152600360fc1b602082015290565b8160005b811561130e57806112f881611741565b91506113079050600a83611807565b91506112e8565b60008167ffffffffffffffff81111561132957611329611470565b6040519080825280601f01601f191660200182016040528015611353576020820181803683370190505b508593509050815b83156113c05761136c600a8561181b565b611377906030611717565b60f81b826113848361182f565b9250828151811061139757611397611846565b60200101906001600160f81b031916908160001a9053506113b9600a85611807565b935061135b565b50949350505050565b6000602082840312156113db57600080fd5b5035919050565b60005b838110156113fd5781810151838201526020016113e5565b50506000910152565b60208152600082518060208401526114258160408501602087016113e2565b601f01601f19169190910160400192915050565b80356001600160a01b038116811461145057600080fd5b919050565b60006020828403121561146757600080fd5b61107782611439565b634e487b7160e01b600052604160045260246000fd5b60006020828403121561149857600080fd5b813567ffffffffffffffff808211156114b057600080fd5b818401915084601f8301126114c457600080fd5b8135818111156114d6576114d6611470565b604051601f8201601f19908116603f011681019083821181831017156114fe576114fe611470565b8160405282815287602084870101111561151757600080fd5b826020860160208301376000928101602001929092525095945050505050565b6020808252825182820181905260009190848201906040850190845b8181101561156f57835183529284019291840191600101611553565b50909695505050505050565b6000806040838503121561158e57600080fd5b61159783611439565b946020939093013593505050565b600181811c908216806115b957607f821691505b6020821081036115d957634e487b7160e01b600052602260045260246000fd5b50919050565b601f82111561162957600081815260208120601f850160051c810160208610156116065750805b601f850160051c820191505b8181101561162557828155600101611612565b5050505b505050565b815167ffffffffffffffff81111561164857611648611470565b61165c8161165684546115a5565b846115df565b602080601f83116001811461169157600084156116795750858301515b600019600386901b1c1916600185901b178555611625565b600085815260208120601f198616915b828110156116c0578886015182559484019460019091019084016116a1565b50858210156116de5787850151600019600388901b60f8161c191681555b5050505050600190811b01905550565b634e487b7160e01b600052601160045260246000fd5b8181038181111561107a5761107a6116ee565b8082018082111561107a5761107a6116ee565b808202811582820484141761107a5761107a6116ee565b600060018201611753576117536116ee565b5060010190565b6000808454611768816115a5565b600182811680156117805760018114611795576117c4565b60ff19841687528215158302870194506117c4565b8860005260208060002060005b858110156117bb5781548a8201529084019082016117a2565b50505082870194505b5050505083516117d88183602088016113e2565b64173539b7b760d91b9101908152600501949350505050565b634e487b7160e01b600052601260045260246000fd5b600082611816576118166117f1565b500490565b60008261182a5761182a6117f1565b500690565b60008161183e5761183e6116ee565b506000190190565b634e487b7160e01b600052603260045260246000fdfea2646970667358221220a0cd013b16dc71c4ad57ca2c78ac0349c58337c9b65939b2c3d46d8c326489ec64736f6c63430008130033",
  "linkReferences": {},
  "deployedLinkReferences": {}
}